{
  "_format": "hh-sol-artifact-1",
  "contractName": "Solythis",
  "sourceName": "contracts/Solythis.sol",
  "abi": [
    {
      "inputs": [
        {
          "internalType": "address",
          "name": "initialOwner",
          "type": "address"
        },
        {
          "internalType": "address",
          "name": "_treasury",
          "type": "address"
        }
      ],
      "stateMutability": "nonpayable",
      "type": "constructor"
    },
    {
      "inputs": [
        {
          "internalType": "address",
          "name": "spender",
          "type": "address"
        },
        {
          "internalType": "uint256",
          "name": "allowance",
          "type": "uint256"
        },
        {
          "internalType": "uint256",
          "name": "needed",
          "type": "uint256"
        }
      ],
      "name": "ERC20InsufficientAllowance",
      "type": "error"
    },
    {
      "inputs": [
        {
          "internalType": "address",
          "name": "sender",
          "type": "address"
        },
        {
          "internalType": "uint256",
          "name": "balance",
          "type": "uint256"
        },
        {
          "internalType": "uint256",
          "name": "needed",
          "type": "uint256"
        }
      ],
      "name": "ERC20InsufficientBalance",
      "type": "error"
    },
    {
      "inputs": [
        {
          "internalType": "address",
          "name": "approver",
          "type": "address"
        }
      ],
      "name": "ERC20InvalidApprover",
      "type": "error"
    },
    {
      "inputs": [
        {
          "internalType": "address",
          "name": "receiver",
          "type": "address"
        }
      ],
      "name": "ERC20InvalidReceiver",
      "type": "error"
    },
    {
      "inputs": [
        {
          "internalType": "address",
          "name": "sender",
          "type": "address"
        }
      ],
      "name": "ERC20InvalidSender",
      "type": "error"
    },
    {
      "inputs": [
        {
          "internalType": "address",
          "name": "spender",
          "type": "address"
        }
      ],
      "name": "ERC20InvalidSpender",
      "type": "error"
    },
    {
      "inputs": [],
      "name": "EnforcedPause",
      "type": "error"
    },
    {
      "inputs": [],
      "name": "ExpectedPause",
      "type": "error"
    },
    {
      "inputs": [],
      "name": "InvalidShortString",
      "type": "error"
    },
    {
      "inputs": [
        {
          "internalType": "address",
          "name": "owner",
          "type": "address"
        }
      ],
      "name": "OwnableInvalidOwner",
      "type": "error"
    },
    {
      "inputs": [
        {
          "internalType": "address",
          "name": "account",
          "type": "address"
        }
      ],
      "name": "OwnableUnauthorizedAccount",
      "type": "error"
    },
    {
      "inputs": [],
      "name": "ReentrancyGuardReentrantCall",
      "type": "error"
    },
    {
      "inputs": [
        {
          "internalType": "string",
          "name": "str",
          "type": "string"
        }
      ],
      "name": "StringTooLong",
      "type": "error"
    },
    {
      "anonymous": false,
      "inputs": [
        {
          "indexed": true,
          "internalType": "address",
          "name": "owner",
          "type": "address"
        },
        {
          "indexed": true,
          "internalType": "address",
          "name": "spender",
          "type": "address"
        },
        {
          "indexed": false,
          "internalType": "uint256",
          "name": "value",
          "type": "uint256"
        }
      ],
      "name": "Approval",
      "type": "event"
    },
    {
      "anonymous": false,
      "inputs": [],
      "name": "EIP712DomainChanged",
      "type": "event"
    },
    {
      "anonymous": false,
      "inputs": [
        {
          "indexed": true,
          "internalType": "address",
          "name": "recipient",
          "type": "address"
        },
        {
          "indexed": false,
          "internalType": "uint256",
          "name": "amount",
          "type": "uint256"
        }
      ],
      "name": "FundsApproved",
      "type": "event"
    },
    {
      "anonymous": false,
      "inputs": [
        {
          "indexed": true,
          "internalType": "address",
          "name": "previousOwner",
          "type": "address"
        },
        {
          "indexed": true,
          "internalType": "address",
          "name": "newOwner",
          "type": "address"
        }
      ],
      "name": "OwnershipTransferred",
      "type": "event"
    },
    {
      "anonymous": false,
      "inputs": [
        {
          "indexed": false,
          "internalType": "address",
          "name": "account",
          "type": "address"
        }
      ],
      "name": "Paused",
      "type": "event"
    },
    {
      "anonymous": false,
      "inputs": [
        {
          "indexed": false,
          "internalType": "uint256",
          "name": "proposalId",
          "type": "uint256"
        },
        {
          "indexed": false,
          "internalType": "string",
          "name": "description",
          "type": "string"
        },
        {
          "indexed": false,
          "internalType": "address",
          "name": "proposer",
          "type": "address"
        }
      ],
      "name": "ProposalCreated",
      "type": "event"
    },
    {
      "anonymous": false,
      "inputs": [
        {
          "indexed": false,
          "internalType": "uint256",
          "name": "proposalId",
          "type": "uint256"
        }
      ],
      "name": "ProposalExecuted",
      "type": "event"
    },
    {
      "anonymous": false,
      "inputs": [
        {
          "indexed": true,
          "internalType": "address",
          "name": "user",
          "type": "address"
        }
      ],
      "name": "RemovedFromWhitelist",
      "type": "event"
    },
    {
      "anonymous": false,
      "inputs": [
        {
          "indexed": true,
          "internalType": "address",
          "name": "user",
          "type": "address"
        },
        {
          "indexed": false,
          "internalType": "uint256",
          "name": "amount",
          "type": "uint256"
        }
      ],
      "name": "Staked",
      "type": "event"
    },
    {
      "anonymous": false,
      "inputs": [
        {
          "indexed": false,
          "internalType": "uint256",
          "name": "newRewardRate",
          "type": "uint256"
        }
      ],
      "name": "StakingRewardUpdated",
      "type": "event"
    },
    {
      "anonymous": false,
      "inputs": [
        {
          "indexed": true,
          "internalType": "address",
          "name": "from",
          "type": "address"
        },
        {
          "indexed": true,
          "internalType": "address",
          "name": "to",
          "type": "address"
        },
        {
          "indexed": false,
          "internalType": "uint256",
          "name": "value",
          "type": "uint256"
        }
      ],
      "name": "Transfer",
      "type": "event"
    },
    {
      "anonymous": false,
      "inputs": [
        {
          "indexed": false,
          "internalType": "address",
          "name": "account",
          "type": "address"
        }
      ],
      "name": "Unpaused",
      "type": "event"
    },
    {
      "anonymous": false,
      "inputs": [
        {
          "indexed": true,
          "internalType": "address",
          "name": "user",
          "type": "address"
        },
        {
          "indexed": false,
          "internalType": "uint256",
          "name": "amount",
          "type": "uint256"
        }
      ],
      "name": "Unstaked",
      "type": "event"
    },
    {
      "anonymous": false,
      "inputs": [
        {
          "indexed": false,
          "internalType": "uint256",
          "name": "proposalId",
          "type": "uint256"
        },
        {
          "indexed": false,
          "internalType": "address",
          "name": "voter",
          "type": "address"
        },
        {
          "indexed": false,
          "internalType": "bool",
          "name": "vote",
          "type": "bool"
        }
      ],
      "name": "Voted",
      "type": "event"
    },
    {
      "anonymous": false,
      "inputs": [
        {
          "indexed": true,
          "internalType": "address",
          "name": "user",
          "type": "address"
        }
      ],
      "name": "Whitelisted",
      "type": "event"
    },
    {
      "inputs": [
        {
          "internalType": "address",
          "name": "user",
          "type": "address"
        }
      ],
      "name": "addWhitelisted",
      "outputs": [],
      "stateMutability": "nonpayable",
      "type": "function"
    },
    {
      "inputs": [
        {
          "internalType": "address",
          "name": "owner",
          "type": "address"
        },
        {
          "internalType": "address",
          "name": "spender",
          "type": "address"
        }
      ],
      "name": "allowance",
      "outputs": [
        {
          "internalType": "uint256",
          "name": "",
          "type": "uint256"
        }
      ],
      "stateMutability": "view",
      "type": "function"
    },
    {
      "inputs": [
        {
          "internalType": "address",
          "name": "spender",
          "type": "address"
        },
        {
          "internalType": "uint256",
          "name": "value",
          "type": "uint256"
        }
      ],
      "name": "approve",
      "outputs": [
        {
          "internalType": "bool",
          "name": "",
          "type": "bool"
        }
      ],
      "stateMutability": "nonpayable",
      "type": "function"
    },
    {
      "inputs": [
        {
          "internalType": "address",
          "name": "account",
          "type": "address"
        }
      ],
      "name": "balanceOf",
      "outputs": [
        {
          "internalType": "uint256",
          "name": "",
          "type": "uint256"
        }
      ],
      "stateMutability": "view",
      "type": "function"
    },
    {
      "inputs": [],
      "name": "claimStakingRewards",
      "outputs": [],
      "stateMutability": "nonpayable",
      "type": "function"
    },
    {
      "inputs": [
        {
          "internalType": "string",
          "name": "description",
          "type": "string"
        },
        {
          "internalType": "address",
          "name": "targetContract",
          "type": "address"
        },
        {
          "internalType": "bytes",
          "name": "data",
          "type": "bytes"
        }
      ],
      "name": "createProposal",
      "outputs": [],
      "stateMutability": "nonpayable",
      "type": "function"
    },
    {
      "inputs": [],
      "name": "decimals",
      "outputs": [
        {
          "internalType": "uint8",
          "name": "",
          "type": "uint8"
        }
      ],
      "stateMutability": "view",
      "type": "function"
    },
    {
      "inputs": [],
      "name": "eip712Domain",
      "outputs": [
        {
          "internalType": "bytes1",
          "name": "fields",
          "type": "bytes1"
        },
        {
          "internalType": "string",
          "name": "name",
          "type": "string"
        },
        {
          "internalType": "string",
          "name": "version",
          "type": "string"
        },
        {
          "internalType": "uint256",
          "name": "chainId",
          "type": "uint256"
        },
        {
          "internalType": "address",
          "name": "verifyingContract",
          "type": "address"
        },
        {
          "internalType": "bytes32",
          "name": "salt",
          "type": "bytes32"
        },
        {
          "internalType": "uint256[]",
          "name": "extensions",
          "type": "uint256[]"
        }
      ],
      "stateMutability": "view",
      "type": "function"
    },
    {
      "inputs": [
        {
          "internalType": "uint256",
          "name": "proposalId",
          "type": "uint256"
        }
      ],
      "name": "executeProposal",
      "outputs": [],
      "stateMutability": "nonpayable",
      "type": "function"
    },
    {
      "inputs": [
        {
          "internalType": "uint256",
          "name": "proposalId",
          "type": "uint256"
        },
        {
          "internalType": "address",
          "name": "recipient",
          "type": "address"
        },
        {
          "internalType": "uint256",
          "name": "amount",
          "type": "uint256"
        }
      ],
      "name": "executeTreasuryTransaction",
      "outputs": [],
      "stateMutability": "nonpayable",
      "type": "function"
    },
    {
      "inputs": [
        {
          "internalType": "uint256",
          "name": "proposalId",
          "type": "uint256"
        }
      ],
      "name": "finalizeProposal",
      "outputs": [],
      "stateMutability": "nonpayable",
      "type": "function"
    },
    {
      "inputs": [
        {
          "internalType": "uint256",
          "name": "",
          "type": "uint256"
        },
        {
          "internalType": "address",
          "name": "",
          "type": "address"
        }
      ],
      "name": "hasVoted",
      "outputs": [
        {
          "internalType": "bool",
          "name": "",
          "type": "bool"
        }
      ],
      "stateMutability": "view",
      "type": "function"
    },
    {
      "inputs": [
        {
          "internalType": "address",
          "name": "",
          "type": "address"
        }
      ],
      "name": "isWhitelisted",
      "outputs": [
        {
          "internalType": "bool",
          "name": "",
          "type": "bool"
        }
      ],
      "stateMutability": "view",
      "type": "function"
    },
    {
      "inputs": [],
      "name": "name",
      "outputs": [
        {
          "internalType": "string",
          "name": "",
          "type": "string"
        }
      ],
      "stateMutability": "view",
      "type": "function"
    },
    {
      "inputs": [],
      "name": "owner",
      "outputs": [
        {
          "internalType": "address",
          "name": "",
          "type": "address"
        }
      ],
      "stateMutability": "view",
      "type": "function"
    },
    {
      "inputs": [],
      "name": "pause",
      "outputs": [],
      "stateMutability": "nonpayable",
      "type": "function"
    },
    {
      "inputs": [],
      "name": "paused",
      "outputs": [
        {
          "internalType": "bool",
          "name": "",
          "type": "bool"
        }
      ],
      "stateMutability": "view",
      "type": "function"
    },
    {
      "inputs": [
        {
          "internalType": "uint256",
          "name": "",
          "type": "uint256"
        }
      ],
      "name": "proposals",
      "outputs": [
        {
          "internalType": "uint256",
          "name": "id",
          "type": "uint256"
        },
        {
          "internalType": "string",
          "name": "description",
          "type": "string"
        },
        {
          "internalType": "uint256",
          "name": "votesFor",
          "type": "uint256"
        },
        {
          "internalType": "uint256",
          "name": "votesAgainst",
          "type": "uint256"
        },
        {
          "internalType": "bool",
          "name": "executed",
          "type": "bool"
        },
        {
          "internalType": "uint256",
          "name": "executionTime",
          "type": "uint256"
        },
        {
          "internalType": "address",
          "name": "proposer",
          "type": "address"
        },
        {
          "internalType": "address",
          "name": "targetContract",
          "type": "address"
        },
        {
          "internalType": "bytes",
          "name": "data",
          "type": "bytes"
        }
      ],
      "stateMutability": "view",
      "type": "function"
    },
    {
      "inputs": [
        {
          "internalType": "address",
          "name": "user",
          "type": "address"
        }
      ],
      "name": "removeWhitelisted",
      "outputs": [],
      "stateMutability": "nonpayable",
      "type": "function"
    },
    {
      "inputs": [],
      "name": "renounceOwnership",
      "outputs": [],
      "stateMutability": "nonpayable",
      "type": "function"
    },
    {
      "inputs": [
        {
          "internalType": "uint256",
          "name": "newRate",
          "type": "uint256"
        }
      ],
      "name": "setStakingRewardRate",
      "outputs": [],
      "stateMutability": "nonpayable",
      "type": "function"
    },
    {
      "inputs": [
        {
          "internalType": "uint256",
          "name": "amount",
          "type": "uint256"
        }
      ],
      "name": "stakeTokens",
      "outputs": [],
      "stateMutability": "nonpayable",
      "type": "function"
    },
    {
      "inputs": [],
      "name": "stakingRewardRate",
      "outputs": [
        {
          "internalType": "uint256",
          "name": "",
          "type": "uint256"
        }
      ],
      "stateMutability": "view",
      "type": "function"
    },
    {
      "inputs": [],
      "name": "symbol",
      "outputs": [
        {
          "internalType": "string",
          "name": "",
          "type": "string"
        }
      ],
      "stateMutability": "view",
      "type": "function"
    },
    {
      "inputs": [],
      "name": "totalSupply",
      "outputs": [
        {
          "internalType": "uint256",
          "name": "",
          "type": "uint256"
        }
      ],
      "stateMutability": "view",
      "type": "function"
    },
    {
      "inputs": [
        {
          "internalType": "address",
          "name": "to",
          "type": "address"
        },
        {
          "internalType": "uint256",
          "name": "value",
          "type": "uint256"
        }
      ],
      "name": "transfer",
      "outputs": [
        {
          "internalType": "bool",
          "name": "",
          "type": "bool"
        }
      ],
      "stateMutability": "nonpayable",
      "type": "function"
    },
    {
      "inputs": [
        {
          "internalType": "address",
          "name": "from",
          "type": "address"
        },
        {
          "internalType": "address",
          "name": "to",
          "type": "address"
        },
        {
          "internalType": "uint256",
          "name": "value",
          "type": "uint256"
        }
      ],
      "name": "transferFrom",
      "outputs": [
        {
          "internalType": "bool",
          "name": "",
          "type": "bool"
        }
      ],
      "stateMutability": "nonpayable",
      "type": "function"
    },
    {
      "inputs": [
        {
          "internalType": "address",
          "name": "newOwner",
          "type": "address"
        }
      ],
      "name": "transferOwnership",
      "outputs": [],
      "stateMutability": "nonpayable",
      "type": "function"
    },
    {
      "inputs": [],
      "name": "treasury",
      "outputs": [
        {
          "internalType": "contract IMultiSigTreasury",
          "name": "",
          "type": "address"
        }
      ],
      "stateMutability": "view",
      "type": "function"
    },
    {
      "inputs": [],
      "name": "unpause",
      "outputs": [],
      "stateMutability": "nonpayable",
      "type": "function"
    },
    {
      "inputs": [],
      "name": "unstakeTokens",
      "outputs": [],
      "stateMutability": "nonpayable",
      "type": "function"
    },
    {
      "inputs": [
        {
          "internalType": "uint256",
          "name": "proposalId",
          "type": "uint256"
        },
        {
          "internalType": "bool",
          "name": "voteFor",
          "type": "bool"
        }
      ],
      "name": "voteOnProposal",
      "outputs": [],
      "stateMutability": "nonpayable",
      "type": "function"
    }
  ],
  "bytecode": "0x61016034620005dd5762002c72601f38829003908101601f19168301906001600160401b038211848310176200036b5780849160409485948552833981010312620005dd576200005d60206200005584620005fe565b9301620005fe565b908051906200006c82620005e2565b60088252602082019267536f6c797468697360c01b948585528251956200009387620005e2565b60018752603160f81b6020880152835190620000af82620005e2565b600882526020820152835190620000c682620005e2565b6004825263098b2a8960e31b60208301528051906001600160401b0382116200036b5760035490600182811c92168015620005d2575b6020831014620004a55781601f8493116200055d575b50602090601f8311600114620004d257600092620004c6575b50508160011b916000199060031b1c1916176003555b8051906001600160401b0382116200036b5760045490600182811c92168015620004bb575b6020831014620004a55781601f84931162000430575b50602090601f8311600114620003a55760009262000399575b50508160011b916000199060031b1c1916176004555b6001600160a01b039081169182156200038157600580546001600160a01b03198082168617909255909390819084167f8be0079c531659141344cd1fd0a4f28419497f9722a3daafe3b4186f6b6457e0600080a3600160065560ff1960075416600755620002198662000613565b966101209788526200022b89620007da565b96610140978852519020978860e0526020815191012061010098818a524660a05286519160208301917f8b73c3c69bb8fe3d512ecc4cf759cc79239f7b179b0ffacaa9a75d522b39400f83528884015260608301524660808301523060a083015260a0825260c082019180831060018060401b038411176200036b578288525190206080523060c05260056011556002546b033b2e3c9fd0803ce80000009081810180911162000355576000927fddf252ad1be2c89b69c2b068fc378daa952ba7f163c4a11628f55a4df523b3ef926020926002558585528483528985208181540190558152a31690601054161760105551916122df938462000993853960805184505060a05184505060c05184505060e0518450505183505051826105340152518161055e0152f35b634e487b7160e01b600052601160045260246000fd5b634e487b7160e01b600052604160045260246000fd5b8351631e4fbdf760e01b815260006004820152602490fd5b01519050388062000195565b600460009081527f8a35acfbc15ff81a39ae7d344fd709f28e8600b4aa8c65c6b64bfe7fe36bd19b9350601f198516905b818110620004175750908460019594939210620003fd575b505050811b01600455620001ab565b015160001960f88460031b161c19169055388080620003ee565b92936020600181928786015181550195019301620003d6565b60046000529091507f8a35acfbc15ff81a39ae7d344fd709f28e8600b4aa8c65c6b64bfe7fe36bd19b601f840160051c810191602085106200049a575b90601f859493920160051c01905b8181106200048a57506200017c565b600081558493506001016200047b565b90915081906200046d565b634e487b7160e01b600052602260045260246000fd5b91607f169162000166565b0151905038806200012b565b600360009081527fc2575a0e9e593c00f959f8c92f12db2869c3395a3b0502d05e2516446f71f85b9350601f198516905b8181106200054457509084600195949392106200052a575b505050811b0160035562000141565b015160001960f88460031b161c191690553880806200051b565b9293602060018192878601518155019501930162000503565b60036000529091507fc2575a0e9e593c00f959f8c92f12db2869c3395a3b0502d05e2516446f71f85b601f840160051c81019160208510620005c7575b90601f859493920160051c01905b818110620005b7575062000112565b60008155849350600101620005a8565b90915081906200059a565b91607f1691620000fc565b600080fd5b604081019081106001600160401b038211176200036b57604052565b51906001600160a01b0382168203620005dd57565b805160209081811015620006b05750601f8251116200064f57808251920151908083106200064057501790565b82600019910360031b1b161790565b90604051809263305a27a960e01b82528060048301528251908160248401526000935b82851062000696575050604492506000838284010152601f80199101168101030190fd5b848101820151868601604401529381019385935062000672565b906001600160401b0382116200036b57600854926001938481811c91168015620007cf575b83821014620004a557601f811162000795575b5081601f84116001146200072957509282939183926000946200071d575b50501b916000199060031b1c19161760085560ff90565b01519250388062000706565b919083601f198116600860005284600020946000905b888383106200077a575050501062000760575b505050811b0160085560ff90565b015160001960f88460031b161c1916905538808062000752565b8587015188559096019594850194879350908101906200073f565b600860005284601f84600020920160051c820191601f860160051c015b828110620007c2575050620006e8565b60008155018590620007b2565b90607f1690620006d5565b805160209081811015620008685750601f8251116200080757808251920151908083106200064057501790565b90604051809263305a27a960e01b82528060048301528251908160248401526000935b8285106200084e575050604492506000838284010152601f80199101168101030190fd5b84810182015186860160440152938101938593506200082a565b906001600160401b0382116200036b57600954926001938481811c9116801562000987575b83821014620004a557601f81116200094d575b5081601f8411600114620008e15750928293918392600094620008d5575b50501b916000199060031b1c19161760095560ff90565b015192503880620008be565b919083601f198116600960005284600020946000905b8883831062000932575050501062000918575b505050811b0160095560ff90565b015160001960f88460031b161c191690553880806200090a565b858701518855909601959485019487935090810190620008f7565b600960005284601f84600020920160051c820191601f860160051c015b8281106200097a575050620008a0565b600081550185906200096a565b90607f16906200088d56fe608080604052600436101561001357600080fd5b600090813560e01c908163013cf08b14611aef5750806306fdde0314611a1e578063095ea7b31461192d5780630d61b519146116a557806310154bad1461162f5780631614665c1461149e57806318160ddd1461148057806323b872dd1461133d5780632821ff2614610e0d578063291d954914610d9a578063313ce56714610d7e5780633af32abf14610d345780633f4ba83a14610cb15780634385963214610c5c5780634f3fc2df14610c3e5780635652077c14610bad5780635c975abb14610b8a57806361d027b314610b565780636b69e05b146109f057806370a08231146109ac578063715018a61461092c5780637547c7a314610857578063779df4e9146106d15780638456cb591461067657806384b0196e1461051e5780638da5cb5b146104ea57806395d89b4114610403578063a5ce413b1461037b578063a9059cbb14610349578063b7d68519146102a6578063dd62ed3e146102495763f2fde38b1461018157600080fd5b346102465760206003193601126102465761019a611d3b565b6101a2611ec9565b73ffffffffffffffffffffffffffffffffffffffff80911690811561021557600554827fffffffffffffffffffffffff0000000000000000000000000000000000000000821617600555167f8be0079c531659141344cd1fd0a4f28419497f9722a3daafe3b4186f6b6457e0600080a380f35b602483604051907f1e4fbdf70000000000000000000000000000000000000000000000000000000082526004820152fd5b80fd5b503461024657604060031936011261024657610263611d3b565b604061026d611d63565b9273ffffffffffffffffffffffffffffffffffffffff809316815260016020522091166000526020526020604060002054604051908152f35b5034610246576020600319360112610246576004356102c3611ec9565b6102cb611f1a565b60148111610305576020817f3e35d2ebd0421c49d885bf51fd270b65819a284351f9e36242848fb1d55fd7b292601155604051908152a180f35b606460405162461bcd60e51b815260206004820152601460248201527f526577617264207261746520746f6f20686967680000000000000000000000006044820152fd5b503461024657604060031936011261024657610370610366611d3b565b6024359033611f8b565b602060405160018152f35b5034610246578060031936011261024657610394611f1a565b61039c611f50565b338152600d6020526103b360408220541515611e6b565b338152600d6020526040812081815491556103cf813330611f8b565b6040519081527f0f5bb82176feb1b5e747e28471aa92156a04d9f3ab9f45f28e2d704232b93f7560203392a2600160065580f35b503461024657806003193601126102465760405160045460008261042683611bd3565b91828252602093600190856001821691826000146104ca57505060011461046d575b5061045592500383611cd8565b610469604051928284938452830190611cfb565b0390f35b84915060046000527f8a35acfbc15ff81a39ae7d344fd709f28e8600b4aa8c65c6b64bfe7fe36bd19b906000915b8583106104b2575050610455935082010185610448565b8054838901850152879450869390920191810161049b565b60ff19168582015261045595151560051b85010192508791506104489050565b5034610246578060031936011261024657602073ffffffffffffffffffffffffffffffffffffffff60055416604051908152f35b50346102465780600319360112610246576105587f00000000000000000000000000000000000000000000000000000000000000006120cc565b906105827f00000000000000000000000000000000000000000000000000000000000000006121e9565b9060405190602090602083019383851067ffffffffffffffff8611176106475792849260206105fd88966105ef986040528585526040519889987f0f000000000000000000000000000000000000000000000000000000000000008a5260e0858b015260e08a0190611cfb565b9088820360408a0152611cfb565b924660608801523060808801528460a088015286840360c088015251928381520193925b82811061063057505050500390f35b835185528695509381019392810192600101610621565b7f4e487b7100000000000000000000000000000000000000000000000000000000600052604160045260246000fd5b503461024657806003193601126102465761068f611ec9565b610697611f1a565b600160ff1960075416176007557f62e78cea01bee320cd4e420270b5ea74000d11b0c9f74754ebdbfc544b05a2586020604051338152a180f35b5034610246576060600319360112610246576106eb611d63565b6044356106f6611f1a565b6106fe611f50565b6004358352600b60205260ff60046040852001541615610813578273ffffffffffffffffffffffffffffffffffffffff92836010541693843b1561080f576044839260405194859384927f65decc0b00000000000000000000000000000000000000000000000000000000845216978860048401528760248401525af18015610804576107ba575b5060207f08285fcd762130176d8a4b9e6cd26e09aa385a32ac3c4276513919f5d5d50d5291604051908152a2600160065580f35b67ffffffffffffffff81949294116107d757604052916020610786565b6024827f4e487b710000000000000000000000000000000000000000000000000000000081526041600452fd5b6040513d86823e3d90fd5b8280fd5b606460405162461bcd60e51b815260206004820152601960248201527f50726f706f73616c206e6f7420657865637574656420796574000000000000006044820152fd5b503461024657602060031936011261024657600435610874611f1a565b61087c611f50565b80156108e85761088d813033611f8b565b338252600d602052604082206108a4828254611dd9565b9055338252600e6020524260408320556040519081527f9e71bc8eea02a63969f509818f2dafb9254532904319f9dbda79b67bd34a5f3d60203392a2600160065580f35b606460405162461bcd60e51b815260206004820152600e60248201527f43616e6e6f74207374616b6520300000000000000000000000000000000000006044820152fd5b5034610246578060031936011261024657610945611ec9565b8073ffffffffffffffffffffffffffffffffffffffff6005547fffffffffffffffffffffffff00000000000000000000000000000000000000008116600555167f8be0079c531659141344cd1fd0a4f28419497f9722a3daafe3b4186f6b6457e08280a380f35b503461024657602060031936011261024657604060209173ffffffffffffffffffffffffffffffffffffffff6109e0611d3b565b1681528083522054604051908152f35b5034610246578060031936011261024657610a09611f1a565b610a11611f50565b3381526020600d8152610a2960408320541515611e6b565b338252600e815260408220544203428111610b2957610a6463bbf81e0091338552600d8452610a5f604086205460115490611eb6565b611eb6565b043315610af8579081610a9a7f3e35d2ebd0421c49d885bf51fd270b65819a284351f9e36242848fb1d55fd7b293600254611dd9565b60025533845283825260408420818154019055604051908152837fddf252ad1be2c89b69c2b068fc378daa952ba7f163c4a11628f55a4df523b3ef833393a3338352600e8152426040842055601154604051908152a1600160065580f35b602483604051907fec442f050000000000000000000000000000000000000000000000000000000082526004820152fd5b6024837f4e487b710000000000000000000000000000000000000000000000000000000081526011600452fd5b5034610246578060031936011261024657602073ffffffffffffffffffffffffffffffffffffffff60105416604051908152f35b5034610246578060031936011261024657602060ff600754166040519015158152f35b503461024657602060031936011261024657610bc7611f1a565b6004358152600b60205260408120600281015460038201541015610bfa5762015180420190814211610b29576005015580f35b606460405162461bcd60e51b815260206004820152601560248201527f50726f706f73616c20646964206e6f74207061737300000000000000000000006044820152fd5b50346102465780600319360112610246576020601154604051908152f35b50346102465760406003193601126102465760ff6040602092610c7d611d63565b6004358252600c855273ffffffffffffffffffffffffffffffffffffffff8383209116825284522054166040519015158152f35b5034610246578060031936011261024657610cca611ec9565b60075460ff811615610d0a5760ff19166007557f5db9ee0a495bf2e6ff9c91a7834c1ba4fdd244a5e8aa4e537bd38aeae4b073aa6020604051338152a180f35b60046040517f8dfc202b000000000000000000000000000000000000000000000000000000008152fd5b50346102465760206003193601126102465760ff604060209273ffffffffffffffffffffffffffffffffffffffff610d6a611d3b565b168152600f84522054166040519015158152f35b5034610246578060031936011261024657602060405160128152f35b50346102465760206003193601126102465773ffffffffffffffffffffffffffffffffffffffff610dc9611d3b565b610dd1611ec9565b16808252600f6020526040822060ff1981541690557fcdd2e9b91a56913d370075169cefa1602ba36be5301664f752192bb1709df7578280a280f35b50346102465760606003193601126102465760043567ffffffffffffffff8111611339573660238201121561133957610e50903690602481600401359101611da2565b90610e59611d63565b9160443567ffffffffffffffff811161080f573660238201121561080f57610e8b903690602481600401359101611da2565b610e93611f1a565b338352600f60205260ff604084205416156112cf573383528260205260408320541561128b57600a5490600019821461125e5760018201600a5560405194610120860186811067ffffffffffffffff821117611231579073ffffffffffffffffffffffffffffffffffffffff916040528387528460208801528560408801528560608801528560808801528560a08801523360c08801521660e0860152610100850152808352600b6020526040832084518155602085015180519067ffffffffffffffff821161123157610f7782610f6e6001860154611bd3565b60018601611e15565b602090601f83116001146111be57826008936101009593610fad938a92611100575b50506000198260011b9260031b1c19161790565b60018201555b6040870151600282015560608701516003820155600481016080880151151560ff60ff19835416911617905560a087015160058201556006810173ffffffffffffffffffffffffffffffffffffffff60c089015116907fffffffffffffffffffffffff00000000000000000000000000000000000000009182825416179055600782019073ffffffffffffffffffffffffffffffffffffffff60e08a01511690825416179055019401519384519467ffffffffffffffff8611611191576110848661107e8454611bd3565b84611e15565b602090601f871160011461110b5795806110d59287987fc8c078bfee58e5822588f08b4509ed1eb5058e03f666cca84dd2d44bf5c288a898926111005750506000198260011b9260031b1c19161790565b90555b6110f46040519283928352606060208401526060830190611cfb565b3360408301520390a180f35b015190503880610f99565b828652602086209190601f198816875b81811061117957509160019391897fc8c078bfee58e5822588f08b4509ed1eb5058e03f666cca84dd2d44bf5c288a8999a9410611160575b505050811b0190556110d8565b015160001960f88460031b161c19169055388080611153565b9293602060018192878601518155019501930161111b565b6024857f4e487b710000000000000000000000000000000000000000000000000000000081526041600452fd5b906001840187526020872091875b601f1985168110611219575092610100949260019260089583601f19811610611200575b505050811b016001820155610fb3565b015160001960f88460031b161c191690553880806111f0565b919260206001819286850151815501940192016111cc565b6024867f4e487b710000000000000000000000000000000000000000000000000000000081526041600452fd5b6024847f4e487b710000000000000000000000000000000000000000000000000000000081526011600452fd5b606460405162461bcd60e51b815260206004820152601960248201527f4d75737420686f6c64204c59544820746f2070726f706f7365000000000000006044820152fd5b608460405162461bcd60e51b815260206004820152602360248201527f4e6f742077686974656c697374656420746f206372656174652070726f706f7360448201527f616c7300000000000000000000000000000000000000000000000000000000006064820152fd5b5080fd5b503461024657606060031936011261024657611357611d3b565b61135f611d63565b6044359173ffffffffffffffffffffffffffffffffffffffff811680855260016020526040852033865260205260408520549060001982106113a8575b50506103709350611f8b565b8482106114415780156114105733156113df578486926040926103709852600160205282842033855260205203912055388061139c565b602486604051907f94280d620000000000000000000000000000000000000000000000000000000082526004820152fd5b602486604051907fe602df050000000000000000000000000000000000000000000000000000000082526004820152fd5b6040517ffb8f41b20000000000000000000000000000000000000000000000000000000081523360048201526024810183905260448101869052606490fd5b50346102465780600319360112610246576020600254604051908152f35b5034610246576040600319360112610246576004356024358015159081810361162b576114c9611f1a565b338452602090600d82526040852054156115e757838552600c825260408520338652825260ff6040862054166115a357917ff2913dbe661ee2acc4a046d8fbcdc792373bda34c41c6086484b5345e5785e5f9391606093338752600d825260408720549060001461158357838752600b825261154d60026040892001918254611dd9565b90555b828652600c815260408620338752815260408620600160ff1982541617905560405192835233908301526040820152a180f35b838752600b825261159c60036040892001918254611dd9565b9055611550565b6064826040519062461bcd60e51b82526004820152600d60248201527f416c726561647920766f746564000000000000000000000000000000000000006044820152fd5b6064826040519062461bcd60e51b82526004820152601d60248201527f4d7573742068617665207374616b6564204c59544820746f20766f74650000006044820152fd5b8380fd5b50346102465760206003193601126102465773ffffffffffffffffffffffffffffffffffffffff61165e611d3b565b611666611ec9565b16808252600f60205260408220600160ff198254161790557faab7954e9d246b167ef88aeddad35209ca2489d95a8aeb59e288d9b19fae5a548280a280f35b503461024657602080600319360112611339576004356116c3611ec9565b6116cb611f1a565b6116d3611f50565b808352600b825260408320600481019081549160ff83166118e957600582015442106118a55760028201546003830154101561186157908591600190600160ff19809616179055600873ffffffffffffffffffffffffffffffffffffffff600784015416920193604051918495805461174b81611bd3565b936001821691821561184b575050600114611813575b5050508281819503925af13d1561180e573d61177c81611d86565b9061178a6040519283611cd8565b815284843d92013e5b156117ca57907f712ae1383f79ac853f8d882153778e0260ef8f03b504e2866e0593e04d2b291f91604051908152a1600160065580f35b6064826040519062461bcd60e51b82526004820152601960248201527f50726f706f73616c20657865637574696f6e206661696c6564000000000000006044820152fd5b611793565b88965085528585209085915b8383106118355750505081019350828181611761565b80548386015289978b975090920191810161181f565b1685525050508015150281019350828181611761565b6064856040519062461bcd60e51b82526004820152601860248201527f4e6f7420656e6f75676820766f74657320746f207061737300000000000000006044820152fd5b6064856040519062461bcd60e51b82526004820152601660248201527f457865637574696f6e2064656c617920616374697665000000000000000000006044820152fd5b6064856040519062461bcd60e51b82526004820152601060248201527f416c7265616479206578656375746564000000000000000000000000000000006044820152fd5b503461024657604060031936011261024657611947611d3b565b6024359033156119ed5773ffffffffffffffffffffffffffffffffffffffff169182156119bc5760408291338152600160205281812085825260205220556040519081527f8c5be1e5ebec7d5bd14f71427d1e84f3dd0314c0f7b2291e5b200ac8c7c3b92560203392a3602060405160018152f35b602490604051907f94280d620000000000000000000000000000000000000000000000000000000082526004820152fd5b602483604051907fe602df050000000000000000000000000000000000000000000000000000000082526004820152fd5b503461024657806003193601126102465760405190808260035491611a4283611bd3565b9283835260209460019186600182169182600014611acc575050600114611a72575b505061045592500383611cd8565b90859250600382527fc2575a0e9e593c00f959f8c92f12db2869c3395a3b0502d05e2516446f71f85b5b858310611ab457505061045593508201013880611a64565b80548389018501528794508693909201918101611a9c565b9150935061045595925060ff1991501682840152151560051b8201013880611a64565b8234610246576020600319360112610246576040906004358152600b60205220610469815491611b2d84611b268160018501611c26565b0385611cd8565b6008600282015491600381015460ff60048301541660058301549073ffffffffffffffffffffffffffffffffffffffff92611b87846006870154169460078701541695611b806040518099819301611c26565b0387611cd8565b611ba46040519a8b9a610120908c528060208d01528b0190611cfb565b9660408a015260608901521515608088015260a087015260c086015260e0850152838203610100850152611cfb565b90600182811c92168015611c1c575b6020831014611bed57565b7f4e487b7100000000000000000000000000000000000000000000000000000000600052602260045260246000fd5b91607f1691611be2565b805460009392611c3582611bd3565b91828252602093600191600181169081600014611c9d5750600114611c5c575b5050505050565b90939495506000929192528360002092846000945b838610611c8957505050500101903880808080611c55565b805485870183015294019385908201611c71565b60ff19168685015250505090151560051b010191503880808080611c55565b6040810190811067ffffffffffffffff82111761064757604052565b90601f601f19910116810190811067ffffffffffffffff82111761064757604052565b919082519283825260005b848110611d27575050601f19601f8460006020809697860101520116010190565b602081830181015184830182015201611d06565b6004359073ffffffffffffffffffffffffffffffffffffffff82168203611d5e57565b600080fd5b6024359073ffffffffffffffffffffffffffffffffffffffff82168203611d5e57565b67ffffffffffffffff811161064757601f01601f191660200190565b929192611dae82611d86565b91611dbc6040519384611cd8565b829481845281830111611d5e578281602093846000960137010152565b91908201809211611de657565b7f4e487b7100000000000000000000000000000000000000000000000000000000600052601160045260246000fd5b90601f8111611e2357505050565b6000916000526020600020906020601f850160051c83019410611e61575b601f0160051c01915b828110611e5657505050565b818155600101611e4a565b9092508290611e41565b15611e7257565b606460405162461bcd60e51b815260206004820152600e60248201527f4e6f207374616b6564204c5954480000000000000000000000000000000000006044820152fd5b81810292918115918404141715611de657565b73ffffffffffffffffffffffffffffffffffffffff600554163303611eea57565b60246040517f118cdaa7000000000000000000000000000000000000000000000000000000008152336004820152fd5b60ff60075416611f2657565b60046040517fd93c0665000000000000000000000000000000000000000000000000000000008152fd5b600260065414611f61576002600655565b60046040517f3ee5aeb5000000000000000000000000000000000000000000000000000000008152fd5b9173ffffffffffffffffffffffffffffffffffffffff80841692831561209b571692831561206a5760009083825281602052604082205490838210612012575091604082827fddf252ad1be2c89b69c2b068fc378daa952ba7f163c4a11628f55a4df523b3ef958760209652828652038282205586815220818154019055604051908152a3565b6040517fe450d38c00000000000000000000000000000000000000000000000000000000815273ffffffffffffffffffffffffffffffffffffffff919091166004820152602481019190915260448101839052606490fd5b60246040517fec442f0500000000000000000000000000000000000000000000000000000000815260006004820152fd5b60246040517f96c6fd1e00000000000000000000000000000000000000000000000000000000815260006004820152fd5b60ff81146121225760ff811690601f82116120f857604051916120ee83611cbc565b8252602082015290565b60046040517fb3512b0c000000000000000000000000000000000000000000000000000000008152fd5b5060405160085481600061213583611bd3565b808352926020906001908181169081156121c45750600114612163575b505061216092500382611cd8565b90565b91509260086000527ff3f7a9fe364faab93b216da50a3214154f22a0a2b415b23a84c8169e8b636ee3936000925b8284106121ac57506121609450505081016020013880612152565b85548785018301529485019486945092810192612191565b90506020935061216095925060ff1991501682840152151560051b8201013880612152565b60ff811461220b5760ff811690601f82116120f857604051916120ee83611cbc565b5060405160095481600061221e83611bd3565b808352926020906001908181169081156121c4575060011461224857505061216092500382611cd8565b91509260096000527f6e1540171b6c0c960b71a7020d9f60077f6af931a8bbf590da0223dacf75c7af936000925b82841061229157506121609450505081016020013880612152565b8554878501830152948501948694509281019261227656fea264697066735822122055721f86dd9902ca9573afa13769577a741bf0cf393200da1318d7df0383a05264736f6c63430008160033",
  "linkReferences": {},
  "deployedLinkReferences": {}
}