{"contracts/Governance.sol":{"Governance":{"abi":[{"inputs":[{"internalType":"address","name":"initialOwner","type":"address"},{"internalType":"address","name":"_governanceToken","type":"address"}],"stateMutability":"nonpayable","type":"constructor"},{"inputs":[],"name":"EnforcedPause","type":"error"},{"inputs":[],"name":"ExpectedPause","type":"error"},{"inputs":[{"internalType":"address","name":"owner","type":"address"}],"name":"OwnableInvalidOwner","type":"error"},{"inputs":[{"internalType":"address","name":"account","type":"address"}],"name":"OwnableUnauthorizedAccount","type":"error"},{"anonymous":false,"inputs":[{"indexed":false,"internalType":"uint256","name":"newDelay","type":"uint256"}],"name":"ExecutionDelayUpdated","type":"event"},{"anonymous":false,"inputs":[{"indexed":true,"internalType":"address","name":"previousOwner","type":"address"},{"indexed":true,"internalType":"address","name":"newOwner","type":"address"}],"name":"OwnershipTransferred","type":"event"},{"anonymous":false,"inputs":[{"indexed":false,"internalType":"address","name":"account","type":"address"}],"name":"Paused","type":"event"},{"anonymous":false,"inputs":[{"indexed":false,"internalType":"uint256","name":"proposalId","type":"uint256"}],"name":"ProposalCanceled","type":"event"},{"anonymous":false,"inputs":[{"indexed":false,"internalType":"uint256","name":"proposalId","type":"uint256"},{"indexed":false,"internalType":"string","name":"description","type":"string"},{"indexed":false,"internalType":"address","name":"proposer","type":"address"},{"indexed":false,"internalType":"uint256","name":"endTime","type":"uint256"}],"name":"ProposalCreated","type":"event"},{"anonymous":false,"inputs":[{"indexed":false,"internalType":"uint256","name":"proposalId","type":"uint256"}],"name":"ProposalExecuted","type":"event"},{"anonymous":false,"inputs":[{"indexed":true,"internalType":"address","name":"user","type":"address"}],"name":"RemovedFromWhitelist","type":"event"},{"anonymous":false,"inputs":[{"indexed":false,"internalType":"address","name":"account","type":"address"}],"name":"Unpaused","type":"event"},{"anonymous":false,"inputs":[{"indexed":false,"internalType":"uint256","name":"proposalId","type":"uint256"},{"indexed":false,"internalType":"address","name":"voter","type":"address"},{"indexed":false,"internalType":"bool","name":"vote","type":"bool"}],"name":"Voted","type":"event"},{"anonymous":false,"inputs":[{"indexed":false,"internalType":"uint256","name":"newPeriod","type":"uint256"}],"name":"VotingPeriodUpdated","type":"event"},{"anonymous":false,"inputs":[{"indexed":true,"internalType":"address","name":"user","type":"address"}],"name":"Whitelisted","type":"event"},{"inputs":[{"internalType":"address","name":"user","type":"address"}],"name":"addWhitelisted","outputs":[],"stateMutability":"nonpayable","type":"function"},{"inputs":[{"internalType":"uint256","name":"proposalId","type":"uint256"}],"name":"cancelProposal","outputs":[],"stateMutability":"nonpayable","type":"function"},{"inputs":[{"internalType":"string","name":"description","type":"string"},{"internalType":"address","name":"targetContract","type":"address"},{"internalType":"bytes","name":"data","type":"bytes"}],"name":"createProposal","outputs":[],"stateMutability":"nonpayable","type":"function"},{"inputs":[{"internalType":"uint256","name":"proposalId","type":"uint256"}],"name":"executeProposal","outputs":[],"stateMutability":"nonpayable","type":"function"},{"inputs":[],"name":"executionDelay","outputs":[{"internalType":"uint256","name":"","type":"uint256"}],"stateMutability":"view","type":"function"},{"inputs":[{"internalType":"uint256","name":"proposalId","type":"uint256"}],"name":"finalizeProposal","outputs":[],"stateMutability":"nonpayable","type":"function"},{"inputs":[],"name":"governanceToken","outputs":[{"internalType":"contract IERC20","name":"","type":"address"}],"stateMutability":"view","type":"function"},{"inputs":[{"internalType":"uint256","name":"","type":"uint256"},{"internalType":"address","name":"","type":"address"}],"name":"hasVoted","outputs":[{"internalType":"bool","name":"","type":"bool"}],"stateMutability":"view","type":"function"},{"inputs":[{"internalType":"address","name":"","type":"address"}],"name":"isWhitelisted","outputs":[{"internalType":"bool","name":"","type":"bool"}],"stateMutability":"view","type":"function"},{"inputs":[],"name":"owner","outputs":[{"internalType":"address","name":"","type":"address"}],"stateMutability":"view","type":"function"},{"inputs":[],"name":"pauseGovernance","outputs":[],"stateMutability":"nonpayable","type":"function"},{"inputs":[],"name":"paused","outputs":[{"internalType":"bool","name":"","type":"bool"}],"stateMutability":"view","type":"function"},{"inputs":[],"name":"proposalCount","outputs":[{"internalType":"uint256","name":"","type":"uint256"}],"stateMutability":"view","type":"function"},{"inputs":[{"internalType":"uint256","name":"","type":"uint256"}],"name":"proposals","outputs":[{"internalType":"uint256","name":"id","type":"uint256"},{"internalType":"string","name":"description","type":"string"},{"internalType":"uint256","name":"votesFor","type":"uint256"},{"internalType":"uint256","name":"votesAgainst","type":"uint256"},{"internalType":"uint256","name":"endTime","type":"uint256"},{"internalType":"uint256","name":"executionTime","type":"uint256"},{"internalType":"bool","name":"executed","type":"bool"},{"internalType":"bool","name":"canceled","type":"bool"},{"internalType":"address","name":"proposer","type":"address"},{"internalType":"address","name":"targetContract","type":"address"},{"internalType":"bytes","name":"data","type":"bytes"}],"stateMutability":"view","type":"function"},{"inputs":[{"internalType":"address","name":"user","type":"address"}],"name":"removeWhitelisted","outputs":[],"stateMutability":"nonpayable","type":"function"},{"inputs":[],"name":"renounceOwnership","outputs":[],"stateMutability":"nonpayable","type":"function"},{"inputs":[{"internalType":"uint256","name":"newDelay","type":"uint256"}],"name":"setExecutionDelay","outputs":[],"stateMutability":"nonpayable","type":"function"},{"inputs":[{"internalType":"uint256","name":"newPeriod","type":"uint256"}],"name":"setVotingPeriod","outputs":[],"stateMutability":"nonpayable","type":"function"},{"inputs":[{"internalType":"address","name":"newOwner","type":"address"}],"name":"transferOwnership","outputs":[],"stateMutability":"nonpayable","type":"function"},{"inputs":[],"name":"unpauseGovernance","outputs":[],"stateMutability":"nonpayable","type":"function"},{"inputs":[{"internalType":"uint256","name":"proposalId","type":"uint256"},{"internalType":"bool","name":"voteFor","type":"bool"}],"name":"vote","outputs":[],"stateMutability":"nonpayable","type":"function"},{"inputs":[],"name":"votingPeriod","outputs":[{"internalType":"uint256","name":"","type":"uint256"}],"stateMutability":"view","type":"function"}],"evm":{"bytecode":{"linkReferences":{},"object":"608034620000f857601f62001c6e38819003918201601f19168301916001600160401b03831184841017620000fd578084926040948552833981010312620000f8576200005a6020620000528362000113565b920162000113565b6001600160a01b0391821691908215620000df576000549260405193818482167f8be0079c531659141344cd1fd0a4f28419497f9722a3daafe3b4186f6b6457e0600080a36001600160a81b03191617600055620697806002556201518060035560078054919092166001600160a01b0319909116179055611b459081620001298239f35b604051631e4fbdf760e01b815260006004820152602490fd5b600080fd5b634e487b7160e01b600052604160045260246000fd5b51906001600160a01b0382168203620000f85756fe608080604052600436101561001357600080fd5b60003560e01c908163013cf08b146116745750806302a251a3146116565780630d61b519146113fb57806310154bad146113665780631b93a3ee146112da5780632821ff2614610b8f578063291d954914610afd5780633af32abf14610ab15780634385963214610a56578063548a6594146109b35780635652077c146108bf5780635c975abb14610899578063715018a61461081b5780638b257989146107fd5780638da5cb5b146107c9578063c9d27afe14610511578063da35c664146104f3578063e0a8f6f51461037d578063e4917d9f146102c6578063ea0217cf1461020e578063f2fde38b1461014a5763f96dae0a1461011157600080fd5b3461014557600060031936011261014557602073ffffffffffffffffffffffffffffffffffffffff60075416604051908152f35b600080fd5b346101455760206003193601126101455761016361190f565b61016b611a85565b73ffffffffffffffffffffffffffffffffffffffff8091169081156101dd57600054827fffffffffffffffffffffffff0000000000000000000000000000000000000000821617600055167f8be0079c531659141344cd1fd0a4f28419497f9722a3daafe3b4186f6b6457e0600080a3005b60246040517f1e4fbdf700000000000000000000000000000000000000000000000000000000815260006004820152fd5b346101455760206003193601126101455760043561022a611a85565b610232611ad6565b62015180811015806102b9575b15610275576020817f651c77f42613a075437aa794c44471e3abc3a661956a67aaee165bb7396974aa92600255604051908152a1005b606460405162461bcd60e51b815260206004820152601a60248201527f566f74696e6720706572696f64206f7574206f662072616e67650000000000006044820152fd5b506212750081111561023f565b34610145576020600319360112610145576004356102e2611a85565b6102ea611ad6565b610e1081101580610370575b1561032c576020817f04aa79a5e8a5e68218f378c9b9ecf136054085d35534faf89462199fb969d1c692600355604051908152a1005b606460405162461bcd60e51b815260206004820152601c60248201527f457865637574696f6e2064656c6179206f7574206f662072616e6765000000006044820152fd5b5062093a808111156102f6565b3461014557602060031936011261014557600435610399611ad6565b80600052600460205260066040600020019081549073ffffffffffffffffffffffffffffffffffffffff808360101c1633149081156104e5575b501561047b5760ff8216610437577f789cf55be980739dad1d0699b93b58e806b51c9d96619bfa8fe0a28abaa7b30c926101007fffffffffffffffffffffffffffffffffffffffffffffffffffffffffffff00ff60209416179055604051908152a1005b606460405162461bcd60e51b815260206004820152601f60248201527f43616e6e6f742063616e63656c2065786563757465642070726f706f73616c006044820152fd5b608460405162461bcd60e51b815260206004820152602160248201527f4f6e6c792070726f706f736572206f72206f776e65722063616e2063616e636560448201527f6c000000000000000000000000000000000000000000000000000000000000006064820152fd5b9050600054163314846103d3565b34610145576000600319360112610145576020600154604051908152f35b34610145576040600319360112610145576024356004358115158083036101455761053a611ad6565b816000526020926004845260406000209061055f60ff600684015460081c16156119a8565b8360005260058552604060002033600052855260ff60406000205416610785576004820154421161074157906024918573ffffffffffffffffffffffffffffffffffffffff60075416604051948580927f70a082310000000000000000000000000000000000000000000000000000000082523360048301525afa92831561073557600093610706575b50821561069c57917ff2913dbe661ee2acc4a046d8fbcdc792373bda34c41c6086484b5345e5785e5f9591859493606096600052600584526040600020336000528452604060002060017fffffffffffffffffffffffffffffffffffffffffffffffffffffffffffffff0082541617905560001461068657600261067091019182546119f3565b90555b60405192835233908301526040820152a1005b600361069591019182546119f3565b9055610673565b6084866040519062461bcd60e51b82526004820152602360248201527f4d75737420686f6c6420676f7665726e616e636520746f6b656e7320746f207660448201527f6f746500000000000000000000000000000000000000000000000000000000006064820152fd5b9092508581813d831161072e575b61071e818361187d565b81010312610145575191866105e9565b503d610714565b6040513d6000823e3d90fd5b6064856040519062461bcd60e51b82526004820152601560248201527f566f74696e6720706572696f64206578706972656400000000000000000000006044820152fd5b6064856040519062461bcd60e51b82526004820152600d60248201527f416c726561647920766f746564000000000000000000000000000000000000006044820152fd5b3461014557600060031936011261014557602073ffffffffffffffffffffffffffffffffffffffff60005416604051908152f35b34610145576000600319360112610145576020600354604051908152f35b3461014557600060031936011261014557610834611a85565b600073ffffffffffffffffffffffffffffffffffffffff81547fffffffffffffffffffffffff000000000000000000000000000000000000000081168355167f8be0079c531659141344cd1fd0a4f28419497f9722a3daafe3b4186f6b6457e08280a3005b3461014557600060031936011261014557602060ff60005460a01c166040519015158152f35b34610145576020600319360112610145576108d8611ad6565b600435600052600460205260406000206108fc60ff600683015460081c16156119a8565b60028101546003820154101561096f57600481015442111561092b576005610926600354426119f3565b910155005b606460405162461bcd60e51b815260206004820152601760248201527f566f74696e6720706572696f64206e6f7420656e6465640000000000000000006044820152fd5b606460405162461bcd60e51b815260206004820152601560248201527f50726f706f73616c20646964206e6f74207061737300000000000000000000006044820152fd5b34610145576000600319360112610145576109cc611a85565b60005460ff8160a01c1615610a2c577fffffffffffffffffffffff00ffffffffffffffffffffffffffffffffffffffff166000557f5db9ee0a495bf2e6ff9c91a7834c1ba4fdd244a5e8aa4e537bd38aeae4b073aa6020604051338152a1005b60046040517f8dfc202b000000000000000000000000000000000000000000000000000000008152fd5b3461014557604060031936011261014557610a6f611932565b600435600052600560205273ffffffffffffffffffffffffffffffffffffffff60406000209116600052602052602060ff604060002054166040519015158152f35b346101455760206003193601126101455773ffffffffffffffffffffffffffffffffffffffff610adf61190f565b166000526006602052602060ff604060002054166040519015158152f35b346101455760206003193601126101455773ffffffffffffffffffffffffffffffffffffffff610b2b61190f565b610b33611a85565b1680600052600660205260406000207fffffffffffffffffffffffffffffffffffffffffffffffffffffffffffffff0081541690557fcdd2e9b91a56913d370075169cefa1602ba36be5301664f752192bb1709df757600080a2005b346101455760606003193601126101455760043567ffffffffffffffff8111610145573660238201121561014557610bd260249136908381600401359101611971565b610bda611932565b60443567ffffffffffffffff8111610145573660238201121561014557610c0a9036908581600401359101611971565b90610c13611ad6565b33600052600660205260ff60406000205416156112705783602073ffffffffffffffffffffffffffffffffffffffff60075416604051928380927f70a082310000000000000000000000000000000000000000000000000000000082523360048301525afa801561073557600090611235575b68056bc75e2d631000009150106111cb57600154917fffffffffffffffffffffffffffffffffffffffffffffffffffffffffffffffff831461119d5760018301600155610cd5600254426119f3565b6040519261016084019184831067ffffffffffffffff84111761116f5773ffffffffffffffffffffffffffffffffffffffff9260405285855286602086015260006040860152600060608601526080850152600060a0850152600060c0850152600060e08501523361010085015216610120830152610140820152816000526004602052604060002081518155602082015180519067ffffffffffffffff821161114157610d9382610d8a6001860154611776565b60018601611a2f565b602090601f83116001146110ad57826008936101409593610de8936000926110a2575b50507fffffffffffffffffffffffffffffffffffffffffffffffffffffffffffffffff8260011b9260031b1c19161790565b60018201555b60408401516002820155606084015160038201556080840151600482015560a084015160058201556006810160c08501511515815461ff0060e08801511515917fffffffffffffffffffff000000000000000000000000000000000000000000007fffffffffffffffffffff0000000000000000000000000000000000000000ffff60ff75ffffffffffffffffffffffffffffffffffffffff00006101008d015160101b1696161691161791861b16171790556007810173ffffffffffffffffffffffffffffffffffffffff610120860151167fffffffffffffffffffffffff0000000000000000000000000000000000000000825416179055019101519384519067ffffffffffffffff82116110755750610f1481610f0e8454611776565b84611a2f565b6020601f8211600114610fcf579080610f82927f9cc3d9dd626042cdefb76484b91708c3207b637214b44f20111c893548d9c85f97600092610fc45750507fffffffffffffffffffffffffffffffffffffffffffffffffffffffffffffffff8260011b9260031b1c19161790565b90555b806000526004602052600460406000200154610fb360405193849384526080602085015260808401906118cf565b9033604084015260608301520390a1005b015190508780610db6565b601f198216958360005260206000209660005b81811061105d5750917f9cc3d9dd626042cdefb76484b91708c3207b637214b44f20111c893548d9c85f9791846001959410611026575b505050811b019055610f85565b01517fffffffffffffffffffffffffffffffffffffffffffffffffffffffffffffffff60f88460031b161c19169055868080611019565b83830151895560019098019760209384019301610fe2565b7f4e487b710000000000000000000000000000000000000000000000000000000060005260416004526000fd5b015190508a80610db6565b906001840160005260206000209160005b601f1985168110611129575092610140949260019260089583601f198116106110f2575b505050811b016001820155610dee565b01517fffffffffffffffffffffffffffffffffffffffffffffffffffffffffffffffff60f88460031b161c191690558980806110e2565b919260206001819286850151815501940192016110be565b867f4e487b710000000000000000000000000000000000000000000000000000000060005260416004526000fd5b877f4e487b710000000000000000000000000000000000000000000000000000000060005260416004526000fd5b847f4e487b710000000000000000000000000000000000000000000000000000000060005260116004526000fd5b60848460266040519162461bcd60e51b8352602060048401528201527f4d75737420686f6c64206174206c6561737420313030204c59544820746f207060448201527f726f706f736500000000000000000000000000000000000000000000000000006064820152fd5b506020813d602011611268575b8161124f6020938361187d565b810103126101455768056bc75e2d631000009051610c86565b3d9150611242565b60848460236040519162461bcd60e51b8352602060048401528201527f4e6f742077686974656c697374656420746f206372656174652070726f706f7360448201527f616c7300000000000000000000000000000000000000000000000000000000006064820152fd5b34610145576000600319360112610145576112f3611a85565b6112fb611ad6565b740100000000000000000000000000000000000000007fffffffffffffffffffffff00ffffffffffffffffffffffffffffffffffffffff60005416176000557f62e78cea01bee320cd4e420270b5ea74000d11b0c9f74754ebdbfc544b05a2586020604051338152a1005b346101455760206003193601126101455773ffffffffffffffffffffffffffffffffffffffff61139461190f565b61139c611a85565b16806000526006602052604060002060017fffffffffffffffffffffffffffffffffffffffffffffffffffffffffffffff008254161790557faab7954e9d246b167ef88aeddad35209ca2489d95a8aeb59e288d9b19fae5a54600080a2005b34610145576020806003193601126101455760043590611419611a85565b611421611ad6565b8160005260048152604060002060068101805460ff81166116125761144c60ff8260081c16156119a8565b600583015442106115ce5760019160017fffffffffffffffffffffffffffffffffffffffffffffffffffffffffffffff00809316179055600873ffffffffffffffffffffffffffffffffffffffff6007850154169301906040519260009280546114b581611776565b93600182169182156115b757505060011461157c575b50505091816000809493819403925af13d15611577573d6114eb81611955565b906114f9604051928361187d565b81526000833d92013e5b15611533577f712ae1383f79ac853f8d882153778e0260ef8f03b504e2866e0593e04d2b291f91604051908152a1005b6064906040519062461bcd60e51b82526004820152601960248201527f50726f706f73616c20657865637574696f6e206661696c6564000000000000006044820152fd5b611503565b909192506000528460002090856000925b8484106115a5575050509082019050816000806114cb565b8054868501529201918690820161158d565b1686525050508015150282019050816000806114cb565b6064846040519062461bcd60e51b82526004820152601660248201527f457865637574696f6e2064656c617920616374697665000000000000000000006044820152fd5b6064846040519062461bcd60e51b82526004820152601060248201527f416c7265616479206578656375746564000000000000000000000000000000006044820152fd5b34610145576000600319360112610145576020600254604051908152f35b3461014557602060031936011261014557600435600052600460205260406000206117728154916116b3846116ac81600185016117c9565b038561187d565b600860028201549160038101546004820154600583015460068401549173ffffffffffffffffffffffffffffffffffffffff936117088560078801541696611701604051809a8193016117c9565b038861187d565b6117266040519b8c809c6020610160928392815201528c01906118cf565b9760408b015260608a0152608089015260a088015260ff8116151560c088015260ff8160081c16151560e088015260101c166101008601526101208501528382036101408501526118cf565b0390f35b90600182811c921680156117bf575b602083101461179057565b7f4e487b7100000000000000000000000000000000000000000000000000000000600052602260045260246000fd5b91607f1691611785565b8054600093926117d882611776565b9182825260209360019160018116908160001461184057506001146117ff575b5050505050565b90939495506000929192528360002092846000945b83861061182c575050505001019038808080806117f8565b805485870183015294019385908201611814565b7fffffffffffffffffffffffffffffffffffffffffffffffffffffffffffffff00168685015250505090151560051b0101915038808080806117f8565b90601f601f19910116810190811067ffffffffffffffff8211176118a057604052565b7f4e487b7100000000000000000000000000000000000000000000000000000000600052604160045260246000fd5b919082519283825260005b8481106118fb575050601f19601f8460006020809697860101520116010190565b6020818301810151848301820152016118da565b6004359073ffffffffffffffffffffffffffffffffffffffff8216820361014557565b6024359073ffffffffffffffffffffffffffffffffffffffff8216820361014557565b67ffffffffffffffff81116118a057601f01601f191660200190565b92919261197d82611955565b9161198b604051938461187d565b829481845281830111610145578281602093846000960137010152565b156119af57565b606460405162461bcd60e51b815260206004820152601560248201527f50726f706f73616c207761732063616e63656c656400000000000000000000006044820152fd5b91908201809211611a0057565b7f4e487b7100000000000000000000000000000000000000000000000000000000600052601160045260246000fd5b90601f8111611a3d57505050565b6000916000526020600020906020601f850160051c83019410611a7b575b601f0160051c01915b828110611a7057505050565b818155600101611a64565b9092508290611a5b565b73ffffffffffffffffffffffffffffffffffffffff600054163303611aa657565b60246040517f118cdaa7000000000000000000000000000000000000000000000000000000008152336004820152fd5b60ff60005460a01c16611ae557565b60046040517fd93c0665000000000000000000000000000000000000000000000000000000008152fdfea26469706673582212209f588fe537bc157c5374080093293612fe00bb22e4fb3c81ec45b9e96dd4dbf464736f6c63430008160033","opcodes":"PUSH1 0x80 CALLVALUE PUSH3 0xF8 JUMPI PUSH1 0x1F PUSH3 0x1C6E CODESIZE DUP2 SWAP1 SUB SWAP2 DUP3 ADD PUSH1 0x1F NOT AND DUP4 ADD SWAP2 PUSH1 0x1 PUSH1 0x1 PUSH1 0x40 SHL SUB DUP4 GT DUP5 DUP5 LT OR PUSH3 0xFD JUMPI DUP1 DUP5 SWAP3 PUSH1 0x40 SWAP5 DUP6 MSTORE DUP4 CODECOPY DUP2 ADD SUB SLT PUSH3 0xF8 JUMPI PUSH3 0x5A PUSH1 0x20 PUSH3 0x52 DUP4 PUSH3 0x113 JUMP JUMPDEST SWAP3 ADD PUSH3 0x113 JUMP JUMPDEST PUSH1 0x1 PUSH1 0x1 PUSH1 0xA0 SHL SUB SWAP2 DUP3 AND SWAP2 SWAP1 DUP3 ISZERO PUSH3 0xDF JUMPI PUSH1 0x0 SLOAD SWAP3 PUSH1 0x40 MLOAD SWAP4 DUP2 DUP5 DUP3 AND PUSH32 0x8BE0079C531659141344CD1FD0A4F28419497F9722A3DAAFE3B4186F6B6457E0 PUSH1 0x0 DUP1 LOG3 PUSH1 0x1 PUSH1 0x1 PUSH1 0xA8 SHL SUB NOT AND OR PUSH1 0x0 SSTORE PUSH3 0x69780 PUSH1 0x2 SSTORE PUSH3 0x15180 PUSH1 0x3 SSTORE PUSH1 0x7 DUP1 SLOAD SWAP2 SWAP1 SWAP3 AND PUSH1 0x1 PUSH1 0x1 PUSH1 0xA0 SHL SUB NOT SWAP1 SWAP2 AND OR SWAP1 SSTORE PUSH2 0x1B45 SWAP1 DUP2 PUSH3 0x129 DUP3 CODECOPY RETURN JUMPDEST PUSH1 0x40 MLOAD PUSH4 0x1E4FBDF7 PUSH1 0xE0 SHL DUP2 MSTORE PUSH1 0x0 PUSH1 0x4 DUP3 ADD MSTORE PUSH1 0x24 SWAP1 REVERT JUMPDEST PUSH1 0x0 DUP1 REVERT JUMPDEST PUSH4 0x4E487B71 PUSH1 0xE0 SHL PUSH1 0x0 MSTORE PUSH1 0x41 PUSH1 0x4 MSTORE PUSH1 0x24 PUSH1 0x0 REVERT JUMPDEST MLOAD SWAP1 PUSH1 0x1 PUSH1 0x1 PUSH1 0xA0 SHL SUB DUP3 AND DUP3 SUB PUSH3 0xF8 JUMPI JUMP INVALID PUSH1 0x80 DUP1 PUSH1 0x40 MSTORE PUSH1 0x4 CALLDATASIZE LT ISZERO PUSH2 0x13 JUMPI PUSH1 0x0 DUP1 REVERT JUMPDEST PUSH1 0x0 CALLDATALOAD PUSH1 0xE0 SHR SWAP1 DUP2 PUSH4 0x13CF08B EQ PUSH2 0x1674 JUMPI POP DUP1 PUSH4 0x2A251A3 EQ PUSH2 0x1656 JUMPI DUP1 PUSH4 0xD61B519 EQ PUSH2 0x13FB JUMPI DUP1 PUSH4 0x10154BAD EQ PUSH2 0x1366 JUMPI DUP1 PUSH4 0x1B93A3EE EQ PUSH2 0x12DA JUMPI DUP1 PUSH4 0x2821FF26 EQ PUSH2 0xB8F JUMPI DUP1 PUSH4 0x291D9549 EQ PUSH2 0xAFD JUMPI DUP1 PUSH4 0x3AF32ABF EQ PUSH2 0xAB1 JUMPI DUP1 PUSH4 0x43859632 EQ PUSH2 0xA56 JUMPI DUP1 PUSH4 0x548A6594 EQ PUSH2 0x9B3 JUMPI DUP1 PUSH4 0x5652077C EQ PUSH2 0x8BF JUMPI DUP1 PUSH4 0x5C975ABB EQ PUSH2 0x899 JUMPI DUP1 PUSH4 0x715018A6 EQ PUSH2 0x81B JUMPI DUP1 PUSH4 0x8B257989 EQ PUSH2 0x7FD JUMPI DUP1 PUSH4 0x8DA5CB5B EQ PUSH2 0x7C9 JUMPI DUP1 PUSH4 0xC9D27AFE EQ PUSH2 0x511 JUMPI DUP1 PUSH4 0xDA35C664 EQ PUSH2 0x4F3 JUMPI DUP1 PUSH4 0xE0A8F6F5 EQ PUSH2 0x37D JUMPI DUP1 PUSH4 0xE4917D9F EQ PUSH2 0x2C6 JUMPI DUP1 PUSH4 0xEA0217CF EQ PUSH2 0x20E JUMPI DUP1 PUSH4 0xF2FDE38B EQ PUSH2 0x14A JUMPI PUSH4 0xF96DAE0A EQ PUSH2 0x111 JUMPI PUSH1 0x0 DUP1 REVERT JUMPDEST CALLVALUE PUSH2 0x145 JUMPI PUSH1 0x0 PUSH1 0x3 NOT CALLDATASIZE ADD SLT PUSH2 0x145 JUMPI PUSH1 0x20 PUSH20 0xFFFFFFFFFFFFFFFFFFFFFFFFFFFFFFFFFFFFFFFF PUSH1 0x7 SLOAD AND PUSH1 0x40 MLOAD SWAP1 DUP2 MSTORE RETURN JUMPDEST PUSH1 0x0 DUP1 REVERT JUMPDEST CALLVALUE PUSH2 0x145 JUMPI PUSH1 0x20 PUSH1 0x3 NOT CALLDATASIZE ADD SLT PUSH2 0x145 JUMPI PUSH2 0x163 PUSH2 0x190F JUMP JUMPDEST PUSH2 0x16B PUSH2 0x1A85 JUMP JUMPDEST PUSH20 0xFFFFFFFFFFFFFFFFFFFFFFFFFFFFFFFFFFFFFFFF DUP1 SWAP2 AND SWAP1 DUP2 ISZERO PUSH2 0x1DD JUMPI PUSH1 0x0 SLOAD DUP3 PUSH32 0xFFFFFFFFFFFFFFFFFFFFFFFF0000000000000000000000000000000000000000 DUP3 AND OR PUSH1 0x0 SSTORE AND PUSH32 0x8BE0079C531659141344CD1FD0A4F28419497F9722A3DAAFE3B4186F6B6457E0 PUSH1 0x0 DUP1 LOG3 STOP JUMPDEST PUSH1 0x24 PUSH1 0x40 MLOAD PUSH32 0x1E4FBDF700000000000000000000000000000000000000000000000000000000 DUP2 MSTORE PUSH1 0x0 PUSH1 0x4 DUP3 ADD MSTORE REVERT JUMPDEST CALLVALUE PUSH2 0x145 JUMPI PUSH1 0x20 PUSH1 0x3 NOT CALLDATASIZE ADD SLT PUSH2 0x145 JUMPI PUSH1 0x4 CALLDATALOAD PUSH2 0x22A PUSH2 0x1A85 JUMP JUMPDEST PUSH2 0x232 PUSH2 0x1AD6 JUMP JUMPDEST PUSH3 0x15180 DUP2 LT ISZERO DUP1 PUSH2 0x2B9 JUMPI JUMPDEST ISZERO PUSH2 0x275 JUMPI PUSH1 0x20 DUP2 PUSH32 0x651C77F42613A075437AA794C44471E3ABC3A661956A67AAEE165BB7396974AA SWAP3 PUSH1 0x2 SSTORE PUSH1 0x40 MLOAD SWAP1 DUP2 MSTORE LOG1 STOP JUMPDEST PUSH1 0x64 PUSH1 0x40 MLOAD PUSH3 0x461BCD PUSH1 0xE5 SHL DUP2 MSTORE PUSH1 0x20 PUSH1 0x4 DUP3 ADD MSTORE PUSH1 0x1A PUSH1 0x24 DUP3 ADD MSTORE PUSH32 0x566F74696E6720706572696F64206F7574206F662072616E6765000000000000 PUSH1 0x44 DUP3 ADD MSTORE REVERT JUMPDEST POP PUSH3 0x127500 DUP2 GT ISZERO PUSH2 0x23F JUMP JUMPDEST CALLVALUE PUSH2 0x145 JUMPI PUSH1 0x20 PUSH1 0x3 NOT CALLDATASIZE ADD SLT PUSH2 0x145 JUMPI PUSH1 0x4 CALLDATALOAD PUSH2 0x2E2 PUSH2 0x1A85 JUMP JUMPDEST PUSH2 0x2EA PUSH2 0x1AD6 JUMP JUMPDEST PUSH2 0xE10 DUP2 LT ISZERO DUP1 PUSH2 0x370 JUMPI JUMPDEST ISZERO PUSH2 0x32C JUMPI PUSH1 0x20 DUP2 PUSH32 0x4AA79A5E8A5E68218F378C9B9ECF136054085D35534FAF89462199FB969D1C6 SWAP3 PUSH1 0x3 SSTORE PUSH1 0x40 MLOAD SWAP1 DUP2 MSTORE LOG1 STOP JUMPDEST PUSH1 0x64 PUSH1 0x40 MLOAD PUSH3 0x461BCD PUSH1 0xE5 SHL DUP2 MSTORE PUSH1 0x20 PUSH1 0x4 DUP3 ADD MSTORE PUSH1 0x1C PUSH1 0x24 DUP3 ADD MSTORE PUSH32 0x457865637574696F6E2064656C6179206F7574206F662072616E676500000000 PUSH1 0x44 DUP3 ADD MSTORE REVERT JUMPDEST POP PUSH3 0x93A80 DUP2 GT ISZERO PUSH2 0x2F6 JUMP JUMPDEST CALLVALUE PUSH2 0x145 JUMPI PUSH1 0x20 PUSH1 0x3 NOT CALLDATASIZE ADD SLT PUSH2 0x145 JUMPI PUSH1 0x4 CALLDATALOAD PUSH2 0x399 PUSH2 0x1AD6 JUMP JUMPDEST DUP1 PUSH1 0x0 MSTORE PUSH1 0x4 PUSH1 0x20 MSTORE PUSH1 0x6 PUSH1 0x40 PUSH1 0x0 KECCAK256 ADD SWAP1 DUP2 SLOAD SWAP1 PUSH20 0xFFFFFFFFFFFFFFFFFFFFFFFFFFFFFFFFFFFFFFFF DUP1 DUP4 PUSH1 0x10 SHR AND CALLER EQ SWAP1 DUP2 ISZERO PUSH2 0x4E5 JUMPI JUMPDEST POP ISZERO PUSH2 0x47B JUMPI PUSH1 0xFF DUP3 AND PUSH2 0x437 JUMPI PUSH32 0x789CF55BE980739DAD1D0699B93B58E806B51C9D96619BFA8FE0A28ABAA7B30C SWAP3 PUSH2 0x100 PUSH32 0xFFFFFFFFFFFFFFFFFFFFFFFFFFFFFFFFFFFFFFFFFFFFFFFFFFFFFFFFFFFF00FF PUSH1 0x20 SWAP5 AND OR SWAP1 SSTORE PUSH1 0x40 MLOAD SWAP1 DUP2 MSTORE LOG1 STOP JUMPDEST PUSH1 0x64 PUSH1 0x40 MLOAD PUSH3 0x461BCD PUSH1 0xE5 SHL DUP2 MSTORE PUSH1 0x20 PUSH1 0x4 DUP3 ADD MSTORE PUSH1 0x1F PUSH1 0x24 DUP3 ADD MSTORE PUSH32 0x43616E6E6F742063616E63656C2065786563757465642070726F706F73616C00 PUSH1 0x44 DUP3 ADD MSTORE REVERT JUMPDEST PUSH1 0x84 PUSH1 0x40 MLOAD PUSH3 0x461BCD PUSH1 0xE5 SHL DUP2 MSTORE PUSH1 0x20 PUSH1 0x4 DUP3 ADD MSTORE PUSH1 0x21 PUSH1 0x24 DUP3 ADD MSTORE PUSH32 0x4F6E6C792070726F706F736572206F72206F776E65722063616E2063616E6365 PUSH1 0x44 DUP3 ADD MSTORE PUSH32 0x6C00000000000000000000000000000000000000000000000000000000000000 PUSH1 0x64 DUP3 ADD MSTORE REVERT JUMPDEST SWAP1 POP PUSH1 0x0 SLOAD AND CALLER EQ DUP5 PUSH2 0x3D3 JUMP JUMPDEST CALLVALUE PUSH2 0x145 JUMPI PUSH1 0x0 PUSH1 0x3 NOT CALLDATASIZE ADD SLT PUSH2 0x145 JUMPI PUSH1 0x20 PUSH1 0x1 SLOAD PUSH1 0x40 MLOAD SWAP1 DUP2 MSTORE RETURN JUMPDEST CALLVALUE PUSH2 0x145 JUMPI PUSH1 0x40 PUSH1 0x3 NOT CALLDATASIZE ADD SLT PUSH2 0x145 JUMPI PUSH1 0x24 CALLDATALOAD PUSH1 0x4 CALLDATALOAD DUP2 ISZERO ISZERO DUP1 DUP4 SUB PUSH2 0x145 JUMPI PUSH2 0x53A PUSH2 0x1AD6 JUMP JUMPDEST DUP2 PUSH1 0x0 MSTORE PUSH1 0x20 SWAP3 PUSH1 0x4 DUP5 MSTORE PUSH1 0x40 PUSH1 0x0 KECCAK256 SWAP1 PUSH2 0x55F PUSH1 0xFF PUSH1 0x6 DUP5 ADD SLOAD PUSH1 0x8 SHR AND ISZERO PUSH2 0x19A8 JUMP JUMPDEST DUP4 PUSH1 0x0 MSTORE PUSH1 0x5 DUP6 MSTORE PUSH1 0x40 PUSH1 0x0 KECCAK256 CALLER PUSH1 0x0 MSTORE DUP6 MSTORE PUSH1 0xFF PUSH1 0x40 PUSH1 0x0 KECCAK256 SLOAD AND PUSH2 0x785 JUMPI PUSH1 0x4 DUP3 ADD SLOAD TIMESTAMP GT PUSH2 0x741 JUMPI SWAP1 PUSH1 0x24 SWAP2 DUP6 PUSH20 0xFFFFFFFFFFFFFFFFFFFFFFFFFFFFFFFFFFFFFFFF PUSH1 0x7 SLOAD AND PUSH1 0x40 MLOAD SWAP5 DUP6 DUP1 SWAP3 PUSH32 0x70A0823100000000000000000000000000000000000000000000000000000000 DUP3 MSTORE CALLER PUSH1 0x4 DUP4 ADD MSTORE GAS STATICCALL SWAP3 DUP4 ISZERO PUSH2 0x735 JUMPI PUSH1 0x0 SWAP4 PUSH2 0x706 JUMPI JUMPDEST POP DUP3 ISZERO PUSH2 0x69C JUMPI SWAP2 PUSH32 0xF2913DBE661EE2ACC4A046D8FBCDC792373BDA34C41C6086484B5345E5785E5F SWAP6 SWAP2 DUP6 SWAP5 SWAP4 PUSH1 0x60 SWAP7 PUSH1 0x0 MSTORE PUSH1 0x5 DUP5 MSTORE PUSH1 0x40 PUSH1 0x0 KECCAK256 CALLER PUSH1 0x0 MSTORE DUP5 MSTORE PUSH1 0x40 PUSH1 0x0 KECCAK256 PUSH1 0x1 PUSH32 0xFFFFFFFFFFFFFFFFFFFFFFFFFFFFFFFFFFFFFFFFFFFFFFFFFFFFFFFFFFFFFF00 DUP3 SLOAD AND OR SWAP1 SSTORE PUSH1 0x0 EQ PUSH2 0x686 JUMPI PUSH1 0x2 PUSH2 0x670 SWAP2 ADD SWAP2 DUP3 SLOAD PUSH2 0x19F3 JUMP JUMPDEST SWAP1 SSTORE JUMPDEST PUSH1 0x40 MLOAD SWAP3 DUP4 MSTORE CALLER SWAP1 DUP4 ADD MSTORE PUSH1 0x40 DUP3 ADD MSTORE LOG1 STOP JUMPDEST PUSH1 0x3 PUSH2 0x695 SWAP2 ADD SWAP2 DUP3 SLOAD PUSH2 0x19F3 JUMP JUMPDEST SWAP1 SSTORE PUSH2 0x673 JUMP JUMPDEST PUSH1 0x84 DUP7 PUSH1 0x40 MLOAD SWAP1 PUSH3 0x461BCD PUSH1 0xE5 SHL DUP3 MSTORE PUSH1 0x4 DUP3 ADD MSTORE PUSH1 0x23 PUSH1 0x24 DUP3 ADD MSTORE PUSH32 0x4D75737420686F6C6420676F7665726E616E636520746F6B656E7320746F2076 PUSH1 0x44 DUP3 ADD MSTORE PUSH32 0x6F74650000000000000000000000000000000000000000000000000000000000 PUSH1 0x64 DUP3 ADD MSTORE REVERT JUMPDEST SWAP1 SWAP3 POP DUP6 DUP2 DUP2 RETURNDATASIZE DUP4 GT PUSH2 0x72E JUMPI JUMPDEST PUSH2 0x71E DUP2 DUP4 PUSH2 0x187D JUMP JUMPDEST DUP2 ADD SUB SLT PUSH2 0x145 JUMPI MLOAD SWAP2 DUP7 PUSH2 0x5E9 JUMP JUMPDEST POP RETURNDATASIZE PUSH2 0x714 JUMP JUMPDEST PUSH1 0x40 MLOAD RETURNDATASIZE PUSH1 0x0 DUP3 RETURNDATACOPY RETURNDATASIZE SWAP1 REVERT JUMPDEST PUSH1 0x64 DUP6 PUSH1 0x40 MLOAD SWAP1 PUSH3 0x461BCD PUSH1 0xE5 SHL DUP3 MSTORE PUSH1 0x4 DUP3 ADD MSTORE PUSH1 0x15 PUSH1 0x24 DUP3 ADD MSTORE PUSH32 0x566F74696E6720706572696F6420657870697265640000000000000000000000 PUSH1 0x44 DUP3 ADD MSTORE REVERT JUMPDEST PUSH1 0x64 DUP6 PUSH1 0x40 MLOAD SWAP1 PUSH3 0x461BCD PUSH1 0xE5 SHL DUP3 MSTORE PUSH1 0x4 DUP3 ADD MSTORE PUSH1 0xD PUSH1 0x24 DUP3 ADD MSTORE PUSH32 0x416C726561647920766F74656400000000000000000000000000000000000000 PUSH1 0x44 DUP3 ADD MSTORE REVERT JUMPDEST CALLVALUE PUSH2 0x145 JUMPI PUSH1 0x0 PUSH1 0x3 NOT CALLDATASIZE ADD SLT PUSH2 0x145 JUMPI PUSH1 0x20 PUSH20 0xFFFFFFFFFFFFFFFFFFFFFFFFFFFFFFFFFFFFFFFF PUSH1 0x0 SLOAD AND PUSH1 0x40 MLOAD SWAP1 DUP2 MSTORE RETURN JUMPDEST CALLVALUE PUSH2 0x145 JUMPI PUSH1 0x0 PUSH1 0x3 NOT CALLDATASIZE ADD SLT PUSH2 0x145 JUMPI PUSH1 0x20 PUSH1 0x3 SLOAD PUSH1 0x40 MLOAD SWAP1 DUP2 MSTORE RETURN JUMPDEST CALLVALUE PUSH2 0x145 JUMPI PUSH1 0x0 PUSH1 0x3 NOT CALLDATASIZE ADD SLT PUSH2 0x145 JUMPI PUSH2 0x834 PUSH2 0x1A85 JUMP JUMPDEST PUSH1 0x0 PUSH20 0xFFFFFFFFFFFFFFFFFFFFFFFFFFFFFFFFFFFFFFFF DUP2 SLOAD PUSH32 0xFFFFFFFFFFFFFFFFFFFFFFFF0000000000000000000000000000000000000000 DUP2 AND DUP4 SSTORE AND PUSH32 0x8BE0079C531659141344CD1FD0A4F28419497F9722A3DAAFE3B4186F6B6457E0 DUP3 DUP1 LOG3 STOP JUMPDEST CALLVALUE PUSH2 0x145 JUMPI PUSH1 0x0 PUSH1 0x3 NOT CALLDATASIZE ADD SLT PUSH2 0x145 JUMPI PUSH1 0x20 PUSH1 0xFF PUSH1 0x0 SLOAD PUSH1 0xA0 SHR AND PUSH1 0x40 MLOAD SWAP1 ISZERO ISZERO DUP2 MSTORE RETURN JUMPDEST CALLVALUE PUSH2 0x145 JUMPI PUSH1 0x20 PUSH1 0x3 NOT CALLDATASIZE ADD SLT PUSH2 0x145 JUMPI PUSH2 0x8D8 PUSH2 0x1AD6 JUMP JUMPDEST PUSH1 0x4 CALLDATALOAD PUSH1 0x0 MSTORE PUSH1 0x4 PUSH1 0x20 MSTORE PUSH1 0x40 PUSH1 0x0 KECCAK256 PUSH2 0x8FC PUSH1 0xFF PUSH1 0x6 DUP4 ADD SLOAD PUSH1 0x8 SHR AND ISZERO PUSH2 0x19A8 JUMP JUMPDEST PUSH1 0x2 DUP2 ADD SLOAD PUSH1 0x3 DUP3 ADD SLOAD LT ISZERO PUSH2 0x96F JUMPI PUSH1 0x4 DUP2 ADD SLOAD TIMESTAMP GT ISZERO PUSH2 0x92B JUMPI PUSH1 0x5 PUSH2 0x926 PUSH1 0x3 SLOAD TIMESTAMP PUSH2 0x19F3 JUMP JUMPDEST SWAP2 ADD SSTORE STOP JUMPDEST PUSH1 0x64 PUSH1 0x40 MLOAD PUSH3 0x461BCD PUSH1 0xE5 SHL DUP2 MSTORE PUSH1 0x20 PUSH1 0x4 DUP3 ADD MSTORE PUSH1 0x17 PUSH1 0x24 DUP3 ADD MSTORE PUSH32 0x566F74696E6720706572696F64206E6F7420656E646564000000000000000000 PUSH1 0x44 DUP3 ADD MSTORE REVERT JUMPDEST PUSH1 0x64 PUSH1 0x40 MLOAD PUSH3 0x461BCD PUSH1 0xE5 SHL DUP2 MSTORE PUSH1 0x20 PUSH1 0x4 DUP3 ADD MSTORE PUSH1 0x15 PUSH1 0x24 DUP3 ADD MSTORE PUSH32 0x50726F706F73616C20646964206E6F7420706173730000000000000000000000 PUSH1 0x44 DUP3 ADD MSTORE REVERT JUMPDEST CALLVALUE PUSH2 0x145 JUMPI PUSH1 0x0 PUSH1 0x3 NOT CALLDATASIZE ADD SLT PUSH2 0x145 JUMPI PUSH2 0x9CC PUSH2 0x1A85 JUMP JUMPDEST PUSH1 0x0 SLOAD PUSH1 0xFF DUP2 PUSH1 0xA0 SHR AND ISZERO PUSH2 0xA2C JUMPI PUSH32 0xFFFFFFFFFFFFFFFFFFFFFF00FFFFFFFFFFFFFFFFFFFFFFFFFFFFFFFFFFFFFFFF AND PUSH1 0x0 SSTORE PUSH32 0x5DB9EE0A495BF2E6FF9C91A7834C1BA4FDD244A5E8AA4E537BD38AEAE4B073AA PUSH1 0x20 PUSH1 0x40 MLOAD CALLER DUP2 MSTORE LOG1 STOP JUMPDEST PUSH1 0x4 PUSH1 0x40 MLOAD PUSH32 0x8DFC202B00000000000000000000000000000000000000000000000000000000 DUP2 MSTORE REVERT JUMPDEST CALLVALUE PUSH2 0x145 JUMPI PUSH1 0x40 PUSH1 0x3 NOT CALLDATASIZE ADD SLT PUSH2 0x145 JUMPI PUSH2 0xA6F PUSH2 0x1932 JUMP JUMPDEST PUSH1 0x4 CALLDATALOAD PUSH1 0x0 MSTORE PUSH1 0x5 PUSH1 0x20 MSTORE PUSH20 0xFFFFFFFFFFFFFFFFFFFFFFFFFFFFFFFFFFFFFFFF PUSH1 0x40 PUSH1 0x0 KECCAK256 SWAP2 AND PUSH1 0x0 MSTORE PUSH1 0x20 MSTORE PUSH1 0x20 PUSH1 0xFF PUSH1 0x40 PUSH1 0x0 KECCAK256 SLOAD AND PUSH1 0x40 MLOAD SWAP1 ISZERO ISZERO DUP2 MSTORE RETURN JUMPDEST CALLVALUE PUSH2 0x145 JUMPI PUSH1 0x20 PUSH1 0x3 NOT CALLDATASIZE ADD SLT PUSH2 0x145 JUMPI PUSH20 0xFFFFFFFFFFFFFFFFFFFFFFFFFFFFFFFFFFFFFFFF PUSH2 0xADF PUSH2 0x190F JUMP JUMPDEST AND PUSH1 0x0 MSTORE PUSH1 0x6 PUSH1 0x20 MSTORE PUSH1 0x20 PUSH1 0xFF PUSH1 0x40 PUSH1 0x0 KECCAK256 SLOAD AND PUSH1 0x40 MLOAD SWAP1 ISZERO ISZERO DUP2 MSTORE RETURN JUMPDEST CALLVALUE PUSH2 0x145 JUMPI PUSH1 0x20 PUSH1 0x3 NOT CALLDATASIZE ADD SLT PUSH2 0x145 JUMPI PUSH20 0xFFFFFFFFFFFFFFFFFFFFFFFFFFFFFFFFFFFFFFFF PUSH2 0xB2B PUSH2 0x190F JUMP JUMPDEST PUSH2 0xB33 PUSH2 0x1A85 JUMP JUMPDEST AND DUP1 PUSH1 0x0 MSTORE PUSH1 0x6 PUSH1 0x20 MSTORE PUSH1 0x40 PUSH1 0x0 KECCAK256 PUSH32 0xFFFFFFFFFFFFFFFFFFFFFFFFFFFFFFFFFFFFFFFFFFFFFFFFFFFFFFFFFFFFFF00 DUP2 SLOAD AND SWAP1 SSTORE PUSH32 0xCDD2E9B91A56913D370075169CEFA1602BA36BE5301664F752192BB1709DF757 PUSH1 0x0 DUP1 LOG2 STOP JUMPDEST CALLVALUE PUSH2 0x145 JUMPI PUSH1 0x60 PUSH1 0x3 NOT CALLDATASIZE ADD SLT PUSH2 0x145 JUMPI PUSH1 0x4 CALLDATALOAD PUSH8 0xFFFFFFFFFFFFFFFF DUP2 GT PUSH2 0x145 JUMPI CALLDATASIZE PUSH1 0x23 DUP3 ADD SLT ISZERO PUSH2 0x145 JUMPI PUSH2 0xBD2 PUSH1 0x24 SWAP2 CALLDATASIZE SWAP1 DUP4 DUP2 PUSH1 0x4 ADD CALLDATALOAD SWAP2 ADD PUSH2 0x1971 JUMP JUMPDEST PUSH2 0xBDA PUSH2 0x1932 JUMP JUMPDEST PUSH1 0x44 CALLDATALOAD PUSH8 0xFFFFFFFFFFFFFFFF DUP2 GT PUSH2 0x145 JUMPI CALLDATASIZE PUSH1 0x23 DUP3 ADD SLT ISZERO PUSH2 0x145 JUMPI PUSH2 0xC0A SWAP1 CALLDATASIZE SWAP1 DUP6 DUP2 PUSH1 0x4 ADD CALLDATALOAD SWAP2 ADD PUSH2 0x1971 JUMP JUMPDEST SWAP1 PUSH2 0xC13 PUSH2 0x1AD6 JUMP JUMPDEST CALLER PUSH1 0x0 MSTORE PUSH1 0x6 PUSH1 0x20 MSTORE PUSH1 0xFF PUSH1 0x40 PUSH1 0x0 KECCAK256 SLOAD AND ISZERO PUSH2 0x1270 JUMPI DUP4 PUSH1 0x20 PUSH20 0xFFFFFFFFFFFFFFFFFFFFFFFFFFFFFFFFFFFFFFFF PUSH1 0x7 SLOAD AND PUSH1 0x40 MLOAD SWAP3 DUP4 DUP1 SWAP3 PUSH32 0x70A0823100000000000000000000000000000000000000000000000000000000 DUP3 MSTORE CALLER PUSH1 0x4 DUP4 ADD MSTORE GAS STATICCALL DUP1 ISZERO PUSH2 0x735 JUMPI PUSH1 0x0 SWAP1 PUSH2 0x1235 JUMPI JUMPDEST PUSH9 0x56BC75E2D63100000 SWAP2 POP LT PUSH2 0x11CB JUMPI PUSH1 0x1 SLOAD SWAP2 PUSH32 0xFFFFFFFFFFFFFFFFFFFFFFFFFFFFFFFFFFFFFFFFFFFFFFFFFFFFFFFFFFFFFFFF DUP4 EQ PUSH2 0x119D JUMPI PUSH1 0x1 DUP4 ADD PUSH1 0x1 SSTORE PUSH2 0xCD5 PUSH1 0x2 SLOAD TIMESTAMP PUSH2 0x19F3 JUMP JUMPDEST PUSH1 0x40 MLOAD SWAP3 PUSH2 0x160 DUP5 ADD SWAP2 DUP5 DUP4 LT PUSH8 0xFFFFFFFFFFFFFFFF DUP5 GT OR PUSH2 0x116F JUMPI PUSH20 0xFFFFFFFFFFFFFFFFFFFFFFFFFFFFFFFFFFFFFFFF SWAP3 PUSH1 0x40 MSTORE DUP6 DUP6 MSTORE DUP7 PUSH1 0x20 DUP7 ADD MSTORE PUSH1 0x0 PUSH1 0x40 DUP7 ADD MSTORE PUSH1 0x0 PUSH1 0x60 DUP7 ADD MSTORE PUSH1 0x80 DUP6 ADD MSTORE PUSH1 0x0 PUSH1 0xA0 DUP6 ADD MSTORE PUSH1 0x0 PUSH1 0xC0 DUP6 ADD MSTORE PUSH1 0x0 PUSH1 0xE0 DUP6 ADD MSTORE CALLER PUSH2 0x100 DUP6 ADD MSTORE AND PUSH2 0x120 DUP4 ADD MSTORE PUSH2 0x140 DUP3 ADD MSTORE DUP2 PUSH1 0x0 MSTORE PUSH1 0x4 PUSH1 0x20 MSTORE PUSH1 0x40 PUSH1 0x0 KECCAK256 DUP2 MLOAD DUP2 SSTORE PUSH1 0x20 DUP3 ADD MLOAD DUP1 MLOAD SWAP1 PUSH8 0xFFFFFFFFFFFFFFFF DUP3 GT PUSH2 0x1141 JUMPI PUSH2 0xD93 DUP3 PUSH2 0xD8A PUSH1 0x1 DUP7 ADD SLOAD PUSH2 0x1776 JUMP JUMPDEST PUSH1 0x1 DUP7 ADD PUSH2 0x1A2F JUMP JUMPDEST PUSH1 0x20 SWAP1 PUSH1 0x1F DUP4 GT PUSH1 0x1 EQ PUSH2 0x10AD JUMPI DUP3 PUSH1 0x8 SWAP4 PUSH2 0x140 SWAP6 SWAP4 PUSH2 0xDE8 SWAP4 PUSH1 0x0 SWAP3 PUSH2 0x10A2 JUMPI JUMPDEST POP POP PUSH32 0xFFFFFFFFFFFFFFFFFFFFFFFFFFFFFFFFFFFFFFFFFFFFFFFFFFFFFFFFFFFFFFFF DUP3 PUSH1 0x1 SHL SWAP3 PUSH1 0x3 SHL SHR NOT AND OR SWAP1 JUMP JUMPDEST PUSH1 0x1 DUP3 ADD SSTORE JUMPDEST PUSH1 0x40 DUP5 ADD MLOAD PUSH1 0x2 DUP3 ADD SSTORE PUSH1 0x60 DUP5 ADD MLOAD PUSH1 0x3 DUP3 ADD SSTORE PUSH1 0x80 DUP5 ADD MLOAD PUSH1 0x4 DUP3 ADD SSTORE PUSH1 0xA0 DUP5 ADD MLOAD PUSH1 0x5 DUP3 ADD SSTORE PUSH1 0x6 DUP2 ADD PUSH1 0xC0 DUP6 ADD MLOAD ISZERO ISZERO DUP2 SLOAD PUSH2 0xFF00 PUSH1 0xE0 DUP9 ADD MLOAD ISZERO ISZERO SWAP2 PUSH32 0xFFFFFFFFFFFFFFFFFFFF00000000000000000000000000000000000000000000 PUSH32 0xFFFFFFFFFFFFFFFFFFFF0000000000000000000000000000000000000000FFFF PUSH1 0xFF PUSH22 0xFFFFFFFFFFFFFFFFFFFFFFFFFFFFFFFFFFFFFFFF0000 PUSH2 0x100 DUP14 ADD MLOAD PUSH1 0x10 SHL AND SWAP7 AND AND SWAP2 AND OR SWAP2 DUP7 SHL AND OR OR SWAP1 SSTORE PUSH1 0x7 DUP2 ADD PUSH20 0xFFFFFFFFFFFFFFFFFFFFFFFFFFFFFFFFFFFFFFFF PUSH2 0x120 DUP7 ADD MLOAD AND PUSH32 0xFFFFFFFFFFFFFFFFFFFFFFFF0000000000000000000000000000000000000000 DUP3 SLOAD AND OR SWAP1 SSTORE ADD SWAP2 ADD MLOAD SWAP4 DUP5 MLOAD SWAP1 PUSH8 0xFFFFFFFFFFFFFFFF DUP3 GT PUSH2 0x1075 JUMPI POP PUSH2 0xF14 DUP2 PUSH2 0xF0E DUP5 SLOAD PUSH2 0x1776 JUMP JUMPDEST DUP5 PUSH2 0x1A2F JUMP JUMPDEST PUSH1 0x20 PUSH1 0x1F DUP3 GT PUSH1 0x1 EQ PUSH2 0xFCF JUMPI SWAP1 DUP1 PUSH2 0xF82 SWAP3 PUSH32 0x9CC3D9DD626042CDEFB76484B91708C3207B637214B44F20111C893548D9C85F SWAP8 PUSH1 0x0 SWAP3 PUSH2 0xFC4 JUMPI POP POP PUSH32 0xFFFFFFFFFFFFFFFFFFFFFFFFFFFFFFFFFFFFFFFFFFFFFFFFFFFFFFFFFFFFFFFF DUP3 PUSH1 0x1 SHL SWAP3 PUSH1 0x3 SHL SHR NOT AND OR SWAP1 JUMP JUMPDEST SWAP1 SSTORE JUMPDEST DUP1 PUSH1 0x0 MSTORE PUSH1 0x4 PUSH1 0x20 MSTORE PUSH1 0x4 PUSH1 0x40 PUSH1 0x0 KECCAK256 ADD SLOAD PUSH2 0xFB3 PUSH1 0x40 MLOAD SWAP4 DUP5 SWAP4 DUP5 MSTORE PUSH1 0x80 PUSH1 0x20 DUP6 ADD MSTORE PUSH1 0x80 DUP5 ADD SWAP1 PUSH2 0x18CF JUMP JUMPDEST SWAP1 CALLER PUSH1 0x40 DUP5 ADD MSTORE PUSH1 0x60 DUP4 ADD MSTORE SUB SWAP1 LOG1 STOP JUMPDEST ADD MLOAD SWAP1 POP DUP8 DUP1 PUSH2 0xDB6 JUMP JUMPDEST PUSH1 0x1F NOT DUP3 AND SWAP6 DUP4 PUSH1 0x0 MSTORE PUSH1 0x20 PUSH1 0x0 KECCAK256 SWAP7 PUSH1 0x0 JUMPDEST DUP2 DUP2 LT PUSH2 0x105D JUMPI POP SWAP2 PUSH32 0x9CC3D9DD626042CDEFB76484B91708C3207B637214B44F20111C893548D9C85F SWAP8 SWAP2 DUP5 PUSH1 0x1 SWAP6 SWAP5 LT PUSH2 0x1026 JUMPI JUMPDEST POP POP POP DUP2 SHL ADD SWAP1 SSTORE PUSH2 0xF85 JUMP JUMPDEST ADD MLOAD PUSH32 0xFFFFFFFFFFFFFFFFFFFFFFFFFFFFFFFFFFFFFFFFFFFFFFFFFFFFFFFFFFFFFFFF PUSH1 0xF8 DUP5 PUSH1 0x3 SHL AND SHR NOT AND SWAP1 SSTORE DUP7 DUP1 DUP1 PUSH2 0x1019 JUMP JUMPDEST DUP4 DUP4 ADD MLOAD DUP10 SSTORE PUSH1 0x1 SWAP1 SWAP9 ADD SWAP8 PUSH1 0x20 SWAP4 DUP5 ADD SWAP4 ADD PUSH2 0xFE2 JUMP JUMPDEST PUSH32 0x4E487B7100000000000000000000000000000000000000000000000000000000 PUSH1 0x0 MSTORE PUSH1 0x41 PUSH1 0x4 MSTORE PUSH1 0x0 REVERT JUMPDEST ADD MLOAD SWAP1 POP DUP11 DUP1 PUSH2 0xDB6 JUMP JUMPDEST SWAP1 PUSH1 0x1 DUP5 ADD PUSH1 0x0 MSTORE PUSH1 0x20 PUSH1 0x0 KECCAK256 SWAP2 PUSH1 0x0 JUMPDEST PUSH1 0x1F NOT DUP6 AND DUP2 LT PUSH2 0x1129 JUMPI POP SWAP3 PUSH2 0x140 SWAP5 SWAP3 PUSH1 0x1 SWAP3 PUSH1 0x8 SWAP6 DUP4 PUSH1 0x1F NOT DUP2 AND LT PUSH2 0x10F2 JUMPI JUMPDEST POP POP POP DUP2 SHL ADD PUSH1 0x1 DUP3 ADD SSTORE PUSH2 0xDEE JUMP JUMPDEST ADD MLOAD PUSH32 0xFFFFFFFFFFFFFFFFFFFFFFFFFFFFFFFFFFFFFFFFFFFFFFFFFFFFFFFFFFFFFFFF PUSH1 0xF8 DUP5 PUSH1 0x3 SHL AND SHR NOT AND SWAP1 SSTORE DUP10 DUP1 DUP1 PUSH2 0x10E2 JUMP JUMPDEST SWAP2 SWAP3 PUSH1 0x20 PUSH1 0x1 DUP2 SWAP3 DUP7 DUP6 ADD MLOAD DUP2 SSTORE ADD SWAP5 ADD SWAP3 ADD PUSH2 0x10BE JUMP JUMPDEST DUP7 PUSH32 0x4E487B7100000000000000000000000000000000000000000000000000000000 PUSH1 0x0 MSTORE PUSH1 0x41 PUSH1 0x4 MSTORE PUSH1 0x0 REVERT JUMPDEST DUP8 PUSH32 0x4E487B7100000000000000000000000000000000000000000000000000000000 PUSH1 0x0 MSTORE PUSH1 0x41 PUSH1 0x4 MSTORE PUSH1 0x0 REVERT JUMPDEST DUP5 PUSH32 0x4E487B7100000000000000000000000000000000000000000000000000000000 PUSH1 0x0 MSTORE PUSH1 0x11 PUSH1 0x4 MSTORE PUSH1 0x0 REVERT JUMPDEST PUSH1 0x84 DUP5 PUSH1 0x26 PUSH1 0x40 MLOAD SWAP2 PUSH3 0x461BCD PUSH1 0xE5 SHL DUP4 MSTORE PUSH1 0x20 PUSH1 0x4 DUP5 ADD MSTORE DUP3 ADD MSTORE PUSH32 0x4D75737420686F6C64206174206C6561737420313030204C59544820746F2070 PUSH1 0x44 DUP3 ADD MSTORE PUSH32 0x726F706F73650000000000000000000000000000000000000000000000000000 PUSH1 0x64 DUP3 ADD MSTORE REVERT JUMPDEST POP PUSH1 0x20 DUP2 RETURNDATASIZE PUSH1 0x20 GT PUSH2 0x1268 JUMPI JUMPDEST DUP2 PUSH2 0x124F PUSH1 0x20 SWAP4 DUP4 PUSH2 0x187D JUMP JUMPDEST DUP2 ADD SUB SLT PUSH2 0x145 JUMPI PUSH9 0x56BC75E2D63100000 SWAP1 MLOAD PUSH2 0xC86 JUMP JUMPDEST RETURNDATASIZE SWAP2 POP PUSH2 0x1242 JUMP JUMPDEST PUSH1 0x84 DUP5 PUSH1 0x23 PUSH1 0x40 MLOAD SWAP2 PUSH3 0x461BCD PUSH1 0xE5 SHL DUP4 MSTORE PUSH1 0x20 PUSH1 0x4 DUP5 ADD MSTORE DUP3 ADD MSTORE PUSH32 0x4E6F742077686974656C697374656420746F206372656174652070726F706F73 PUSH1 0x44 DUP3 ADD MSTORE PUSH32 0x616C730000000000000000000000000000000000000000000000000000000000 PUSH1 0x64 DUP3 ADD MSTORE REVERT JUMPDEST CALLVALUE PUSH2 0x145 JUMPI PUSH1 0x0 PUSH1 0x3 NOT CALLDATASIZE ADD SLT PUSH2 0x145 JUMPI PUSH2 0x12F3 PUSH2 0x1A85 JUMP JUMPDEST PUSH2 0x12FB PUSH2 0x1AD6 JUMP JUMPDEST PUSH21 0x10000000000000000000000000000000000000000 PUSH32 0xFFFFFFFFFFFFFFFFFFFFFF00FFFFFFFFFFFFFFFFFFFFFFFFFFFFFFFFFFFFFFFF PUSH1 0x0 SLOAD AND OR PUSH1 0x0 SSTORE PUSH32 0x62E78CEA01BEE320CD4E420270B5EA74000D11B0C9F74754EBDBFC544B05A258 PUSH1 0x20 PUSH1 0x40 MLOAD CALLER DUP2 MSTORE LOG1 STOP JUMPDEST CALLVALUE PUSH2 0x145 JUMPI PUSH1 0x20 PUSH1 0x3 NOT CALLDATASIZE ADD SLT PUSH2 0x145 JUMPI PUSH20 0xFFFFFFFFFFFFFFFFFFFFFFFFFFFFFFFFFFFFFFFF PUSH2 0x1394 PUSH2 0x190F JUMP JUMPDEST PUSH2 0x139C PUSH2 0x1A85 JUMP JUMPDEST AND DUP1 PUSH1 0x0 MSTORE PUSH1 0x6 PUSH1 0x20 MSTORE PUSH1 0x40 PUSH1 0x0 KECCAK256 PUSH1 0x1 PUSH32 0xFFFFFFFFFFFFFFFFFFFFFFFFFFFFFFFFFFFFFFFFFFFFFFFFFFFFFFFFFFFFFF00 DUP3 SLOAD AND OR SWAP1 SSTORE PUSH32 0xAAB7954E9D246B167EF88AEDDAD35209CA2489D95A8AEB59E288D9B19FAE5A54 PUSH1 0x0 DUP1 LOG2 STOP JUMPDEST CALLVALUE PUSH2 0x145 JUMPI PUSH1 0x20 DUP1 PUSH1 0x3 NOT CALLDATASIZE ADD SLT PUSH2 0x145 JUMPI PUSH1 0x4 CALLDATALOAD SWAP1 PUSH2 0x1419 PUSH2 0x1A85 JUMP JUMPDEST PUSH2 0x1421 PUSH2 0x1AD6 JUMP JUMPDEST DUP2 PUSH1 0x0 MSTORE PUSH1 0x4 DUP2 MSTORE PUSH1 0x40 PUSH1 0x0 KECCAK256 PUSH1 0x6 DUP2 ADD DUP1 SLOAD PUSH1 0xFF DUP2 AND PUSH2 0x1612 JUMPI PUSH2 0x144C PUSH1 0xFF DUP3 PUSH1 0x8 SHR AND ISZERO PUSH2 0x19A8 JUMP JUMPDEST PUSH1 0x5 DUP4 ADD SLOAD TIMESTAMP LT PUSH2 0x15CE JUMPI PUSH1 0x1 SWAP2 PUSH1 0x1 PUSH32 0xFFFFFFFFFFFFFFFFFFFFFFFFFFFFFFFFFFFFFFFFFFFFFFFFFFFFFFFFFFFFFF00 DUP1 SWAP4 AND OR SWAP1 SSTORE PUSH1 0x8 PUSH20 0xFFFFFFFFFFFFFFFFFFFFFFFFFFFFFFFFFFFFFFFF PUSH1 0x7 DUP6 ADD SLOAD AND SWAP4 ADD SWAP1 PUSH1 0x40 MLOAD SWAP3 PUSH1 0x0 SWAP3 DUP1 SLOAD PUSH2 0x14B5 DUP2 PUSH2 0x1776 JUMP JUMPDEST SWAP4 PUSH1 0x1 DUP3 AND SWAP2 DUP3 ISZERO PUSH2 0x15B7 JUMPI POP POP PUSH1 0x1 EQ PUSH2 0x157C JUMPI JUMPDEST POP POP POP SWAP2 DUP2 PUSH1 0x0 DUP1 SWAP5 SWAP4 DUP2 SWAP5 SUB SWAP3 GAS CALL RETURNDATASIZE ISZERO PUSH2 0x1577 JUMPI RETURNDATASIZE PUSH2 0x14EB DUP2 PUSH2 0x1955 JUMP JUMPDEST SWAP1 PUSH2 0x14F9 PUSH1 0x40 MLOAD SWAP3 DUP4 PUSH2 0x187D JUMP JUMPDEST DUP2 MSTORE PUSH1 0x0 DUP4 RETURNDATASIZE SWAP3 ADD RETURNDATACOPY JUMPDEST ISZERO PUSH2 0x1533 JUMPI PUSH32 0x712AE1383F79AC853F8D882153778E0260EF8F03B504E2866E0593E04D2B291F SWAP2 PUSH1 0x40 MLOAD SWAP1 DUP2 MSTORE LOG1 STOP JUMPDEST PUSH1 0x64 SWAP1 PUSH1 0x40 MLOAD SWAP1 PUSH3 0x461BCD PUSH1 0xE5 SHL DUP3 MSTORE PUSH1 0x4 DUP3 ADD MSTORE PUSH1 0x19 PUSH1 0x24 DUP3 ADD MSTORE PUSH32 0x50726F706F73616C20657865637574696F6E206661696C656400000000000000 PUSH1 0x44 DUP3 ADD MSTORE REVERT JUMPDEST PUSH2 0x1503 JUMP JUMPDEST SWAP1 SWAP2 SWAP3 POP PUSH1 0x0 MSTORE DUP5 PUSH1 0x0 KECCAK256 SWAP1 DUP6 PUSH1 0x0 SWAP3 JUMPDEST DUP5 DUP5 LT PUSH2 0x15A5 JUMPI POP POP POP SWAP1 DUP3 ADD SWAP1 POP DUP2 PUSH1 0x0 DUP1 PUSH2 0x14CB JUMP JUMPDEST DUP1 SLOAD DUP7 DUP6 ADD MSTORE SWAP3 ADD SWAP2 DUP7 SWAP1 DUP3 ADD PUSH2 0x158D JUMP JUMPDEST AND DUP7 MSTORE POP POP POP DUP1 ISZERO ISZERO MUL DUP3 ADD SWAP1 POP DUP2 PUSH1 0x0 DUP1 PUSH2 0x14CB JUMP JUMPDEST PUSH1 0x64 DUP5 PUSH1 0x40 MLOAD SWAP1 PUSH3 0x461BCD PUSH1 0xE5 SHL DUP3 MSTORE PUSH1 0x4 DUP3 ADD MSTORE PUSH1 0x16 PUSH1 0x24 DUP3 ADD MSTORE PUSH32 0x457865637574696F6E2064656C61792061637469766500000000000000000000 PUSH1 0x44 DUP3 ADD MSTORE REVERT JUMPDEST PUSH1 0x64 DUP5 PUSH1 0x40 MLOAD SWAP1 PUSH3 0x461BCD PUSH1 0xE5 SHL DUP3 MSTORE PUSH1 0x4 DUP3 ADD MSTORE PUSH1 0x10 PUSH1 0x24 DUP3 ADD MSTORE PUSH32 0x416C726561647920657865637574656400000000000000000000000000000000 PUSH1 0x44 DUP3 ADD MSTORE REVERT JUMPDEST CALLVALUE PUSH2 0x145 JUMPI PUSH1 0x0 PUSH1 0x3 NOT CALLDATASIZE ADD SLT PUSH2 0x145 JUMPI PUSH1 0x20 PUSH1 0x2 SLOAD PUSH1 0x40 MLOAD SWAP1 DUP2 MSTORE RETURN JUMPDEST CALLVALUE PUSH2 0x145 JUMPI PUSH1 0x20 PUSH1 0x3 NOT CALLDATASIZE ADD SLT PUSH2 0x145 JUMPI PUSH1 0x4 CALLDATALOAD PUSH1 0x0 MSTORE PUSH1 0x4 PUSH1 0x20 MSTORE PUSH1 0x40 PUSH1 0x0 KECCAK256 PUSH2 0x1772 DUP2 SLOAD SWAP2 PUSH2 0x16B3 DUP5 PUSH2 0x16AC DUP2 PUSH1 0x1 DUP6 ADD PUSH2 0x17C9 JUMP JUMPDEST SUB DUP6 PUSH2 0x187D JUMP JUMPDEST PUSH1 0x8 PUSH1 0x2 DUP3 ADD SLOAD SWAP2 PUSH1 0x3 DUP2 ADD SLOAD PUSH1 0x4 DUP3 ADD SLOAD PUSH1 0x5 DUP4 ADD SLOAD PUSH1 0x6 DUP5 ADD SLOAD SWAP2 PUSH20 0xFFFFFFFFFFFFFFFFFFFFFFFFFFFFFFFFFFFFFFFF SWAP4 PUSH2 0x1708 DUP6 PUSH1 0x7 DUP9 ADD SLOAD AND SWAP7 PUSH2 0x1701 PUSH1 0x40 MLOAD DUP1 SWAP11 DUP2 SWAP4 ADD PUSH2 0x17C9 JUMP JUMPDEST SUB DUP9 PUSH2 0x187D JUMP JUMPDEST PUSH2 0x1726 PUSH1 0x40 MLOAD SWAP12 DUP13 DUP1 SWAP13 PUSH1 0x20 PUSH2 0x160 SWAP3 DUP4 SWAP3 DUP2 MSTORE ADD MSTORE DUP13 ADD SWAP1 PUSH2 0x18CF JUMP JUMPDEST SWAP8 PUSH1 0x40 DUP12 ADD MSTORE PUSH1 0x60 DUP11 ADD MSTORE PUSH1 0x80 DUP10 ADD MSTORE PUSH1 0xA0 DUP9 ADD MSTORE PUSH1 0xFF DUP2 AND ISZERO ISZERO PUSH1 0xC0 DUP9 ADD MSTORE PUSH1 0xFF DUP2 PUSH1 0x8 SHR AND ISZERO ISZERO PUSH1 0xE0 DUP9 ADD MSTORE PUSH1 0x10 SHR AND PUSH2 0x100 DUP7 ADD MSTORE PUSH2 0x120 DUP6 ADD MSTORE DUP4 DUP3 SUB PUSH2 0x140 DUP6 ADD MSTORE PUSH2 0x18CF JUMP JUMPDEST SUB SWAP1 RETURN JUMPDEST SWAP1 PUSH1 0x1 DUP3 DUP2 SHR SWAP3 AND DUP1 ISZERO PUSH2 0x17BF JUMPI JUMPDEST PUSH1 0x20 DUP4 LT EQ PUSH2 0x1790 JUMPI JUMP JUMPDEST PUSH32 0x4E487B7100000000000000000000000000000000000000000000000000000000 PUSH1 0x0 MSTORE PUSH1 0x22 PUSH1 0x4 MSTORE PUSH1 0x24 PUSH1 0x0 REVERT JUMPDEST SWAP2 PUSH1 0x7F AND SWAP2 PUSH2 0x1785 JUMP JUMPDEST DUP1 SLOAD PUSH1 0x0 SWAP4 SWAP3 PUSH2 0x17D8 DUP3 PUSH2 0x1776 JUMP JUMPDEST SWAP2 DUP3 DUP3 MSTORE PUSH1 0x20 SWAP4 PUSH1 0x1 SWAP2 PUSH1 0x1 DUP2 AND SWAP1 DUP2 PUSH1 0x0 EQ PUSH2 0x1840 JUMPI POP PUSH1 0x1 EQ PUSH2 0x17FF JUMPI JUMPDEST POP POP POP POP POP JUMP JUMPDEST SWAP1 SWAP4 SWAP5 SWAP6 POP PUSH1 0x0 SWAP3 SWAP2 SWAP3 MSTORE DUP4 PUSH1 0x0 KECCAK256 SWAP3 DUP5 PUSH1 0x0 SWAP5 JUMPDEST DUP4 DUP7 LT PUSH2 0x182C JUMPI POP POP POP POP ADD ADD SWAP1 CODESIZE DUP1 DUP1 DUP1 DUP1 PUSH2 0x17F8 JUMP JUMPDEST DUP1 SLOAD DUP6 DUP8 ADD DUP4 ADD MSTORE SWAP5 ADD SWAP4 DUP6 SWAP1 DUP3 ADD PUSH2 0x1814 JUMP JUMPDEST PUSH32 0xFFFFFFFFFFFFFFFFFFFFFFFFFFFFFFFFFFFFFFFFFFFFFFFFFFFFFFFFFFFFFF00 AND DUP7 DUP6 ADD MSTORE POP POP POP SWAP1 ISZERO ISZERO PUSH1 0x5 SHL ADD ADD SWAP2 POP CODESIZE DUP1 DUP1 DUP1 DUP1 PUSH2 0x17F8 JUMP JUMPDEST SWAP1 PUSH1 0x1F PUSH1 0x1F NOT SWAP2 ADD AND DUP2 ADD SWAP1 DUP2 LT PUSH8 0xFFFFFFFFFFFFFFFF DUP3 GT OR PUSH2 0x18A0 JUMPI PUSH1 0x40 MSTORE JUMP JUMPDEST PUSH32 0x4E487B7100000000000000000000000000000000000000000000000000000000 PUSH1 0x0 MSTORE PUSH1 0x41 PUSH1 0x4 MSTORE PUSH1 0x24 PUSH1 0x0 REVERT JUMPDEST SWAP2 SWAP1 DUP3 MLOAD SWAP3 DUP4 DUP3 MSTORE PUSH1 0x0 JUMPDEST DUP5 DUP2 LT PUSH2 0x18FB JUMPI POP POP PUSH1 0x1F NOT PUSH1 0x1F DUP5 PUSH1 0x0 PUSH1 0x20 DUP1 SWAP7 SWAP8 DUP7 ADD ADD MSTORE ADD AND ADD ADD SWAP1 JUMP JUMPDEST PUSH1 0x20 DUP2 DUP4 ADD DUP2 ADD MLOAD DUP5 DUP4 ADD DUP3 ADD MSTORE ADD PUSH2 0x18DA JUMP JUMPDEST PUSH1 0x4 CALLDATALOAD SWAP1 PUSH20 0xFFFFFFFFFFFFFFFFFFFFFFFFFFFFFFFFFFFFFFFF DUP3 AND DUP3 SUB PUSH2 0x145 JUMPI JUMP JUMPDEST PUSH1 0x24 CALLDATALOAD SWAP1 PUSH20 0xFFFFFFFFFFFFFFFFFFFFFFFFFFFFFFFFFFFFFFFF DUP3 AND DUP3 SUB PUSH2 0x145 JUMPI JUMP JUMPDEST PUSH8 0xFFFFFFFFFFFFFFFF DUP2 GT PUSH2 0x18A0 JUMPI PUSH1 0x1F ADD PUSH1 0x1F NOT AND PUSH1 0x20 ADD SWAP1 JUMP JUMPDEST SWAP3 SWAP2 SWAP3 PUSH2 0x197D DUP3 PUSH2 0x1955 JUMP JUMPDEST SWAP2 PUSH2 0x198B PUSH1 0x40 MLOAD SWAP4 DUP5 PUSH2 0x187D JUMP JUMPDEST DUP3 SWAP5 DUP2 DUP5 MSTORE DUP2 DUP4 ADD GT PUSH2 0x145 JUMPI DUP3 DUP2 PUSH1 0x20 SWAP4 DUP5 PUSH1 0x0 SWAP7 ADD CALLDATACOPY ADD ADD MSTORE JUMP JUMPDEST ISZERO PUSH2 0x19AF JUMPI JUMP JUMPDEST PUSH1 0x64 PUSH1 0x40 MLOAD PUSH3 0x461BCD PUSH1 0xE5 SHL DUP2 MSTORE PUSH1 0x20 PUSH1 0x4 DUP3 ADD MSTORE PUSH1 0x15 PUSH1 0x24 DUP3 ADD MSTORE PUSH32 0x50726F706F73616C207761732063616E63656C65640000000000000000000000 PUSH1 0x44 DUP3 ADD MSTORE REVERT JUMPDEST SWAP2 SWAP1 DUP3 ADD DUP1 SWAP3 GT PUSH2 0x1A00 JUMPI JUMP JUMPDEST PUSH32 0x4E487B7100000000000000000000000000000000000000000000000000000000 PUSH1 0x0 MSTORE PUSH1 0x11 PUSH1 0x4 MSTORE PUSH1 0x24 PUSH1 0x0 REVERT JUMPDEST SWAP1 PUSH1 0x1F DUP2 GT PUSH2 0x1A3D JUMPI POP POP POP JUMP JUMPDEST PUSH1 0x0 SWAP2 PUSH1 0x0 MSTORE PUSH1 0x20 PUSH1 0x0 KECCAK256 SWAP1 PUSH1 0x20 PUSH1 0x1F DUP6 ADD PUSH1 0x5 SHR DUP4 ADD SWAP5 LT PUSH2 0x1A7B JUMPI JUMPDEST PUSH1 0x1F ADD PUSH1 0x5 SHR ADD SWAP2 JUMPDEST DUP3 DUP2 LT PUSH2 0x1A70 JUMPI POP POP POP JUMP JUMPDEST DUP2 DUP2 SSTORE PUSH1 0x1 ADD PUSH2 0x1A64 JUMP JUMPDEST SWAP1 SWAP3 POP DUP3 SWAP1 PUSH2 0x1A5B JUMP JUMPDEST PUSH20 0xFFFFFFFFFFFFFFFFFFFFFFFFFFFFFFFFFFFFFFFF PUSH1 0x0 SLOAD AND CALLER SUB PUSH2 0x1AA6 JUMPI JUMP JUMPDEST PUSH1 0x24 PUSH1 0x40 MLOAD PUSH32 0x118CDAA700000000000000000000000000000000000000000000000000000000 DUP2 MSTORE CALLER PUSH1 0x4 DUP3 ADD MSTORE REVERT JUMPDEST PUSH1 0xFF PUSH1 0x0 SLOAD PUSH1 0xA0 SHR AND PUSH2 0x1AE5 JUMPI JUMP JUMPDEST PUSH1 0x4 PUSH1 0x40 MLOAD PUSH32 0xD93C066500000000000000000000000000000000000000000000000000000000 DUP2 MSTORE REVERT INVALID LOG2 PUSH5 0x6970667358 0x22 SLT KECCAK256 SWAP16 PC DUP16 0xE5 CALLDATACOPY 0xBC ISZERO PUSH29 0x5374080093293612FE00BB22E4FB3C81EC45B9E96DD4DBF464736F6C63 NUMBER STOP ADDMOD AND STOP CALLER "},"methodIdentifiers":{"addWhitelisted(address)":"10154bad","cancelProposal(uint256)":"e0a8f6f5","createProposal(string,address,bytes)":"2821ff26","executeProposal(uint256)":"0d61b519","executionDelay()":"8b257989","finalizeProposal(uint256)":"5652077c","governanceToken()":"f96dae0a","hasVoted(uint256,address)":"43859632","isWhitelisted(address)":"3af32abf","owner()":"8da5cb5b","pauseGovernance()":"1b93a3ee","paused()":"5c975abb","proposalCount()":"da35c664","proposals(uint256)":"013cf08b","removeWhitelisted(address)":"291d9549","renounceOwnership()":"715018a6","setExecutionDelay(uint256)":"e4917d9f","setVotingPeriod(uint256)":"ea0217cf","transferOwnership(address)":"f2fde38b","unpauseGovernance()":"548a6594","vote(uint256,bool)":"c9d27afe","votingPeriod()":"02a251a3"}}}}}