{"contracts/Mintium.sol":{"Mintium":{"abi":[{"inputs":[{"internalType":"address","name":"initialOwner","type":"address"},{"internalType":"address","name":"_treasury","type":"address"}],"stateMutability":"nonpayable","type":"constructor"},{"inputs":[{"internalType":"address","name":"spender","type":"address"},{"internalType":"uint256","name":"allowance","type":"uint256"},{"internalType":"uint256","name":"needed","type":"uint256"}],"name":"ERC20InsufficientAllowance","type":"error"},{"inputs":[{"internalType":"address","name":"sender","type":"address"},{"internalType":"uint256","name":"balance","type":"uint256"},{"internalType":"uint256","name":"needed","type":"uint256"}],"name":"ERC20InsufficientBalance","type":"error"},{"inputs":[{"internalType":"address","name":"approver","type":"address"}],"name":"ERC20InvalidApprover","type":"error"},{"inputs":[{"internalType":"address","name":"receiver","type":"address"}],"name":"ERC20InvalidReceiver","type":"error"},{"inputs":[{"internalType":"address","name":"sender","type":"address"}],"name":"ERC20InvalidSender","type":"error"},{"inputs":[{"internalType":"address","name":"spender","type":"address"}],"name":"ERC20InvalidSpender","type":"error"},{"inputs":[{"internalType":"address","name":"owner","type":"address"}],"name":"OwnableInvalidOwner","type":"error"},{"inputs":[{"internalType":"address","name":"account","type":"address"}],"name":"OwnableUnauthorizedAccount","type":"error"},{"inputs":[],"name":"ReentrancyGuardReentrantCall","type":"error"},{"anonymous":false,"inputs":[{"indexed":true,"internalType":"address","name":"owner","type":"address"},{"indexed":true,"internalType":"address","name":"spender","type":"address"},{"indexed":false,"internalType":"uint256","name":"value","type":"uint256"}],"name":"Approval","type":"event"},{"anonymous":false,"inputs":[{"indexed":true,"internalType":"address","name":"user","type":"address"},{"indexed":false,"internalType":"bool","name":"isExcluded","type":"bool"}],"name":"ExcludedFromFees","type":"event"},{"anonymous":false,"inputs":[{"indexed":false,"internalType":"uint256","name":"newFee","type":"uint256"}],"name":"FeeUpdated","type":"event"},{"anonymous":false,"inputs":[{"indexed":true,"internalType":"address","name":"user","type":"address"},{"indexed":false,"internalType":"uint256","name":"amount","type":"uint256"}],"name":"LiquidityDeposited","type":"event"},{"anonymous":false,"inputs":[{"indexed":true,"internalType":"address","name":"user","type":"address"},{"indexed":false,"internalType":"uint256","name":"amount","type":"uint256"}],"name":"LiquidityWithdrawn","type":"event"},{"anonymous":false,"inputs":[{"indexed":true,"internalType":"address","name":"user","type":"address"},{"indexed":false,"internalType":"uint256","name":"amount","type":"uint256"}],"name":"NFTMinted","type":"event"},{"anonymous":false,"inputs":[{"indexed":true,"internalType":"address","name":"previousOwner","type":"address"},{"indexed":true,"internalType":"address","name":"newOwner","type":"address"}],"name":"OwnershipTransferred","type":"event"},{"anonymous":false,"inputs":[{"indexed":false,"internalType":"uint256","name":"newRewardRate","type":"uint256"}],"name":"StakingRewardUpdated","type":"event"},{"anonymous":false,"inputs":[{"indexed":true,"internalType":"address","name":"user","type":"address"},{"indexed":false,"internalType":"uint256","name":"amount","type":"uint256"}],"name":"TokensStaked","type":"event"},{"anonymous":false,"inputs":[{"indexed":true,"internalType":"address","name":"user","type":"address"},{"indexed":false,"internalType":"uint256","name":"amount","type":"uint256"}],"name":"TokensUnstaked","type":"event"},{"anonymous":false,"inputs":[{"indexed":true,"internalType":"address","name":"from","type":"address"},{"indexed":true,"internalType":"address","name":"to","type":"address"},{"indexed":false,"internalType":"uint256","name":"value","type":"uint256"}],"name":"Transfer","type":"event"},{"anonymous":false,"inputs":[{"indexed":false,"internalType":"address","name":"newTreasury","type":"address"}],"name":"TreasuryUpdated","type":"event"},{"inputs":[{"internalType":"address","name":"owner","type":"address"},{"internalType":"address","name":"spender","type":"address"}],"name":"allowance","outputs":[{"internalType":"uint256","name":"","type":"uint256"}],"stateMutability":"view","type":"function"},{"inputs":[{"internalType":"address","name":"spender","type":"address"},{"internalType":"uint256","name":"value","type":"uint256"}],"name":"approve","outputs":[{"internalType":"bool","name":"","type":"bool"}],"stateMutability":"nonpayable","type":"function"},{"inputs":[{"internalType":"address","name":"account","type":"address"}],"name":"balanceOf","outputs":[{"internalType":"uint256","name":"","type":"uint256"}],"stateMutability":"view","type":"function"},{"inputs":[{"internalType":"uint256","name":"value","type":"uint256"}],"name":"burn","outputs":[],"stateMutability":"nonpayable","type":"function"},{"inputs":[{"internalType":"address","name":"account","type":"address"},{"internalType":"uint256","name":"value","type":"uint256"}],"name":"burnFrom","outputs":[],"stateMutability":"nonpayable","type":"function"},{"inputs":[],"name":"claimStakingRewards","outputs":[],"stateMutability":"nonpayable","type":"function"},{"inputs":[],"name":"decimals","outputs":[{"internalType":"uint8","name":"","type":"uint8"}],"stateMutability":"view","type":"function"},{"inputs":[{"internalType":"uint256","name":"amount","type":"uint256"}],"name":"depositLiquidity","outputs":[],"stateMutability":"nonpayable","type":"function"},{"inputs":[{"internalType":"address","name":"","type":"address"}],"name":"isExcludedFromFees","outputs":[{"internalType":"bool","name":"","type":"bool"}],"stateMutability":"view","type":"function"},{"inputs":[],"name":"liquidityPool","outputs":[{"internalType":"address","name":"","type":"address"}],"stateMutability":"view","type":"function"},{"inputs":[],"name":"name","outputs":[{"internalType":"string","name":"","type":"string"}],"stateMutability":"view","type":"function"},{"inputs":[],"name":"nftMarketplace","outputs":[{"internalType":"address","name":"","type":"address"}],"stateMutability":"view","type":"function"},{"inputs":[],"name":"owner","outputs":[{"internalType":"address","name":"","type":"address"}],"stateMutability":"view","type":"function"},{"inputs":[],"name":"renounceOwnership","outputs":[],"stateMutability":"nonpayable","type":"function"},{"inputs":[{"internalType":"address","name":"user","type":"address"},{"internalType":"bool","name":"exclude","type":"bool"}],"name":"setExcludedFromFees","outputs":[],"stateMutability":"nonpayable","type":"function"},{"inputs":[{"internalType":"uint256","name":"newRate","type":"uint256"}],"name":"setStakingRewardRate","outputs":[],"stateMutability":"nonpayable","type":"function"},{"inputs":[{"internalType":"uint256","name":"newFee","type":"uint256"}],"name":"setTransactionFee","outputs":[],"stateMutability":"nonpayable","type":"function"},{"inputs":[{"internalType":"uint256","name":"amount","type":"uint256"}],"name":"stake","outputs":[],"stateMutability":"nonpayable","type":"function"},{"inputs":[{"internalType":"address","name":"","type":"address"}],"name":"stakingBalances","outputs":[{"internalType":"uint256","name":"","type":"uint256"}],"stateMutability":"view","type":"function"},{"inputs":[],"name":"stakingRewardRate","outputs":[{"internalType":"uint256","name":"","type":"uint256"}],"stateMutability":"view","type":"function"},{"inputs":[{"internalType":"address","name":"","type":"address"}],"name":"stakingStartTime","outputs":[{"internalType":"uint256","name":"","type":"uint256"}],"stateMutability":"view","type":"function"},{"inputs":[],"name":"symbol","outputs":[{"internalType":"string","name":"","type":"string"}],"stateMutability":"view","type":"function"},{"inputs":[],"name":"totalStaked","outputs":[{"internalType":"uint256","name":"","type":"uint256"}],"stateMutability":"view","type":"function"},{"inputs":[],"name":"totalSupply","outputs":[{"internalType":"uint256","name":"","type":"uint256"}],"stateMutability":"view","type":"function"},{"inputs":[],"name":"transactionFee","outputs":[{"internalType":"uint256","name":"","type":"uint256"}],"stateMutability":"view","type":"function"},{"inputs":[{"internalType":"address","name":"to","type":"address"},{"internalType":"uint256","name":"value","type":"uint256"}],"name":"transfer","outputs":[{"internalType":"bool","name":"","type":"bool"}],"stateMutability":"nonpayable","type":"function"},{"inputs":[{"internalType":"address","name":"from","type":"address"},{"internalType":"address","name":"to","type":"address"},{"internalType":"uint256","name":"value","type":"uint256"}],"name":"transferFrom","outputs":[{"internalType":"bool","name":"","type":"bool"}],"stateMutability":"nonpayable","type":"function"},{"inputs":[{"internalType":"address","name":"newOwner","type":"address"}],"name":"transferOwnership","outputs":[],"stateMutability":"nonpayable","type":"function"},{"inputs":[],"name":"treasury","outputs":[{"internalType":"address","name":"","type":"address"}],"stateMutability":"view","type":"function"},{"inputs":[],"name":"treasuryContract","outputs":[{"internalType":"contract IMultiSigTreasury","name":"","type":"address"}],"stateMutability":"view","type":"function"},{"inputs":[],"name":"unstake","outputs":[],"stateMutability":"nonpayable","type":"function"},{"inputs":[],"name":"withdrawLiquidityRewards","outputs":[{"internalType":"bool","name":"","type":"bool"}],"stateMutability":"nonpayable","type":"function"}],"evm":{"bytecode":{"linkReferences":{},"object":"6080346200056557601f9062001f6290601f19906001600160401b03388490038581018416830190828211848310176200056a578084916040978894855283398101031262000565576200005382620005a0565b90620000636020809401620005a0565b906200006e62000580565b9460078652664d696e7469756d60c81b858701526200008c62000580565b97600498898152634d4e544d60e01b87820152875192848411620004605760039384549960019a8b81811c911680156200055a575b8b8210146200054557908186849311620004ef575b508a90868311600114620004815760009262000475575b505060001982871b1c1916908a1b1784555b815194851162000460578a548981811c9116801562000455575b898210146200044057908184879695949311620003e4575b50889285116001146200037c575060009362000370575b505082871b92600019911b1c19161786555b6001600160a01b039182169182156200035957600580546001600160a01b03198082168617909255909290849083167f8be0079c531659141344cd1fd0a4f28419497f9722a3daafe3b4186f6b6457e0600080a385600655600280600755600560085560008052600f865260ff886000205416801562000346575b1562000272578054906a52b7d2dcc80cd2e4000000998a83018093116200025d575060008051602062001f4283398151915287600f999a9b8894600094558484528382528c84208181540190558c51908152a35b169081816010541617601055600a541617600a5560005252816000209060ff198254161790555161198c9081620005b68239f35b601190634e487b7160e01b6000525260246000fd5b9782600a989796985416988054996a01a784379d99db420000009a8b810180911162000331578a9b600091849c9a9b9c55821582146200031c5783546a01a784379d99db41ffffff190184555b8b5190815260008051602062001f428339815191529c8d91a38054906a51104ea52a72f7a2000000928383018093116200025d575099878793600093600f9b9c9d558484528382528c84208181540190558c51908152a362000229565b828252818a528b8220818154019055620002bf565b601184634e487b7160e01b6000525260246000fd5b508460005260ff886000205416620001d5565b8551631e4fbdf760e01b8152600081890152602490fd5b01519150388062000148565b89959392919316928b600052886000209360005b8a828210620003cd5750508511620003b2575b50505050811b0186556200015a565b01519060f884600019921b161c1916905538808080620003a3565b8385015187558c9890960195938401930162000390565b9091929394508b600052886000208480880160051c8201928b891062000436575b918c91899897969594930160051c01915b8281106200042657505062000131565b600081558897508c910162000416565b9250819262000405565b60228c634e487b7160e01b6000525260246000fd5b90607f169062000119565b60418b634e487b7160e01b6000525260246000fd5b015190503880620000ed565b90848d941691886000528c600020928d6000905b828210620004ce5750508411620004b5575b505050811b018455620000ff565b015160001983891b60f8161c19169055388080620004a7565b91929395968291958786015181550195019301908e95949392918e62000495565b909150866000528a6000208680850160051c8201928d86106200053b575b918e91869594930160051c01915b8281106200052b575050620000d6565b600081558594508e91016200051b565b925081926200050d565b60228e634e487b7160e01b6000525260246000fd5b90607f1690620000c1565b600080fd5b634e487b7160e01b600052604160045260246000fd5b60408051919082016001600160401b038111838210176200056a57604052565b51906001600160a01b0382168203620005655756fe6080604081815260048036101561001557600080fd5b600092833560e01c90816306fdde031461114a57508063095ea7b314611064578063096a8ab714610fb0578381630de5a0e514610ec95750806318160ddd14610eaa57806318da001114610e7557806323b872dd14610e385780632def662014610dab578063313ce56714610d8f57806342966c6814610cf35780634f3fc2df14610cd45780634fbee19314610c8b57806351ef182d14610c56578063590ffdce14610ba957806361b8b5dc14610b6557806361d027b314610b30578063665a11ca14610afb5780636b69e05b1461099757806370a0823114610954578063715018a6146108d357806376d58e1a1461076e57806379cc679014610677578063817b1cd2146106585780638da5cb5b1461062357806395d89b41146104e65780639ed3edf0146104c7578063a694fc3a146103d5578063a9059cbb146103a4578063b7d68519146102f0578063d1232730146102ac578063dd62ed3e1461024f5763f2fde38b1461018557600080fd5b3461024b57602060031936011261024b5761019e6112d9565b906101a76114ce565b73ffffffffffffffffffffffffffffffffffffffff80921692831561021c575050600554827fffffffffffffffffffffffff0000000000000000000000000000000000000000821617600555167f8be0079c531659141344cd1fd0a4f28419497f9722a3daafe3b4186f6b6457e0600080a380f35b908460249251917f1e4fbdf7000000000000000000000000000000000000000000000000000000008352820152fd5b8280fd5b5050346102a857806003193601126102a85760209161026c6112d9565b82610275611301565b9273ffffffffffffffffffffffffffffffffffffffff809316815260018652209116600052825280600020549051908152f35b5080fd5b5050346102a85760206003193601126102a8578060209273ffffffffffffffffffffffffffffffffffffffff6102e06112d9565b168152600e845220549051908152f35b50903461024b57602060031936011261024b5781359161030e6114ce565b601483116103485750816020917f3e35d2ebd0421c49d885bf51fd270b65819a284351f9e36242848fb1d55fd7b29360085551908152a180f35b602060649251917f08c379a0000000000000000000000000000000000000000000000000000000008352820152601460248201527f526577617264207261746520746f6f20686967680000000000000000000000006044820152fd5b5050346102a857806003193601126102a8576020906103ce6103c46112d9565b60243590336116af565b5160018152f35b50903461024b57602060031936011261024b578135916103f361151f565b821561046b57506104058230336116af565b338352600d60205280832061041b8382546114c1565b9055338352600e6020524281842055610436826009546114c1565b600955519081527fb539ca1e5c8d398ddf1c41c30166f33404941683be4683319b57669a93dad4ef60203392a2600160065580f35b602060649251917f08c379a0000000000000000000000000000000000000000000000000000000008352820152600e60248201527f43616e6e6f74207374616b6520300000000000000000000000000000000000006044820152fd5b5050346102a857816003193601126102a8576020906007549051908152f35b509190346102a857816003193601126102a85780519180938054916001908360011c9260018516948515610619575b60209586861081146105ed578589529081156105ab5750600114610553575b61054f8787610545828c0383611367565b5191829182611273565b0390f35b81529295507f8a35acfbc15ff81a39ae7d344fd709f28e8600b4aa8c65c6b64bfe7fe36bd19b5b828410610598575050508261054f9461054592820101943880610534565b805486850188015292860192810161057a565b7fffffffffffffffffffffffffffffffffffffffffffffffffffffffffffffff00168887015250505050151560051b83010192506105458261054f3880610534565b6024846022857f4e487b7100000000000000000000000000000000000000000000000000000000835252fd5b93607f1693610515565b5050346102a857816003193601126102a85760209073ffffffffffffffffffffffffffffffffffffffff600554169051908152f35b5050346102a857816003193601126102a8576020906009549051908152f35b50823461076b578260031936011261076b575073ffffffffffffffffffffffffffffffffffffffff6106a76112d9565b6106b4602435338361155a565b161561073c57602060849251917f08c379a0000000000000000000000000000000000000000000000000000000008352820152602760248201527f5472616e7366657220746f207a65726f2061646472657373206973206e6f742060448201527f616c6c6f776564000000000000000000000000000000000000000000000000006064820152fd5b600060249251917f96c6fd1e000000000000000000000000000000000000000000000000000000008352820152fd5b80fd5b50903461024b57602060031936011261024b5781359161078c61151f565b73ffffffffffffffffffffffffffffffffffffffff80600c54166107b18115156113a8565b3386528560205284848720541061087657906107d085879493336116af565b600c541690813b1561024b57829160448392865194859384927f39b41b4a00000000000000000000000000000000000000000000000000000000845233908401528960248401525af1801561086c57610858575b5050519081527f7ff07ce9a287649537e4b012e45cf012d90228b12e2b56bb03515a6b5436fcdf60203392a2600160065580f35b61086190611324565b61024b578238610824565b83513d84823e3d90fd5b60648360208651917f08c379a0000000000000000000000000000000000000000000000000000000008352820152601460248201527f496e73756666696369656e742062616c616e63650000000000000000000000006044820152fd5b833461076b578060031936011261076b576108ec6114ce565b600073ffffffffffffffffffffffffffffffffffffffff6005547fffffffffffffffffffffffff00000000000000000000000000000000000000008116600555167f8be0079c531659141344cd1fd0a4f28419497f9722a3daafe3b4186f6b6457e08280a380f35b5050346102a85760206003193601126102a8578060209273ffffffffffffffffffffffffffffffffffffffff6109886112d9565b16815280845220549051908152f35b509190346102a857816003193601126102a8576109b261151f565b338252602090600d82526109ca81842054151561140d565b338352600e825263bbf81e00610a026109e68386205442611472565b338652600d85526109fd84872054600854906114ae565b6114ae565b04933315610acd57507f3e35d2ebd0421c49d885bf51fd270b65819a284351f9e36242848fb1d55fd7b2929360008052600f835260ff8260002054168015610abb575b15610a7157610a5490336117ac565b338452600e825242818520556008549051908152a1600160065580f35b610ab690610ab0610a916064610a89600754856114ae565b048093611472565b9173ffffffffffffffffffffffffffffffffffffffff600a54166117ac565b336117ac565b610a54565b503360005260ff826000205416610a45565b8360249251917fec442f05000000000000000000000000000000000000000000000000000000008352820152fd5b5050346102a857816003193601126102a85760209073ffffffffffffffffffffffffffffffffffffffff600c54169051908152f35b5050346102a857816003193601126102a85760209073ffffffffffffffffffffffffffffffffffffffff600a54169051908152f35b5050346102a85760206003193601126102a8578060209273ffffffffffffffffffffffffffffffffffffffff610b996112d9565b168152600d845220549051908152f35b5050346102a857806003193601126102a857610bc36112d9565b60243590811515809203610c52577f3499bfcf9673677ba552f3fe2ea274ec7e6246da31c3c87e115b45a9b0db2efb9173ffffffffffffffffffffffffffffffffffffffff602092610c136114ce565b1693848652600f83528086207fffffffffffffffffffffffffffffffffffffffffffffffffffffffffffffff0081541660ff841617905551908152a280f35b8380fd5b5050346102a857816003193601126102a85760209073ffffffffffffffffffffffffffffffffffffffff600b54169051908152f35b5050346102a85760206003193601126102a85760ff8160209373ffffffffffffffffffffffffffffffffffffffff610cc16112d9565b168152600f855220541690519015158152f35b5050346102a857816003193601126102a8576020906008549051908152f35b50823461076b57602060031936011261076b5750331561073c57602060849251917f08c379a0000000000000000000000000000000000000000000000000000000008352820152602760248201527f5472616e7366657220746f207a65726f2061646472657373206973206e6f742060448201527f616c6c6f776564000000000000000000000000000000000000000000000000006064820152fd5b5050346102a857816003193601126102a8576020905160128152f35b5050346102a857816003193601126102a857610dc561151f565b338252600d602052610ddb81832054151561140d565b338252600d602052808220908282549255610df882600954611472565b600955610e068233306116af565b519081527f9845e367b683334e5c0b12d7b81721ac518e649376fa65e3d68324e8f34f267960203392a2600160065580f35b5050346102a85760606003193601126102a8576020906103ce610e596112d9565b610e61611301565b60443591610e7083338361155a565b6116af565b5050346102a857816003193601126102a85760209073ffffffffffffffffffffffffffffffffffffffff601054169051908152f35b5050346102a857816003193601126102a8576020906002549051908152f35b919050346102a857816003193601126102a857610ee461151f565b73ffffffffffffffffffffffffffffffffffffffff600c5416610f088115156113a8565b803b1561024b5760248392855194859384927f42d8669300000000000000000000000000000000000000000000000000000000845233908401525af18015610fa457928291602094610f95575b50338152600d8452205481519081527fb1cce8684b4ffa8667b4577654e61ee3480d661ee9c27522ac80e211f6bd4d25833392a260016006555160018152f35b610f9e90611324565b38610f55565b505051903d90823e3d90fd5b50903461024b57602060031936011261024b57813591610fce6114ce565b600a83116110085750816020917f8c4d35e54a3f2ef1134138fd8ea3daee6a3c89e10d2665996babdf70261e2c769360075551908152a180f35b602060649251917f08c379a0000000000000000000000000000000000000000000000000000000008352820152600c60248201527f46656520746f6f206869676800000000000000000000000000000000000000006044820152fd5b503461024b578160031936011261024b5761107d6112d9565b60243590331561111b5773ffffffffffffffffffffffffffffffffffffffff169182156110ec57508083602095338152600187528181208582528752205582519081527f8c5be1e5ebec7d5bd14f71427d1e84f3dd0314c0f7b2291e5b200ac8c7c3b925843392a35160018152f35b602490858551917f94280d62000000000000000000000000000000000000000000000000000000008352820152fd5b602483868651917fe602df05000000000000000000000000000000000000000000000000000000008352820152fd5b9291905034610c525783600319360112610c5257600354600181811c9186908281168015611269575b602095868610821461123d57508488529081156111fd57506001146111a4575b61054f8686610545828b0383611367565b929550600383527fc2575a0e9e593c00f959f8c92f12db2869c3395a3b0502d05e2516446f71f85b5b8284106111ea575050508261054f94610545928201019438611193565b80548685018801529286019281016111cd565b7fffffffffffffffffffffffffffffffffffffffffffffffffffffffffffffff001687860152505050151560051b83010192506105458261054f38611193565b8360226024927f4e487b7100000000000000000000000000000000000000000000000000000000835252fd5b93607f1693611173565b60208082528251818301819052939260005b8581106112c5575050507fffffffffffffffffffffffffffffffffffffffffffffffffffffffffffffffe0601f8460006040809697860101520116010190565b818101830151848201604001528201611285565b6004359073ffffffffffffffffffffffffffffffffffffffff821682036112fc57565b600080fd5b6024359073ffffffffffffffffffffffffffffffffffffffff821682036112fc57565b67ffffffffffffffff811161133857604052565b7f4e487b7100000000000000000000000000000000000000000000000000000000600052604160045260246000fd5b90601f7fffffffffffffffffffffffffffffffffffffffffffffffffffffffffffffffe0910116810190811067ffffffffffffffff82111761133857604052565b156113af57565b60646040517f08c379a000000000000000000000000000000000000000000000000000000000815260206004820152601660248201527f4c697175696469747920706f6f6c206e6f7420736574000000000000000000006044820152fd5b1561141457565b60646040517f08c379a000000000000000000000000000000000000000000000000000000000815260206004820152601160248201527f4e6f207374616b65642062616c616e63650000000000000000000000000000006044820152fd5b9190820391821161147f57565b7f4e487b7100000000000000000000000000000000000000000000000000000000600052601160045260246000fd5b8181029291811591840414171561147f57565b9190820180921161147f57565b73ffffffffffffffffffffffffffffffffffffffff6005541633036114ef57565b60246040517f118cdaa7000000000000000000000000000000000000000000000000000000008152336004820152fd5b600260065414611530576002600655565b60046040517f3ee5aeb5000000000000000000000000000000000000000000000000000000008152fd5b9173ffffffffffffffffffffffffffffffffffffffff8093169160009383855260016020526040938486209183169182875260205284862054927fffffffffffffffffffffffffffffffffffffffffffffffffffffffffffffffff84106115c5575b50505050505050565b848410611659575080156116295781156115f9578552600160205283852090855260205203912055388080808080806115bc565b6024868651907f94280d620000000000000000000000000000000000000000000000000000000082526004820152fd5b6024868651907fe602df050000000000000000000000000000000000000000000000000000000082526004820152fd5b85517ffb8f41b200000000000000000000000000000000000000000000000000000000815273ffffffffffffffffffffffffffffffffffffffff9190911660048201526024810184905260448101859052606490fd5b919073ffffffffffffffffffffffffffffffffffffffff92838116801561177b5784831690811561174a57600052600f60205260ff60406000205416908115611736575b5015611705576117039350611827565b565b6117316117039493611726606461171e600754846114ae565b048092611472565b94600a541683611827565b611827565b905060005260ff60406000205416386116f3565b60246040517fec442f0500000000000000000000000000000000000000000000000000000000815260006004820152fd5b60246040517f96c6fd1e00000000000000000000000000000000000000000000000000000000815260006004820152fd5b7fddf252ad1be2c89b69c2b068fc378daa952ba7f163c4a11628f55a4df523b3ef602073ffffffffffffffffffffffffffffffffffffffff6000936117f3866002546114c1565b6002551693841584146118125780600254036002555b604051908152a3565b84845283825260408420818154019055611809565b73ffffffffffffffffffffffffffffffffffffffff808216929091836118ad57507fddf252ad1be2c89b69c2b068fc378daa952ba7f163c4a11628f55a4df523b3ef91602091611879866002546114c1565b6002555b169384611895578060025403600255604051908152a3565b84600052600082526040600020818154019055611809565b600090848252816020526040822054908682106118fe57509181604087602095887fddf252ad1be2c89b69c2b068fc378daa952ba7f163c4a11628f55a4df523b3ef9896528387520391205561187d565b6040517fe450d38c00000000000000000000000000000000000000000000000000000000815273ffffffffffffffffffffffffffffffffffffffff919091166004820152602481019190915260448101869052606490fdfea2646970667358221220e297c949b820d948d25bea2f997045395ac0f0fb6bc95ad75e2f25e141a5bdf564736f6c63430008160033ddf252ad1be2c89b69c2b068fc378daa952ba7f163c4a11628f55a4df523b3ef","opcodes":"PUSH1 0x80 CALLVALUE PUSH3 0x565 JUMPI PUSH1 0x1F SWAP1 PUSH3 0x1F62 SWAP1 PUSH1 0x1F NOT SWAP1 PUSH1 0x1 PUSH1 0x1 PUSH1 0x40 SHL SUB CODESIZE DUP5 SWAP1 SUB DUP6 DUP2 ADD DUP5 AND DUP4 ADD SWAP1 DUP3 DUP3 GT DUP5 DUP4 LT OR PUSH3 0x56A JUMPI DUP1 DUP5 SWAP2 PUSH1 0x40 SWAP8 DUP9 SWAP5 DUP6 MSTORE DUP4 CODECOPY DUP2 ADD SUB SLT PUSH3 0x565 JUMPI PUSH3 0x53 DUP3 PUSH3 0x5A0 JUMP JUMPDEST SWAP1 PUSH3 0x63 PUSH1 0x20 DUP1 SWAP5 ADD PUSH3 0x5A0 JUMP JUMPDEST SWAP1 PUSH3 0x6E PUSH3 0x580 JUMP JUMPDEST SWAP5 PUSH1 0x7 DUP7 MSTORE PUSH7 0x4D696E7469756D PUSH1 0xC8 SHL DUP6 DUP8 ADD MSTORE PUSH3 0x8C PUSH3 0x580 JUMP JUMPDEST SWAP8 PUSH1 0x4 SWAP9 DUP10 DUP2 MSTORE PUSH4 0x4D4E544D PUSH1 0xE0 SHL DUP8 DUP3 ADD MSTORE DUP8 MLOAD SWAP3 DUP5 DUP5 GT PUSH3 0x460 JUMPI PUSH1 0x3 SWAP4 DUP5 SLOAD SWAP10 PUSH1 0x1 SWAP11 DUP12 DUP2 DUP2 SHR SWAP2 AND DUP1 ISZERO PUSH3 0x55A JUMPI JUMPDEST DUP12 DUP3 LT EQ PUSH3 0x545 JUMPI SWAP1 DUP2 DUP7 DUP5 SWAP4 GT PUSH3 0x4EF JUMPI JUMPDEST POP DUP11 SWAP1 DUP7 DUP4 GT PUSH1 0x1 EQ PUSH3 0x481 JUMPI PUSH1 0x0 SWAP3 PUSH3 0x475 JUMPI JUMPDEST POP POP PUSH1 0x0 NOT DUP3 DUP8 SHL SHR NOT AND SWAP1 DUP11 SHL OR DUP5 SSTORE JUMPDEST DUP2 MLOAD SWAP5 DUP6 GT PUSH3 0x460 JUMPI DUP11 SLOAD DUP10 DUP2 DUP2 SHR SWAP2 AND DUP1 ISZERO PUSH3 0x455 JUMPI JUMPDEST DUP10 DUP3 LT EQ PUSH3 0x440 JUMPI SWAP1 DUP2 DUP5 DUP8 SWAP7 SWAP6 SWAP5 SWAP4 GT PUSH3 0x3E4 JUMPI JUMPDEST POP DUP9 SWAP3 DUP6 GT PUSH1 0x1 EQ PUSH3 0x37C JUMPI POP PUSH1 0x0 SWAP4 PUSH3 0x370 JUMPI JUMPDEST POP POP DUP3 DUP8 SHL SWAP3 PUSH1 0x0 NOT SWAP2 SHL SHR NOT AND OR DUP7 SSTORE JUMPDEST PUSH1 0x1 PUSH1 0x1 PUSH1 0xA0 SHL SUB SWAP2 DUP3 AND SWAP2 DUP3 ISZERO PUSH3 0x359 JUMPI PUSH1 0x5 DUP1 SLOAD PUSH1 0x1 PUSH1 0x1 PUSH1 0xA0 SHL SUB NOT DUP1 DUP3 AND DUP7 OR SWAP1 SWAP3 SSTORE SWAP1 SWAP3 SWAP1 DUP5 SWAP1 DUP4 AND PUSH32 0x8BE0079C531659141344CD1FD0A4F28419497F9722A3DAAFE3B4186F6B6457E0 PUSH1 0x0 DUP1 LOG3 DUP6 PUSH1 0x6 SSTORE PUSH1 0x2 DUP1 PUSH1 0x7 SSTORE PUSH1 0x5 PUSH1 0x8 SSTORE PUSH1 0x0 DUP1 MSTORE PUSH1 0xF DUP7 MSTORE PUSH1 0xFF DUP9 PUSH1 0x0 KECCAK256 SLOAD AND DUP1 ISZERO PUSH3 0x346 JUMPI JUMPDEST ISZERO PUSH3 0x272 JUMPI DUP1 SLOAD SWAP1 PUSH11 0x52B7D2DCC80CD2E4000000 SWAP10 DUP11 DUP4 ADD DUP1 SWAP4 GT PUSH3 0x25D JUMPI POP PUSH1 0x0 DUP1 MLOAD PUSH1 0x20 PUSH3 0x1F42 DUP4 CODECOPY DUP2 MLOAD SWAP2 MSTORE DUP8 PUSH1 0xF SWAP10 SWAP11 SWAP12 DUP9 SWAP5 PUSH1 0x0 SWAP5 SSTORE DUP5 DUP5 MSTORE DUP4 DUP3 MSTORE DUP13 DUP5 KECCAK256 DUP2 DUP2 SLOAD ADD SWAP1 SSTORE DUP13 MLOAD SWAP1 DUP2 MSTORE LOG3 JUMPDEST AND SWAP1 DUP2 DUP2 PUSH1 0x10 SLOAD AND OR PUSH1 0x10 SSTORE PUSH1 0xA SLOAD AND OR PUSH1 0xA SSTORE PUSH1 0x0 MSTORE MSTORE DUP2 PUSH1 0x0 KECCAK256 SWAP1 PUSH1 0xFF NOT DUP3 SLOAD AND OR SWAP1 SSTORE MLOAD PUSH2 0x198C SWAP1 DUP2 PUSH3 0x5B6 DUP3 CODECOPY RETURN JUMPDEST PUSH1 0x11 SWAP1 PUSH4 0x4E487B71 PUSH1 0xE0 SHL PUSH1 0x0 MSTORE MSTORE PUSH1 0x24 PUSH1 0x0 REVERT JUMPDEST SWAP8 DUP3 PUSH1 0xA SWAP9 SWAP8 SWAP7 SWAP9 SLOAD AND SWAP9 DUP1 SLOAD SWAP10 PUSH11 0x1A784379D99DB42000000 SWAP11 DUP12 DUP2 ADD DUP1 SWAP2 GT PUSH3 0x331 JUMPI DUP11 SWAP12 PUSH1 0x0 SWAP2 DUP5 SWAP13 SWAP11 SWAP12 SWAP13 SSTORE DUP3 ISZERO DUP3 EQ PUSH3 0x31C JUMPI DUP4 SLOAD PUSH11 0x1A784379D99DB41FFFFFF NOT ADD DUP5 SSTORE JUMPDEST DUP12 MLOAD SWAP1 DUP2 MSTORE PUSH1 0x0 DUP1 MLOAD PUSH1 0x20 PUSH3 0x1F42 DUP4 CODECOPY DUP2 MLOAD SWAP2 MSTORE SWAP13 DUP14 SWAP2 LOG3 DUP1 SLOAD SWAP1 PUSH11 0x51104EA52A72F7A2000000 SWAP3 DUP4 DUP4 ADD DUP1 SWAP4 GT PUSH3 0x25D JUMPI POP SWAP10 DUP8 DUP8 SWAP4 PUSH1 0x0 SWAP4 PUSH1 0xF SWAP12 SWAP13 SWAP14 SSTORE DUP5 DUP5 MSTORE DUP4 DUP3 MSTORE DUP13 DUP5 KECCAK256 DUP2 DUP2 SLOAD ADD SWAP1 SSTORE DUP13 MLOAD SWAP1 DUP2 MSTORE LOG3 PUSH3 0x229 JUMP JUMPDEST DUP3 DUP3 MSTORE DUP2 DUP11 MSTORE DUP12 DUP3 KECCAK256 DUP2 DUP2 SLOAD ADD SWAP1 SSTORE PUSH3 0x2BF JUMP JUMPDEST PUSH1 0x11 DUP5 PUSH4 0x4E487B71 PUSH1 0xE0 SHL PUSH1 0x0 MSTORE MSTORE PUSH1 0x24 PUSH1 0x0 REVERT JUMPDEST POP DUP5 PUSH1 0x0 MSTORE PUSH1 0xFF DUP9 PUSH1 0x0 KECCAK256 SLOAD AND PUSH3 0x1D5 JUMP JUMPDEST DUP6 MLOAD PUSH4 0x1E4FBDF7 PUSH1 0xE0 SHL DUP2 MSTORE PUSH1 0x0 DUP2 DUP10 ADD MSTORE PUSH1 0x24 SWAP1 REVERT JUMPDEST ADD MLOAD SWAP2 POP CODESIZE DUP1 PUSH3 0x148 JUMP JUMPDEST DUP10 SWAP6 SWAP4 SWAP3 SWAP2 SWAP4 AND SWAP3 DUP12 PUSH1 0x0 MSTORE DUP9 PUSH1 0x0 KECCAK256 SWAP4 PUSH1 0x0 JUMPDEST DUP11 DUP3 DUP3 LT PUSH3 0x3CD JUMPI POP POP DUP6 GT PUSH3 0x3B2 JUMPI JUMPDEST POP POP POP POP DUP2 SHL ADD DUP7 SSTORE PUSH3 0x15A JUMP JUMPDEST ADD MLOAD SWAP1 PUSH1 0xF8 DUP5 PUSH1 0x0 NOT SWAP3 SHL AND SHR NOT AND SWAP1 SSTORE CODESIZE DUP1 DUP1 DUP1 PUSH3 0x3A3 JUMP JUMPDEST DUP4 DUP6 ADD MLOAD DUP8 SSTORE DUP13 SWAP9 SWAP1 SWAP7 ADD SWAP6 SWAP4 DUP5 ADD SWAP4 ADD PUSH3 0x390 JUMP JUMPDEST SWAP1 SWAP2 SWAP3 SWAP4 SWAP5 POP DUP12 PUSH1 0x0 MSTORE DUP9 PUSH1 0x0 KECCAK256 DUP5 DUP1 DUP9 ADD PUSH1 0x5 SHR DUP3 ADD SWAP3 DUP12 DUP10 LT PUSH3 0x436 JUMPI JUMPDEST SWAP2 DUP13 SWAP2 DUP10 SWAP9 SWAP8 SWAP7 SWAP6 SWAP5 SWAP4 ADD PUSH1 0x5 SHR ADD SWAP2 JUMPDEST DUP3 DUP2 LT PUSH3 0x426 JUMPI POP POP PUSH3 0x131 JUMP JUMPDEST PUSH1 0x0 DUP2 SSTORE DUP9 SWAP8 POP DUP13 SWAP2 ADD PUSH3 0x416 JUMP JUMPDEST SWAP3 POP DUP2 SWAP3 PUSH3 0x405 JUMP JUMPDEST PUSH1 0x22 DUP13 PUSH4 0x4E487B71 PUSH1 0xE0 SHL PUSH1 0x0 MSTORE MSTORE PUSH1 0x24 PUSH1 0x0 REVERT JUMPDEST SWAP1 PUSH1 0x7F AND SWAP1 PUSH3 0x119 JUMP JUMPDEST PUSH1 0x41 DUP12 PUSH4 0x4E487B71 PUSH1 0xE0 SHL PUSH1 0x0 MSTORE MSTORE PUSH1 0x24 PUSH1 0x0 REVERT JUMPDEST ADD MLOAD SWAP1 POP CODESIZE DUP1 PUSH3 0xED JUMP JUMPDEST SWAP1 DUP5 DUP14 SWAP5 AND SWAP2 DUP9 PUSH1 0x0 MSTORE DUP13 PUSH1 0x0 KECCAK256 SWAP3 DUP14 PUSH1 0x0 SWAP1 JUMPDEST DUP3 DUP3 LT PUSH3 0x4CE JUMPI POP POP DUP5 GT PUSH3 0x4B5 JUMPI JUMPDEST POP POP POP DUP2 SHL ADD DUP5 SSTORE PUSH3 0xFF JUMP JUMPDEST ADD MLOAD PUSH1 0x0 NOT DUP4 DUP10 SHL PUSH1 0xF8 AND SHR NOT AND SWAP1 SSTORE CODESIZE DUP1 DUP1 PUSH3 0x4A7 JUMP JUMPDEST SWAP2 SWAP3 SWAP4 SWAP6 SWAP7 DUP3 SWAP2 SWAP6 DUP8 DUP7 ADD MLOAD DUP2 SSTORE ADD SWAP6 ADD SWAP4 ADD SWAP1 DUP15 SWAP6 SWAP5 SWAP4 SWAP3 SWAP2 DUP15 PUSH3 0x495 JUMP JUMPDEST SWAP1 SWAP2 POP DUP7 PUSH1 0x0 MSTORE DUP11 PUSH1 0x0 KECCAK256 DUP7 DUP1 DUP6 ADD PUSH1 0x5 SHR DUP3 ADD SWAP3 DUP14 DUP7 LT PUSH3 0x53B JUMPI JUMPDEST SWAP2 DUP15 SWAP2 DUP7 SWAP6 SWAP5 SWAP4 ADD PUSH1 0x5 SHR ADD SWAP2 JUMPDEST DUP3 DUP2 LT PUSH3 0x52B JUMPI POP POP PUSH3 0xD6 JUMP JUMPDEST PUSH1 0x0 DUP2 SSTORE DUP6 SWAP5 POP DUP15 SWAP2 ADD PUSH3 0x51B JUMP JUMPDEST SWAP3 POP DUP2 SWAP3 PUSH3 0x50D JUMP JUMPDEST PUSH1 0x22 DUP15 PUSH4 0x4E487B71 PUSH1 0xE0 SHL PUSH1 0x0 MSTORE MSTORE PUSH1 0x24 PUSH1 0x0 REVERT JUMPDEST SWAP1 PUSH1 0x7F AND SWAP1 PUSH3 0xC1 JUMP JUMPDEST PUSH1 0x0 DUP1 REVERT JUMPDEST PUSH4 0x4E487B71 PUSH1 0xE0 SHL PUSH1 0x0 MSTORE PUSH1 0x41 PUSH1 0x4 MSTORE PUSH1 0x24 PUSH1 0x0 REVERT JUMPDEST PUSH1 0x40 DUP1 MLOAD SWAP2 SWAP1 DUP3 ADD PUSH1 0x1 PUSH1 0x1 PUSH1 0x40 SHL SUB DUP2 GT DUP4 DUP3 LT OR PUSH3 0x56A JUMPI PUSH1 0x40 MSTORE JUMP JUMPDEST MLOAD SWAP1 PUSH1 0x1 PUSH1 0x1 PUSH1 0xA0 SHL SUB DUP3 AND DUP3 SUB PUSH3 0x565 JUMPI JUMP INVALID PUSH1 0x80 PUSH1 0x40 DUP2 DUP2 MSTORE PUSH1 0x4 DUP1 CALLDATASIZE LT ISZERO PUSH2 0x15 JUMPI PUSH1 0x0 DUP1 REVERT JUMPDEST PUSH1 0x0 SWAP3 DUP4 CALLDATALOAD PUSH1 0xE0 SHR SWAP1 DUP2 PUSH4 0x6FDDE03 EQ PUSH2 0x114A JUMPI POP DUP1 PUSH4 0x95EA7B3 EQ PUSH2 0x1064 JUMPI DUP1 PUSH4 0x96A8AB7 EQ PUSH2 0xFB0 JUMPI DUP4 DUP2 PUSH4 0xDE5A0E5 EQ PUSH2 0xEC9 JUMPI POP DUP1 PUSH4 0x18160DDD EQ PUSH2 0xEAA JUMPI DUP1 PUSH4 0x18DA0011 EQ PUSH2 0xE75 JUMPI DUP1 PUSH4 0x23B872DD EQ PUSH2 0xE38 JUMPI DUP1 PUSH4 0x2DEF6620 EQ PUSH2 0xDAB JUMPI DUP1 PUSH4 0x313CE567 EQ PUSH2 0xD8F JUMPI DUP1 PUSH4 0x42966C68 EQ PUSH2 0xCF3 JUMPI DUP1 PUSH4 0x4F3FC2DF EQ PUSH2 0xCD4 JUMPI DUP1 PUSH4 0x4FBEE193 EQ PUSH2 0xC8B JUMPI DUP1 PUSH4 0x51EF182D EQ PUSH2 0xC56 JUMPI DUP1 PUSH4 0x590FFDCE EQ PUSH2 0xBA9 JUMPI DUP1 PUSH4 0x61B8B5DC EQ PUSH2 0xB65 JUMPI DUP1 PUSH4 0x61D027B3 EQ PUSH2 0xB30 JUMPI DUP1 PUSH4 0x665A11CA EQ PUSH2 0xAFB JUMPI DUP1 PUSH4 0x6B69E05B EQ PUSH2 0x997 JUMPI DUP1 PUSH4 0x70A08231 EQ PUSH2 0x954 JUMPI DUP1 PUSH4 0x715018A6 EQ PUSH2 0x8D3 JUMPI DUP1 PUSH4 0x76D58E1A EQ PUSH2 0x76E JUMPI DUP1 PUSH4 0x79CC6790 EQ PUSH2 0x677 JUMPI DUP1 PUSH4 0x817B1CD2 EQ PUSH2 0x658 JUMPI DUP1 PUSH4 0x8DA5CB5B EQ PUSH2 0x623 JUMPI DUP1 PUSH4 0x95D89B41 EQ PUSH2 0x4E6 JUMPI DUP1 PUSH4 0x9ED3EDF0 EQ PUSH2 0x4C7 JUMPI DUP1 PUSH4 0xA694FC3A EQ PUSH2 0x3D5 JUMPI DUP1 PUSH4 0xA9059CBB EQ PUSH2 0x3A4 JUMPI DUP1 PUSH4 0xB7D68519 EQ PUSH2 0x2F0 JUMPI DUP1 PUSH4 0xD1232730 EQ PUSH2 0x2AC JUMPI DUP1 PUSH4 0xDD62ED3E EQ PUSH2 0x24F JUMPI PUSH4 0xF2FDE38B EQ PUSH2 0x185 JUMPI PUSH1 0x0 DUP1 REVERT JUMPDEST CALLVALUE PUSH2 0x24B JUMPI PUSH1 0x20 PUSH1 0x3 NOT CALLDATASIZE ADD SLT PUSH2 0x24B JUMPI PUSH2 0x19E PUSH2 0x12D9 JUMP JUMPDEST SWAP1 PUSH2 0x1A7 PUSH2 0x14CE JUMP JUMPDEST PUSH20 0xFFFFFFFFFFFFFFFFFFFFFFFFFFFFFFFFFFFFFFFF DUP1 SWAP3 AND SWAP3 DUP4 ISZERO PUSH2 0x21C JUMPI POP POP PUSH1 0x5 SLOAD DUP3 PUSH32 0xFFFFFFFFFFFFFFFFFFFFFFFF0000000000000000000000000000000000000000 DUP3 AND OR PUSH1 0x5 SSTORE AND PUSH32 0x8BE0079C531659141344CD1FD0A4F28419497F9722A3DAAFE3B4186F6B6457E0 PUSH1 0x0 DUP1 LOG3 DUP1 RETURN JUMPDEST SWAP1 DUP5 PUSH1 0x24 SWAP3 MLOAD SWAP2 PUSH32 0x1E4FBDF700000000000000000000000000000000000000000000000000000000 DUP4 MSTORE DUP3 ADD MSTORE REVERT JUMPDEST DUP3 DUP1 REVERT JUMPDEST POP POP CALLVALUE PUSH2 0x2A8 JUMPI DUP1 PUSH1 0x3 NOT CALLDATASIZE ADD SLT PUSH2 0x2A8 JUMPI PUSH1 0x20 SWAP2 PUSH2 0x26C PUSH2 0x12D9 JUMP JUMPDEST DUP3 PUSH2 0x275 PUSH2 0x1301 JUMP JUMPDEST SWAP3 PUSH20 0xFFFFFFFFFFFFFFFFFFFFFFFFFFFFFFFFFFFFFFFF DUP1 SWAP4 AND DUP2 MSTORE PUSH1 0x1 DUP7 MSTORE KECCAK256 SWAP2 AND PUSH1 0x0 MSTORE DUP3 MSTORE DUP1 PUSH1 0x0 KECCAK256 SLOAD SWAP1 MLOAD SWAP1 DUP2 MSTORE RETURN JUMPDEST POP DUP1 REVERT JUMPDEST POP POP CALLVALUE PUSH2 0x2A8 JUMPI PUSH1 0x20 PUSH1 0x3 NOT CALLDATASIZE ADD SLT PUSH2 0x2A8 JUMPI DUP1 PUSH1 0x20 SWAP3 PUSH20 0xFFFFFFFFFFFFFFFFFFFFFFFFFFFFFFFFFFFFFFFF PUSH2 0x2E0 PUSH2 0x12D9 JUMP JUMPDEST AND DUP2 MSTORE PUSH1 0xE DUP5 MSTORE KECCAK256 SLOAD SWAP1 MLOAD SWAP1 DUP2 MSTORE RETURN JUMPDEST POP SWAP1 CALLVALUE PUSH2 0x24B JUMPI PUSH1 0x20 PUSH1 0x3 NOT CALLDATASIZE ADD SLT PUSH2 0x24B JUMPI DUP2 CALLDATALOAD SWAP2 PUSH2 0x30E PUSH2 0x14CE JUMP JUMPDEST PUSH1 0x14 DUP4 GT PUSH2 0x348 JUMPI POP DUP2 PUSH1 0x20 SWAP2 PUSH32 0x3E35D2EBD0421C49D885BF51FD270B65819A284351F9E36242848FB1D55FD7B2 SWAP4 PUSH1 0x8 SSTORE MLOAD SWAP1 DUP2 MSTORE LOG1 DUP1 RETURN JUMPDEST PUSH1 0x20 PUSH1 0x64 SWAP3 MLOAD SWAP2 PUSH32 0x8C379A000000000000000000000000000000000000000000000000000000000 DUP4 MSTORE DUP3 ADD MSTORE PUSH1 0x14 PUSH1 0x24 DUP3 ADD MSTORE PUSH32 0x526577617264207261746520746F6F2068696768000000000000000000000000 PUSH1 0x44 DUP3 ADD MSTORE REVERT JUMPDEST POP POP CALLVALUE PUSH2 0x2A8 JUMPI DUP1 PUSH1 0x3 NOT CALLDATASIZE ADD SLT PUSH2 0x2A8 JUMPI PUSH1 0x20 SWAP1 PUSH2 0x3CE PUSH2 0x3C4 PUSH2 0x12D9 JUMP JUMPDEST PUSH1 0x24 CALLDATALOAD SWAP1 CALLER PUSH2 0x16AF JUMP JUMPDEST MLOAD PUSH1 0x1 DUP2 MSTORE RETURN JUMPDEST POP SWAP1 CALLVALUE PUSH2 0x24B JUMPI PUSH1 0x20 PUSH1 0x3 NOT CALLDATASIZE ADD SLT PUSH2 0x24B JUMPI DUP2 CALLDATALOAD SWAP2 PUSH2 0x3F3 PUSH2 0x151F JUMP JUMPDEST DUP3 ISZERO PUSH2 0x46B JUMPI POP PUSH2 0x405 DUP3 ADDRESS CALLER PUSH2 0x16AF JUMP JUMPDEST CALLER DUP4 MSTORE PUSH1 0xD PUSH1 0x20 MSTORE DUP1 DUP4 KECCAK256 PUSH2 0x41B DUP4 DUP3 SLOAD PUSH2 0x14C1 JUMP JUMPDEST SWAP1 SSTORE CALLER DUP4 MSTORE PUSH1 0xE PUSH1 0x20 MSTORE TIMESTAMP DUP2 DUP5 KECCAK256 SSTORE PUSH2 0x436 DUP3 PUSH1 0x9 SLOAD PUSH2 0x14C1 JUMP JUMPDEST PUSH1 0x9 SSTORE MLOAD SWAP1 DUP2 MSTORE PUSH32 0xB539CA1E5C8D398DDF1C41C30166F33404941683BE4683319B57669A93DAD4EF PUSH1 0x20 CALLER SWAP3 LOG2 PUSH1 0x1 PUSH1 0x6 SSTORE DUP1 RETURN JUMPDEST PUSH1 0x20 PUSH1 0x64 SWAP3 MLOAD SWAP2 PUSH32 0x8C379A000000000000000000000000000000000000000000000000000000000 DUP4 MSTORE DUP3 ADD MSTORE PUSH1 0xE PUSH1 0x24 DUP3 ADD MSTORE PUSH32 0x43616E6E6F74207374616B652030000000000000000000000000000000000000 PUSH1 0x44 DUP3 ADD MSTORE REVERT JUMPDEST POP POP CALLVALUE PUSH2 0x2A8 JUMPI DUP2 PUSH1 0x3 NOT CALLDATASIZE ADD SLT PUSH2 0x2A8 JUMPI PUSH1 0x20 SWAP1 PUSH1 0x7 SLOAD SWAP1 MLOAD SWAP1 DUP2 MSTORE RETURN JUMPDEST POP SWAP2 SWAP1 CALLVALUE PUSH2 0x2A8 JUMPI DUP2 PUSH1 0x3 NOT CALLDATASIZE ADD SLT PUSH2 0x2A8 JUMPI DUP1 MLOAD SWAP2 DUP1 SWAP4 DUP1 SLOAD SWAP2 PUSH1 0x1 SWAP1 DUP4 PUSH1 0x1 SHR SWAP3 PUSH1 0x1 DUP6 AND SWAP5 DUP6 ISZERO PUSH2 0x619 JUMPI JUMPDEST PUSH1 0x20 SWAP6 DUP7 DUP7 LT DUP2 EQ PUSH2 0x5ED JUMPI DUP6 DUP10 MSTORE SWAP1 DUP2 ISZERO PUSH2 0x5AB JUMPI POP PUSH1 0x1 EQ PUSH2 0x553 JUMPI JUMPDEST PUSH2 0x54F DUP8 DUP8 PUSH2 0x545 DUP3 DUP13 SUB DUP4 PUSH2 0x1367 JUMP JUMPDEST MLOAD SWAP2 DUP3 SWAP2 DUP3 PUSH2 0x1273 JUMP JUMPDEST SUB SWAP1 RETURN JUMPDEST DUP2 MSTORE SWAP3 SWAP6 POP PUSH32 0x8A35ACFBC15FF81A39AE7D344FD709F28E8600B4AA8C65C6B64BFE7FE36BD19B JUMPDEST DUP3 DUP5 LT PUSH2 0x598 JUMPI POP POP POP DUP3 PUSH2 0x54F SWAP5 PUSH2 0x545 SWAP3 DUP3 ADD ADD SWAP5 CODESIZE DUP1 PUSH2 0x534 JUMP JUMPDEST DUP1 SLOAD DUP7 DUP6 ADD DUP9 ADD MSTORE SWAP3 DUP7 ADD SWAP3 DUP2 ADD PUSH2 0x57A JUMP JUMPDEST PUSH32 0xFFFFFFFFFFFFFFFFFFFFFFFFFFFFFFFFFFFFFFFFFFFFFFFFFFFFFFFFFFFFFF00 AND DUP9 DUP8 ADD MSTORE POP POP POP POP ISZERO ISZERO PUSH1 0x5 SHL DUP4 ADD ADD SWAP3 POP PUSH2 0x545 DUP3 PUSH2 0x54F CODESIZE DUP1 PUSH2 0x534 JUMP JUMPDEST PUSH1 0x24 DUP5 PUSH1 0x22 DUP6 PUSH32 0x4E487B7100000000000000000000000000000000000000000000000000000000 DUP4 MSTORE MSTORE REVERT JUMPDEST SWAP4 PUSH1 0x7F AND SWAP4 PUSH2 0x515 JUMP JUMPDEST POP POP CALLVALUE PUSH2 0x2A8 JUMPI DUP2 PUSH1 0x3 NOT CALLDATASIZE ADD SLT PUSH2 0x2A8 JUMPI PUSH1 0x20 SWAP1 PUSH20 0xFFFFFFFFFFFFFFFFFFFFFFFFFFFFFFFFFFFFFFFF PUSH1 0x5 SLOAD AND SWAP1 MLOAD SWAP1 DUP2 MSTORE RETURN JUMPDEST POP POP CALLVALUE PUSH2 0x2A8 JUMPI DUP2 PUSH1 0x3 NOT CALLDATASIZE ADD SLT PUSH2 0x2A8 JUMPI PUSH1 0x20 SWAP1 PUSH1 0x9 SLOAD SWAP1 MLOAD SWAP1 DUP2 MSTORE RETURN JUMPDEST POP DUP3 CALLVALUE PUSH2 0x76B JUMPI DUP3 PUSH1 0x3 NOT CALLDATASIZE ADD SLT PUSH2 0x76B JUMPI POP PUSH20 0xFFFFFFFFFFFFFFFFFFFFFFFFFFFFFFFFFFFFFFFF PUSH2 0x6A7 PUSH2 0x12D9 JUMP JUMPDEST PUSH2 0x6B4 PUSH1 0x24 CALLDATALOAD CALLER DUP4 PUSH2 0x155A JUMP JUMPDEST AND ISZERO PUSH2 0x73C JUMPI PUSH1 0x20 PUSH1 0x84 SWAP3 MLOAD SWAP2 PUSH32 0x8C379A000000000000000000000000000000000000000000000000000000000 DUP4 MSTORE DUP3 ADD MSTORE PUSH1 0x27 PUSH1 0x24 DUP3 ADD MSTORE PUSH32 0x5472616E7366657220746F207A65726F2061646472657373206973206E6F7420 PUSH1 0x44 DUP3 ADD MSTORE PUSH32 0x616C6C6F77656400000000000000000000000000000000000000000000000000 PUSH1 0x64 DUP3 ADD MSTORE REVERT JUMPDEST PUSH1 0x0 PUSH1 0x24 SWAP3 MLOAD SWAP2 PUSH32 0x96C6FD1E00000000000000000000000000000000000000000000000000000000 DUP4 MSTORE DUP3 ADD MSTORE REVERT JUMPDEST DUP1 REVERT JUMPDEST POP SWAP1 CALLVALUE PUSH2 0x24B JUMPI PUSH1 0x20 PUSH1 0x3 NOT CALLDATASIZE ADD SLT PUSH2 0x24B JUMPI DUP2 CALLDATALOAD SWAP2 PUSH2 0x78C PUSH2 0x151F JUMP JUMPDEST PUSH20 0xFFFFFFFFFFFFFFFFFFFFFFFFFFFFFFFFFFFFFFFF DUP1 PUSH1 0xC SLOAD AND PUSH2 0x7B1 DUP2 ISZERO ISZERO PUSH2 0x13A8 JUMP JUMPDEST CALLER DUP7 MSTORE DUP6 PUSH1 0x20 MSTORE DUP5 DUP5 DUP8 KECCAK256 SLOAD LT PUSH2 0x876 JUMPI SWAP1 PUSH2 0x7D0 DUP6 DUP8 SWAP5 SWAP4 CALLER PUSH2 0x16AF JUMP JUMPDEST PUSH1 0xC SLOAD AND SWAP1 DUP2 EXTCODESIZE ISZERO PUSH2 0x24B JUMPI DUP3 SWAP2 PUSH1 0x44 DUP4 SWAP3 DUP7 MLOAD SWAP5 DUP6 SWAP4 DUP5 SWAP3 PUSH32 0x39B41B4A00000000000000000000000000000000000000000000000000000000 DUP5 MSTORE CALLER SWAP1 DUP5 ADD MSTORE DUP10 PUSH1 0x24 DUP5 ADD MSTORE GAS CALL DUP1 ISZERO PUSH2 0x86C JUMPI PUSH2 0x858 JUMPI JUMPDEST POP POP MLOAD SWAP1 DUP2 MSTORE PUSH32 0x7FF07CE9A287649537E4B012E45CF012D90228B12E2B56BB03515A6B5436FCDF PUSH1 0x20 CALLER SWAP3 LOG2 PUSH1 0x1 PUSH1 0x6 SSTORE DUP1 RETURN JUMPDEST PUSH2 0x861 SWAP1 PUSH2 0x1324 JUMP JUMPDEST PUSH2 0x24B JUMPI DUP3 CODESIZE PUSH2 0x824 JUMP JUMPDEST DUP4 MLOAD RETURNDATASIZE DUP5 DUP3 RETURNDATACOPY RETURNDATASIZE SWAP1 REVERT JUMPDEST PUSH1 0x64 DUP4 PUSH1 0x20 DUP7 MLOAD SWAP2 PUSH32 0x8C379A000000000000000000000000000000000000000000000000000000000 DUP4 MSTORE DUP3 ADD MSTORE PUSH1 0x14 PUSH1 0x24 DUP3 ADD MSTORE PUSH32 0x496E73756666696369656E742062616C616E6365000000000000000000000000 PUSH1 0x44 DUP3 ADD MSTORE REVERT JUMPDEST DUP4 CALLVALUE PUSH2 0x76B JUMPI DUP1 PUSH1 0x3 NOT CALLDATASIZE ADD SLT PUSH2 0x76B JUMPI PUSH2 0x8EC PUSH2 0x14CE JUMP JUMPDEST PUSH1 0x0 PUSH20 0xFFFFFFFFFFFFFFFFFFFFFFFFFFFFFFFFFFFFFFFF PUSH1 0x5 SLOAD PUSH32 0xFFFFFFFFFFFFFFFFFFFFFFFF0000000000000000000000000000000000000000 DUP2 AND PUSH1 0x5 SSTORE AND PUSH32 0x8BE0079C531659141344CD1FD0A4F28419497F9722A3DAAFE3B4186F6B6457E0 DUP3 DUP1 LOG3 DUP1 RETURN JUMPDEST POP POP CALLVALUE PUSH2 0x2A8 JUMPI PUSH1 0x20 PUSH1 0x3 NOT CALLDATASIZE ADD SLT PUSH2 0x2A8 JUMPI DUP1 PUSH1 0x20 SWAP3 PUSH20 0xFFFFFFFFFFFFFFFFFFFFFFFFFFFFFFFFFFFFFFFF PUSH2 0x988 PUSH2 0x12D9 JUMP JUMPDEST AND DUP2 MSTORE DUP1 DUP5 MSTORE KECCAK256 SLOAD SWAP1 MLOAD SWAP1 DUP2 MSTORE RETURN JUMPDEST POP SWAP2 SWAP1 CALLVALUE PUSH2 0x2A8 JUMPI DUP2 PUSH1 0x3 NOT CALLDATASIZE ADD SLT PUSH2 0x2A8 JUMPI PUSH2 0x9B2 PUSH2 0x151F JUMP JUMPDEST CALLER DUP3 MSTORE PUSH1 0x20 SWAP1 PUSH1 0xD DUP3 MSTORE PUSH2 0x9CA DUP2 DUP5 KECCAK256 SLOAD ISZERO ISZERO PUSH2 0x140D JUMP JUMPDEST CALLER DUP4 MSTORE PUSH1 0xE DUP3 MSTORE PUSH4 0xBBF81E00 PUSH2 0xA02 PUSH2 0x9E6 DUP4 DUP7 KECCAK256 SLOAD TIMESTAMP PUSH2 0x1472 JUMP JUMPDEST CALLER DUP7 MSTORE PUSH1 0xD DUP6 MSTORE PUSH2 0x9FD DUP5 DUP8 KECCAK256 SLOAD PUSH1 0x8 SLOAD SWAP1 PUSH2 0x14AE JUMP JUMPDEST PUSH2 0x14AE JUMP JUMPDEST DIV SWAP4 CALLER ISZERO PUSH2 0xACD JUMPI POP PUSH32 0x3E35D2EBD0421C49D885BF51FD270B65819A284351F9E36242848FB1D55FD7B2 SWAP3 SWAP4 PUSH1 0x0 DUP1 MSTORE PUSH1 0xF DUP4 MSTORE PUSH1 0xFF DUP3 PUSH1 0x0 KECCAK256 SLOAD AND DUP1 ISZERO PUSH2 0xABB JUMPI JUMPDEST ISZERO PUSH2 0xA71 JUMPI PUSH2 0xA54 SWAP1 CALLER PUSH2 0x17AC JUMP JUMPDEST CALLER DUP5 MSTORE PUSH1 0xE DUP3 MSTORE TIMESTAMP DUP2 DUP6 KECCAK256 SSTORE PUSH1 0x8 SLOAD SWAP1 MLOAD SWAP1 DUP2 MSTORE LOG1 PUSH1 0x1 PUSH1 0x6 SSTORE DUP1 RETURN JUMPDEST PUSH2 0xAB6 SWAP1 PUSH2 0xAB0 PUSH2 0xA91 PUSH1 0x64 PUSH2 0xA89 PUSH1 0x7 SLOAD DUP6 PUSH2 0x14AE JUMP JUMPDEST DIV DUP1 SWAP4 PUSH2 0x1472 JUMP JUMPDEST SWAP2 PUSH20 0xFFFFFFFFFFFFFFFFFFFFFFFFFFFFFFFFFFFFFFFF PUSH1 0xA SLOAD AND PUSH2 0x17AC JUMP JUMPDEST CALLER PUSH2 0x17AC JUMP JUMPDEST PUSH2 0xA54 JUMP JUMPDEST POP CALLER PUSH1 0x0 MSTORE PUSH1 0xFF DUP3 PUSH1 0x0 KECCAK256 SLOAD AND PUSH2 0xA45 JUMP JUMPDEST DUP4 PUSH1 0x24 SWAP3 MLOAD SWAP2 PUSH32 0xEC442F0500000000000000000000000000000000000000000000000000000000 DUP4 MSTORE DUP3 ADD MSTORE REVERT JUMPDEST POP POP CALLVALUE PUSH2 0x2A8 JUMPI DUP2 PUSH1 0x3 NOT CALLDATASIZE ADD SLT PUSH2 0x2A8 JUMPI PUSH1 0x20 SWAP1 PUSH20 0xFFFFFFFFFFFFFFFFFFFFFFFFFFFFFFFFFFFFFFFF PUSH1 0xC SLOAD AND SWAP1 MLOAD SWAP1 DUP2 MSTORE RETURN JUMPDEST POP POP CALLVALUE PUSH2 0x2A8 JUMPI DUP2 PUSH1 0x3 NOT CALLDATASIZE ADD SLT PUSH2 0x2A8 JUMPI PUSH1 0x20 SWAP1 PUSH20 0xFFFFFFFFFFFFFFFFFFFFFFFFFFFFFFFFFFFFFFFF PUSH1 0xA SLOAD AND SWAP1 MLOAD SWAP1 DUP2 MSTORE RETURN JUMPDEST POP POP CALLVALUE PUSH2 0x2A8 JUMPI PUSH1 0x20 PUSH1 0x3 NOT CALLDATASIZE ADD SLT PUSH2 0x2A8 JUMPI DUP1 PUSH1 0x20 SWAP3 PUSH20 0xFFFFFFFFFFFFFFFFFFFFFFFFFFFFFFFFFFFFFFFF PUSH2 0xB99 PUSH2 0x12D9 JUMP JUMPDEST AND DUP2 MSTORE PUSH1 0xD DUP5 MSTORE KECCAK256 SLOAD SWAP1 MLOAD SWAP1 DUP2 MSTORE RETURN JUMPDEST POP POP CALLVALUE PUSH2 0x2A8 JUMPI DUP1 PUSH1 0x3 NOT CALLDATASIZE ADD SLT PUSH2 0x2A8 JUMPI PUSH2 0xBC3 PUSH2 0x12D9 JUMP JUMPDEST PUSH1 0x24 CALLDATALOAD SWAP1 DUP2 ISZERO ISZERO DUP1 SWAP3 SUB PUSH2 0xC52 JUMPI PUSH32 0x3499BFCF9673677BA552F3FE2EA274EC7E6246DA31C3C87E115B45A9B0DB2EFB SWAP2 PUSH20 0xFFFFFFFFFFFFFFFFFFFFFFFFFFFFFFFFFFFFFFFF PUSH1 0x20 SWAP3 PUSH2 0xC13 PUSH2 0x14CE JUMP JUMPDEST AND SWAP4 DUP5 DUP7 MSTORE PUSH1 0xF DUP4 MSTORE DUP1 DUP7 KECCAK256 PUSH32 0xFFFFFFFFFFFFFFFFFFFFFFFFFFFFFFFFFFFFFFFFFFFFFFFFFFFFFFFFFFFFFF00 DUP2 SLOAD AND PUSH1 0xFF DUP5 AND OR SWAP1 SSTORE MLOAD SWAP1 DUP2 MSTORE LOG2 DUP1 RETURN JUMPDEST DUP4 DUP1 REVERT JUMPDEST POP POP CALLVALUE PUSH2 0x2A8 JUMPI DUP2 PUSH1 0x3 NOT CALLDATASIZE ADD SLT PUSH2 0x2A8 JUMPI PUSH1 0x20 SWAP1 PUSH20 0xFFFFFFFFFFFFFFFFFFFFFFFFFFFFFFFFFFFFFFFF PUSH1 0xB SLOAD AND SWAP1 MLOAD SWAP1 DUP2 MSTORE RETURN JUMPDEST POP POP CALLVALUE PUSH2 0x2A8 JUMPI PUSH1 0x20 PUSH1 0x3 NOT CALLDATASIZE ADD SLT PUSH2 0x2A8 JUMPI PUSH1 0xFF DUP2 PUSH1 0x20 SWAP4 PUSH20 0xFFFFFFFFFFFFFFFFFFFFFFFFFFFFFFFFFFFFFFFF PUSH2 0xCC1 PUSH2 0x12D9 JUMP JUMPDEST AND DUP2 MSTORE PUSH1 0xF DUP6 MSTORE KECCAK256 SLOAD AND SWAP1 MLOAD SWAP1 ISZERO ISZERO DUP2 MSTORE RETURN JUMPDEST POP POP CALLVALUE PUSH2 0x2A8 JUMPI DUP2 PUSH1 0x3 NOT CALLDATASIZE ADD SLT PUSH2 0x2A8 JUMPI PUSH1 0x20 SWAP1 PUSH1 0x8 SLOAD SWAP1 MLOAD SWAP1 DUP2 MSTORE RETURN JUMPDEST POP DUP3 CALLVALUE PUSH2 0x76B JUMPI PUSH1 0x20 PUSH1 0x3 NOT CALLDATASIZE ADD SLT PUSH2 0x76B JUMPI POP CALLER ISZERO PUSH2 0x73C JUMPI PUSH1 0x20 PUSH1 0x84 SWAP3 MLOAD SWAP2 PUSH32 0x8C379A000000000000000000000000000000000000000000000000000000000 DUP4 MSTORE DUP3 ADD MSTORE PUSH1 0x27 PUSH1 0x24 DUP3 ADD MSTORE PUSH32 0x5472616E7366657220746F207A65726F2061646472657373206973206E6F7420 PUSH1 0x44 DUP3 ADD MSTORE PUSH32 0x616C6C6F77656400000000000000000000000000000000000000000000000000 PUSH1 0x64 DUP3 ADD MSTORE REVERT JUMPDEST POP POP CALLVALUE PUSH2 0x2A8 JUMPI DUP2 PUSH1 0x3 NOT CALLDATASIZE ADD SLT PUSH2 0x2A8 JUMPI PUSH1 0x20 SWAP1 MLOAD PUSH1 0x12 DUP2 MSTORE RETURN JUMPDEST POP POP CALLVALUE PUSH2 0x2A8 JUMPI DUP2 PUSH1 0x3 NOT CALLDATASIZE ADD SLT PUSH2 0x2A8 JUMPI PUSH2 0xDC5 PUSH2 0x151F JUMP JUMPDEST CALLER DUP3 MSTORE PUSH1 0xD PUSH1 0x20 MSTORE PUSH2 0xDDB DUP2 DUP4 KECCAK256 SLOAD ISZERO ISZERO PUSH2 0x140D JUMP JUMPDEST CALLER DUP3 MSTORE PUSH1 0xD PUSH1 0x20 MSTORE DUP1 DUP3 KECCAK256 SWAP1 DUP3 DUP3 SLOAD SWAP3 SSTORE PUSH2 0xDF8 DUP3 PUSH1 0x9 SLOAD PUSH2 0x1472 JUMP JUMPDEST PUSH1 0x9 SSTORE PUSH2 0xE06 DUP3 CALLER ADDRESS PUSH2 0x16AF JUMP JUMPDEST MLOAD SWAP1 DUP2 MSTORE PUSH32 0x9845E367B683334E5C0B12D7B81721AC518E649376FA65E3D68324E8F34F2679 PUSH1 0x20 CALLER SWAP3 LOG2 PUSH1 0x1 PUSH1 0x6 SSTORE DUP1 RETURN JUMPDEST POP POP CALLVALUE PUSH2 0x2A8 JUMPI PUSH1 0x60 PUSH1 0x3 NOT CALLDATASIZE ADD SLT PUSH2 0x2A8 JUMPI PUSH1 0x20 SWAP1 PUSH2 0x3CE PUSH2 0xE59 PUSH2 0x12D9 JUMP JUMPDEST PUSH2 0xE61 PUSH2 0x1301 JUMP JUMPDEST PUSH1 0x44 CALLDATALOAD SWAP2 PUSH2 0xE70 DUP4 CALLER DUP4 PUSH2 0x155A JUMP JUMPDEST PUSH2 0x16AF JUMP JUMPDEST POP POP CALLVALUE PUSH2 0x2A8 JUMPI DUP2 PUSH1 0x3 NOT CALLDATASIZE ADD SLT PUSH2 0x2A8 JUMPI PUSH1 0x20 SWAP1 PUSH20 0xFFFFFFFFFFFFFFFFFFFFFFFFFFFFFFFFFFFFFFFF PUSH1 0x10 SLOAD AND SWAP1 MLOAD SWAP1 DUP2 MSTORE RETURN JUMPDEST POP POP CALLVALUE PUSH2 0x2A8 JUMPI DUP2 PUSH1 0x3 NOT CALLDATASIZE ADD SLT PUSH2 0x2A8 JUMPI PUSH1 0x20 SWAP1 PUSH1 0x2 SLOAD SWAP1 MLOAD SWAP1 DUP2 MSTORE RETURN JUMPDEST SWAP2 SWAP1 POP CALLVALUE PUSH2 0x2A8 JUMPI DUP2 PUSH1 0x3 NOT CALLDATASIZE ADD SLT PUSH2 0x2A8 JUMPI PUSH2 0xEE4 PUSH2 0x151F JUMP JUMPDEST PUSH20 0xFFFFFFFFFFFFFFFFFFFFFFFFFFFFFFFFFFFFFFFF PUSH1 0xC SLOAD AND PUSH2 0xF08 DUP2 ISZERO ISZERO PUSH2 0x13A8 JUMP JUMPDEST DUP1 EXTCODESIZE ISZERO PUSH2 0x24B JUMPI PUSH1 0x24 DUP4 SWAP3 DUP6 MLOAD SWAP5 DUP6 SWAP4 DUP5 SWAP3 PUSH32 0x42D8669300000000000000000000000000000000000000000000000000000000 DUP5 MSTORE CALLER SWAP1 DUP5 ADD MSTORE GAS CALL DUP1 ISZERO PUSH2 0xFA4 JUMPI SWAP3 DUP3 SWAP2 PUSH1 0x20 SWAP5 PUSH2 0xF95 JUMPI JUMPDEST POP CALLER DUP2 MSTORE PUSH1 0xD DUP5 MSTORE KECCAK256 SLOAD DUP2 MLOAD SWAP1 DUP2 MSTORE PUSH32 0xB1CCE8684B4FFA8667B4577654E61EE3480D661EE9C27522AC80E211F6BD4D25 DUP4 CALLER SWAP3 LOG2 PUSH1 0x1 PUSH1 0x6 SSTORE MLOAD PUSH1 0x1 DUP2 MSTORE RETURN JUMPDEST PUSH2 0xF9E SWAP1 PUSH2 0x1324 JUMP JUMPDEST CODESIZE PUSH2 0xF55 JUMP JUMPDEST POP POP MLOAD SWAP1 RETURNDATASIZE SWAP1 DUP3 RETURNDATACOPY RETURNDATASIZE SWAP1 REVERT JUMPDEST POP SWAP1 CALLVALUE PUSH2 0x24B JUMPI PUSH1 0x20 PUSH1 0x3 NOT CALLDATASIZE ADD SLT PUSH2 0x24B JUMPI DUP2 CALLDATALOAD SWAP2 PUSH2 0xFCE PUSH2 0x14CE JUMP JUMPDEST PUSH1 0xA DUP4 GT PUSH2 0x1008 JUMPI POP DUP2 PUSH1 0x20 SWAP2 PUSH32 0x8C4D35E54A3F2EF1134138FD8EA3DAEE6A3C89E10D2665996BABDF70261E2C76 SWAP4 PUSH1 0x7 SSTORE MLOAD SWAP1 DUP2 MSTORE LOG1 DUP1 RETURN JUMPDEST PUSH1 0x20 PUSH1 0x64 SWAP3 MLOAD SWAP2 PUSH32 0x8C379A000000000000000000000000000000000000000000000000000000000 DUP4 MSTORE DUP3 ADD MSTORE PUSH1 0xC PUSH1 0x24 DUP3 ADD MSTORE PUSH32 0x46656520746F6F20686967680000000000000000000000000000000000000000 PUSH1 0x44 DUP3 ADD MSTORE REVERT JUMPDEST POP CALLVALUE PUSH2 0x24B JUMPI DUP2 PUSH1 0x3 NOT CALLDATASIZE ADD SLT PUSH2 0x24B JUMPI PUSH2 0x107D PUSH2 0x12D9 JUMP JUMPDEST PUSH1 0x24 CALLDATALOAD SWAP1 CALLER ISZERO PUSH2 0x111B JUMPI PUSH20 0xFFFFFFFFFFFFFFFFFFFFFFFFFFFFFFFFFFFFFFFF AND SWAP2 DUP3 ISZERO PUSH2 0x10EC JUMPI POP DUP1 DUP4 PUSH1 0x20 SWAP6 CALLER DUP2 MSTORE PUSH1 0x1 DUP8 MSTORE DUP2 DUP2 KECCAK256 DUP6 DUP3 MSTORE DUP8 MSTORE KECCAK256 SSTORE DUP3 MLOAD SWAP1 DUP2 MSTORE PUSH32 0x8C5BE1E5EBEC7D5BD14F71427D1E84F3DD0314C0F7B2291E5B200AC8C7C3B925 DUP5 CALLER SWAP3 LOG3 MLOAD PUSH1 0x1 DUP2 MSTORE RETURN JUMPDEST PUSH1 0x24 SWAP1 DUP6 DUP6 MLOAD SWAP2 PUSH32 0x94280D6200000000000000000000000000000000000000000000000000000000 DUP4 MSTORE DUP3 ADD MSTORE REVERT JUMPDEST PUSH1 0x24 DUP4 DUP7 DUP7 MLOAD SWAP2 PUSH32 0xE602DF0500000000000000000000000000000000000000000000000000000000 DUP4 MSTORE DUP3 ADD MSTORE REVERT JUMPDEST SWAP3 SWAP2 SWAP1 POP CALLVALUE PUSH2 0xC52 JUMPI DUP4 PUSH1 0x3 NOT CALLDATASIZE ADD SLT PUSH2 0xC52 JUMPI PUSH1 0x3 SLOAD PUSH1 0x1 DUP2 DUP2 SHR SWAP2 DUP7 SWAP1 DUP3 DUP2 AND DUP1 ISZERO PUSH2 0x1269 JUMPI JUMPDEST PUSH1 0x20 SWAP6 DUP7 DUP7 LT DUP3 EQ PUSH2 0x123D JUMPI POP DUP5 DUP9 MSTORE SWAP1 DUP2 ISZERO PUSH2 0x11FD JUMPI POP PUSH1 0x1 EQ PUSH2 0x11A4 JUMPI JUMPDEST PUSH2 0x54F DUP7 DUP7 PUSH2 0x545 DUP3 DUP12 SUB DUP4 PUSH2 0x1367 JUMP JUMPDEST SWAP3 SWAP6 POP PUSH1 0x3 DUP4 MSTORE PUSH32 0xC2575A0E9E593C00F959F8C92F12DB2869C3395A3B0502D05E2516446F71F85B JUMPDEST DUP3 DUP5 LT PUSH2 0x11EA JUMPI POP POP POP DUP3 PUSH2 0x54F SWAP5 PUSH2 0x545 SWAP3 DUP3 ADD ADD SWAP5 CODESIZE PUSH2 0x1193 JUMP JUMPDEST DUP1 SLOAD DUP7 DUP6 ADD DUP9 ADD MSTORE SWAP3 DUP7 ADD SWAP3 DUP2 ADD PUSH2 0x11CD JUMP JUMPDEST PUSH32 0xFFFFFFFFFFFFFFFFFFFFFFFFFFFFFFFFFFFFFFFFFFFFFFFFFFFFFFFFFFFFFF00 AND DUP8 DUP7 ADD MSTORE POP POP POP ISZERO ISZERO PUSH1 0x5 SHL DUP4 ADD ADD SWAP3 POP PUSH2 0x545 DUP3 PUSH2 0x54F CODESIZE PUSH2 0x1193 JUMP JUMPDEST DUP4 PUSH1 0x22 PUSH1 0x24 SWAP3 PUSH32 0x4E487B7100000000000000000000000000000000000000000000000000000000 DUP4 MSTORE MSTORE REVERT JUMPDEST SWAP4 PUSH1 0x7F AND SWAP4 PUSH2 0x1173 JUMP JUMPDEST PUSH1 0x20 DUP1 DUP3 MSTORE DUP3 MLOAD DUP2 DUP4 ADD DUP2 SWAP1 MSTORE SWAP4 SWAP3 PUSH1 0x0 JUMPDEST DUP6 DUP2 LT PUSH2 0x12C5 JUMPI POP POP POP PUSH32 0xFFFFFFFFFFFFFFFFFFFFFFFFFFFFFFFFFFFFFFFFFFFFFFFFFFFFFFFFFFFFFFE0 PUSH1 0x1F DUP5 PUSH1 0x0 PUSH1 0x40 DUP1 SWAP7 SWAP8 DUP7 ADD ADD MSTORE ADD AND ADD ADD SWAP1 JUMP JUMPDEST DUP2 DUP2 ADD DUP4 ADD MLOAD DUP5 DUP3 ADD PUSH1 0x40 ADD MSTORE DUP3 ADD PUSH2 0x1285 JUMP JUMPDEST PUSH1 0x4 CALLDATALOAD SWAP1 PUSH20 0xFFFFFFFFFFFFFFFFFFFFFFFFFFFFFFFFFFFFFFFF DUP3 AND DUP3 SUB PUSH2 0x12FC JUMPI JUMP JUMPDEST PUSH1 0x0 DUP1 REVERT JUMPDEST PUSH1 0x24 CALLDATALOAD SWAP1 PUSH20 0xFFFFFFFFFFFFFFFFFFFFFFFFFFFFFFFFFFFFFFFF DUP3 AND DUP3 SUB PUSH2 0x12FC JUMPI JUMP JUMPDEST PUSH8 0xFFFFFFFFFFFFFFFF DUP2 GT PUSH2 0x1338 JUMPI PUSH1 0x40 MSTORE JUMP JUMPDEST PUSH32 0x4E487B7100000000000000000000000000000000000000000000000000000000 PUSH1 0x0 MSTORE PUSH1 0x41 PUSH1 0x4 MSTORE PUSH1 0x24 PUSH1 0x0 REVERT JUMPDEST SWAP1 PUSH1 0x1F PUSH32 0xFFFFFFFFFFFFFFFFFFFFFFFFFFFFFFFFFFFFFFFFFFFFFFFFFFFFFFFFFFFFFFE0 SWAP2 ADD AND DUP2 ADD SWAP1 DUP2 LT PUSH8 0xFFFFFFFFFFFFFFFF DUP3 GT OR PUSH2 0x1338 JUMPI PUSH1 0x40 MSTORE JUMP JUMPDEST ISZERO PUSH2 0x13AF JUMPI JUMP JUMPDEST PUSH1 0x64 PUSH1 0x40 MLOAD PUSH32 0x8C379A000000000000000000000000000000000000000000000000000000000 DUP2 MSTORE PUSH1 0x20 PUSH1 0x4 DUP3 ADD MSTORE PUSH1 0x16 PUSH1 0x24 DUP3 ADD MSTORE PUSH32 0x4C697175696469747920706F6F6C206E6F742073657400000000000000000000 PUSH1 0x44 DUP3 ADD MSTORE REVERT JUMPDEST ISZERO PUSH2 0x1414 JUMPI JUMP JUMPDEST PUSH1 0x64 PUSH1 0x40 MLOAD PUSH32 0x8C379A000000000000000000000000000000000000000000000000000000000 DUP2 MSTORE PUSH1 0x20 PUSH1 0x4 DUP3 ADD MSTORE PUSH1 0x11 PUSH1 0x24 DUP3 ADD MSTORE PUSH32 0x4E6F207374616B65642062616C616E6365000000000000000000000000000000 PUSH1 0x44 DUP3 ADD MSTORE REVERT JUMPDEST SWAP2 SWAP1 DUP3 SUB SWAP2 DUP3 GT PUSH2 0x147F JUMPI JUMP JUMPDEST PUSH32 0x4E487B7100000000000000000000000000000000000000000000000000000000 PUSH1 0x0 MSTORE PUSH1 0x11 PUSH1 0x4 MSTORE PUSH1 0x24 PUSH1 0x0 REVERT JUMPDEST DUP2 DUP2 MUL SWAP3 SWAP2 DUP2 ISZERO SWAP2 DUP5 DIV EQ OR ISZERO PUSH2 0x147F JUMPI JUMP JUMPDEST SWAP2 SWAP1 DUP3 ADD DUP1 SWAP3 GT PUSH2 0x147F JUMPI JUMP JUMPDEST PUSH20 0xFFFFFFFFFFFFFFFFFFFFFFFFFFFFFFFFFFFFFFFF PUSH1 0x5 SLOAD AND CALLER SUB PUSH2 0x14EF JUMPI JUMP JUMPDEST PUSH1 0x24 PUSH1 0x40 MLOAD PUSH32 0x118CDAA700000000000000000000000000000000000000000000000000000000 DUP2 MSTORE CALLER PUSH1 0x4 DUP3 ADD MSTORE REVERT JUMPDEST PUSH1 0x2 PUSH1 0x6 SLOAD EQ PUSH2 0x1530 JUMPI PUSH1 0x2 PUSH1 0x6 SSTORE JUMP JUMPDEST PUSH1 0x4 PUSH1 0x40 MLOAD PUSH32 0x3EE5AEB500000000000000000000000000000000000000000000000000000000 DUP2 MSTORE REVERT JUMPDEST SWAP2 PUSH20 0xFFFFFFFFFFFFFFFFFFFFFFFFFFFFFFFFFFFFFFFF DUP1 SWAP4 AND SWAP2 PUSH1 0x0 SWAP4 DUP4 DUP6 MSTORE PUSH1 0x1 PUSH1 0x20 MSTORE PUSH1 0x40 SWAP4 DUP5 DUP7 KECCAK256 SWAP2 DUP4 AND SWAP2 DUP3 DUP8 MSTORE PUSH1 0x20 MSTORE DUP5 DUP7 KECCAK256 SLOAD SWAP3 PUSH32 0xFFFFFFFFFFFFFFFFFFFFFFFFFFFFFFFFFFFFFFFFFFFFFFFFFFFFFFFFFFFFFFFF DUP5 LT PUSH2 0x15C5 JUMPI JUMPDEST POP POP POP POP POP POP POP JUMP JUMPDEST DUP5 DUP5 LT PUSH2 0x1659 JUMPI POP DUP1 ISZERO PUSH2 0x1629 JUMPI DUP2 ISZERO PUSH2 0x15F9 JUMPI DUP6 MSTORE PUSH1 0x1 PUSH1 0x20 MSTORE DUP4 DUP6 KECCAK256 SWAP1 DUP6 MSTORE PUSH1 0x20 MSTORE SUB SWAP2 KECCAK256 SSTORE CODESIZE DUP1 DUP1 DUP1 DUP1 DUP1 DUP1 PUSH2 0x15BC JUMP JUMPDEST PUSH1 0x24 DUP7 DUP7 MLOAD SWAP1 PUSH32 0x94280D6200000000000000000000000000000000000000000000000000000000 DUP3 MSTORE PUSH1 0x4 DUP3 ADD MSTORE REVERT JUMPDEST PUSH1 0x24 DUP7 DUP7 MLOAD SWAP1 PUSH32 0xE602DF0500000000000000000000000000000000000000000000000000000000 DUP3 MSTORE PUSH1 0x4 DUP3 ADD MSTORE REVERT JUMPDEST DUP6 MLOAD PUSH32 0xFB8F41B200000000000000000000000000000000000000000000000000000000 DUP2 MSTORE PUSH20 0xFFFFFFFFFFFFFFFFFFFFFFFFFFFFFFFFFFFFFFFF SWAP2 SWAP1 SWAP2 AND PUSH1 0x4 DUP3 ADD MSTORE PUSH1 0x24 DUP2 ADD DUP5 SWAP1 MSTORE PUSH1 0x44 DUP2 ADD DUP6 SWAP1 MSTORE PUSH1 0x64 SWAP1 REVERT JUMPDEST SWAP2 SWAP1 PUSH20 0xFFFFFFFFFFFFFFFFFFFFFFFFFFFFFFFFFFFFFFFF SWAP3 DUP4 DUP2 AND DUP1 ISZERO PUSH2 0x177B JUMPI DUP5 DUP4 AND SWAP1 DUP2 ISZERO PUSH2 0x174A JUMPI PUSH1 0x0 MSTORE PUSH1 0xF PUSH1 0x20 MSTORE PUSH1 0xFF PUSH1 0x40 PUSH1 0x0 KECCAK256 SLOAD AND SWAP1 DUP2 ISZERO PUSH2 0x1736 JUMPI JUMPDEST POP ISZERO PUSH2 0x1705 JUMPI PUSH2 0x1703 SWAP4 POP PUSH2 0x1827 JUMP JUMPDEST JUMP JUMPDEST PUSH2 0x1731 PUSH2 0x1703 SWAP5 SWAP4 PUSH2 0x1726 PUSH1 0x64 PUSH2 0x171E PUSH1 0x7 SLOAD DUP5 PUSH2 0x14AE JUMP JUMPDEST DIV DUP1 SWAP3 PUSH2 0x1472 JUMP JUMPDEST SWAP5 PUSH1 0xA SLOAD AND DUP4 PUSH2 0x1827 JUMP JUMPDEST PUSH2 0x1827 JUMP JUMPDEST SWAP1 POP PUSH1 0x0 MSTORE PUSH1 0xFF PUSH1 0x40 PUSH1 0x0 KECCAK256 SLOAD AND CODESIZE PUSH2 0x16F3 JUMP JUMPDEST PUSH1 0x24 PUSH1 0x40 MLOAD PUSH32 0xEC442F0500000000000000000000000000000000000000000000000000000000 DUP2 MSTORE PUSH1 0x0 PUSH1 0x4 DUP3 ADD MSTORE REVERT JUMPDEST PUSH1 0x24 PUSH1 0x40 MLOAD PUSH32 0x96C6FD1E00000000000000000000000000000000000000000000000000000000 DUP2 MSTORE PUSH1 0x0 PUSH1 0x4 DUP3 ADD MSTORE REVERT JUMPDEST PUSH32 0xDDF252AD1BE2C89B69C2B068FC378DAA952BA7F163C4A11628F55A4DF523B3EF PUSH1 0x20 PUSH20 0xFFFFFFFFFFFFFFFFFFFFFFFFFFFFFFFFFFFFFFFF PUSH1 0x0 SWAP4 PUSH2 0x17F3 DUP7 PUSH1 0x2 SLOAD PUSH2 0x14C1 JUMP JUMPDEST PUSH1 0x2 SSTORE AND SWAP4 DUP5 ISZERO DUP5 EQ PUSH2 0x1812 JUMPI DUP1 PUSH1 0x2 SLOAD SUB PUSH1 0x2 SSTORE JUMPDEST PUSH1 0x40 MLOAD SWAP1 DUP2 MSTORE LOG3 JUMP JUMPDEST DUP5 DUP5 MSTORE DUP4 DUP3 MSTORE PUSH1 0x40 DUP5 KECCAK256 DUP2 DUP2 SLOAD ADD SWAP1 SSTORE PUSH2 0x1809 JUMP JUMPDEST PUSH20 0xFFFFFFFFFFFFFFFFFFFFFFFFFFFFFFFFFFFFFFFF DUP1 DUP3 AND SWAP3 SWAP1 SWAP2 DUP4 PUSH2 0x18AD JUMPI POP PUSH32 0xDDF252AD1BE2C89B69C2B068FC378DAA952BA7F163C4A11628F55A4DF523B3EF SWAP2 PUSH1 0x20 SWAP2 PUSH2 0x1879 DUP7 PUSH1 0x2 SLOAD PUSH2 0x14C1 JUMP JUMPDEST PUSH1 0x2 SSTORE JUMPDEST AND SWAP4 DUP5 PUSH2 0x1895 JUMPI DUP1 PUSH1 0x2 SLOAD SUB PUSH1 0x2 SSTORE PUSH1 0x40 MLOAD SWAP1 DUP2 MSTORE LOG3 JUMP JUMPDEST DUP5 PUSH1 0x0 MSTORE PUSH1 0x0 DUP3 MSTORE PUSH1 0x40 PUSH1 0x0 KECCAK256 DUP2 DUP2 SLOAD ADD SWAP1 SSTORE PUSH2 0x1809 JUMP JUMPDEST PUSH1 0x0 SWAP1 DUP5 DUP3 MSTORE DUP2 PUSH1 0x20 MSTORE PUSH1 0x40 DUP3 KECCAK256 SLOAD SWAP1 DUP7 DUP3 LT PUSH2 0x18FE JUMPI POP SWAP2 DUP2 PUSH1 0x40 DUP8 PUSH1 0x20 SWAP6 DUP9 PUSH32 0xDDF252AD1BE2C89B69C2B068FC378DAA952BA7F163C4A11628F55A4DF523B3EF SWAP9 SWAP7 MSTORE DUP4 DUP8 MSTORE SUB SWAP2 KECCAK256 SSTORE PUSH2 0x187D JUMP JUMPDEST PUSH1 0x40 MLOAD PUSH32 0xE450D38C00000000000000000000000000000000000000000000000000000000 DUP2 MSTORE PUSH20 0xFFFFFFFFFFFFFFFFFFFFFFFFFFFFFFFFFFFFFFFF SWAP2 SWAP1 SWAP2 AND PUSH1 0x4 DUP3 ADD MSTORE PUSH1 0x24 DUP2 ADD SWAP2 SWAP1 SWAP2 MSTORE PUSH1 0x44 DUP2 ADD DUP7 SWAP1 MSTORE PUSH1 0x64 SWAP1 REVERT INVALID LOG2 PUSH5 0x6970667358 0x22 SLT KECCAK256 0xE2 SWAP8 0xC9 0x49 0xB8 KECCAK256 0xD9 BASEFEE 0xD2 JUMPDEST 0xEA 0x2F SWAP10 PUSH17 0x45395AC0F0FB6BC95AD75E2F25E141A5BD CREATE2 PUSH5 0x736F6C6343 STOP ADDMOD AND STOP CALLER 0xDD CALLCODE MSTORE 0xAD SHL 0xE2 0xC8 SWAP12 PUSH10 0xC2B068FC378DAA952BA7 CALL PUSH4 0xC4A11628 CREATE2 GAS 0x4D CREATE2 0x23 0xB3 0xEF "},"methodIdentifiers":{"allowance(address,address)":"dd62ed3e","approve(address,uint256)":"095ea7b3","balanceOf(address)":"70a08231","burn(uint256)":"42966c68","burnFrom(address,uint256)":"79cc6790","claimStakingRewards()":"6b69e05b","decimals()":"313ce567","depositLiquidity(uint256)":"76d58e1a","isExcludedFromFees(address)":"4fbee193","liquidityPool()":"665a11ca","name()":"06fdde03","nftMarketplace()":"51ef182d","owner()":"8da5cb5b","renounceOwnership()":"715018a6","setExcludedFromFees(address,bool)":"590ffdce","setStakingRewardRate(uint256)":"b7d68519","setTransactionFee(uint256)":"096a8ab7","stake(uint256)":"a694fc3a","stakingBalances(address)":"61b8b5dc","stakingRewardRate()":"4f3fc2df","stakingStartTime(address)":"d1232730","symbol()":"95d89b41","totalStaked()":"817b1cd2","totalSupply()":"18160ddd","transactionFee()":"9ed3edf0","transfer(address,uint256)":"a9059cbb","transferFrom(address,address,uint256)":"23b872dd","transferOwnership(address)":"f2fde38b","treasury()":"61d027b3","treasuryContract()":"18da0011","unstake()":"2def6620","withdrawLiquidityRewards()":"0de5a0e5"}}}}}