{"contracts/NFTMarketplace.sol":{"NFTMarketplace":{"abi":[{"inputs":[{"internalType":"address","name":"initialOwner","type":"address"},{"internalType":"address","name":"_mintiumToken","type":"address"},{"internalType":"address","name":"_treasury","type":"address"}],"stateMutability":"nonpayable","type":"constructor"},{"inputs":[{"internalType":"address","name":"sender","type":"address"},{"internalType":"uint256","name":"tokenId","type":"uint256"},{"internalType":"address","name":"owner","type":"address"}],"name":"ERC721IncorrectOwner","type":"error"},{"inputs":[{"internalType":"address","name":"operator","type":"address"},{"internalType":"uint256","name":"tokenId","type":"uint256"}],"name":"ERC721InsufficientApproval","type":"error"},{"inputs":[{"internalType":"address","name":"approver","type":"address"}],"name":"ERC721InvalidApprover","type":"error"},{"inputs":[{"internalType":"address","name":"operator","type":"address"}],"name":"ERC721InvalidOperator","type":"error"},{"inputs":[{"internalType":"address","name":"owner","type":"address"}],"name":"ERC721InvalidOwner","type":"error"},{"inputs":[{"internalType":"address","name":"receiver","type":"address"}],"name":"ERC721InvalidReceiver","type":"error"},{"inputs":[{"internalType":"address","name":"sender","type":"address"}],"name":"ERC721InvalidSender","type":"error"},{"inputs":[{"internalType":"uint256","name":"tokenId","type":"uint256"}],"name":"ERC721NonexistentToken","type":"error"},{"inputs":[],"name":"EnforcedPause","type":"error"},{"inputs":[],"name":"ExpectedPause","type":"error"},{"inputs":[{"internalType":"address","name":"owner","type":"address"}],"name":"OwnableInvalidOwner","type":"error"},{"inputs":[{"internalType":"address","name":"account","type":"address"}],"name":"OwnableUnauthorizedAccount","type":"error"},{"anonymous":false,"inputs":[{"indexed":true,"internalType":"address","name":"owner","type":"address"},{"indexed":true,"internalType":"address","name":"approved","type":"address"},{"indexed":true,"internalType":"uint256","name":"tokenId","type":"uint256"}],"name":"Approval","type":"event"},{"anonymous":false,"inputs":[{"indexed":true,"internalType":"address","name":"owner","type":"address"},{"indexed":true,"internalType":"address","name":"operator","type":"address"},{"indexed":false,"internalType":"bool","name":"approved","type":"bool"}],"name":"ApprovalForAll","type":"event"},{"anonymous":false,"inputs":[{"indexed":false,"internalType":"uint256","name":"newPrice","type":"uint256"}],"name":"MintPriceUpdated","type":"event"},{"anonymous":false,"inputs":[{"indexed":false,"internalType":"uint256","name":"tokenId","type":"uint256"},{"indexed":false,"internalType":"uint256","name":"price","type":"uint256"},{"indexed":false,"internalType":"uint256","name":"expiration","type":"uint256"}],"name":"NFTListed","type":"event"},{"anonymous":false,"inputs":[{"indexed":false,"internalType":"uint256","name":"tokenId","type":"uint256"}],"name":"NFTListingCancelled","type":"event"},{"anonymous":false,"inputs":[{"indexed":true,"internalType":"address","name":"owner","type":"address"},{"indexed":false,"internalType":"uint256","name":"tokenId","type":"uint256"}],"name":"NFTMinted","type":"event"},{"anonymous":false,"inputs":[{"indexed":false,"internalType":"uint256","name":"tokenId","type":"uint256"},{"indexed":false,"internalType":"address","name":"buyer","type":"address"}],"name":"NFTPurchased","type":"event"},{"anonymous":false,"inputs":[{"indexed":true,"internalType":"address","name":"previousOwner","type":"address"},{"indexed":true,"internalType":"address","name":"newOwner","type":"address"}],"name":"OwnershipTransferred","type":"event"},{"anonymous":false,"inputs":[{"indexed":false,"internalType":"address","name":"account","type":"address"}],"name":"Paused","type":"event"},{"anonymous":false,"inputs":[{"indexed":false,"internalType":"uint256","name":"newFee","type":"uint256"}],"name":"RoyaltyFeeUpdated","type":"event"},{"anonymous":false,"inputs":[{"indexed":false,"internalType":"uint256","name":"newFee","type":"uint256"}],"name":"TradingFeeUpdated","type":"event"},{"anonymous":false,"inputs":[{"indexed":true,"internalType":"address","name":"from","type":"address"},{"indexed":true,"internalType":"address","name":"to","type":"address"},{"indexed":true,"internalType":"uint256","name":"tokenId","type":"uint256"}],"name":"Transfer","type":"event"},{"anonymous":false,"inputs":[{"indexed":false,"internalType":"address","name":"account","type":"address"}],"name":"Unpaused","type":"event"},{"inputs":[{"internalType":"address","name":"to","type":"address"},{"internalType":"uint256","name":"tokenId","type":"uint256"}],"name":"approve","outputs":[],"stateMutability":"nonpayable","type":"function"},{"inputs":[{"internalType":"address","name":"owner","type":"address"}],"name":"balanceOf","outputs":[{"internalType":"uint256","name":"","type":"uint256"}],"stateMutability":"view","type":"function"},{"inputs":[{"internalType":"uint256","name":"amount","type":"uint256"}],"name":"batchMintNFT","outputs":[],"stateMutability":"nonpayable","type":"function"},{"inputs":[{"internalType":"uint256","name":"tokenId","type":"uint256"}],"name":"buyNFT","outputs":[],"stateMutability":"nonpayable","type":"function"},{"inputs":[{"internalType":"uint256","name":"tokenId","type":"uint256"}],"name":"cancelListing","outputs":[],"stateMutability":"nonpayable","type":"function"},{"inputs":[{"internalType":"uint256","name":"","type":"uint256"}],"name":"creators","outputs":[{"internalType":"address","name":"","type":"address"}],"stateMutability":"view","type":"function"},{"inputs":[{"internalType":"uint256","name":"tokenId","type":"uint256"}],"name":"getApproved","outputs":[{"internalType":"address","name":"","type":"address"}],"stateMutability":"view","type":"function"},{"inputs":[{"internalType":"address","name":"owner","type":"address"},{"internalType":"address","name":"operator","type":"address"}],"name":"isApprovedForAll","outputs":[{"internalType":"bool","name":"","type":"bool"}],"stateMutability":"view","type":"function"},{"inputs":[{"internalType":"uint256","name":"tokenId","type":"uint256"},{"internalType":"uint256","name":"price","type":"uint256"}],"name":"listNFT","outputs":[],"stateMutability":"nonpayable","type":"function"},{"inputs":[],"name":"listingDuration","outputs":[{"internalType":"uint256","name":"","type":"uint256"}],"stateMutability":"view","type":"function"},{"inputs":[{"internalType":"uint256","name":"","type":"uint256"}],"name":"listings","outputs":[{"internalType":"address","name":"seller","type":"address"},{"internalType":"uint256","name":"price","type":"uint256"},{"internalType":"uint256","name":"expiration","type":"uint256"},{"internalType":"bool","name":"isListed","type":"bool"}],"stateMutability":"view","type":"function"},{"inputs":[],"name":"mintNFT","outputs":[],"stateMutability":"nonpayable","type":"function"},{"inputs":[],"name":"mintPrice","outputs":[{"internalType":"uint256","name":"","type":"uint256"}],"stateMutability":"view","type":"function"},{"inputs":[],"name":"mintiumToken","outputs":[{"internalType":"address","name":"","type":"address"}],"stateMutability":"view","type":"function"},{"inputs":[],"name":"name","outputs":[{"internalType":"string","name":"","type":"string"}],"stateMutability":"view","type":"function"},{"inputs":[],"name":"nextTokenId","outputs":[{"internalType":"uint256","name":"","type":"uint256"}],"stateMutability":"view","type":"function"},{"inputs":[],"name":"owner","outputs":[{"internalType":"address","name":"","type":"address"}],"stateMutability":"view","type":"function"},{"inputs":[{"internalType":"uint256","name":"tokenId","type":"uint256"}],"name":"ownerOf","outputs":[{"internalType":"address","name":"","type":"address"}],"stateMutability":"view","type":"function"},{"inputs":[],"name":"pauseMarketplace","outputs":[],"stateMutability":"nonpayable","type":"function"},{"inputs":[],"name":"paused","outputs":[{"internalType":"bool","name":"","type":"bool"}],"stateMutability":"view","type":"function"},{"inputs":[],"name":"renounceOwnership","outputs":[],"stateMutability":"nonpayable","type":"function"},{"inputs":[],"name":"royaltyFee","outputs":[{"internalType":"uint256","name":"","type":"uint256"}],"stateMutability":"view","type":"function"},{"inputs":[{"internalType":"uint256","name":"tokenId","type":"uint256"},{"internalType":"uint256","name":"salePrice","type":"uint256"}],"name":"royaltyInfo","outputs":[{"internalType":"address","name":"","type":"address"},{"internalType":"uint256","name":"","type":"uint256"}],"stateMutability":"view","type":"function"},{"inputs":[{"internalType":"address","name":"from","type":"address"},{"internalType":"address","name":"to","type":"address"},{"internalType":"uint256","name":"tokenId","type":"uint256"}],"name":"safeTransferFrom","outputs":[],"stateMutability":"nonpayable","type":"function"},{"inputs":[{"internalType":"address","name":"from","type":"address"},{"internalType":"address","name":"to","type":"address"},{"internalType":"uint256","name":"tokenId","type":"uint256"},{"internalType":"bytes","name":"data","type":"bytes"}],"name":"safeTransferFrom","outputs":[],"stateMutability":"nonpayable","type":"function"},{"inputs":[{"internalType":"address","name":"operator","type":"address"},{"internalType":"bool","name":"approved","type":"bool"}],"name":"setApprovalForAll","outputs":[],"stateMutability":"nonpayable","type":"function"},{"inputs":[{"internalType":"uint256","name":"_mintPrice","type":"uint256"}],"name":"setMintPrice","outputs":[],"stateMutability":"nonpayable","type":"function"},{"inputs":[{"internalType":"uint256","name":"_newFee","type":"uint256"}],"name":"setRoyaltyFee","outputs":[],"stateMutability":"nonpayable","type":"function"},{"inputs":[{"internalType":"uint256","name":"_newFee","type":"uint256"}],"name":"setTradingFee","outputs":[],"stateMutability":"nonpayable","type":"function"},{"inputs":[{"internalType":"bytes4","name":"interfaceId","type":"bytes4"}],"name":"supportsInterface","outputs":[{"internalType":"bool","name":"","type":"bool"}],"stateMutability":"view","type":"function"},{"inputs":[],"name":"symbol","outputs":[{"internalType":"string","name":"","type":"string"}],"stateMutability":"view","type":"function"},{"inputs":[{"internalType":"uint256","name":"tokenId","type":"uint256"}],"name":"tokenURI","outputs":[{"internalType":"string","name":"","type":"string"}],"stateMutability":"view","type":"function"},{"inputs":[],"name":"tradingFee","outputs":[{"internalType":"uint256","name":"","type":"uint256"}],"stateMutability":"view","type":"function"},{"inputs":[{"internalType":"address","name":"from","type":"address"},{"internalType":"address","name":"to","type":"address"},{"internalType":"uint256","name":"tokenId","type":"uint256"}],"name":"transferFrom","outputs":[],"stateMutability":"nonpayable","type":"function"},{"inputs":[{"internalType":"address","name":"newOwner","type":"address"}],"name":"transferOwnership","outputs":[],"stateMutability":"nonpayable","type":"function"},{"inputs":[],"name":"treasury","outputs":[{"internalType":"address","name":"","type":"address"}],"stateMutability":"view","type":"function"},{"inputs":[],"name":"treasuryContract","outputs":[{"internalType":"contract IMultiSigTreasury","name":"","type":"address"}],"stateMutability":"view","type":"function"},{"inputs":[],"name":"unpauseMarketplace","outputs":[],"stateMutability":"nonpayable","type":"function"}],"evm":{"bytecode":{"linkReferences":{},"object":"6080346200041b57601f19906001600160401b03601f62002b9a388190038281018616850191908483118684101762000405578086926060946040528339810103126200041b57620000518362000440565b916020906200007060406200006884880162000440565b960162000440565b926200007b62000420565b92600b84526a14dbdb1e5d1a1c9853919560aa1b818501526200009d62000420565b90600482526314d3919560e21b81830152845198848a1162000405576000998a54966001978881811c91168015620003fa575b85821014620003e65790818784931162000390575b5084908d88841160011462000330579262000324575b5050600019600383901b1c191690871b178a555b8251948511620003105785548681811c9116801562000305575b83821014620002f15790818587969594931162000298575b508193851160011462000233575050889262000227575b5050600019600383901b1c191690821b1790555b6001600160a01b0391821680156200020e5760065481604051967f8be0079c531659141344cd1fd0a4f28419497f9722a3daafe3b4186f6b6457e08684169180a360018060a81b0319161760065568056bc75e2d63100000600a5560fa600b5562278d00600c556101f4600d558160018060a01b0319931683600854161760085516908181600954161760095560105416176010556127449081620004568239f35b604051631e4fbdf760e01b815260048101869052602490fd5b01519050388062000158565b86959392919316858b52838b20938b905b8282106200027e575050841162000264575b505050811b0190556200016c565b015160001960f88460031b161c1916905538808062000256565b848401518655889790950194938401939081019062000244565b909192939450868b52828b208580880160051c820192858910620002e7575b9188978a9297969594930160051c01915b828110620002d857505062000141565b8d8155889750899101620002c8565b92508192620002b7565b634e487b7160e01b8b52602260045260248bfd5b90607f169062000129565b634e487b7160e01b8a52604160045260248afd5b015190503880620000fb565b9190858b9516838052878420935b888282106200037957505084116200035f575b505050811b018a556200010f565b015160001960f88460031b161c1916905538808062000351565b8385015186558d979095019493840193016200033e565b9091508c8052848d208780850160051c820192878610620003dc575b859493910160051c909101908a908f5b838210620003cd57505050620000e5565b81558594508b91018f620003bc565b92508192620003ac565b634e487b7160e01b8d52602260045260248dfd5b90607f1690620000d0565b634e487b7160e01b600052604160045260246000fd5b600080fd5b60408051919082016001600160401b038111838210176200040557604052565b51906001600160a01b03821682036200041b5756fe6080604081815260048036101561001557600080fd5b600092833560e01c90816301ffc9a714611b965750806306fdde0314611ac9578063081812fc14611a83578063095ea7b3146119515783816314f710fe146117545750806318da00111461171f57806321f67fbb1461167c57806323b872dd146116645780632850df1a146116455780632a55205a146115cf578063305a67a8146115115780633e4086e51461145c5780633ec62279146113cf57806342842e0e146113a657806351ed828814610e4c57806356f4335214610e2d5780635c975abb14610e0657806361d027b314610dd15780636352211e14610d9457806367fbf8d714610b0d5780636817c76c14610aee57806370a0823114610a73578063715018a6146109f357806375794a3c146109d45780637b65209b1461099f5780638da5cb5b1461096a57806394383f14146107d057806395d89b411461067c578063a22cb4651461058d578063b0d54bcf146104d8578063b88d4fde1461044f578063b8997a9714610430578063c87b56dd146103dd578063cd53d08e146103a0578063de74e57b1461033c578063e985e9c5146102dd578063f2fde38b146102175763f4a0a528146101c757600080fd5b34610213576020600319360112610213577f525b762709cc2a983aec5ccdfd807a061f993c91090b5bcd7da92ca254976aaa9160209135906102076125a2565b81600a5551908152a180f35b8280fd5b503461021357602060031936011261021357610231611cc4565b9061023a6125a2565b73ffffffffffffffffffffffffffffffffffffffff8092169283156102ae575050600654827fffffffffffffffffffffffff0000000000000000000000000000000000000000821617600655167f8be0079c531659141344cd1fd0a4f28419497f9722a3daafe3b4186f6b6457e08380a380f35b908460249251917f1e4fbdf7000000000000000000000000000000000000000000000000000000008352820152fd5b50503461033857806003193601126103385760ff816020936102fd611cc4565b610305611cec565b73ffffffffffffffffffffffffffffffffffffffff91821683526005875283832091168252855220549151911615158152f35b5080fd5b5034610213576020600319360112610213576080928291358152600e602052209073ffffffffffffffffffffffffffffffffffffffff8254169160018101549160ff6003600284015493015416928151948552602085015283015215156060820152f35b5034610213576020600319360112610213578160209373ffffffffffffffffffffffffffffffffffffffff92358152600f85522054169051908152f35b50919034610338576020600319360112610338576103fe61042c93356124a9565b5081815161040b81611d67565b5280519161041883611d67565b825251918291602083526020830190611c66565b0390f35b505034610338578160031936011261033857602090600d549051908152f35b5090346102135760806003193601126102135761046a611cc4565b610472611cec565b846064359467ffffffffffffffff8611610338573660238701121561033857850135946104aa6104a187611df3565b95519586611db2565b858552366024878301011161033857856104d5966024602093018388013785010152604435916122d1565b80f35b509034610213576020600319360112610213578135916104f66125a2565b6101f483116105315750816020917fa3dfe13986da4bcfdc32f544ebe130cb8ec20a2afc45e7c3994975076a08e57893600b5551908152a180f35b602060649251917f08c379a0000000000000000000000000000000000000000000000000000000008352820152600c60248201527f46656520746f6f206869676800000000000000000000000000000000000000006044820152fd5b5090346102135780600319360112610213576105a7611cc4565b90602435801515928382036106785773ffffffffffffffffffffffffffffffffffffffff16938415610649575061061c9033865260056020528286208587526020528286209060ff7fffffffffffffffffffffffffffffffffffffffffffffffffffffffffffffff0083541691151516179055565b519081527f17307eab39ab6107e8899845ad3d59bd9653f200f220920489ca2b5937696c3160203392a380f35b602490858451917f5b08ba18000000000000000000000000000000000000000000000000000000008352820152fd5b8580fd5b5091346107cd57806003193601126107cd5781519181600192600154938460011c91600186169586156107c3575b6020968785108114610797578899509688969785829a5291826000146107525750506001146106f6575b50505061042c92916106e7910385611db2565b51928284938452830190611c66565b9190869350600183527fb10e2d527612073b26eecdfd717e6a320cf44b4afac2b0732d9fcbe2b7fa0cf65b82841061073a57505050820101816106e761042c6106d4565b8054848a018601528895508794909301928101610721565b7fffffffffffffffffffffffffffffffffffffffffffffffffffffffffffffff00168782015293151560051b860190930193508492506106e7915061042c90506106d4565b60248360228c7f4e487b7100000000000000000000000000000000000000000000000000000000835252fd5b92607f16926106aa565b80fd5b50919034610338576107e136611d51565b90916107eb61250a565b6107f4836124a9565b61081773ffffffffffffffffffffffffffffffffffffffff9182339116146121fa565b600c5442019081421161093e578251906080820182811067ffffffffffffffff821117610912578492600360609795936108ff937fcc0c9a64fc84375ceec206f2fc87eb06d3cacae06967a94d2ba499000ea176179a9852338352602083018781528684019586528984019160018352898d52600e602052878d209451167fffffffffffffffffffffffff0000000000000000000000000000000000000000855416178455516001840155600283019451855551151591019060ff7fffffffffffffffffffffffffffffffffffffffffffffffffffffffffffffff0083541691151516179055565b549181519384526020840152820152a180f35b60248860418b7f4e487b7100000000000000000000000000000000000000000000000000000000835252fd5b6024866011897f4e487b7100000000000000000000000000000000000000000000000000000000835252fd5b50503461033857816003193601126103385760209073ffffffffffffffffffffffffffffffffffffffff600654169051908152f35b50503461033857816003193601126103385760209073ffffffffffffffffffffffffffffffffffffffff600854169051908152f35b5050346103385781600319360112610338576020906007549051908152f35b83346107cd57806003193601126107cd57610a0c6125a2565b8073ffffffffffffffffffffffffffffffffffffffff6006547fffffffffffffffffffffffff00000000000000000000000000000000000000008116600655167f8be0079c531659141344cd1fd0a4f28419497f9722a3daafe3b4186f6b6457e08280a380f35b5091346107cd5760206003193601126107cd5773ffffffffffffffffffffffffffffffffffffffff610aa3611cc4565b16928315610ac05750806020938392526003845220549051908152f35b9060249251917f89c62b64000000000000000000000000000000000000000000000000000000008352820152fd5b505034610338578160031936011261033857602090600a549051908152f35b50903461021357602080600319360112610d9057823592610b2c61250a565b8315610d3557610b3e84600a546121e7565b73ffffffffffffffffffffffffffffffffffffffff918260085416908786517f70a0823100000000000000000000000000000000000000000000000000000000815233838201528681602481875afa908115610d2b57908291889695949391610cf8575b5095610bb385610c18981015611e2d565b60095416918851968795869485937f23b872dd0000000000000000000000000000000000000000000000000000000085523390850160409194939294606082019573ffffffffffffffffffffffffffffffffffffffff80921683521660208201520152565b03925af1908115610cee5790610c35918691610cc1575b50611eaa565b835b838110610c42578480f35b600190600780548752600f8452848720337fffffffffffffffffffffffff0000000000000000000000000000000000000000825416179055610c85815433612543565b610cb9815486518181527f4cc0a9c4a99ddc700de1af2c9f916a7cbfdb71f14801ccff94061ad1ef8a8040873392a2611f0f565b905501610c37565b610ce19150833d8511610ce7575b610cd98183611db2565b810190611e92565b38610c2f565b503d610ccf565b83513d87823e3d90fd5b86819792503d8311610d24575b610d0f8183611db2565b810103126107cd579351869490610bb3610ba2565b503d610d05565b88513d84823e3d90fd5b9060649251917f08c379a0000000000000000000000000000000000000000000000000000000008352820152601860248201527f4d757374206d696e74206174206c656173742031204e465400000000000000006044820152fd5b8380fd5b5091346107cd5760206003193601126107cd575073ffffffffffffffffffffffffffffffffffffffff610dc9602093356124a9565b915191168152f35b50503461033857816003193601126103385760209073ffffffffffffffffffffffffffffffffffffffff600954169051908152f35b50503461033857816003193601126103385760209060ff60065460a01c1690519015158152f35b505034610338578160031936011261033857602090600b549051908152f35b5082346107cd576020928360031936011261033857823591610e6c61250a565b828152600e94858152610e8760ff600385852001541661225f565b83825285815260028383200154421161134a5790610ebc918685835280825260018584200154612710948591600b54906121e7565b0493868452818352610ed760018786200154600d54906121e7565b049386845281835287610ef986610ef48460018b8a2001546122c4565b6122c4565b95610f878573ffffffffffffffffffffffffffffffffffffffff9889600854168c8a528783528a8c8b2054168a8d518096819582947f23b872dd000000000000000000000000000000000000000000000000000000009b8c85523390850160409194939294606082019573ffffffffffffffffffffffffffffffffffffffff80921683521660208201520152565b03925af1908115611340578791611323575b50156112c857600854898752600f8652888720548951848152338d8201908152918a1673ffffffffffffffffffffffffffffffffffffffff166020830152604082019390935286918391908a169082908a90829060600103925af19081156112be5786916112a1575b501561124557839086600854168a878960095416936110598c519788968795869485523390850160409194939294606082019573ffffffffffffffffffffffffffffffffffffffff80921683521660208201520152565b03925af190811561123b57849161121e575b50156111c2578583528082528385842054169333156111935761108e87336125f3565b908116806110c557602489898951917f7e273289000000000000000000000000000000000000000000000000000000008352820152fd5b9480989293949795036111375750507fbebca6653c629a651174dc2ea9b9f7ef506290dee89fe1a6087eb1e12c06d43094955082865281526003838620017fffffffffffffffffffffffffffffffffffffffffffffffffffffffffffffff00815416905582519182523390820152a180f35b85517f64283d7b00000000000000000000000000000000000000000000000000000000815273ffffffffffffffffffffffffffffffffffffffff808a169382019384526020840187905290911660408301529081906060010390fd5b602488858851917f64a0ae92000000000000000000000000000000000000000000000000000000008352820152fd5b606487838751917f08c379a0000000000000000000000000000000000000000000000000000000008352820152601360248201527f466565207472616e73666572206661696c6564000000000000000000000000006044820152fd5b6112359150833d8511610ce757610cd98183611db2565b8861106b565b86513d86823e3d90fd5b606489858951917f08c379a0000000000000000000000000000000000000000000000000000000008352820152601660248201527f526f79616c7479207061796d656e74206661696c6564000000000000000000006044820152fd5b6112b89150853d8711610ce757610cd98183611db2565b8a611002565b88513d88823e3d90fd5b60648a85878b51927f08c379a000000000000000000000000000000000000000000000000000000000845283015260248201527f5061796d656e74206661696c65640000000000000000000000000000000000006044820152fd5b61133a9150863d8811610ce757610cd98183611db2565b8b610f99565b89513d89823e3d90fd5b846064918451917f08c379a0000000000000000000000000000000000000000000000000000000008352820152600f60248201527f4c697374696e67206578706972656400000000000000000000000000000000006044820152fd5b505034610338576104d5906113ba36611d0f565b919251926113c784611d67565b8584526122d1565b50503461033857816003193601126103385760207f62e78cea01bee320cd4e420270b5ea74000d11b0c9f74754ebdbfc544b05a2589161140d6125a2565b61141561250a565b740100000000000000000000000000000000000000007fffffffffffffffffffffff00ffffffffffffffffffffffffffffffffffffffff600654161760065551338152a180f35b5090346102135760206003193601126102135781359161147a6125a2565b6103e883116114b55750816020917fd9b587d0d884e97b8e3772325d18ffc0412781f43cb5471b8eb5972667724f0193600d5551908152a180f35b602060649251917f08c379a0000000000000000000000000000000000000000000000000000000008352820152601060248201527f526f79616c747920746f6f2068696768000000000000000000000000000000006044820152fd5b5034610213576020600319360112610213577fc46ea9fee66461db46a6ac51d560a291533b66981fb9c09ca8948e8dc8d4247291602091359061155261250a565b61157b61155e836124a9565b73ffffffffffffffffffffffffffffffffffffffff1633146121fa565b818552600e835261159460ff600383882001541661225f565b818552600e83526003818620017fffffffffffffffffffffffffffffffffffffffffffffffffffffffffffffff00815416905551908152a180f35b5050346103385761042c73ffffffffffffffffffffffffffffffffffffffff8261160b946127106115ff36611d51565b600d98919854906121e7565b04958152600f6020522054169151928392836020909392919373ffffffffffffffffffffffffffffffffffffffff60408201951681520152565b505034610338578160031936011261033857602090600c549051908152f35b83346107cd576104d561167636611d0f565b91611f6b565b50346102135782600319360112610213576116956125a2565b6006549060ff8260a01c16156116f857507f5db9ee0a495bf2e6ff9c91a7834c1ba4fdd244a5e8aa4e537bd38aeae4b073aa917fffffffffffffffffffffff00ffffffffffffffffffffffffffffffffffffffff6020921660065551338152a180f35b82517f8dfc202b000000000000000000000000000000000000000000000000000000008152fd5b50503461033857816003193601126103385760209073ffffffffffffffffffffffffffffffffffffffff601054169051908152f35b8084843461194d578260031936011261194d5761176f61250a565b73ffffffffffffffffffffffffffffffffffffffff9081600854168351917f70a0823100000000000000000000000000000000000000000000000000000000835233818401526020938484602481865afa93841561194357879461190a575b509061184c96859493926117e7600a5480961015611e2d565b60095416918751988995869485937f23b872dd0000000000000000000000000000000000000000000000000000000085523390850160409194939294606082019573ffffffffffffffffffffffffffffffffffffffff80921683521660208201520152565b03925af1928315611900576118dd9361186b9186916118e35750611eaa565b6007548452600f8152818420337fffffffffffffffffffffffff00000000000000000000000000000000000000008254161790556118ab60075433612543565b7f4cc0a9c4a99ddc700de1af2c9f916a7cbfdb71f14801ccff94061ad1ef8a80406007549251918383523392a2611f0f565b60075580f35b6118fa9150833d8511610ce757610cd98183611db2565b86610c2f565b82513d86823e3d90fd5b935091908484813d831161193c575b6119238183611db2565b8101031261193857925192909161184c6117ce565b8680fd5b503d611919565b86513d89823e3d90fd5b5050fd5b50903461021357806003193601126102135761196b611cc4565b91602435611978816124a9565b33151580611a63575b80611a2e575b6119ff57819073ffffffffffffffffffffffffffffffffffffffff809616958691167f8c5be1e5ebec7d5bd14f71427d1e84f3dd0314c0f7b2291e5b200ac8c7c3b9258880a484526020528220907fffffffffffffffffffffffff000000000000000000000000000000000000000082541617905580f35b83517fa9fbf51f0000000000000000000000000000000000000000000000000000000081523381850152602490fd5b5073ffffffffffffffffffffffffffffffffffffffff81168652600560205283862033875260205260ff848720541615611987565b503373ffffffffffffffffffffffffffffffffffffffff82161415611981565b503461021357602060031936011261021357816020938273ffffffffffffffffffffffffffffffffffffffff9335611aba816124a9565b50825285522054169051908152f35b5091346107cd57806003193601126107cd578151918182549260018460011c9160018616958615611b8c575b6020968785108114610797578899509688969785829a529182600014610752575050600114611b315750505061042c92916106e7910385611db2565b91908693508280527f290decd9548b62a8d60345a988386fc84ba6bc95484008f6362f93160ef3e5635b828410611b7457505050820101816106e761042c6106d4565b8054848a018601528895508794909301928101611b5b565b92607f1692611af5565b9250503461021357602060031936011261021357357fffffffff00000000000000000000000000000000000000000000000000000000811680910361021357602092507f80ac58cd000000000000000000000000000000000000000000000000000000008114908115611c3c575b8115611c12575b5015158152f35b7f01ffc9a70000000000000000000000000000000000000000000000000000000091501438611c0b565b7f5b5e139f0000000000000000000000000000000000000000000000000000000081149150611c04565b919082519283825260005b848110611cb05750507fffffffffffffffffffffffffffffffffffffffffffffffffffffffffffffffe0601f8460006020809697860101520116010190565b602081830181015184830182015201611c71565b6004359073ffffffffffffffffffffffffffffffffffffffff82168203611ce757565b600080fd5b6024359073ffffffffffffffffffffffffffffffffffffffff82168203611ce757565b6003196060910112611ce75773ffffffffffffffffffffffffffffffffffffffff906004358281168103611ce757916024359081168103611ce7579060443590565b6003196040910112611ce7576004359060243590565b6020810190811067ffffffffffffffff821117611d8357604052565b7f4e487b7100000000000000000000000000000000000000000000000000000000600052604160045260246000fd5b90601f7fffffffffffffffffffffffffffffffffffffffffffffffffffffffffffffffe0910116810190811067ffffffffffffffff821117611d8357604052565b67ffffffffffffffff8111611d8357601f017fffffffffffffffffffffffffffffffffffffffffffffffffffffffffffffffe01660200190565b15611e3457565b60646040517f08c379a000000000000000000000000000000000000000000000000000000000815260206004820152601160248201527f496e73756666696369656e74204d4e544d0000000000000000000000000000006044820152fd5b90816020910312611ce757518015158103611ce75790565b15611eb157565b60646040517f08c379a000000000000000000000000000000000000000000000000000000000815260206004820152601460248201527f4d4e544d207472616e73666572206661696c65640000000000000000000000006044820152fd5b7fffffffffffffffffffffffffffffffffffffffffffffffffffffffffffffffff8114611f3c5760010190565b7f4e487b7100000000000000000000000000000000000000000000000000000000600052601160045260246000fd5b9073ffffffffffffffffffffffffffffffffffffffff80911680156121b6576000918483528460209260028452604093838587205416958691331515806120eb575b509060027fddf252ad1be2c89b69c2b068fc378daa952ba7f163c4a11628f55a4df523b3ef928461207d575b858352600381528883206001815401905586835252868120847fffffffffffffffffffffffff000000000000000000000000000000000000000082541617905580a4831682036120295750505050565b517f64283d7b00000000000000000000000000000000000000000000000000000000815273ffffffffffffffffffffffffffffffffffffffff92831660048201526024810193909352166044820152606490fd5b6120b687600052600460205260406000207fffffffffffffffffffffffff00000000000000000000000000000000000000008154169055565b848352600381528883207fffffffffffffffffffffffffffffffffffffffffffffffffffffffffffffffff8154019055611fd9565b91939450915080612175575b1561210757879291869138611fad565b84888761213d5760249151907f7e2732890000000000000000000000000000000000000000000000000000000082526004820152fd5b90517f177e802f0000000000000000000000000000000000000000000000000000000081523360048201526024810191909152604490fd5b50338614801561219a575b806120f757508782526004815233848684205416146120f7565b5085825260058152848220338352815260ff8583205416612180565b60246040517f64a0ae9200000000000000000000000000000000000000000000000000000000815260006004820152fd5b81810292918115918404141715611f3c57565b1561220157565b60646040517f08c379a000000000000000000000000000000000000000000000000000000000815260206004820152600d60248201527f4e6f74204e4654206f776e6572000000000000000000000000000000000000006044820152fd5b1561226657565b60646040517f08c379a000000000000000000000000000000000000000000000000000000000815260206004820152600e60248201527f4e4654206e6f74206c69737465640000000000000000000000000000000000006044820152fd5b91908203918211611f3c57565b6122dc838383611f6b565b813b6122e9575b50505050565b73ffffffffffffffffffffffffffffffffffffffff949192939480931693604051937f150b7a020000000000000000000000000000000000000000000000000000000092838652336004870152166024850152604484015260806064840152826123596020966084830190611c66565b039285816000958187895af184918161244d575b506123e5575050503d6000146123dd573d61238781611df3565b906123956040519283611db2565b81528091843d92013e5b805192836123d857602483604051907f64a0ae920000000000000000000000000000000000000000000000000000000082526004820152fd5b019050fd5b50606061239f565b9092507fffffffff00000000000000000000000000000000000000000000000000000000919450160361241c5750388080806122e3565b602490604051907f64a0ae920000000000000000000000000000000000000000000000000000000082526004820152fd5b9091508681813d83116124a2575b6124658183611db2565b8101031261249e57517fffffffff000000000000000000000000000000000000000000000000000000008116810361249e57903861236d565b8480fd5b503d61245b565b80600052600260205273ffffffffffffffffffffffffffffffffffffffff604060002054169081156124d9575090565b602490604051907f7e2732890000000000000000000000000000000000000000000000000000000082526004820152fd5b60ff60065460a01c1661251957565b60046040517fd93c0665000000000000000000000000000000000000000000000000000000008152fd5b73ffffffffffffffffffffffffffffffffffffffff91828216156121b65761256a916125f3565b1661257157565b60246040517f73c6ac6e00000000000000000000000000000000000000000000000000000000815260006004820152fd5b73ffffffffffffffffffffffffffffffffffffffff6006541633036125c357565b60246040517f118cdaa7000000000000000000000000000000000000000000000000000000008152336004820152fd5b906000818152600260205273ffffffffffffffffffffffffffffffffffffffff927fddf252ad1be2c89b69c2b068fc378daa952ba7f163c4a11628f55a4df523b3ef846040842054169485928361269e575b169283612686575b848152600260205260408120847fffffffffffffffffffffffff000000000000000000000000000000000000000082541617905580a490565b8381526003602052604081206001815401905561264d565b6126d786600052600460205260406000207fffffffffffffffffffffffff00000000000000000000000000000000000000008154169055565b8385526003602052604085207fffffffffffffffffffffffffffffffffffffffffffffffffffffffffffffffff815401905561264556fea2646970667358221220b2b866415aeef79fde02bfa92ebc9c16d26b3ebacb1a0629961db68ce5696b0064736f6c63430008160033","opcodes":"PUSH1 0x80 CALLVALUE PUSH3 0x41B JUMPI PUSH1 0x1F NOT SWAP1 PUSH1 0x1 PUSH1 0x1 PUSH1 0x40 SHL SUB PUSH1 0x1F PUSH3 0x2B9A CODESIZE DUP2 SWAP1 SUB DUP3 DUP2 ADD DUP7 AND DUP6 ADD SWAP2 SWAP1 DUP5 DUP4 GT DUP7 DUP5 LT OR PUSH3 0x405 JUMPI DUP1 DUP7 SWAP3 PUSH1 0x60 SWAP5 PUSH1 0x40 MSTORE DUP4 CODECOPY DUP2 ADD SUB SLT PUSH3 0x41B JUMPI PUSH3 0x51 DUP4 PUSH3 0x440 JUMP JUMPDEST SWAP2 PUSH1 0x20 SWAP1 PUSH3 0x70 PUSH1 0x40 PUSH3 0x68 DUP5 DUP9 ADD PUSH3 0x440 JUMP JUMPDEST SWAP7 ADD PUSH3 0x440 JUMP JUMPDEST SWAP3 PUSH3 0x7B PUSH3 0x420 JUMP JUMPDEST SWAP3 PUSH1 0xB DUP5 MSTORE PUSH11 0x14DBDB1E5D1A1C98539195 PUSH1 0xAA SHL DUP2 DUP6 ADD MSTORE PUSH3 0x9D PUSH3 0x420 JUMP JUMPDEST SWAP1 PUSH1 0x4 DUP3 MSTORE PUSH4 0x14D39195 PUSH1 0xE2 SHL DUP2 DUP4 ADD MSTORE DUP5 MLOAD SWAP9 DUP5 DUP11 GT PUSH3 0x405 JUMPI PUSH1 0x0 SWAP10 DUP11 SLOAD SWAP7 PUSH1 0x1 SWAP8 DUP9 DUP2 DUP2 SHR SWAP2 AND DUP1 ISZERO PUSH3 0x3FA JUMPI JUMPDEST DUP6 DUP3 LT EQ PUSH3 0x3E6 JUMPI SWAP1 DUP2 DUP8 DUP5 SWAP4 GT PUSH3 0x390 JUMPI JUMPDEST POP DUP5 SWAP1 DUP14 DUP9 DUP5 GT PUSH1 0x1 EQ PUSH3 0x330 JUMPI SWAP3 PUSH3 0x324 JUMPI JUMPDEST POP POP PUSH1 0x0 NOT PUSH1 0x3 DUP4 SWAP1 SHL SHR NOT AND SWAP1 DUP8 SHL OR DUP11 SSTORE JUMPDEST DUP3 MLOAD SWAP5 DUP6 GT PUSH3 0x310 JUMPI DUP6 SLOAD DUP7 DUP2 DUP2 SHR SWAP2 AND DUP1 ISZERO PUSH3 0x305 JUMPI JUMPDEST DUP4 DUP3 LT EQ PUSH3 0x2F1 JUMPI SWAP1 DUP2 DUP6 DUP8 SWAP7 SWAP6 SWAP5 SWAP4 GT PUSH3 0x298 JUMPI JUMPDEST POP DUP2 SWAP4 DUP6 GT PUSH1 0x1 EQ PUSH3 0x233 JUMPI POP POP DUP9 SWAP3 PUSH3 0x227 JUMPI JUMPDEST POP POP PUSH1 0x0 NOT PUSH1 0x3 DUP4 SWAP1 SHL SHR NOT AND SWAP1 DUP3 SHL OR SWAP1 SSTORE JUMPDEST PUSH1 0x1 PUSH1 0x1 PUSH1 0xA0 SHL SUB SWAP2 DUP3 AND DUP1 ISZERO PUSH3 0x20E JUMPI PUSH1 0x6 SLOAD DUP2 PUSH1 0x40 MLOAD SWAP7 PUSH32 0x8BE0079C531659141344CD1FD0A4F28419497F9722A3DAAFE3B4186F6B6457E0 DUP7 DUP5 AND SWAP2 DUP1 LOG3 PUSH1 0x1 DUP1 PUSH1 0xA8 SHL SUB NOT AND OR PUSH1 0x6 SSTORE PUSH9 0x56BC75E2D63100000 PUSH1 0xA SSTORE PUSH1 0xFA PUSH1 0xB SSTORE PUSH3 0x278D00 PUSH1 0xC SSTORE PUSH2 0x1F4 PUSH1 0xD SSTORE DUP2 PUSH1 0x1 DUP1 PUSH1 0xA0 SHL SUB NOT SWAP4 AND DUP4 PUSH1 0x8 SLOAD AND OR PUSH1 0x8 SSTORE AND SWAP1 DUP2 DUP2 PUSH1 0x9 SLOAD AND OR PUSH1 0x9 SSTORE PUSH1 0x10 SLOAD AND OR PUSH1 0x10 SSTORE PUSH2 0x2744 SWAP1 DUP2 PUSH3 0x456 DUP3 CODECOPY RETURN JUMPDEST PUSH1 0x40 MLOAD PUSH4 0x1E4FBDF7 PUSH1 0xE0 SHL DUP2 MSTORE PUSH1 0x4 DUP2 ADD DUP7 SWAP1 MSTORE PUSH1 0x24 SWAP1 REVERT JUMPDEST ADD MLOAD SWAP1 POP CODESIZE DUP1 PUSH3 0x158 JUMP JUMPDEST DUP7 SWAP6 SWAP4 SWAP3 SWAP2 SWAP4 AND DUP6 DUP12 MSTORE DUP4 DUP12 KECCAK256 SWAP4 DUP12 SWAP1 JUMPDEST DUP3 DUP3 LT PUSH3 0x27E JUMPI POP POP DUP5 GT PUSH3 0x264 JUMPI JUMPDEST POP POP POP DUP2 SHL ADD SWAP1 SSTORE PUSH3 0x16C JUMP JUMPDEST ADD MLOAD PUSH1 0x0 NOT PUSH1 0xF8 DUP5 PUSH1 0x3 SHL AND SHR NOT AND SWAP1 SSTORE CODESIZE DUP1 DUP1 PUSH3 0x256 JUMP JUMPDEST DUP5 DUP5 ADD MLOAD DUP7 SSTORE DUP9 SWAP8 SWAP1 SWAP6 ADD SWAP5 SWAP4 DUP5 ADD SWAP4 SWAP1 DUP2 ADD SWAP1 PUSH3 0x244 JUMP JUMPDEST SWAP1 SWAP2 SWAP3 SWAP4 SWAP5 POP DUP7 DUP12 MSTORE DUP3 DUP12 KECCAK256 DUP6 DUP1 DUP9 ADD PUSH1 0x5 SHR DUP3 ADD SWAP3 DUP6 DUP10 LT PUSH3 0x2E7 JUMPI JUMPDEST SWAP2 DUP9 SWAP8 DUP11 SWAP3 SWAP8 SWAP7 SWAP6 SWAP5 SWAP4 ADD PUSH1 0x5 SHR ADD SWAP2 JUMPDEST DUP3 DUP2 LT PUSH3 0x2D8 JUMPI POP POP PUSH3 0x141 JUMP JUMPDEST DUP14 DUP2 SSTORE DUP9 SWAP8 POP DUP10 SWAP2 ADD PUSH3 0x2C8 JUMP JUMPDEST SWAP3 POP DUP2 SWAP3 PUSH3 0x2B7 JUMP JUMPDEST PUSH4 0x4E487B71 PUSH1 0xE0 SHL DUP12 MSTORE PUSH1 0x22 PUSH1 0x4 MSTORE PUSH1 0x24 DUP12 REVERT JUMPDEST SWAP1 PUSH1 0x7F AND SWAP1 PUSH3 0x129 JUMP JUMPDEST PUSH4 0x4E487B71 PUSH1 0xE0 SHL DUP11 MSTORE PUSH1 0x41 PUSH1 0x4 MSTORE PUSH1 0x24 DUP11 REVERT JUMPDEST ADD MLOAD SWAP1 POP CODESIZE DUP1 PUSH3 0xFB JUMP JUMPDEST SWAP2 SWAP1 DUP6 DUP12 SWAP6 AND DUP4 DUP1 MSTORE DUP8 DUP5 KECCAK256 SWAP4 JUMPDEST DUP9 DUP3 DUP3 LT PUSH3 0x379 JUMPI POP POP DUP5 GT PUSH3 0x35F JUMPI JUMPDEST POP POP POP DUP2 SHL ADD DUP11 SSTORE PUSH3 0x10F JUMP JUMPDEST ADD MLOAD PUSH1 0x0 NOT PUSH1 0xF8 DUP5 PUSH1 0x3 SHL AND SHR NOT AND SWAP1 SSTORE CODESIZE DUP1 DUP1 PUSH3 0x351 JUMP JUMPDEST DUP4 DUP6 ADD MLOAD DUP7 SSTORE DUP14 SWAP8 SWAP1 SWAP6 ADD SWAP5 SWAP4 DUP5 ADD SWAP4 ADD PUSH3 0x33E JUMP JUMPDEST SWAP1 SWAP2 POP DUP13 DUP1 MSTORE DUP5 DUP14 KECCAK256 DUP8 DUP1 DUP6 ADD PUSH1 0x5 SHR DUP3 ADD SWAP3 DUP8 DUP7 LT PUSH3 0x3DC JUMPI JUMPDEST DUP6 SWAP5 SWAP4 SWAP2 ADD PUSH1 0x5 SHR SWAP1 SWAP2 ADD SWAP1 DUP11 SWAP1 DUP16 JUMPDEST DUP4 DUP3 LT PUSH3 0x3CD JUMPI POP POP POP PUSH3 0xE5 JUMP JUMPDEST DUP2 SSTORE DUP6 SWAP5 POP DUP12 SWAP2 ADD DUP16 PUSH3 0x3BC JUMP JUMPDEST SWAP3 POP DUP2 SWAP3 PUSH3 0x3AC JUMP JUMPDEST PUSH4 0x4E487B71 PUSH1 0xE0 SHL DUP14 MSTORE PUSH1 0x22 PUSH1 0x4 MSTORE PUSH1 0x24 DUP14 REVERT JUMPDEST SWAP1 PUSH1 0x7F AND SWAP1 PUSH3 0xD0 JUMP JUMPDEST PUSH4 0x4E487B71 PUSH1 0xE0 SHL PUSH1 0x0 MSTORE PUSH1 0x41 PUSH1 0x4 MSTORE PUSH1 0x24 PUSH1 0x0 REVERT JUMPDEST PUSH1 0x0 DUP1 REVERT JUMPDEST PUSH1 0x40 DUP1 MLOAD SWAP2 SWAP1 DUP3 ADD PUSH1 0x1 PUSH1 0x1 PUSH1 0x40 SHL SUB DUP2 GT DUP4 DUP3 LT OR PUSH3 0x405 JUMPI PUSH1 0x40 MSTORE JUMP JUMPDEST MLOAD SWAP1 PUSH1 0x1 PUSH1 0x1 PUSH1 0xA0 SHL SUB DUP3 AND DUP3 SUB PUSH3 0x41B JUMPI JUMP INVALID PUSH1 0x80 PUSH1 0x40 DUP2 DUP2 MSTORE PUSH1 0x4 DUP1 CALLDATASIZE LT ISZERO PUSH2 0x15 JUMPI PUSH1 0x0 DUP1 REVERT JUMPDEST PUSH1 0x0 SWAP3 DUP4 CALLDATALOAD PUSH1 0xE0 SHR SWAP1 DUP2 PUSH4 0x1FFC9A7 EQ PUSH2 0x1B96 JUMPI POP DUP1 PUSH4 0x6FDDE03 EQ PUSH2 0x1AC9 JUMPI DUP1 PUSH4 0x81812FC EQ PUSH2 0x1A83 JUMPI DUP1 PUSH4 0x95EA7B3 EQ PUSH2 0x1951 JUMPI DUP4 DUP2 PUSH4 0x14F710FE EQ PUSH2 0x1754 JUMPI POP DUP1 PUSH4 0x18DA0011 EQ PUSH2 0x171F JUMPI DUP1 PUSH4 0x21F67FBB EQ PUSH2 0x167C JUMPI DUP1 PUSH4 0x23B872DD EQ PUSH2 0x1664 JUMPI DUP1 PUSH4 0x2850DF1A EQ PUSH2 0x1645 JUMPI DUP1 PUSH4 0x2A55205A EQ PUSH2 0x15CF JUMPI DUP1 PUSH4 0x305A67A8 EQ PUSH2 0x1511 JUMPI DUP1 PUSH4 0x3E4086E5 EQ PUSH2 0x145C JUMPI DUP1 PUSH4 0x3EC62279 EQ PUSH2 0x13CF JUMPI DUP1 PUSH4 0x42842E0E EQ PUSH2 0x13A6 JUMPI DUP1 PUSH4 0x51ED8288 EQ PUSH2 0xE4C JUMPI DUP1 PUSH4 0x56F43352 EQ PUSH2 0xE2D JUMPI DUP1 PUSH4 0x5C975ABB EQ PUSH2 0xE06 JUMPI DUP1 PUSH4 0x61D027B3 EQ PUSH2 0xDD1 JUMPI DUP1 PUSH4 0x6352211E EQ PUSH2 0xD94 JUMPI DUP1 PUSH4 0x67FBF8D7 EQ PUSH2 0xB0D JUMPI DUP1 PUSH4 0x6817C76C EQ PUSH2 0xAEE JUMPI DUP1 PUSH4 0x70A08231 EQ PUSH2 0xA73 JUMPI DUP1 PUSH4 0x715018A6 EQ PUSH2 0x9F3 JUMPI DUP1 PUSH4 0x75794A3C EQ PUSH2 0x9D4 JUMPI DUP1 PUSH4 0x7B65209B EQ PUSH2 0x99F JUMPI DUP1 PUSH4 0x8DA5CB5B EQ PUSH2 0x96A JUMPI DUP1 PUSH4 0x94383F14 EQ PUSH2 0x7D0 JUMPI DUP1 PUSH4 0x95D89B41 EQ PUSH2 0x67C JUMPI DUP1 PUSH4 0xA22CB465 EQ PUSH2 0x58D JUMPI DUP1 PUSH4 0xB0D54BCF EQ PUSH2 0x4D8 JUMPI DUP1 PUSH4 0xB88D4FDE EQ PUSH2 0x44F JUMPI DUP1 PUSH4 0xB8997A97 EQ PUSH2 0x430 JUMPI DUP1 PUSH4 0xC87B56DD EQ PUSH2 0x3DD JUMPI DUP1 PUSH4 0xCD53D08E EQ PUSH2 0x3A0 JUMPI DUP1 PUSH4 0xDE74E57B EQ PUSH2 0x33C JUMPI DUP1 PUSH4 0xE985E9C5 EQ PUSH2 0x2DD JUMPI DUP1 PUSH4 0xF2FDE38B EQ PUSH2 0x217 JUMPI PUSH4 0xF4A0A528 EQ PUSH2 0x1C7 JUMPI PUSH1 0x0 DUP1 REVERT JUMPDEST CALLVALUE PUSH2 0x213 JUMPI PUSH1 0x20 PUSH1 0x3 NOT CALLDATASIZE ADD SLT PUSH2 0x213 JUMPI PUSH32 0x525B762709CC2A983AEC5CCDFD807A061F993C91090B5BCD7DA92CA254976AAA SWAP2 PUSH1 0x20 SWAP2 CALLDATALOAD SWAP1 PUSH2 0x207 PUSH2 0x25A2 JUMP JUMPDEST DUP2 PUSH1 0xA SSTORE MLOAD SWAP1 DUP2 MSTORE LOG1 DUP1 RETURN JUMPDEST DUP3 DUP1 REVERT JUMPDEST POP CALLVALUE PUSH2 0x213 JUMPI PUSH1 0x20 PUSH1 0x3 NOT CALLDATASIZE ADD SLT PUSH2 0x213 JUMPI PUSH2 0x231 PUSH2 0x1CC4 JUMP JUMPDEST SWAP1 PUSH2 0x23A PUSH2 0x25A2 JUMP JUMPDEST PUSH20 0xFFFFFFFFFFFFFFFFFFFFFFFFFFFFFFFFFFFFFFFF DUP1 SWAP3 AND SWAP3 DUP4 ISZERO PUSH2 0x2AE JUMPI POP POP PUSH1 0x6 SLOAD DUP3 PUSH32 0xFFFFFFFFFFFFFFFFFFFFFFFF0000000000000000000000000000000000000000 DUP3 AND OR PUSH1 0x6 SSTORE AND PUSH32 0x8BE0079C531659141344CD1FD0A4F28419497F9722A3DAAFE3B4186F6B6457E0 DUP4 DUP1 LOG3 DUP1 RETURN JUMPDEST SWAP1 DUP5 PUSH1 0x24 SWAP3 MLOAD SWAP2 PUSH32 0x1E4FBDF700000000000000000000000000000000000000000000000000000000 DUP4 MSTORE DUP3 ADD MSTORE REVERT JUMPDEST POP POP CALLVALUE PUSH2 0x338 JUMPI DUP1 PUSH1 0x3 NOT CALLDATASIZE ADD SLT PUSH2 0x338 JUMPI PUSH1 0xFF DUP2 PUSH1 0x20 SWAP4 PUSH2 0x2FD PUSH2 0x1CC4 JUMP JUMPDEST PUSH2 0x305 PUSH2 0x1CEC JUMP JUMPDEST PUSH20 0xFFFFFFFFFFFFFFFFFFFFFFFFFFFFFFFFFFFFFFFF SWAP2 DUP3 AND DUP4 MSTORE PUSH1 0x5 DUP8 MSTORE DUP4 DUP4 KECCAK256 SWAP2 AND DUP3 MSTORE DUP6 MSTORE KECCAK256 SLOAD SWAP2 MLOAD SWAP2 AND ISZERO ISZERO DUP2 MSTORE RETURN JUMPDEST POP DUP1 REVERT JUMPDEST POP CALLVALUE PUSH2 0x213 JUMPI PUSH1 0x20 PUSH1 0x3 NOT CALLDATASIZE ADD SLT PUSH2 0x213 JUMPI PUSH1 0x80 SWAP3 DUP3 SWAP2 CALLDATALOAD DUP2 MSTORE PUSH1 0xE PUSH1 0x20 MSTORE KECCAK256 SWAP1 PUSH20 0xFFFFFFFFFFFFFFFFFFFFFFFFFFFFFFFFFFFFFFFF DUP3 SLOAD AND SWAP2 PUSH1 0x1 DUP2 ADD SLOAD SWAP2 PUSH1 0xFF PUSH1 0x3 PUSH1 0x2 DUP5 ADD SLOAD SWAP4 ADD SLOAD AND SWAP3 DUP2 MLOAD SWAP5 DUP6 MSTORE PUSH1 0x20 DUP6 ADD MSTORE DUP4 ADD MSTORE ISZERO ISZERO PUSH1 0x60 DUP3 ADD MSTORE RETURN JUMPDEST POP CALLVALUE PUSH2 0x213 JUMPI PUSH1 0x20 PUSH1 0x3 NOT CALLDATASIZE ADD SLT PUSH2 0x213 JUMPI DUP2 PUSH1 0x20 SWAP4 PUSH20 0xFFFFFFFFFFFFFFFFFFFFFFFFFFFFFFFFFFFFFFFF SWAP3 CALLDATALOAD DUP2 MSTORE PUSH1 0xF DUP6 MSTORE KECCAK256 SLOAD AND SWAP1 MLOAD SWAP1 DUP2 MSTORE RETURN JUMPDEST POP SWAP2 SWAP1 CALLVALUE PUSH2 0x338 JUMPI PUSH1 0x20 PUSH1 0x3 NOT CALLDATASIZE ADD SLT PUSH2 0x338 JUMPI PUSH2 0x3FE PUSH2 0x42C SWAP4 CALLDATALOAD PUSH2 0x24A9 JUMP JUMPDEST POP DUP2 DUP2 MLOAD PUSH2 0x40B DUP2 PUSH2 0x1D67 JUMP JUMPDEST MSTORE DUP1 MLOAD SWAP2 PUSH2 0x418 DUP4 PUSH2 0x1D67 JUMP JUMPDEST DUP3 MSTORE MLOAD SWAP2 DUP3 SWAP2 PUSH1 0x20 DUP4 MSTORE PUSH1 0x20 DUP4 ADD SWAP1 PUSH2 0x1C66 JUMP JUMPDEST SUB SWAP1 RETURN JUMPDEST POP POP CALLVALUE PUSH2 0x338 JUMPI DUP2 PUSH1 0x3 NOT CALLDATASIZE ADD SLT PUSH2 0x338 JUMPI PUSH1 0x20 SWAP1 PUSH1 0xD SLOAD SWAP1 MLOAD SWAP1 DUP2 MSTORE RETURN JUMPDEST POP SWAP1 CALLVALUE PUSH2 0x213 JUMPI PUSH1 0x80 PUSH1 0x3 NOT CALLDATASIZE ADD SLT PUSH2 0x213 JUMPI PUSH2 0x46A PUSH2 0x1CC4 JUMP JUMPDEST PUSH2 0x472 PUSH2 0x1CEC JUMP JUMPDEST DUP5 PUSH1 0x64 CALLDATALOAD SWAP5 PUSH8 0xFFFFFFFFFFFFFFFF DUP7 GT PUSH2 0x338 JUMPI CALLDATASIZE PUSH1 0x23 DUP8 ADD SLT ISZERO PUSH2 0x338 JUMPI DUP6 ADD CALLDATALOAD SWAP5 PUSH2 0x4AA PUSH2 0x4A1 DUP8 PUSH2 0x1DF3 JUMP JUMPDEST SWAP6 MLOAD SWAP6 DUP7 PUSH2 0x1DB2 JUMP JUMPDEST DUP6 DUP6 MSTORE CALLDATASIZE PUSH1 0x24 DUP8 DUP4 ADD ADD GT PUSH2 0x338 JUMPI DUP6 PUSH2 0x4D5 SWAP7 PUSH1 0x24 PUSH1 0x20 SWAP4 ADD DUP4 DUP9 ADD CALLDATACOPY DUP6 ADD ADD MSTORE PUSH1 0x44 CALLDATALOAD SWAP2 PUSH2 0x22D1 JUMP JUMPDEST DUP1 RETURN JUMPDEST POP SWAP1 CALLVALUE PUSH2 0x213 JUMPI PUSH1 0x20 PUSH1 0x3 NOT CALLDATASIZE ADD SLT PUSH2 0x213 JUMPI DUP2 CALLDATALOAD SWAP2 PUSH2 0x4F6 PUSH2 0x25A2 JUMP JUMPDEST PUSH2 0x1F4 DUP4 GT PUSH2 0x531 JUMPI POP DUP2 PUSH1 0x20 SWAP2 PUSH32 0xA3DFE13986DA4BCFDC32F544EBE130CB8EC20A2AFC45E7C3994975076A08E578 SWAP4 PUSH1 0xB SSTORE MLOAD SWAP1 DUP2 MSTORE LOG1 DUP1 RETURN JUMPDEST PUSH1 0x20 PUSH1 0x64 SWAP3 MLOAD SWAP2 PUSH32 0x8C379A000000000000000000000000000000000000000000000000000000000 DUP4 MSTORE DUP3 ADD MSTORE PUSH1 0xC PUSH1 0x24 DUP3 ADD MSTORE PUSH32 0x46656520746F6F20686967680000000000000000000000000000000000000000 PUSH1 0x44 DUP3 ADD MSTORE REVERT JUMPDEST POP SWAP1 CALLVALUE PUSH2 0x213 JUMPI DUP1 PUSH1 0x3 NOT CALLDATASIZE ADD SLT PUSH2 0x213 JUMPI PUSH2 0x5A7 PUSH2 0x1CC4 JUMP JUMPDEST SWAP1 PUSH1 0x24 CALLDATALOAD DUP1 ISZERO ISZERO SWAP3 DUP4 DUP3 SUB PUSH2 0x678 JUMPI PUSH20 0xFFFFFFFFFFFFFFFFFFFFFFFFFFFFFFFFFFFFFFFF AND SWAP4 DUP5 ISZERO PUSH2 0x649 JUMPI POP PUSH2 0x61C SWAP1 CALLER DUP7 MSTORE PUSH1 0x5 PUSH1 0x20 MSTORE DUP3 DUP7 KECCAK256 DUP6 DUP8 MSTORE PUSH1 0x20 MSTORE DUP3 DUP7 KECCAK256 SWAP1 PUSH1 0xFF PUSH32 0xFFFFFFFFFFFFFFFFFFFFFFFFFFFFFFFFFFFFFFFFFFFFFFFFFFFFFFFFFFFFFF00 DUP4 SLOAD AND SWAP2 ISZERO ISZERO AND OR SWAP1 SSTORE JUMP JUMPDEST MLOAD SWAP1 DUP2 MSTORE PUSH32 0x17307EAB39AB6107E8899845AD3D59BD9653F200F220920489CA2B5937696C31 PUSH1 0x20 CALLER SWAP3 LOG3 DUP1 RETURN JUMPDEST PUSH1 0x24 SWAP1 DUP6 DUP5 MLOAD SWAP2 PUSH32 0x5B08BA1800000000000000000000000000000000000000000000000000000000 DUP4 MSTORE DUP3 ADD MSTORE REVERT JUMPDEST DUP6 DUP1 REVERT JUMPDEST POP SWAP2 CALLVALUE PUSH2 0x7CD JUMPI DUP1 PUSH1 0x3 NOT CALLDATASIZE ADD SLT PUSH2 0x7CD JUMPI DUP2 MLOAD SWAP2 DUP2 PUSH1 0x1 SWAP3 PUSH1 0x1 SLOAD SWAP4 DUP5 PUSH1 0x1 SHR SWAP2 PUSH1 0x1 DUP7 AND SWAP6 DUP7 ISZERO PUSH2 0x7C3 JUMPI JUMPDEST PUSH1 0x20 SWAP7 DUP8 DUP6 LT DUP2 EQ PUSH2 0x797 JUMPI DUP9 SWAP10 POP SWAP7 DUP9 SWAP7 SWAP8 DUP6 DUP3 SWAP11 MSTORE SWAP2 DUP3 PUSH1 0x0 EQ PUSH2 0x752 JUMPI POP POP PUSH1 0x1 EQ PUSH2 0x6F6 JUMPI JUMPDEST POP POP POP PUSH2 0x42C SWAP3 SWAP2 PUSH2 0x6E7 SWAP2 SUB DUP6 PUSH2 0x1DB2 JUMP JUMPDEST MLOAD SWAP3 DUP3 DUP5 SWAP4 DUP5 MSTORE DUP4 ADD SWAP1 PUSH2 0x1C66 JUMP JUMPDEST SWAP2 SWAP1 DUP7 SWAP4 POP PUSH1 0x1 DUP4 MSTORE PUSH32 0xB10E2D527612073B26EECDFD717E6A320CF44B4AFAC2B0732D9FCBE2B7FA0CF6 JUMPDEST DUP3 DUP5 LT PUSH2 0x73A JUMPI POP POP POP DUP3 ADD ADD DUP2 PUSH2 0x6E7 PUSH2 0x42C PUSH2 0x6D4 JUMP JUMPDEST DUP1 SLOAD DUP5 DUP11 ADD DUP7 ADD MSTORE DUP9 SWAP6 POP DUP8 SWAP5 SWAP1 SWAP4 ADD SWAP3 DUP2 ADD PUSH2 0x721 JUMP JUMPDEST PUSH32 0xFFFFFFFFFFFFFFFFFFFFFFFFFFFFFFFFFFFFFFFFFFFFFFFFFFFFFFFFFFFFFF00 AND DUP8 DUP3 ADD MSTORE SWAP4 ISZERO ISZERO PUSH1 0x5 SHL DUP7 ADD SWAP1 SWAP4 ADD SWAP4 POP DUP5 SWAP3 POP PUSH2 0x6E7 SWAP2 POP PUSH2 0x42C SWAP1 POP PUSH2 0x6D4 JUMP JUMPDEST PUSH1 0x24 DUP4 PUSH1 0x22 DUP13 PUSH32 0x4E487B7100000000000000000000000000000000000000000000000000000000 DUP4 MSTORE MSTORE REVERT JUMPDEST SWAP3 PUSH1 0x7F AND SWAP3 PUSH2 0x6AA JUMP JUMPDEST DUP1 REVERT JUMPDEST POP SWAP2 SWAP1 CALLVALUE PUSH2 0x338 JUMPI PUSH2 0x7E1 CALLDATASIZE PUSH2 0x1D51 JUMP JUMPDEST SWAP1 SWAP2 PUSH2 0x7EB PUSH2 0x250A JUMP JUMPDEST PUSH2 0x7F4 DUP4 PUSH2 0x24A9 JUMP JUMPDEST PUSH2 0x817 PUSH20 0xFFFFFFFFFFFFFFFFFFFFFFFFFFFFFFFFFFFFFFFF SWAP2 DUP3 CALLER SWAP2 AND EQ PUSH2 0x21FA JUMP JUMPDEST PUSH1 0xC SLOAD TIMESTAMP ADD SWAP1 DUP2 TIMESTAMP GT PUSH2 0x93E JUMPI DUP3 MLOAD SWAP1 PUSH1 0x80 DUP3 ADD DUP3 DUP2 LT PUSH8 0xFFFFFFFFFFFFFFFF DUP3 GT OR PUSH2 0x912 JUMPI DUP5 SWAP3 PUSH1 0x3 PUSH1 0x60 SWAP8 SWAP6 SWAP4 PUSH2 0x8FF SWAP4 PUSH32 0xCC0C9A64FC84375CEEC206F2FC87EB06D3CACAE06967A94D2BA499000EA17617 SWAP11 SWAP9 MSTORE CALLER DUP4 MSTORE PUSH1 0x20 DUP4 ADD DUP8 DUP2 MSTORE DUP7 DUP5 ADD SWAP6 DUP7 MSTORE DUP10 DUP5 ADD SWAP2 PUSH1 0x1 DUP4 MSTORE DUP10 DUP14 MSTORE PUSH1 0xE PUSH1 0x20 MSTORE DUP8 DUP14 KECCAK256 SWAP5 MLOAD AND PUSH32 0xFFFFFFFFFFFFFFFFFFFFFFFF0000000000000000000000000000000000000000 DUP6 SLOAD AND OR DUP5 SSTORE MLOAD PUSH1 0x1 DUP5 ADD SSTORE PUSH1 0x2 DUP4 ADD SWAP5 MLOAD DUP6 SSTORE MLOAD ISZERO ISZERO SWAP2 ADD SWAP1 PUSH1 0xFF PUSH32 0xFFFFFFFFFFFFFFFFFFFFFFFFFFFFFFFFFFFFFFFFFFFFFFFFFFFFFFFFFFFFFF00 DUP4 SLOAD AND SWAP2 ISZERO ISZERO AND OR SWAP1 SSTORE JUMP JUMPDEST SLOAD SWAP2 DUP2 MLOAD SWAP4 DUP5 MSTORE PUSH1 0x20 DUP5 ADD MSTORE DUP3 ADD MSTORE LOG1 DUP1 RETURN JUMPDEST PUSH1 0x24 DUP9 PUSH1 0x41 DUP12 PUSH32 0x4E487B7100000000000000000000000000000000000000000000000000000000 DUP4 MSTORE MSTORE REVERT JUMPDEST PUSH1 0x24 DUP7 PUSH1 0x11 DUP10 PUSH32 0x4E487B7100000000000000000000000000000000000000000000000000000000 DUP4 MSTORE MSTORE REVERT JUMPDEST POP POP CALLVALUE PUSH2 0x338 JUMPI DUP2 PUSH1 0x3 NOT CALLDATASIZE ADD SLT PUSH2 0x338 JUMPI PUSH1 0x20 SWAP1 PUSH20 0xFFFFFFFFFFFFFFFFFFFFFFFFFFFFFFFFFFFFFFFF PUSH1 0x6 SLOAD AND SWAP1 MLOAD SWAP1 DUP2 MSTORE RETURN JUMPDEST POP POP CALLVALUE PUSH2 0x338 JUMPI DUP2 PUSH1 0x3 NOT CALLDATASIZE ADD SLT PUSH2 0x338 JUMPI PUSH1 0x20 SWAP1 PUSH20 0xFFFFFFFFFFFFFFFFFFFFFFFFFFFFFFFFFFFFFFFF PUSH1 0x8 SLOAD AND SWAP1 MLOAD SWAP1 DUP2 MSTORE RETURN JUMPDEST POP POP CALLVALUE PUSH2 0x338 JUMPI DUP2 PUSH1 0x3 NOT CALLDATASIZE ADD SLT PUSH2 0x338 JUMPI PUSH1 0x20 SWAP1 PUSH1 0x7 SLOAD SWAP1 MLOAD SWAP1 DUP2 MSTORE RETURN JUMPDEST DUP4 CALLVALUE PUSH2 0x7CD JUMPI DUP1 PUSH1 0x3 NOT CALLDATASIZE ADD SLT PUSH2 0x7CD JUMPI PUSH2 0xA0C PUSH2 0x25A2 JUMP JUMPDEST DUP1 PUSH20 0xFFFFFFFFFFFFFFFFFFFFFFFFFFFFFFFFFFFFFFFF PUSH1 0x6 SLOAD PUSH32 0xFFFFFFFFFFFFFFFFFFFFFFFF0000000000000000000000000000000000000000 DUP2 AND PUSH1 0x6 SSTORE AND PUSH32 0x8BE0079C531659141344CD1FD0A4F28419497F9722A3DAAFE3B4186F6B6457E0 DUP3 DUP1 LOG3 DUP1 RETURN JUMPDEST POP SWAP2 CALLVALUE PUSH2 0x7CD JUMPI PUSH1 0x20 PUSH1 0x3 NOT CALLDATASIZE ADD SLT PUSH2 0x7CD JUMPI PUSH20 0xFFFFFFFFFFFFFFFFFFFFFFFFFFFFFFFFFFFFFFFF PUSH2 0xAA3 PUSH2 0x1CC4 JUMP JUMPDEST AND SWAP3 DUP4 ISZERO PUSH2 0xAC0 JUMPI POP DUP1 PUSH1 0x20 SWAP4 DUP4 SWAP3 MSTORE PUSH1 0x3 DUP5 MSTORE KECCAK256 SLOAD SWAP1 MLOAD SWAP1 DUP2 MSTORE RETURN JUMPDEST SWAP1 PUSH1 0x24 SWAP3 MLOAD SWAP2 PUSH32 0x89C62B6400000000000000000000000000000000000000000000000000000000 DUP4 MSTORE DUP3 ADD MSTORE REVERT JUMPDEST POP POP CALLVALUE PUSH2 0x338 JUMPI DUP2 PUSH1 0x3 NOT CALLDATASIZE ADD SLT PUSH2 0x338 JUMPI PUSH1 0x20 SWAP1 PUSH1 0xA SLOAD SWAP1 MLOAD SWAP1 DUP2 MSTORE RETURN JUMPDEST POP SWAP1 CALLVALUE PUSH2 0x213 JUMPI PUSH1 0x20 DUP1 PUSH1 0x3 NOT CALLDATASIZE ADD SLT PUSH2 0xD90 JUMPI DUP3 CALLDATALOAD SWAP3 PUSH2 0xB2C PUSH2 0x250A JUMP JUMPDEST DUP4 ISZERO PUSH2 0xD35 JUMPI PUSH2 0xB3E DUP5 PUSH1 0xA SLOAD PUSH2 0x21E7 JUMP JUMPDEST PUSH20 0xFFFFFFFFFFFFFFFFFFFFFFFFFFFFFFFFFFFFFFFF SWAP2 DUP3 PUSH1 0x8 SLOAD AND SWAP1 DUP8 DUP7 MLOAD PUSH32 0x70A0823100000000000000000000000000000000000000000000000000000000 DUP2 MSTORE CALLER DUP4 DUP3 ADD MSTORE DUP7 DUP2 PUSH1 0x24 DUP2 DUP8 GAS STATICCALL SWAP1 DUP2 ISZERO PUSH2 0xD2B JUMPI SWAP1 DUP3 SWAP2 DUP9 SWAP7 SWAP6 SWAP5 SWAP4 SWAP2 PUSH2 0xCF8 JUMPI JUMPDEST POP SWAP6 PUSH2 0xBB3 DUP6 PUSH2 0xC18 SWAP9 LT ISZERO PUSH2 0x1E2D JUMP JUMPDEST PUSH1 0x9 SLOAD AND SWAP2 DUP9 MLOAD SWAP7 DUP8 SWAP6 DUP7 SWAP5 DUP6 SWAP4 PUSH32 0x23B872DD00000000000000000000000000000000000000000000000000000000 DUP6 MSTORE CALLER SWAP1 DUP6 ADD PUSH1 0x40 SWAP2 SWAP5 SWAP4 SWAP3 SWAP5 PUSH1 0x60 DUP3 ADD SWAP6 PUSH20 0xFFFFFFFFFFFFFFFFFFFFFFFFFFFFFFFFFFFFFFFF DUP1 SWAP3 AND DUP4 MSTORE AND PUSH1 0x20 DUP3 ADD MSTORE ADD MSTORE JUMP JUMPDEST SUB SWAP3 GAS CALL SWAP1 DUP2 ISZERO PUSH2 0xCEE JUMPI SWAP1 PUSH2 0xC35 SWAP2 DUP7 SWAP2 PUSH2 0xCC1 JUMPI JUMPDEST POP PUSH2 0x1EAA JUMP JUMPDEST DUP4 JUMPDEST DUP4 DUP2 LT PUSH2 0xC42 JUMPI DUP5 DUP1 RETURN JUMPDEST PUSH1 0x1 SWAP1 PUSH1 0x7 DUP1 SLOAD DUP8 MSTORE PUSH1 0xF DUP5 MSTORE DUP5 DUP8 KECCAK256 CALLER PUSH32 0xFFFFFFFFFFFFFFFFFFFFFFFF0000000000000000000000000000000000000000 DUP3 SLOAD AND OR SWAP1 SSTORE PUSH2 0xC85 DUP2 SLOAD CALLER PUSH2 0x2543 JUMP JUMPDEST PUSH2 0xCB9 DUP2 SLOAD DUP7 MLOAD DUP2 DUP2 MSTORE PUSH32 0x4CC0A9C4A99DDC700DE1AF2C9F916A7CBFDB71F14801CCFF94061AD1EF8A8040 DUP8 CALLER SWAP3 LOG2 PUSH2 0x1F0F JUMP JUMPDEST SWAP1 SSTORE ADD PUSH2 0xC37 JUMP JUMPDEST PUSH2 0xCE1 SWAP2 POP DUP4 RETURNDATASIZE DUP6 GT PUSH2 0xCE7 JUMPI JUMPDEST PUSH2 0xCD9 DUP2 DUP4 PUSH2 0x1DB2 JUMP JUMPDEST DUP2 ADD SWAP1 PUSH2 0x1E92 JUMP JUMPDEST CODESIZE PUSH2 0xC2F JUMP JUMPDEST POP RETURNDATASIZE PUSH2 0xCCF JUMP JUMPDEST DUP4 MLOAD RETURNDATASIZE DUP8 DUP3 RETURNDATACOPY RETURNDATASIZE SWAP1 REVERT JUMPDEST DUP7 DUP2 SWAP8 SWAP3 POP RETURNDATASIZE DUP4 GT PUSH2 0xD24 JUMPI JUMPDEST PUSH2 0xD0F DUP2 DUP4 PUSH2 0x1DB2 JUMP JUMPDEST DUP2 ADD SUB SLT PUSH2 0x7CD JUMPI SWAP4 MLOAD DUP7 SWAP5 SWAP1 PUSH2 0xBB3 PUSH2 0xBA2 JUMP JUMPDEST POP RETURNDATASIZE PUSH2 0xD05 JUMP JUMPDEST DUP9 MLOAD RETURNDATASIZE DUP5 DUP3 RETURNDATACOPY RETURNDATASIZE SWAP1 REVERT JUMPDEST SWAP1 PUSH1 0x64 SWAP3 MLOAD SWAP2 PUSH32 0x8C379A000000000000000000000000000000000000000000000000000000000 DUP4 MSTORE DUP3 ADD MSTORE PUSH1 0x18 PUSH1 0x24 DUP3 ADD MSTORE PUSH32 0x4D757374206D696E74206174206C656173742031204E46540000000000000000 PUSH1 0x44 DUP3 ADD MSTORE REVERT JUMPDEST DUP4 DUP1 REVERT JUMPDEST POP SWAP2 CALLVALUE PUSH2 0x7CD JUMPI PUSH1 0x20 PUSH1 0x3 NOT CALLDATASIZE ADD SLT PUSH2 0x7CD JUMPI POP PUSH20 0xFFFFFFFFFFFFFFFFFFFFFFFFFFFFFFFFFFFFFFFF PUSH2 0xDC9 PUSH1 0x20 SWAP4 CALLDATALOAD PUSH2 0x24A9 JUMP JUMPDEST SWAP2 MLOAD SWAP2 AND DUP2 MSTORE RETURN JUMPDEST POP POP CALLVALUE PUSH2 0x338 JUMPI DUP2 PUSH1 0x3 NOT CALLDATASIZE ADD SLT PUSH2 0x338 JUMPI PUSH1 0x20 SWAP1 PUSH20 0xFFFFFFFFFFFFFFFFFFFFFFFFFFFFFFFFFFFFFFFF PUSH1 0x9 SLOAD AND SWAP1 MLOAD SWAP1 DUP2 MSTORE RETURN JUMPDEST POP POP CALLVALUE PUSH2 0x338 JUMPI DUP2 PUSH1 0x3 NOT CALLDATASIZE ADD SLT PUSH2 0x338 JUMPI PUSH1 0x20 SWAP1 PUSH1 0xFF PUSH1 0x6 SLOAD PUSH1 0xA0 SHR AND SWAP1 MLOAD SWAP1 ISZERO ISZERO DUP2 MSTORE RETURN JUMPDEST POP POP CALLVALUE PUSH2 0x338 JUMPI DUP2 PUSH1 0x3 NOT CALLDATASIZE ADD SLT PUSH2 0x338 JUMPI PUSH1 0x20 SWAP1 PUSH1 0xB SLOAD SWAP1 MLOAD SWAP1 DUP2 MSTORE RETURN JUMPDEST POP DUP3 CALLVALUE PUSH2 0x7CD JUMPI PUSH1 0x20 SWAP3 DUP4 PUSH1 0x3 NOT CALLDATASIZE ADD SLT PUSH2 0x338 JUMPI DUP3 CALLDATALOAD SWAP2 PUSH2 0xE6C PUSH2 0x250A JUMP JUMPDEST DUP3 DUP2 MSTORE PUSH1 0xE SWAP5 DUP6 DUP2 MSTORE PUSH2 0xE87 PUSH1 0xFF PUSH1 0x3 DUP6 DUP6 KECCAK256 ADD SLOAD AND PUSH2 0x225F JUMP JUMPDEST DUP4 DUP3 MSTORE DUP6 DUP2 MSTORE PUSH1 0x2 DUP4 DUP4 KECCAK256 ADD SLOAD TIMESTAMP GT PUSH2 0x134A JUMPI SWAP1 PUSH2 0xEBC SWAP2 DUP7 DUP6 DUP4 MSTORE DUP1 DUP3 MSTORE PUSH1 0x1 DUP6 DUP5 KECCAK256 ADD SLOAD PUSH2 0x2710 SWAP5 DUP6 SWAP2 PUSH1 0xB SLOAD SWAP1 PUSH2 0x21E7 JUMP JUMPDEST DIV SWAP4 DUP7 DUP5 MSTORE DUP2 DUP4 MSTORE PUSH2 0xED7 PUSH1 0x1 DUP8 DUP7 KECCAK256 ADD SLOAD PUSH1 0xD SLOAD SWAP1 PUSH2 0x21E7 JUMP JUMPDEST DIV SWAP4 DUP7 DUP5 MSTORE DUP2 DUP4 MSTORE DUP8 PUSH2 0xEF9 DUP7 PUSH2 0xEF4 DUP5 PUSH1 0x1 DUP12 DUP11 KECCAK256 ADD SLOAD PUSH2 0x22C4 JUMP JUMPDEST PUSH2 0x22C4 JUMP JUMPDEST SWAP6 PUSH2 0xF87 DUP6 PUSH20 0xFFFFFFFFFFFFFFFFFFFFFFFFFFFFFFFFFFFFFFFF SWAP9 DUP10 PUSH1 0x8 SLOAD AND DUP13 DUP11 MSTORE DUP8 DUP4 MSTORE DUP11 DUP13 DUP12 KECCAK256 SLOAD AND DUP11 DUP14 MLOAD DUP1 SWAP7 DUP2 SWAP6 DUP3 SWAP5 PUSH32 0x23B872DD00000000000000000000000000000000000000000000000000000000 SWAP12 DUP13 DUP6 MSTORE CALLER SWAP1 DUP6 ADD PUSH1 0x40 SWAP2 SWAP5 SWAP4 SWAP3 SWAP5 PUSH1 0x60 DUP3 ADD SWAP6 PUSH20 0xFFFFFFFFFFFFFFFFFFFFFFFFFFFFFFFFFFFFFFFF DUP1 SWAP3 AND DUP4 MSTORE AND PUSH1 0x20 DUP3 ADD MSTORE ADD MSTORE JUMP JUMPDEST SUB SWAP3 GAS CALL SWAP1 DUP2 ISZERO PUSH2 0x1340 JUMPI DUP8 SWAP2 PUSH2 0x1323 JUMPI JUMPDEST POP ISZERO PUSH2 0x12C8 JUMPI PUSH1 0x8 SLOAD DUP10 DUP8 MSTORE PUSH1 0xF DUP7 MSTORE DUP9 DUP8 KECCAK256 SLOAD DUP10 MLOAD DUP5 DUP2 MSTORE CALLER DUP14 DUP3 ADD SWAP1 DUP2 MSTORE SWAP2 DUP11 AND PUSH20 0xFFFFFFFFFFFFFFFFFFFFFFFFFFFFFFFFFFFFFFFF AND PUSH1 0x20 DUP4 ADD MSTORE PUSH1 0x40 DUP3 ADD SWAP4 SWAP1 SWAP4 MSTORE DUP7 SWAP2 DUP4 SWAP2 SWAP1 DUP11 AND SWAP1 DUP3 SWAP1 DUP11 SWAP1 DUP3 SWAP1 PUSH1 0x60 ADD SUB SWAP3 GAS CALL SWAP1 DUP2 ISZERO PUSH2 0x12BE JUMPI DUP7 SWAP2 PUSH2 0x12A1 JUMPI JUMPDEST POP ISZERO PUSH2 0x1245 JUMPI DUP4 SWAP1 DUP7 PUSH1 0x8 SLOAD AND DUP11 DUP8 DUP10 PUSH1 0x9 SLOAD AND SWAP4 PUSH2 0x1059 DUP13 MLOAD SWAP8 DUP9 SWAP7 DUP8 SWAP6 DUP7 SWAP5 DUP6 MSTORE CALLER SWAP1 DUP6 ADD PUSH1 0x40 SWAP2 SWAP5 SWAP4 SWAP3 SWAP5 PUSH1 0x60 DUP3 ADD SWAP6 PUSH20 0xFFFFFFFFFFFFFFFFFFFFFFFFFFFFFFFFFFFFFFFF DUP1 SWAP3 AND DUP4 MSTORE AND PUSH1 0x20 DUP3 ADD MSTORE ADD MSTORE JUMP JUMPDEST SUB SWAP3 GAS CALL SWAP1 DUP2 ISZERO PUSH2 0x123B JUMPI DUP5 SWAP2 PUSH2 0x121E JUMPI JUMPDEST POP ISZERO PUSH2 0x11C2 JUMPI DUP6 DUP4 MSTORE DUP1 DUP3 MSTORE DUP4 DUP6 DUP5 KECCAK256 SLOAD AND SWAP4 CALLER ISZERO PUSH2 0x1193 JUMPI PUSH2 0x108E DUP8 CALLER PUSH2 0x25F3 JUMP JUMPDEST SWAP1 DUP2 AND DUP1 PUSH2 0x10C5 JUMPI PUSH1 0x24 DUP10 DUP10 DUP10 MLOAD SWAP2 PUSH32 0x7E27328900000000000000000000000000000000000000000000000000000000 DUP4 MSTORE DUP3 ADD MSTORE REVERT JUMPDEST SWAP5 DUP1 SWAP9 SWAP3 SWAP4 SWAP5 SWAP8 SWAP6 SUB PUSH2 0x1137 JUMPI POP POP PUSH32 0xBEBCA6653C629A651174DC2EA9B9F7EF506290DEE89FE1A6087EB1E12C06D430 SWAP5 SWAP6 POP DUP3 DUP7 MSTORE DUP2 MSTORE PUSH1 0x3 DUP4 DUP7 KECCAK256 ADD PUSH32 0xFFFFFFFFFFFFFFFFFFFFFFFFFFFFFFFFFFFFFFFFFFFFFFFFFFFFFFFFFFFFFF00 DUP2 SLOAD AND SWAP1 SSTORE DUP3 MLOAD SWAP2 DUP3 MSTORE CALLER SWAP1 DUP3 ADD MSTORE LOG1 DUP1 RETURN JUMPDEST DUP6 MLOAD PUSH32 0x64283D7B00000000000000000000000000000000000000000000000000000000 DUP2 MSTORE PUSH20 0xFFFFFFFFFFFFFFFFFFFFFFFFFFFFFFFFFFFFFFFF DUP1 DUP11 AND SWAP4 DUP3 ADD SWAP4 DUP5 MSTORE PUSH1 0x20 DUP5 ADD DUP8 SWAP1 MSTORE SWAP1 SWAP2 AND PUSH1 0x40 DUP4 ADD MSTORE SWAP1 DUP2 SWAP1 PUSH1 0x60 ADD SUB SWAP1 REVERT JUMPDEST PUSH1 0x24 DUP9 DUP6 DUP9 MLOAD SWAP2 PUSH32 0x64A0AE9200000000000000000000000000000000000000000000000000000000 DUP4 MSTORE DUP3 ADD MSTORE REVERT JUMPDEST PUSH1 0x64 DUP8 DUP4 DUP8 MLOAD SWAP2 PUSH32 0x8C379A000000000000000000000000000000000000000000000000000000000 DUP4 MSTORE DUP3 ADD MSTORE PUSH1 0x13 PUSH1 0x24 DUP3 ADD MSTORE PUSH32 0x466565207472616E73666572206661696C656400000000000000000000000000 PUSH1 0x44 DUP3 ADD MSTORE REVERT JUMPDEST PUSH2 0x1235 SWAP2 POP DUP4 RETURNDATASIZE DUP6 GT PUSH2 0xCE7 JUMPI PUSH2 0xCD9 DUP2 DUP4 PUSH2 0x1DB2 JUMP JUMPDEST DUP9 PUSH2 0x106B JUMP JUMPDEST DUP7 MLOAD RETURNDATASIZE DUP7 DUP3 RETURNDATACOPY RETURNDATASIZE SWAP1 REVERT JUMPDEST PUSH1 0x64 DUP10 DUP6 DUP10 MLOAD SWAP2 PUSH32 0x8C379A000000000000000000000000000000000000000000000000000000000 DUP4 MSTORE DUP3 ADD MSTORE PUSH1 0x16 PUSH1 0x24 DUP3 ADD MSTORE PUSH32 0x526F79616C7479207061796D656E74206661696C656400000000000000000000 PUSH1 0x44 DUP3 ADD MSTORE REVERT JUMPDEST PUSH2 0x12B8 SWAP2 POP DUP6 RETURNDATASIZE DUP8 GT PUSH2 0xCE7 JUMPI PUSH2 0xCD9 DUP2 DUP4 PUSH2 0x1DB2 JUMP JUMPDEST DUP11 PUSH2 0x1002 JUMP JUMPDEST DUP9 MLOAD RETURNDATASIZE DUP9 DUP3 RETURNDATACOPY RETURNDATASIZE SWAP1 REVERT JUMPDEST PUSH1 0x64 DUP11 DUP6 DUP8 DUP12 MLOAD SWAP3 PUSH32 0x8C379A000000000000000000000000000000000000000000000000000000000 DUP5 MSTORE DUP4 ADD MSTORE PUSH1 0x24 DUP3 ADD MSTORE PUSH32 0x5061796D656E74206661696C6564000000000000000000000000000000000000 PUSH1 0x44 DUP3 ADD MSTORE REVERT JUMPDEST PUSH2 0x133A SWAP2 POP DUP7 RETURNDATASIZE DUP9 GT PUSH2 0xCE7 JUMPI PUSH2 0xCD9 DUP2 DUP4 PUSH2 0x1DB2 JUMP JUMPDEST DUP12 PUSH2 0xF99 JUMP JUMPDEST DUP10 MLOAD RETURNDATASIZE DUP10 DUP3 RETURNDATACOPY RETURNDATASIZE SWAP1 REVERT JUMPDEST DUP5 PUSH1 0x64 SWAP2 DUP5 MLOAD SWAP2 PUSH32 0x8C379A000000000000000000000000000000000000000000000000000000000 DUP4 MSTORE DUP3 ADD MSTORE PUSH1 0xF PUSH1 0x24 DUP3 ADD MSTORE PUSH32 0x4C697374696E6720657870697265640000000000000000000000000000000000 PUSH1 0x44 DUP3 ADD MSTORE REVERT JUMPDEST POP POP CALLVALUE PUSH2 0x338 JUMPI PUSH2 0x4D5 SWAP1 PUSH2 0x13BA CALLDATASIZE PUSH2 0x1D0F JUMP JUMPDEST SWAP2 SWAP3 MLOAD SWAP3 PUSH2 0x13C7 DUP5 PUSH2 0x1D67 JUMP JUMPDEST DUP6 DUP5 MSTORE PUSH2 0x22D1 JUMP JUMPDEST POP POP CALLVALUE PUSH2 0x338 JUMPI DUP2 PUSH1 0x3 NOT CALLDATASIZE ADD SLT PUSH2 0x338 JUMPI PUSH1 0x20 PUSH32 0x62E78CEA01BEE320CD4E420270B5EA74000D11B0C9F74754EBDBFC544B05A258 SWAP2 PUSH2 0x140D PUSH2 0x25A2 JUMP JUMPDEST PUSH2 0x1415 PUSH2 0x250A JUMP JUMPDEST PUSH21 0x10000000000000000000000000000000000000000 PUSH32 0xFFFFFFFFFFFFFFFFFFFFFF00FFFFFFFFFFFFFFFFFFFFFFFFFFFFFFFFFFFFFFFF PUSH1 0x6 SLOAD AND OR PUSH1 0x6 SSTORE MLOAD CALLER DUP2 MSTORE LOG1 DUP1 RETURN JUMPDEST POP SWAP1 CALLVALUE PUSH2 0x213 JUMPI PUSH1 0x20 PUSH1 0x3 NOT CALLDATASIZE ADD SLT PUSH2 0x213 JUMPI DUP2 CALLDATALOAD SWAP2 PUSH2 0x147A PUSH2 0x25A2 JUMP JUMPDEST PUSH2 0x3E8 DUP4 GT PUSH2 0x14B5 JUMPI POP DUP2 PUSH1 0x20 SWAP2 PUSH32 0xD9B587D0D884E97B8E3772325D18FFC0412781F43CB5471B8EB5972667724F01 SWAP4 PUSH1 0xD SSTORE MLOAD SWAP1 DUP2 MSTORE LOG1 DUP1 RETURN JUMPDEST PUSH1 0x20 PUSH1 0x64 SWAP3 MLOAD SWAP2 PUSH32 0x8C379A000000000000000000000000000000000000000000000000000000000 DUP4 MSTORE DUP3 ADD MSTORE PUSH1 0x10 PUSH1 0x24 DUP3 ADD MSTORE PUSH32 0x526F79616C747920746F6F206869676800000000000000000000000000000000 PUSH1 0x44 DUP3 ADD MSTORE REVERT JUMPDEST POP CALLVALUE PUSH2 0x213 JUMPI PUSH1 0x20 PUSH1 0x3 NOT CALLDATASIZE ADD SLT PUSH2 0x213 JUMPI PUSH32 0xC46EA9FEE66461DB46A6AC51D560A291533B66981FB9C09CA8948E8DC8D42472 SWAP2 PUSH1 0x20 SWAP2 CALLDATALOAD SWAP1 PUSH2 0x1552 PUSH2 0x250A JUMP JUMPDEST PUSH2 0x157B PUSH2 0x155E DUP4 PUSH2 0x24A9 JUMP JUMPDEST PUSH20 0xFFFFFFFFFFFFFFFFFFFFFFFFFFFFFFFFFFFFFFFF AND CALLER EQ PUSH2 0x21FA JUMP JUMPDEST DUP2 DUP6 MSTORE PUSH1 0xE DUP4 MSTORE PUSH2 0x1594 PUSH1 0xFF PUSH1 0x3 DUP4 DUP9 KECCAK256 ADD SLOAD AND PUSH2 0x225F JUMP JUMPDEST DUP2 DUP6 MSTORE PUSH1 0xE DUP4 MSTORE PUSH1 0x3 DUP2 DUP7 KECCAK256 ADD PUSH32 0xFFFFFFFFFFFFFFFFFFFFFFFFFFFFFFFFFFFFFFFFFFFFFFFFFFFFFFFFFFFFFF00 DUP2 SLOAD AND SWAP1 SSTORE MLOAD SWAP1 DUP2 MSTORE LOG1 DUP1 RETURN JUMPDEST POP POP CALLVALUE PUSH2 0x338 JUMPI PUSH2 0x42C PUSH20 0xFFFFFFFFFFFFFFFFFFFFFFFFFFFFFFFFFFFFFFFF DUP3 PUSH2 0x160B SWAP5 PUSH2 0x2710 PUSH2 0x15FF CALLDATASIZE PUSH2 0x1D51 JUMP JUMPDEST PUSH1 0xD SWAP9 SWAP2 SWAP9 SLOAD SWAP1 PUSH2 0x21E7 JUMP JUMPDEST DIV SWAP6 DUP2 MSTORE PUSH1 0xF PUSH1 0x20 MSTORE KECCAK256 SLOAD AND SWAP2 MLOAD SWAP3 DUP4 SWAP3 DUP4 PUSH1 0x20 SWAP1 SWAP4 SWAP3 SWAP2 SWAP4 PUSH20 0xFFFFFFFFFFFFFFFFFFFFFFFFFFFFFFFFFFFFFFFF PUSH1 0x40 DUP3 ADD SWAP6 AND DUP2 MSTORE ADD MSTORE JUMP JUMPDEST POP POP CALLVALUE PUSH2 0x338 JUMPI DUP2 PUSH1 0x3 NOT CALLDATASIZE ADD SLT PUSH2 0x338 JUMPI PUSH1 0x20 SWAP1 PUSH1 0xC SLOAD SWAP1 MLOAD SWAP1 DUP2 MSTORE RETURN JUMPDEST DUP4 CALLVALUE PUSH2 0x7CD JUMPI PUSH2 0x4D5 PUSH2 0x1676 CALLDATASIZE PUSH2 0x1D0F JUMP JUMPDEST SWAP2 PUSH2 0x1F6B JUMP JUMPDEST POP CALLVALUE PUSH2 0x213 JUMPI DUP3 PUSH1 0x3 NOT CALLDATASIZE ADD SLT PUSH2 0x213 JUMPI PUSH2 0x1695 PUSH2 0x25A2 JUMP JUMPDEST PUSH1 0x6 SLOAD SWAP1 PUSH1 0xFF DUP3 PUSH1 0xA0 SHR AND ISZERO PUSH2 0x16F8 JUMPI POP PUSH32 0x5DB9EE0A495BF2E6FF9C91A7834C1BA4FDD244A5E8AA4E537BD38AEAE4B073AA SWAP2 PUSH32 0xFFFFFFFFFFFFFFFFFFFFFF00FFFFFFFFFFFFFFFFFFFFFFFFFFFFFFFFFFFFFFFF PUSH1 0x20 SWAP3 AND PUSH1 0x6 SSTORE MLOAD CALLER DUP2 MSTORE LOG1 DUP1 RETURN JUMPDEST DUP3 MLOAD PUSH32 0x8DFC202B00000000000000000000000000000000000000000000000000000000 DUP2 MSTORE REVERT JUMPDEST POP POP CALLVALUE PUSH2 0x338 JUMPI DUP2 PUSH1 0x3 NOT CALLDATASIZE ADD SLT PUSH2 0x338 JUMPI PUSH1 0x20 SWAP1 PUSH20 0xFFFFFFFFFFFFFFFFFFFFFFFFFFFFFFFFFFFFFFFF PUSH1 0x10 SLOAD AND SWAP1 MLOAD SWAP1 DUP2 MSTORE RETURN JUMPDEST DUP1 DUP5 DUP5 CALLVALUE PUSH2 0x194D JUMPI DUP3 PUSH1 0x3 NOT CALLDATASIZE ADD SLT PUSH2 0x194D JUMPI PUSH2 0x176F PUSH2 0x250A JUMP JUMPDEST PUSH20 0xFFFFFFFFFFFFFFFFFFFFFFFFFFFFFFFFFFFFFFFF SWAP1 DUP2 PUSH1 0x8 SLOAD AND DUP4 MLOAD SWAP2 PUSH32 0x70A0823100000000000000000000000000000000000000000000000000000000 DUP4 MSTORE CALLER DUP2 DUP5 ADD MSTORE PUSH1 0x20 SWAP4 DUP5 DUP5 PUSH1 0x24 DUP2 DUP7 GAS STATICCALL SWAP4 DUP5 ISZERO PUSH2 0x1943 JUMPI DUP8 SWAP5 PUSH2 0x190A JUMPI JUMPDEST POP SWAP1 PUSH2 0x184C SWAP7 DUP6 SWAP5 SWAP4 SWAP3 PUSH2 0x17E7 PUSH1 0xA SLOAD DUP1 SWAP7 LT ISZERO PUSH2 0x1E2D JUMP JUMPDEST PUSH1 0x9 SLOAD AND SWAP2 DUP8 MLOAD SWAP9 DUP10 SWAP6 DUP7 SWAP5 DUP6 SWAP4 PUSH32 0x23B872DD00000000000000000000000000000000000000000000000000000000 DUP6 MSTORE CALLER SWAP1 DUP6 ADD PUSH1 0x40 SWAP2 SWAP5 SWAP4 SWAP3 SWAP5 PUSH1 0x60 DUP3 ADD SWAP6 PUSH20 0xFFFFFFFFFFFFFFFFFFFFFFFFFFFFFFFFFFFFFFFF DUP1 SWAP3 AND DUP4 MSTORE AND PUSH1 0x20 DUP3 ADD MSTORE ADD MSTORE JUMP JUMPDEST SUB SWAP3 GAS CALL SWAP3 DUP4 ISZERO PUSH2 0x1900 JUMPI PUSH2 0x18DD SWAP4 PUSH2 0x186B SWAP2 DUP7 SWAP2 PUSH2 0x18E3 JUMPI POP PUSH2 0x1EAA JUMP JUMPDEST PUSH1 0x7 SLOAD DUP5 MSTORE PUSH1 0xF DUP2 MSTORE DUP2 DUP5 KECCAK256 CALLER PUSH32 0xFFFFFFFFFFFFFFFFFFFFFFFF0000000000000000000000000000000000000000 DUP3 SLOAD AND OR SWAP1 SSTORE PUSH2 0x18AB PUSH1 0x7 SLOAD CALLER PUSH2 0x2543 JUMP JUMPDEST PUSH32 0x4CC0A9C4A99DDC700DE1AF2C9F916A7CBFDB71F14801CCFF94061AD1EF8A8040 PUSH1 0x7 SLOAD SWAP3 MLOAD SWAP2 DUP4 DUP4 MSTORE CALLER SWAP3 LOG2 PUSH2 0x1F0F JUMP JUMPDEST PUSH1 0x7 SSTORE DUP1 RETURN JUMPDEST PUSH2 0x18FA SWAP2 POP DUP4 RETURNDATASIZE DUP6 GT PUSH2 0xCE7 JUMPI PUSH2 0xCD9 DUP2 DUP4 PUSH2 0x1DB2 JUMP JUMPDEST DUP7 PUSH2 0xC2F JUMP JUMPDEST DUP3 MLOAD RETURNDATASIZE DUP7 DUP3 RETURNDATACOPY RETURNDATASIZE SWAP1 REVERT JUMPDEST SWAP4 POP SWAP2 SWAP1 DUP5 DUP5 DUP2 RETURNDATASIZE DUP4 GT PUSH2 0x193C JUMPI JUMPDEST PUSH2 0x1923 DUP2 DUP4 PUSH2 0x1DB2 JUMP JUMPDEST DUP2 ADD SUB SLT PUSH2 0x1938 JUMPI SWAP3 MLOAD SWAP3 SWAP1 SWAP2 PUSH2 0x184C PUSH2 0x17CE JUMP JUMPDEST DUP7 DUP1 REVERT JUMPDEST POP RETURNDATASIZE PUSH2 0x1919 JUMP JUMPDEST DUP7 MLOAD RETURNDATASIZE DUP10 DUP3 RETURNDATACOPY RETURNDATASIZE SWAP1 REVERT JUMPDEST POP POP REVERT JUMPDEST POP SWAP1 CALLVALUE PUSH2 0x213 JUMPI DUP1 PUSH1 0x3 NOT CALLDATASIZE ADD SLT PUSH2 0x213 JUMPI PUSH2 0x196B PUSH2 0x1CC4 JUMP JUMPDEST SWAP2 PUSH1 0x24 CALLDATALOAD PUSH2 0x1978 DUP2 PUSH2 0x24A9 JUMP JUMPDEST CALLER ISZERO ISZERO DUP1 PUSH2 0x1A63 JUMPI JUMPDEST DUP1 PUSH2 0x1A2E JUMPI JUMPDEST PUSH2 0x19FF JUMPI DUP2 SWAP1 PUSH20 0xFFFFFFFFFFFFFFFFFFFFFFFFFFFFFFFFFFFFFFFF DUP1 SWAP7 AND SWAP6 DUP7 SWAP2 AND PUSH32 0x8C5BE1E5EBEC7D5BD14F71427D1E84F3DD0314C0F7B2291E5B200AC8C7C3B925 DUP9 DUP1 LOG4 DUP5 MSTORE PUSH1 0x20 MSTORE DUP3 KECCAK256 SWAP1 PUSH32 0xFFFFFFFFFFFFFFFFFFFFFFFF0000000000000000000000000000000000000000 DUP3 SLOAD AND OR SWAP1 SSTORE DUP1 RETURN JUMPDEST DUP4 MLOAD PUSH32 0xA9FBF51F00000000000000000000000000000000000000000000000000000000 DUP2 MSTORE CALLER DUP2 DUP6 ADD MSTORE PUSH1 0x24 SWAP1 REVERT JUMPDEST POP PUSH20 0xFFFFFFFFFFFFFFFFFFFFFFFFFFFFFFFFFFFFFFFF DUP2 AND DUP7 MSTORE PUSH1 0x5 PUSH1 0x20 MSTORE DUP4 DUP7 KECCAK256 CALLER DUP8 MSTORE PUSH1 0x20 MSTORE PUSH1 0xFF DUP5 DUP8 KECCAK256 SLOAD AND ISZERO PUSH2 0x1987 JUMP JUMPDEST POP CALLER PUSH20 0xFFFFFFFFFFFFFFFFFFFFFFFFFFFFFFFFFFFFFFFF DUP3 AND EQ ISZERO PUSH2 0x1981 JUMP JUMPDEST POP CALLVALUE PUSH2 0x213 JUMPI PUSH1 0x20 PUSH1 0x3 NOT CALLDATASIZE ADD SLT PUSH2 0x213 JUMPI DUP2 PUSH1 0x20 SWAP4 DUP3 PUSH20 0xFFFFFFFFFFFFFFFFFFFFFFFFFFFFFFFFFFFFFFFF SWAP4 CALLDATALOAD PUSH2 0x1ABA DUP2 PUSH2 0x24A9 JUMP JUMPDEST POP DUP3 MSTORE DUP6 MSTORE KECCAK256 SLOAD AND SWAP1 MLOAD SWAP1 DUP2 MSTORE RETURN JUMPDEST POP SWAP2 CALLVALUE PUSH2 0x7CD JUMPI DUP1 PUSH1 0x3 NOT CALLDATASIZE ADD SLT PUSH2 0x7CD JUMPI DUP2 MLOAD SWAP2 DUP2 DUP3 SLOAD SWAP3 PUSH1 0x1 DUP5 PUSH1 0x1 SHR SWAP2 PUSH1 0x1 DUP7 AND SWAP6 DUP7 ISZERO PUSH2 0x1B8C JUMPI JUMPDEST PUSH1 0x20 SWAP7 DUP8 DUP6 LT DUP2 EQ PUSH2 0x797 JUMPI DUP9 SWAP10 POP SWAP7 DUP9 SWAP7 SWAP8 DUP6 DUP3 SWAP11 MSTORE SWAP2 DUP3 PUSH1 0x0 EQ PUSH2 0x752 JUMPI POP POP PUSH1 0x1 EQ PUSH2 0x1B31 JUMPI POP POP POP PUSH2 0x42C SWAP3 SWAP2 PUSH2 0x6E7 SWAP2 SUB DUP6 PUSH2 0x1DB2 JUMP JUMPDEST SWAP2 SWAP1 DUP7 SWAP4 POP DUP3 DUP1 MSTORE PUSH32 0x290DECD9548B62A8D60345A988386FC84BA6BC95484008F6362F93160EF3E563 JUMPDEST DUP3 DUP5 LT PUSH2 0x1B74 JUMPI POP POP POP DUP3 ADD ADD DUP2 PUSH2 0x6E7 PUSH2 0x42C PUSH2 0x6D4 JUMP JUMPDEST DUP1 SLOAD DUP5 DUP11 ADD DUP7 ADD MSTORE DUP9 SWAP6 POP DUP8 SWAP5 SWAP1 SWAP4 ADD SWAP3 DUP2 ADD PUSH2 0x1B5B JUMP JUMPDEST SWAP3 PUSH1 0x7F AND SWAP3 PUSH2 0x1AF5 JUMP JUMPDEST SWAP3 POP POP CALLVALUE PUSH2 0x213 JUMPI PUSH1 0x20 PUSH1 0x3 NOT CALLDATASIZE ADD SLT PUSH2 0x213 JUMPI CALLDATALOAD PUSH32 0xFFFFFFFF00000000000000000000000000000000000000000000000000000000 DUP2 AND DUP1 SWAP2 SUB PUSH2 0x213 JUMPI PUSH1 0x20 SWAP3 POP PUSH32 0x80AC58CD00000000000000000000000000000000000000000000000000000000 DUP2 EQ SWAP1 DUP2 ISZERO PUSH2 0x1C3C JUMPI JUMPDEST DUP2 ISZERO PUSH2 0x1C12 JUMPI JUMPDEST POP ISZERO ISZERO DUP2 MSTORE RETURN JUMPDEST PUSH32 0x1FFC9A700000000000000000000000000000000000000000000000000000000 SWAP2 POP EQ CODESIZE PUSH2 0x1C0B JUMP JUMPDEST PUSH32 0x5B5E139F00000000000000000000000000000000000000000000000000000000 DUP2 EQ SWAP2 POP PUSH2 0x1C04 JUMP JUMPDEST SWAP2 SWAP1 DUP3 MLOAD SWAP3 DUP4 DUP3 MSTORE PUSH1 0x0 JUMPDEST DUP5 DUP2 LT PUSH2 0x1CB0 JUMPI POP POP PUSH32 0xFFFFFFFFFFFFFFFFFFFFFFFFFFFFFFFFFFFFFFFFFFFFFFFFFFFFFFFFFFFFFFE0 PUSH1 0x1F DUP5 PUSH1 0x0 PUSH1 0x20 DUP1 SWAP7 SWAP8 DUP7 ADD ADD MSTORE ADD AND ADD ADD SWAP1 JUMP JUMPDEST PUSH1 0x20 DUP2 DUP4 ADD DUP2 ADD MLOAD DUP5 DUP4 ADD DUP3 ADD MSTORE ADD PUSH2 0x1C71 JUMP JUMPDEST PUSH1 0x4 CALLDATALOAD SWAP1 PUSH20 0xFFFFFFFFFFFFFFFFFFFFFFFFFFFFFFFFFFFFFFFF DUP3 AND DUP3 SUB PUSH2 0x1CE7 JUMPI JUMP JUMPDEST PUSH1 0x0 DUP1 REVERT JUMPDEST PUSH1 0x24 CALLDATALOAD SWAP1 PUSH20 0xFFFFFFFFFFFFFFFFFFFFFFFFFFFFFFFFFFFFFFFF DUP3 AND DUP3 SUB PUSH2 0x1CE7 JUMPI JUMP JUMPDEST PUSH1 0x3 NOT PUSH1 0x60 SWAP2 ADD SLT PUSH2 0x1CE7 JUMPI PUSH20 0xFFFFFFFFFFFFFFFFFFFFFFFFFFFFFFFFFFFFFFFF SWAP1 PUSH1 0x4 CALLDATALOAD DUP3 DUP2 AND DUP2 SUB PUSH2 0x1CE7 JUMPI SWAP2 PUSH1 0x24 CALLDATALOAD SWAP1 DUP2 AND DUP2 SUB PUSH2 0x1CE7 JUMPI SWAP1 PUSH1 0x44 CALLDATALOAD SWAP1 JUMP JUMPDEST PUSH1 0x3 NOT PUSH1 0x40 SWAP2 ADD SLT PUSH2 0x1CE7 JUMPI PUSH1 0x4 CALLDATALOAD SWAP1 PUSH1 0x24 CALLDATALOAD SWAP1 JUMP JUMPDEST PUSH1 0x20 DUP2 ADD SWAP1 DUP2 LT PUSH8 0xFFFFFFFFFFFFFFFF DUP3 GT OR PUSH2 0x1D83 JUMPI PUSH1 0x40 MSTORE JUMP JUMPDEST PUSH32 0x4E487B7100000000000000000000000000000000000000000000000000000000 PUSH1 0x0 MSTORE PUSH1 0x41 PUSH1 0x4 MSTORE PUSH1 0x24 PUSH1 0x0 REVERT JUMPDEST SWAP1 PUSH1 0x1F PUSH32 0xFFFFFFFFFFFFFFFFFFFFFFFFFFFFFFFFFFFFFFFFFFFFFFFFFFFFFFFFFFFFFFE0 SWAP2 ADD AND DUP2 ADD SWAP1 DUP2 LT PUSH8 0xFFFFFFFFFFFFFFFF DUP3 GT OR PUSH2 0x1D83 JUMPI PUSH1 0x40 MSTORE JUMP JUMPDEST PUSH8 0xFFFFFFFFFFFFFFFF DUP2 GT PUSH2 0x1D83 JUMPI PUSH1 0x1F ADD PUSH32 0xFFFFFFFFFFFFFFFFFFFFFFFFFFFFFFFFFFFFFFFFFFFFFFFFFFFFFFFFFFFFFFE0 AND PUSH1 0x20 ADD SWAP1 JUMP JUMPDEST ISZERO PUSH2 0x1E34 JUMPI JUMP JUMPDEST PUSH1 0x64 PUSH1 0x40 MLOAD PUSH32 0x8C379A000000000000000000000000000000000000000000000000000000000 DUP2 MSTORE PUSH1 0x20 PUSH1 0x4 DUP3 ADD MSTORE PUSH1 0x11 PUSH1 0x24 DUP3 ADD MSTORE PUSH32 0x496E73756666696369656E74204D4E544D000000000000000000000000000000 PUSH1 0x44 DUP3 ADD MSTORE REVERT JUMPDEST SWAP1 DUP2 PUSH1 0x20 SWAP2 SUB SLT PUSH2 0x1CE7 JUMPI MLOAD DUP1 ISZERO ISZERO DUP2 SUB PUSH2 0x1CE7 JUMPI SWAP1 JUMP JUMPDEST ISZERO PUSH2 0x1EB1 JUMPI JUMP JUMPDEST PUSH1 0x64 PUSH1 0x40 MLOAD PUSH32 0x8C379A000000000000000000000000000000000000000000000000000000000 DUP2 MSTORE PUSH1 0x20 PUSH1 0x4 DUP3 ADD MSTORE PUSH1 0x14 PUSH1 0x24 DUP3 ADD MSTORE PUSH32 0x4D4E544D207472616E73666572206661696C6564000000000000000000000000 PUSH1 0x44 DUP3 ADD MSTORE REVERT JUMPDEST PUSH32 0xFFFFFFFFFFFFFFFFFFFFFFFFFFFFFFFFFFFFFFFFFFFFFFFFFFFFFFFFFFFFFFFF DUP2 EQ PUSH2 0x1F3C JUMPI PUSH1 0x1 ADD SWAP1 JUMP JUMPDEST PUSH32 0x4E487B7100000000000000000000000000000000000000000000000000000000 PUSH1 0x0 MSTORE PUSH1 0x11 PUSH1 0x4 MSTORE PUSH1 0x24 PUSH1 0x0 REVERT JUMPDEST SWAP1 PUSH20 0xFFFFFFFFFFFFFFFFFFFFFFFFFFFFFFFFFFFFFFFF DUP1 SWAP2 AND DUP1 ISZERO PUSH2 0x21B6 JUMPI PUSH1 0x0 SWAP2 DUP5 DUP4 MSTORE DUP5 PUSH1 0x20 SWAP3 PUSH1 0x2 DUP5 MSTORE PUSH1 0x40 SWAP4 DUP4 DUP6 DUP8 KECCAK256 SLOAD AND SWAP6 DUP7 SWAP2 CALLER ISZERO ISZERO DUP1 PUSH2 0x20EB JUMPI JUMPDEST POP SWAP1 PUSH1 0x2 PUSH32 0xDDF252AD1BE2C89B69C2B068FC378DAA952BA7F163C4A11628F55A4DF523B3EF SWAP3 DUP5 PUSH2 0x207D JUMPI JUMPDEST DUP6 DUP4 MSTORE PUSH1 0x3 DUP2 MSTORE DUP9 DUP4 KECCAK256 PUSH1 0x1 DUP2 SLOAD ADD SWAP1 SSTORE DUP7 DUP4 MSTORE MSTORE DUP7 DUP2 KECCAK256 DUP5 PUSH32 0xFFFFFFFFFFFFFFFFFFFFFFFF0000000000000000000000000000000000000000 DUP3 SLOAD AND OR SWAP1 SSTORE DUP1 LOG4 DUP4 AND DUP3 SUB PUSH2 0x2029 JUMPI POP POP POP POP JUMP JUMPDEST MLOAD PUSH32 0x64283D7B00000000000000000000000000000000000000000000000000000000 DUP2 MSTORE PUSH20 0xFFFFFFFFFFFFFFFFFFFFFFFFFFFFFFFFFFFFFFFF SWAP3 DUP4 AND PUSH1 0x4 DUP3 ADD MSTORE PUSH1 0x24 DUP2 ADD SWAP4 SWAP1 SWAP4 MSTORE AND PUSH1 0x44 DUP3 ADD MSTORE PUSH1 0x64 SWAP1 REVERT JUMPDEST PUSH2 0x20B6 DUP8 PUSH1 0x0 MSTORE PUSH1 0x4 PUSH1 0x20 MSTORE PUSH1 0x40 PUSH1 0x0 KECCAK256 PUSH32 0xFFFFFFFFFFFFFFFFFFFFFFFF0000000000000000000000000000000000000000 DUP2 SLOAD AND SWAP1 SSTORE JUMP JUMPDEST DUP5 DUP4 MSTORE PUSH1 0x3 DUP2 MSTORE DUP9 DUP4 KECCAK256 PUSH32 0xFFFFFFFFFFFFFFFFFFFFFFFFFFFFFFFFFFFFFFFFFFFFFFFFFFFFFFFFFFFFFFFF DUP2 SLOAD ADD SWAP1 SSTORE PUSH2 0x1FD9 JUMP JUMPDEST SWAP2 SWAP4 SWAP5 POP SWAP2 POP DUP1 PUSH2 0x2175 JUMPI JUMPDEST ISZERO PUSH2 0x2107 JUMPI DUP8 SWAP3 SWAP2 DUP7 SWAP2 CODESIZE PUSH2 0x1FAD JUMP JUMPDEST DUP5 DUP9 DUP8 PUSH2 0x213D JUMPI PUSH1 0x24 SWAP2 MLOAD SWAP1 PUSH32 0x7E27328900000000000000000000000000000000000000000000000000000000 DUP3 MSTORE PUSH1 0x4 DUP3 ADD MSTORE REVERT JUMPDEST SWAP1 MLOAD PUSH32 0x177E802F00000000000000000000000000000000000000000000000000000000 DUP2 MSTORE CALLER PUSH1 0x4 DUP3 ADD MSTORE PUSH1 0x24 DUP2 ADD SWAP2 SWAP1 SWAP2 MSTORE PUSH1 0x44 SWAP1 REVERT JUMPDEST POP CALLER DUP7 EQ DUP1 ISZERO PUSH2 0x219A JUMPI JUMPDEST DUP1 PUSH2 0x20F7 JUMPI POP DUP8 DUP3 MSTORE PUSH1 0x4 DUP2 MSTORE CALLER DUP5 DUP7 DUP5 KECCAK256 SLOAD AND EQ PUSH2 0x20F7 JUMP JUMPDEST POP DUP6 DUP3 MSTORE PUSH1 0x5 DUP2 MSTORE DUP5 DUP3 KECCAK256 CALLER DUP4 MSTORE DUP2 MSTORE PUSH1 0xFF DUP6 DUP4 KECCAK256 SLOAD AND PUSH2 0x2180 JUMP JUMPDEST PUSH1 0x24 PUSH1 0x40 MLOAD PUSH32 0x64A0AE9200000000000000000000000000000000000000000000000000000000 DUP2 MSTORE PUSH1 0x0 PUSH1 0x4 DUP3 ADD MSTORE REVERT JUMPDEST DUP2 DUP2 MUL SWAP3 SWAP2 DUP2 ISZERO SWAP2 DUP5 DIV EQ OR ISZERO PUSH2 0x1F3C JUMPI JUMP JUMPDEST ISZERO PUSH2 0x2201 JUMPI JUMP JUMPDEST PUSH1 0x64 PUSH1 0x40 MLOAD PUSH32 0x8C379A000000000000000000000000000000000000000000000000000000000 DUP2 MSTORE PUSH1 0x20 PUSH1 0x4 DUP3 ADD MSTORE PUSH1 0xD PUSH1 0x24 DUP3 ADD MSTORE PUSH32 0x4E6F74204E4654206F776E657200000000000000000000000000000000000000 PUSH1 0x44 DUP3 ADD MSTORE REVERT JUMPDEST ISZERO PUSH2 0x2266 JUMPI JUMP JUMPDEST PUSH1 0x64 PUSH1 0x40 MLOAD PUSH32 0x8C379A000000000000000000000000000000000000000000000000000000000 DUP2 MSTORE PUSH1 0x20 PUSH1 0x4 DUP3 ADD MSTORE PUSH1 0xE PUSH1 0x24 DUP3 ADD MSTORE PUSH32 0x4E4654206E6F74206C6973746564000000000000000000000000000000000000 PUSH1 0x44 DUP3 ADD MSTORE REVERT JUMPDEST SWAP2 SWAP1 DUP3 SUB SWAP2 DUP3 GT PUSH2 0x1F3C JUMPI JUMP JUMPDEST PUSH2 0x22DC DUP4 DUP4 DUP4 PUSH2 0x1F6B JUMP JUMPDEST DUP2 EXTCODESIZE PUSH2 0x22E9 JUMPI JUMPDEST POP POP POP POP JUMP JUMPDEST PUSH20 0xFFFFFFFFFFFFFFFFFFFFFFFFFFFFFFFFFFFFFFFF SWAP5 SWAP2 SWAP3 SWAP4 SWAP5 DUP1 SWAP4 AND SWAP4 PUSH1 0x40 MLOAD SWAP4 PUSH32 0x150B7A0200000000000000000000000000000000000000000000000000000000 SWAP3 DUP4 DUP7 MSTORE CALLER PUSH1 0x4 DUP8 ADD MSTORE AND PUSH1 0x24 DUP6 ADD MSTORE PUSH1 0x44 DUP5 ADD MSTORE PUSH1 0x80 PUSH1 0x64 DUP5 ADD MSTORE DUP3 PUSH2 0x2359 PUSH1 0x20 SWAP7 PUSH1 0x84 DUP4 ADD SWAP1 PUSH2 0x1C66 JUMP JUMPDEST SUB SWAP3 DUP6 DUP2 PUSH1 0x0 SWAP6 DUP2 DUP8 DUP10 GAS CALL DUP5 SWAP2 DUP2 PUSH2 0x244D JUMPI JUMPDEST POP PUSH2 0x23E5 JUMPI POP POP POP RETURNDATASIZE PUSH1 0x0 EQ PUSH2 0x23DD JUMPI RETURNDATASIZE PUSH2 0x2387 DUP2 PUSH2 0x1DF3 JUMP JUMPDEST SWAP1 PUSH2 0x2395 PUSH1 0x40 MLOAD SWAP3 DUP4 PUSH2 0x1DB2 JUMP JUMPDEST DUP2 MSTORE DUP1 SWAP2 DUP5 RETURNDATASIZE SWAP3 ADD RETURNDATACOPY JUMPDEST DUP1 MLOAD SWAP3 DUP4 PUSH2 0x23D8 JUMPI PUSH1 0x24 DUP4 PUSH1 0x40 MLOAD SWAP1 PUSH32 0x64A0AE9200000000000000000000000000000000000000000000000000000000 DUP3 MSTORE PUSH1 0x4 DUP3 ADD MSTORE REVERT JUMPDEST ADD SWAP1 POP REVERT JUMPDEST POP PUSH1 0x60 PUSH2 0x239F JUMP JUMPDEST SWAP1 SWAP3 POP PUSH32 0xFFFFFFFF00000000000000000000000000000000000000000000000000000000 SWAP2 SWAP5 POP AND SUB PUSH2 0x241C JUMPI POP CODESIZE DUP1 DUP1 DUP1 PUSH2 0x22E3 JUMP JUMPDEST PUSH1 0x24 SWAP1 PUSH1 0x40 MLOAD SWAP1 PUSH32 0x64A0AE9200000000000000000000000000000000000000000000000000000000 DUP3 MSTORE PUSH1 0x4 DUP3 ADD MSTORE REVERT JUMPDEST SWAP1 SWAP2 POP DUP7 DUP2 DUP2 RETURNDATASIZE DUP4 GT PUSH2 0x24A2 JUMPI JUMPDEST PUSH2 0x2465 DUP2 DUP4 PUSH2 0x1DB2 JUMP JUMPDEST DUP2 ADD SUB SLT PUSH2 0x249E JUMPI MLOAD PUSH32 0xFFFFFFFF00000000000000000000000000000000000000000000000000000000 DUP2 AND DUP2 SUB PUSH2 0x249E JUMPI SWAP1 CODESIZE PUSH2 0x236D JUMP JUMPDEST DUP5 DUP1 REVERT JUMPDEST POP RETURNDATASIZE PUSH2 0x245B JUMP JUMPDEST DUP1 PUSH1 0x0 MSTORE PUSH1 0x2 PUSH1 0x20 MSTORE PUSH20 0xFFFFFFFFFFFFFFFFFFFFFFFFFFFFFFFFFFFFFFFF PUSH1 0x40 PUSH1 0x0 KECCAK256 SLOAD AND SWAP1 DUP2 ISZERO PUSH2 0x24D9 JUMPI POP SWAP1 JUMP JUMPDEST PUSH1 0x24 SWAP1 PUSH1 0x40 MLOAD SWAP1 PUSH32 0x7E27328900000000000000000000000000000000000000000000000000000000 DUP3 MSTORE PUSH1 0x4 DUP3 ADD MSTORE REVERT JUMPDEST PUSH1 0xFF PUSH1 0x6 SLOAD PUSH1 0xA0 SHR AND PUSH2 0x2519 JUMPI JUMP JUMPDEST PUSH1 0x4 PUSH1 0x40 MLOAD PUSH32 0xD93C066500000000000000000000000000000000000000000000000000000000 DUP2 MSTORE REVERT JUMPDEST PUSH20 0xFFFFFFFFFFFFFFFFFFFFFFFFFFFFFFFFFFFFFFFF SWAP2 DUP3 DUP3 AND ISZERO PUSH2 0x21B6 JUMPI PUSH2 0x256A SWAP2 PUSH2 0x25F3 JUMP JUMPDEST AND PUSH2 0x2571 JUMPI JUMP JUMPDEST PUSH1 0x24 PUSH1 0x40 MLOAD PUSH32 0x73C6AC6E00000000000000000000000000000000000000000000000000000000 DUP2 MSTORE PUSH1 0x0 PUSH1 0x4 DUP3 ADD MSTORE REVERT JUMPDEST PUSH20 0xFFFFFFFFFFFFFFFFFFFFFFFFFFFFFFFFFFFFFFFF PUSH1 0x6 SLOAD AND CALLER SUB PUSH2 0x25C3 JUMPI JUMP JUMPDEST PUSH1 0x24 PUSH1 0x40 MLOAD PUSH32 0x118CDAA700000000000000000000000000000000000000000000000000000000 DUP2 MSTORE CALLER PUSH1 0x4 DUP3 ADD MSTORE REVERT JUMPDEST SWAP1 PUSH1 0x0 DUP2 DUP2 MSTORE PUSH1 0x2 PUSH1 0x20 MSTORE PUSH20 0xFFFFFFFFFFFFFFFFFFFFFFFFFFFFFFFFFFFFFFFF SWAP3 PUSH32 0xDDF252AD1BE2C89B69C2B068FC378DAA952BA7F163C4A11628F55A4DF523B3EF DUP5 PUSH1 0x40 DUP5 KECCAK256 SLOAD AND SWAP5 DUP6 SWAP3 DUP4 PUSH2 0x269E JUMPI JUMPDEST AND SWAP3 DUP4 PUSH2 0x2686 JUMPI JUMPDEST DUP5 DUP2 MSTORE PUSH1 0x2 PUSH1 0x20 MSTORE PUSH1 0x40 DUP2 KECCAK256 DUP5 PUSH32 0xFFFFFFFFFFFFFFFFFFFFFFFF0000000000000000000000000000000000000000 DUP3 SLOAD AND OR SWAP1 SSTORE DUP1 LOG4 SWAP1 JUMP JUMPDEST DUP4 DUP2 MSTORE PUSH1 0x3 PUSH1 0x20 MSTORE PUSH1 0x40 DUP2 KECCAK256 PUSH1 0x1 DUP2 SLOAD ADD SWAP1 SSTORE PUSH2 0x264D JUMP JUMPDEST PUSH2 0x26D7 DUP7 PUSH1 0x0 MSTORE PUSH1 0x4 PUSH1 0x20 MSTORE PUSH1 0x40 PUSH1 0x0 KECCAK256 PUSH32 0xFFFFFFFFFFFFFFFFFFFFFFFF0000000000000000000000000000000000000000 DUP2 SLOAD AND SWAP1 SSTORE JUMP JUMPDEST DUP4 DUP6 MSTORE PUSH1 0x3 PUSH1 0x20 MSTORE PUSH1 0x40 DUP6 KECCAK256 PUSH32 0xFFFFFFFFFFFFFFFFFFFFFFFFFFFFFFFFFFFFFFFFFFFFFFFFFFFFFFFFFFFFFFFF DUP2 SLOAD ADD SWAP1 SSTORE PUSH2 0x2645 JUMP INVALID LOG2 PUSH5 0x6970667358 0x22 SLT KECCAK256 0xB2 0xB8 PUSH7 0x415AEEF79FDE02 0xBF 0xA9 0x2E 0xBC SWAP13 AND 0xD2 PUSH12 0x3EBACB1A0629961DB68CE569 PUSH12 0x64736F6C63430008160033 "},"methodIdentifiers":{"approve(address,uint256)":"095ea7b3","balanceOf(address)":"70a08231","batchMintNFT(uint256)":"67fbf8d7","buyNFT(uint256)":"51ed8288","cancelListing(uint256)":"305a67a8","creators(uint256)":"cd53d08e","getApproved(uint256)":"081812fc","isApprovedForAll(address,address)":"e985e9c5","listNFT(uint256,uint256)":"94383f14","listingDuration()":"2850df1a","listings(uint256)":"de74e57b","mintNFT()":"14f710fe","mintPrice()":"6817c76c","mintiumToken()":"7b65209b","name()":"06fdde03","nextTokenId()":"75794a3c","owner()":"8da5cb5b","ownerOf(uint256)":"6352211e","pauseMarketplace()":"3ec62279","paused()":"5c975abb","renounceOwnership()":"715018a6","royaltyFee()":"b8997a97","royaltyInfo(uint256,uint256)":"2a55205a","safeTransferFrom(address,address,uint256)":"42842e0e","safeTransferFrom(address,address,uint256,bytes)":"b88d4fde","setApprovalForAll(address,bool)":"a22cb465","setMintPrice(uint256)":"f4a0a528","setRoyaltyFee(uint256)":"3e4086e5","setTradingFee(uint256)":"b0d54bcf","supportsInterface(bytes4)":"01ffc9a7","symbol()":"95d89b41","tokenURI(uint256)":"c87b56dd","tradingFee()":"56f43352","transferFrom(address,address,uint256)":"23b872dd","transferOwnership(address)":"f2fde38b","treasury()":"61d027b3","treasuryContract()":"18da0011","unpauseMarketplace()":"21f67fbb"}}}}}