{"contracts/Solythis.sol":{"Solythis":{"abi":[{"inputs":[{"internalType":"address","name":"initialOwner","type":"address"},{"internalType":"address","name":"_treasury","type":"address"}],"stateMutability":"nonpayable","type":"constructor"},{"inputs":[{"internalType":"address","name":"spender","type":"address"},{"internalType":"uint256","name":"allowance","type":"uint256"},{"internalType":"uint256","name":"needed","type":"uint256"}],"name":"ERC20InsufficientAllowance","type":"error"},{"inputs":[{"internalType":"address","name":"sender","type":"address"},{"internalType":"uint256","name":"balance","type":"uint256"},{"internalType":"uint256","name":"needed","type":"uint256"}],"name":"ERC20InsufficientBalance","type":"error"},{"inputs":[{"internalType":"address","name":"approver","type":"address"}],"name":"ERC20InvalidApprover","type":"error"},{"inputs":[{"internalType":"address","name":"receiver","type":"address"}],"name":"ERC20InvalidReceiver","type":"error"},{"inputs":[{"internalType":"address","name":"sender","type":"address"}],"name":"ERC20InvalidSender","type":"error"},{"inputs":[{"internalType":"address","name":"spender","type":"address"}],"name":"ERC20InvalidSpender","type":"error"},{"inputs":[],"name":"EnforcedPause","type":"error"},{"inputs":[],"name":"ExpectedPause","type":"error"},{"inputs":[],"name":"InvalidShortString","type":"error"},{"inputs":[{"internalType":"address","name":"owner","type":"address"}],"name":"OwnableInvalidOwner","type":"error"},{"inputs":[{"internalType":"address","name":"account","type":"address"}],"name":"OwnableUnauthorizedAccount","type":"error"},{"inputs":[],"name":"ReentrancyGuardReentrantCall","type":"error"},{"inputs":[{"internalType":"string","name":"str","type":"string"}],"name":"StringTooLong","type":"error"},{"anonymous":false,"inputs":[{"indexed":true,"internalType":"address","name":"owner","type":"address"},{"indexed":true,"internalType":"address","name":"spender","type":"address"},{"indexed":false,"internalType":"uint256","name":"value","type":"uint256"}],"name":"Approval","type":"event"},{"anonymous":false,"inputs":[],"name":"EIP712DomainChanged","type":"event"},{"anonymous":false,"inputs":[{"indexed":true,"internalType":"address","name":"recipient","type":"address"},{"indexed":false,"internalType":"uint256","name":"amount","type":"uint256"}],"name":"FundsApproved","type":"event"},{"anonymous":false,"inputs":[{"indexed":true,"internalType":"address","name":"previousOwner","type":"address"},{"indexed":true,"internalType":"address","name":"newOwner","type":"address"}],"name":"OwnershipTransferred","type":"event"},{"anonymous":false,"inputs":[{"indexed":false,"internalType":"address","name":"account","type":"address"}],"name":"Paused","type":"event"},{"anonymous":false,"inputs":[{"indexed":false,"internalType":"uint256","name":"proposalId","type":"uint256"},{"indexed":false,"internalType":"string","name":"description","type":"string"},{"indexed":false,"internalType":"address","name":"proposer","type":"address"}],"name":"ProposalCreated","type":"event"},{"anonymous":false,"inputs":[{"indexed":false,"internalType":"uint256","name":"proposalId","type":"uint256"}],"name":"ProposalExecuted","type":"event"},{"anonymous":false,"inputs":[{"indexed":true,"internalType":"address","name":"user","type":"address"}],"name":"RemovedFromWhitelist","type":"event"},{"anonymous":false,"inputs":[{"indexed":true,"internalType":"address","name":"user","type":"address"},{"indexed":false,"internalType":"uint256","name":"amount","type":"uint256"}],"name":"Staked","type":"event"},{"anonymous":false,"inputs":[{"indexed":false,"internalType":"uint256","name":"newRewardRate","type":"uint256"}],"name":"StakingRewardUpdated","type":"event"},{"anonymous":false,"inputs":[{"indexed":true,"internalType":"address","name":"from","type":"address"},{"indexed":true,"internalType":"address","name":"to","type":"address"},{"indexed":false,"internalType":"uint256","name":"value","type":"uint256"}],"name":"Transfer","type":"event"},{"anonymous":false,"inputs":[{"indexed":false,"internalType":"address","name":"account","type":"address"}],"name":"Unpaused","type":"event"},{"anonymous":false,"inputs":[{"indexed":true,"internalType":"address","name":"user","type":"address"},{"indexed":false,"internalType":"uint256","name":"amount","type":"uint256"}],"name":"Unstaked","type":"event"},{"anonymous":false,"inputs":[{"indexed":false,"internalType":"uint256","name":"proposalId","type":"uint256"},{"indexed":false,"internalType":"address","name":"voter","type":"address"},{"indexed":false,"internalType":"bool","name":"vote","type":"bool"}],"name":"Voted","type":"event"},{"anonymous":false,"inputs":[{"indexed":true,"internalType":"address","name":"user","type":"address"}],"name":"Whitelisted","type":"event"},{"inputs":[{"internalType":"address","name":"user","type":"address"}],"name":"addWhitelisted","outputs":[],"stateMutability":"nonpayable","type":"function"},{"inputs":[{"internalType":"address","name":"owner","type":"address"},{"internalType":"address","name":"spender","type":"address"}],"name":"allowance","outputs":[{"internalType":"uint256","name":"","type":"uint256"}],"stateMutability":"view","type":"function"},{"inputs":[{"internalType":"address","name":"spender","type":"address"},{"internalType":"uint256","name":"value","type":"uint256"}],"name":"approve","outputs":[{"internalType":"bool","name":"","type":"bool"}],"stateMutability":"nonpayable","type":"function"},{"inputs":[{"internalType":"address","name":"account","type":"address"}],"name":"balanceOf","outputs":[{"internalType":"uint256","name":"","type":"uint256"}],"stateMutability":"view","type":"function"},{"inputs":[],"name":"claimStakingRewards","outputs":[],"stateMutability":"nonpayable","type":"function"},{"inputs":[{"internalType":"string","name":"description","type":"string"},{"internalType":"address","name":"targetContract","type":"address"},{"internalType":"bytes","name":"data","type":"bytes"}],"name":"createProposal","outputs":[],"stateMutability":"nonpayable","type":"function"},{"inputs":[],"name":"decimals","outputs":[{"internalType":"uint8","name":"","type":"uint8"}],"stateMutability":"view","type":"function"},{"inputs":[],"name":"eip712Domain","outputs":[{"internalType":"bytes1","name":"fields","type":"bytes1"},{"internalType":"string","name":"name","type":"string"},{"internalType":"string","name":"version","type":"string"},{"internalType":"uint256","name":"chainId","type":"uint256"},{"internalType":"address","name":"verifyingContract","type":"address"},{"internalType":"bytes32","name":"salt","type":"bytes32"},{"internalType":"uint256[]","name":"extensions","type":"uint256[]"}],"stateMutability":"view","type":"function"},{"inputs":[{"internalType":"uint256","name":"proposalId","type":"uint256"}],"name":"executeProposal","outputs":[],"stateMutability":"nonpayable","type":"function"},{"inputs":[{"internalType":"uint256","name":"proposalId","type":"uint256"},{"internalType":"address","name":"recipient","type":"address"},{"internalType":"uint256","name":"amount","type":"uint256"}],"name":"executeTreasuryTransaction","outputs":[],"stateMutability":"nonpayable","type":"function"},{"inputs":[{"internalType":"uint256","name":"proposalId","type":"uint256"}],"name":"finalizeProposal","outputs":[],"stateMutability":"nonpayable","type":"function"},{"inputs":[{"internalType":"uint256","name":"","type":"uint256"},{"internalType":"address","name":"","type":"address"}],"name":"hasVoted","outputs":[{"internalType":"bool","name":"","type":"bool"}],"stateMutability":"view","type":"function"},{"inputs":[{"internalType":"address","name":"","type":"address"}],"name":"isWhitelisted","outputs":[{"internalType":"bool","name":"","type":"bool"}],"stateMutability":"view","type":"function"},{"inputs":[],"name":"name","outputs":[{"internalType":"string","name":"","type":"string"}],"stateMutability":"view","type":"function"},{"inputs":[],"name":"owner","outputs":[{"internalType":"address","name":"","type":"address"}],"stateMutability":"view","type":"function"},{"inputs":[],"name":"pause","outputs":[],"stateMutability":"nonpayable","type":"function"},{"inputs":[],"name":"paused","outputs":[{"internalType":"bool","name":"","type":"bool"}],"stateMutability":"view","type":"function"},{"inputs":[{"internalType":"uint256","name":"","type":"uint256"}],"name":"proposals","outputs":[{"internalType":"uint256","name":"id","type":"uint256"},{"internalType":"string","name":"description","type":"string"},{"internalType":"uint256","name":"votesFor","type":"uint256"},{"internalType":"uint256","name":"votesAgainst","type":"uint256"},{"internalType":"bool","name":"executed","type":"bool"},{"internalType":"uint256","name":"executionTime","type":"uint256"},{"internalType":"address","name":"proposer","type":"address"},{"internalType":"address","name":"targetContract","type":"address"},{"internalType":"bytes","name":"data","type":"bytes"}],"stateMutability":"view","type":"function"},{"inputs":[{"internalType":"address","name":"user","type":"address"}],"name":"removeWhitelisted","outputs":[],"stateMutability":"nonpayable","type":"function"},{"inputs":[],"name":"renounceOwnership","outputs":[],"stateMutability":"nonpayable","type":"function"},{"inputs":[{"internalType":"uint256","name":"newRate","type":"uint256"}],"name":"setStakingRewardRate","outputs":[],"stateMutability":"nonpayable","type":"function"},{"inputs":[{"internalType":"uint256","name":"amount","type":"uint256"}],"name":"stakeTokens","outputs":[],"stateMutability":"nonpayable","type":"function"},{"inputs":[],"name":"stakingRewardRate","outputs":[{"internalType":"uint256","name":"","type":"uint256"}],"stateMutability":"view","type":"function"},{"inputs":[],"name":"symbol","outputs":[{"internalType":"string","name":"","type":"string"}],"stateMutability":"view","type":"function"},{"inputs":[],"name":"totalSupply","outputs":[{"internalType":"uint256","name":"","type":"uint256"}],"stateMutability":"view","type":"function"},{"inputs":[{"internalType":"address","name":"to","type":"address"},{"internalType":"uint256","name":"value","type":"uint256"}],"name":"transfer","outputs":[{"internalType":"bool","name":"","type":"bool"}],"stateMutability":"nonpayable","type":"function"},{"inputs":[{"internalType":"address","name":"from","type":"address"},{"internalType":"address","name":"to","type":"address"},{"internalType":"uint256","name":"value","type":"uint256"}],"name":"transferFrom","outputs":[{"internalType":"bool","name":"","type":"bool"}],"stateMutability":"nonpayable","type":"function"},{"inputs":[{"internalType":"address","name":"newOwner","type":"address"}],"name":"transferOwnership","outputs":[],"stateMutability":"nonpayable","type":"function"},{"inputs":[],"name":"treasury","outputs":[{"internalType":"contract IMultiSigTreasury","name":"","type":"address"}],"stateMutability":"view","type":"function"},{"inputs":[],"name":"unpause","outputs":[],"stateMutability":"nonpayable","type":"function"},{"inputs":[],"name":"unstakeTokens","outputs":[],"stateMutability":"nonpayable","type":"function"},{"inputs":[{"internalType":"uint256","name":"proposalId","type":"uint256"},{"internalType":"bool","name":"voteFor","type":"bool"}],"name":"voteOnProposal","outputs":[],"stateMutability":"nonpayable","type":"function"}],"evm":{"bytecode":{"linkReferences":{},"object":"61016034620005dd5762002c72601f38829003908101601f19168301906001600160401b038211848310176200036b5780849160409485948552833981010312620005dd576200005d60206200005584620005fe565b9301620005fe565b908051906200006c82620005e2565b60088252602082019267536f6c797468697360c01b948585528251956200009387620005e2565b60018752603160f81b6020880152835190620000af82620005e2565b600882526020820152835190620000c682620005e2565b6004825263098b2a8960e31b60208301528051906001600160401b0382116200036b5760035490600182811c92168015620005d2575b6020831014620004a55781601f8493116200055d575b50602090601f8311600114620004d257600092620004c6575b50508160011b916000199060031b1c1916176003555b8051906001600160401b0382116200036b5760045490600182811c92168015620004bb575b6020831014620004a55781601f84931162000430575b50602090601f8311600114620003a55760009262000399575b50508160011b916000199060031b1c1916176004555b6001600160a01b039081169182156200038157600580546001600160a01b03198082168617909255909390819084167f8be0079c531659141344cd1fd0a4f28419497f9722a3daafe3b4186f6b6457e0600080a3600160065560ff1960075416600755620002198662000613565b966101209788526200022b89620007da565b96610140978852519020978860e0526020815191012061010098818a524660a05286519160208301917f8b73c3c69bb8fe3d512ecc4cf759cc79239f7b179b0ffacaa9a75d522b39400f83528884015260608301524660808301523060a083015260a0825260c082019180831060018060401b038411176200036b578288525190206080523060c05260056011556002546b033b2e3c9fd0803ce80000009081810180911162000355576000927fddf252ad1be2c89b69c2b068fc378daa952ba7f163c4a11628f55a4df523b3ef926020926002558585528483528985208181540190558152a31690601054161760105551916122df938462000993853960805184505060a05184505060c05184505060e0518450505183505051826105340152518161055e0152f35b634e487b7160e01b600052601160045260246000fd5b634e487b7160e01b600052604160045260246000fd5b8351631e4fbdf760e01b815260006004820152602490fd5b01519050388062000195565b600460009081527f8a35acfbc15ff81a39ae7d344fd709f28e8600b4aa8c65c6b64bfe7fe36bd19b9350601f198516905b818110620004175750908460019594939210620003fd575b505050811b01600455620001ab565b015160001960f88460031b161c19169055388080620003ee565b92936020600181928786015181550195019301620003d6565b60046000529091507f8a35acfbc15ff81a39ae7d344fd709f28e8600b4aa8c65c6b64bfe7fe36bd19b601f840160051c810191602085106200049a575b90601f859493920160051c01905b8181106200048a57506200017c565b600081558493506001016200047b565b90915081906200046d565b634e487b7160e01b600052602260045260246000fd5b91607f169162000166565b0151905038806200012b565b600360009081527fc2575a0e9e593c00f959f8c92f12db2869c3395a3b0502d05e2516446f71f85b9350601f198516905b8181106200054457509084600195949392106200052a575b505050811b0160035562000141565b015160001960f88460031b161c191690553880806200051b565b9293602060018192878601518155019501930162000503565b60036000529091507fc2575a0e9e593c00f959f8c92f12db2869c3395a3b0502d05e2516446f71f85b601f840160051c81019160208510620005c7575b90601f859493920160051c01905b818110620005b7575062000112565b60008155849350600101620005a8565b90915081906200059a565b91607f1691620000fc565b600080fd5b604081019081106001600160401b038211176200036b57604052565b51906001600160a01b0382168203620005dd57565b805160209081811015620006b05750601f8251116200064f57808251920151908083106200064057501790565b82600019910360031b1b161790565b90604051809263305a27a960e01b82528060048301528251908160248401526000935b82851062000696575050604492506000838284010152601f80199101168101030190fd5b848101820151868601604401529381019385935062000672565b906001600160401b0382116200036b57600854926001938481811c91168015620007cf575b83821014620004a557601f811162000795575b5081601f84116001146200072957509282939183926000946200071d575b50501b916000199060031b1c19161760085560ff90565b01519250388062000706565b919083601f198116600860005284600020946000905b888383106200077a575050501062000760575b505050811b0160085560ff90565b015160001960f88460031b161c1916905538808062000752565b8587015188559096019594850194879350908101906200073f565b600860005284601f84600020920160051c820191601f860160051c015b828110620007c2575050620006e8565b60008155018590620007b2565b90607f1690620006d5565b805160209081811015620008685750601f8251116200080757808251920151908083106200064057501790565b90604051809263305a27a960e01b82528060048301528251908160248401526000935b8285106200084e575050604492506000838284010152601f80199101168101030190fd5b84810182015186860160440152938101938593506200082a565b906001600160401b0382116200036b57600954926001938481811c9116801562000987575b83821014620004a557601f81116200094d575b5081601f8411600114620008e15750928293918392600094620008d5575b50501b916000199060031b1c19161760095560ff90565b015192503880620008be565b919083601f198116600960005284600020946000905b8883831062000932575050501062000918575b505050811b0160095560ff90565b015160001960f88460031b161c191690553880806200090a565b858701518855909601959485019487935090810190620008f7565b600960005284601f84600020920160051c820191601f860160051c015b8281106200097a575050620008a0565b600081550185906200096a565b90607f16906200088d56fe608080604052600436101561001357600080fd5b600090813560e01c908163013cf08b14611aef5750806306fdde0314611a1e578063095ea7b31461192d5780630d61b519146116a557806310154bad1461162f5780631614665c1461149e57806318160ddd1461148057806323b872dd1461133d5780632821ff2614610e0d578063291d954914610d9a578063313ce56714610d7e5780633af32abf14610d345780633f4ba83a14610cb15780634385963214610c5c5780634f3fc2df14610c3e5780635652077c14610bad5780635c975abb14610b8a57806361d027b314610b565780636b69e05b146109f057806370a08231146109ac578063715018a61461092c5780637547c7a314610857578063779df4e9146106d15780638456cb591461067657806384b0196e1461051e5780638da5cb5b146104ea57806395d89b4114610403578063a5ce413b1461037b578063a9059cbb14610349578063b7d68519146102a6578063dd62ed3e146102495763f2fde38b1461018157600080fd5b346102465760206003193601126102465761019a611d3b565b6101a2611ec9565b73ffffffffffffffffffffffffffffffffffffffff80911690811561021557600554827fffffffffffffffffffffffff0000000000000000000000000000000000000000821617600555167f8be0079c531659141344cd1fd0a4f28419497f9722a3daafe3b4186f6b6457e0600080a380f35b602483604051907f1e4fbdf70000000000000000000000000000000000000000000000000000000082526004820152fd5b80fd5b503461024657604060031936011261024657610263611d3b565b604061026d611d63565b9273ffffffffffffffffffffffffffffffffffffffff809316815260016020522091166000526020526020604060002054604051908152f35b5034610246576020600319360112610246576004356102c3611ec9565b6102cb611f1a565b60148111610305576020817f3e35d2ebd0421c49d885bf51fd270b65819a284351f9e36242848fb1d55fd7b292601155604051908152a180f35b606460405162461bcd60e51b815260206004820152601460248201527f526577617264207261746520746f6f20686967680000000000000000000000006044820152fd5b503461024657604060031936011261024657610370610366611d3b565b6024359033611f8b565b602060405160018152f35b5034610246578060031936011261024657610394611f1a565b61039c611f50565b338152600d6020526103b360408220541515611e6b565b338152600d6020526040812081815491556103cf813330611f8b565b6040519081527f0f5bb82176feb1b5e747e28471aa92156a04d9f3ab9f45f28e2d704232b93f7560203392a2600160065580f35b503461024657806003193601126102465760405160045460008261042683611bd3565b91828252602093600190856001821691826000146104ca57505060011461046d575b5061045592500383611cd8565b610469604051928284938452830190611cfb565b0390f35b84915060046000527f8a35acfbc15ff81a39ae7d344fd709f28e8600b4aa8c65c6b64bfe7fe36bd19b906000915b8583106104b2575050610455935082010185610448565b8054838901850152879450869390920191810161049b565b60ff19168582015261045595151560051b85010192508791506104489050565b5034610246578060031936011261024657602073ffffffffffffffffffffffffffffffffffffffff60055416604051908152f35b50346102465780600319360112610246576105587f00000000000000000000000000000000000000000000000000000000000000006120cc565b906105827f00000000000000000000000000000000000000000000000000000000000000006121e9565b9060405190602090602083019383851067ffffffffffffffff8611176106475792849260206105fd88966105ef986040528585526040519889987f0f000000000000000000000000000000000000000000000000000000000000008a5260e0858b015260e08a0190611cfb565b9088820360408a0152611cfb565b924660608801523060808801528460a088015286840360c088015251928381520193925b82811061063057505050500390f35b835185528695509381019392810192600101610621565b7f4e487b7100000000000000000000000000000000000000000000000000000000600052604160045260246000fd5b503461024657806003193601126102465761068f611ec9565b610697611f1a565b600160ff1960075416176007557f62e78cea01bee320cd4e420270b5ea74000d11b0c9f74754ebdbfc544b05a2586020604051338152a180f35b5034610246576060600319360112610246576106eb611d63565b6044356106f6611f1a565b6106fe611f50565b6004358352600b60205260ff60046040852001541615610813578273ffffffffffffffffffffffffffffffffffffffff92836010541693843b1561080f576044839260405194859384927f65decc0b00000000000000000000000000000000000000000000000000000000845216978860048401528760248401525af18015610804576107ba575b5060207f08285fcd762130176d8a4b9e6cd26e09aa385a32ac3c4276513919f5d5d50d5291604051908152a2600160065580f35b67ffffffffffffffff81949294116107d757604052916020610786565b6024827f4e487b710000000000000000000000000000000000000000000000000000000081526041600452fd5b6040513d86823e3d90fd5b8280fd5b606460405162461bcd60e51b815260206004820152601960248201527f50726f706f73616c206e6f7420657865637574656420796574000000000000006044820152fd5b503461024657602060031936011261024657600435610874611f1a565b61087c611f50565b80156108e85761088d813033611f8b565b338252600d602052604082206108a4828254611dd9565b9055338252600e6020524260408320556040519081527f9e71bc8eea02a63969f509818f2dafb9254532904319f9dbda79b67bd34a5f3d60203392a2600160065580f35b606460405162461bcd60e51b815260206004820152600e60248201527f43616e6e6f74207374616b6520300000000000000000000000000000000000006044820152fd5b5034610246578060031936011261024657610945611ec9565b8073ffffffffffffffffffffffffffffffffffffffff6005547fffffffffffffffffffffffff00000000000000000000000000000000000000008116600555167f8be0079c531659141344cd1fd0a4f28419497f9722a3daafe3b4186f6b6457e08280a380f35b503461024657602060031936011261024657604060209173ffffffffffffffffffffffffffffffffffffffff6109e0611d3b565b1681528083522054604051908152f35b5034610246578060031936011261024657610a09611f1a565b610a11611f50565b3381526020600d8152610a2960408320541515611e6b565b338252600e815260408220544203428111610b2957610a6463bbf81e0091338552600d8452610a5f604086205460115490611eb6565b611eb6565b043315610af8579081610a9a7f3e35d2ebd0421c49d885bf51fd270b65819a284351f9e36242848fb1d55fd7b293600254611dd9565b60025533845283825260408420818154019055604051908152837fddf252ad1be2c89b69c2b068fc378daa952ba7f163c4a11628f55a4df523b3ef833393a3338352600e8152426040842055601154604051908152a1600160065580f35b602483604051907fec442f050000000000000000000000000000000000000000000000000000000082526004820152fd5b6024837f4e487b710000000000000000000000000000000000000000000000000000000081526011600452fd5b5034610246578060031936011261024657602073ffffffffffffffffffffffffffffffffffffffff60105416604051908152f35b5034610246578060031936011261024657602060ff600754166040519015158152f35b503461024657602060031936011261024657610bc7611f1a565b6004358152600b60205260408120600281015460038201541015610bfa5762015180420190814211610b29576005015580f35b606460405162461bcd60e51b815260206004820152601560248201527f50726f706f73616c20646964206e6f74207061737300000000000000000000006044820152fd5b50346102465780600319360112610246576020601154604051908152f35b50346102465760406003193601126102465760ff6040602092610c7d611d63565b6004358252600c855273ffffffffffffffffffffffffffffffffffffffff8383209116825284522054166040519015158152f35b5034610246578060031936011261024657610cca611ec9565b60075460ff811615610d0a5760ff19166007557f5db9ee0a495bf2e6ff9c91a7834c1ba4fdd244a5e8aa4e537bd38aeae4b073aa6020604051338152a180f35b60046040517f8dfc202b000000000000000000000000000000000000000000000000000000008152fd5b50346102465760206003193601126102465760ff604060209273ffffffffffffffffffffffffffffffffffffffff610d6a611d3b565b168152600f84522054166040519015158152f35b5034610246578060031936011261024657602060405160128152f35b50346102465760206003193601126102465773ffffffffffffffffffffffffffffffffffffffff610dc9611d3b565b610dd1611ec9565b16808252600f6020526040822060ff1981541690557fcdd2e9b91a56913d370075169cefa1602ba36be5301664f752192bb1709df7578280a280f35b50346102465760606003193601126102465760043567ffffffffffffffff8111611339573660238201121561133957610e50903690602481600401359101611da2565b90610e59611d63565b9160443567ffffffffffffffff811161080f573660238201121561080f57610e8b903690602481600401359101611da2565b610e93611f1a565b338352600f60205260ff604084205416156112cf573383528260205260408320541561128b57600a5490600019821461125e5760018201600a5560405194610120860186811067ffffffffffffffff821117611231579073ffffffffffffffffffffffffffffffffffffffff916040528387528460208801528560408801528560608801528560808801528560a08801523360c08801521660e0860152610100850152808352600b6020526040832084518155602085015180519067ffffffffffffffff821161123157610f7782610f6e6001860154611bd3565b60018601611e15565b602090601f83116001146111be57826008936101009593610fad938a92611100575b50506000198260011b9260031b1c19161790565b60018201555b6040870151600282015560608701516003820155600481016080880151151560ff60ff19835416911617905560a087015160058201556006810173ffffffffffffffffffffffffffffffffffffffff60c089015116907fffffffffffffffffffffffff00000000000000000000000000000000000000009182825416179055600782019073ffffffffffffffffffffffffffffffffffffffff60e08a01511690825416179055019401519384519467ffffffffffffffff8611611191576110848661107e8454611bd3565b84611e15565b602090601f871160011461110b5795806110d59287987fc8c078bfee58e5822588f08b4509ed1eb5058e03f666cca84dd2d44bf5c288a898926111005750506000198260011b9260031b1c19161790565b90555b6110f46040519283928352606060208401526060830190611cfb565b3360408301520390a180f35b015190503880610f99565b828652602086209190601f198816875b81811061117957509160019391897fc8c078bfee58e5822588f08b4509ed1eb5058e03f666cca84dd2d44bf5c288a8999a9410611160575b505050811b0190556110d8565b015160001960f88460031b161c19169055388080611153565b9293602060018192878601518155019501930161111b565b6024857f4e487b710000000000000000000000000000000000000000000000000000000081526041600452fd5b906001840187526020872091875b601f1985168110611219575092610100949260019260089583601f19811610611200575b505050811b016001820155610fb3565b015160001960f88460031b161c191690553880806111f0565b919260206001819286850151815501940192016111cc565b6024867f4e487b710000000000000000000000000000000000000000000000000000000081526041600452fd5b6024847f4e487b710000000000000000000000000000000000000000000000000000000081526011600452fd5b606460405162461bcd60e51b815260206004820152601960248201527f4d75737420686f6c64204c59544820746f2070726f706f7365000000000000006044820152fd5b608460405162461bcd60e51b815260206004820152602360248201527f4e6f742077686974656c697374656420746f206372656174652070726f706f7360448201527f616c7300000000000000000000000000000000000000000000000000000000006064820152fd5b5080fd5b503461024657606060031936011261024657611357611d3b565b61135f611d63565b6044359173ffffffffffffffffffffffffffffffffffffffff811680855260016020526040852033865260205260408520549060001982106113a8575b50506103709350611f8b565b8482106114415780156114105733156113df578486926040926103709852600160205282842033855260205203912055388061139c565b602486604051907f94280d620000000000000000000000000000000000000000000000000000000082526004820152fd5b602486604051907fe602df050000000000000000000000000000000000000000000000000000000082526004820152fd5b6040517ffb8f41b20000000000000000000000000000000000000000000000000000000081523360048201526024810183905260448101869052606490fd5b50346102465780600319360112610246576020600254604051908152f35b5034610246576040600319360112610246576004356024358015159081810361162b576114c9611f1a565b338452602090600d82526040852054156115e757838552600c825260408520338652825260ff6040862054166115a357917ff2913dbe661ee2acc4a046d8fbcdc792373bda34c41c6086484b5345e5785e5f9391606093338752600d825260408720549060001461158357838752600b825261154d60026040892001918254611dd9565b90555b828652600c815260408620338752815260408620600160ff1982541617905560405192835233908301526040820152a180f35b838752600b825261159c60036040892001918254611dd9565b9055611550565b6064826040519062461bcd60e51b82526004820152600d60248201527f416c726561647920766f746564000000000000000000000000000000000000006044820152fd5b6064826040519062461bcd60e51b82526004820152601d60248201527f4d7573742068617665207374616b6564204c59544820746f20766f74650000006044820152fd5b8380fd5b50346102465760206003193601126102465773ffffffffffffffffffffffffffffffffffffffff61165e611d3b565b611666611ec9565b16808252600f60205260408220600160ff198254161790557faab7954e9d246b167ef88aeddad35209ca2489d95a8aeb59e288d9b19fae5a548280a280f35b503461024657602080600319360112611339576004356116c3611ec9565b6116cb611f1a565b6116d3611f50565b808352600b825260408320600481019081549160ff83166118e957600582015442106118a55760028201546003830154101561186157908591600190600160ff19809616179055600873ffffffffffffffffffffffffffffffffffffffff600784015416920193604051918495805461174b81611bd3565b936001821691821561184b575050600114611813575b5050508281819503925af13d1561180e573d61177c81611d86565b9061178a6040519283611cd8565b815284843d92013e5b156117ca57907f712ae1383f79ac853f8d882153778e0260ef8f03b504e2866e0593e04d2b291f91604051908152a1600160065580f35b6064826040519062461bcd60e51b82526004820152601960248201527f50726f706f73616c20657865637574696f6e206661696c6564000000000000006044820152fd5b611793565b88965085528585209085915b8383106118355750505081019350828181611761565b80548386015289978b975090920191810161181f565b1685525050508015150281019350828181611761565b6064856040519062461bcd60e51b82526004820152601860248201527f4e6f7420656e6f75676820766f74657320746f207061737300000000000000006044820152fd5b6064856040519062461bcd60e51b82526004820152601660248201527f457865637574696f6e2064656c617920616374697665000000000000000000006044820152fd5b6064856040519062461bcd60e51b82526004820152601060248201527f416c7265616479206578656375746564000000000000000000000000000000006044820152fd5b503461024657604060031936011261024657611947611d3b565b6024359033156119ed5773ffffffffffffffffffffffffffffffffffffffff169182156119bc5760408291338152600160205281812085825260205220556040519081527f8c5be1e5ebec7d5bd14f71427d1e84f3dd0314c0f7b2291e5b200ac8c7c3b92560203392a3602060405160018152f35b602490604051907f94280d620000000000000000000000000000000000000000000000000000000082526004820152fd5b602483604051907fe602df050000000000000000000000000000000000000000000000000000000082526004820152fd5b503461024657806003193601126102465760405190808260035491611a4283611bd3565b9283835260209460019186600182169182600014611acc575050600114611a72575b505061045592500383611cd8565b90859250600382527fc2575a0e9e593c00f959f8c92f12db2869c3395a3b0502d05e2516446f71f85b5b858310611ab457505061045593508201013880611a64565b80548389018501528794508693909201918101611a9c565b9150935061045595925060ff1991501682840152151560051b8201013880611a64565b8234610246576020600319360112610246576040906004358152600b60205220610469815491611b2d84611b268160018501611c26565b0385611cd8565b6008600282015491600381015460ff60048301541660058301549073ffffffffffffffffffffffffffffffffffffffff92611b87846006870154169460078701541695611b806040518099819301611c26565b0387611cd8565b611ba46040519a8b9a610120908c528060208d01528b0190611cfb565b9660408a015260608901521515608088015260a087015260c086015260e0850152838203610100850152611cfb565b90600182811c92168015611c1c575b6020831014611bed57565b7f4e487b7100000000000000000000000000000000000000000000000000000000600052602260045260246000fd5b91607f1691611be2565b805460009392611c3582611bd3565b91828252602093600191600181169081600014611c9d5750600114611c5c575b5050505050565b90939495506000929192528360002092846000945b838610611c8957505050500101903880808080611c55565b805485870183015294019385908201611c71565b60ff19168685015250505090151560051b010191503880808080611c55565b6040810190811067ffffffffffffffff82111761064757604052565b90601f601f19910116810190811067ffffffffffffffff82111761064757604052565b919082519283825260005b848110611d27575050601f19601f8460006020809697860101520116010190565b602081830181015184830182015201611d06565b6004359073ffffffffffffffffffffffffffffffffffffffff82168203611d5e57565b600080fd5b6024359073ffffffffffffffffffffffffffffffffffffffff82168203611d5e57565b67ffffffffffffffff811161064757601f01601f191660200190565b929192611dae82611d86565b91611dbc6040519384611cd8565b829481845281830111611d5e578281602093846000960137010152565b91908201809211611de657565b7f4e487b7100000000000000000000000000000000000000000000000000000000600052601160045260246000fd5b90601f8111611e2357505050565b6000916000526020600020906020601f850160051c83019410611e61575b601f0160051c01915b828110611e5657505050565b818155600101611e4a565b9092508290611e41565b15611e7257565b606460405162461bcd60e51b815260206004820152600e60248201527f4e6f207374616b6564204c5954480000000000000000000000000000000000006044820152fd5b81810292918115918404141715611de657565b73ffffffffffffffffffffffffffffffffffffffff600554163303611eea57565b60246040517f118cdaa7000000000000000000000000000000000000000000000000000000008152336004820152fd5b60ff60075416611f2657565b60046040517fd93c0665000000000000000000000000000000000000000000000000000000008152fd5b600260065414611f61576002600655565b60046040517f3ee5aeb5000000000000000000000000000000000000000000000000000000008152fd5b9173ffffffffffffffffffffffffffffffffffffffff80841692831561209b571692831561206a5760009083825281602052604082205490838210612012575091604082827fddf252ad1be2c89b69c2b068fc378daa952ba7f163c4a11628f55a4df523b3ef958760209652828652038282205586815220818154019055604051908152a3565b6040517fe450d38c00000000000000000000000000000000000000000000000000000000815273ffffffffffffffffffffffffffffffffffffffff919091166004820152602481019190915260448101839052606490fd5b60246040517fec442f0500000000000000000000000000000000000000000000000000000000815260006004820152fd5b60246040517f96c6fd1e00000000000000000000000000000000000000000000000000000000815260006004820152fd5b60ff81146121225760ff811690601f82116120f857604051916120ee83611cbc565b8252602082015290565b60046040517fb3512b0c000000000000000000000000000000000000000000000000000000008152fd5b5060405160085481600061213583611bd3565b808352926020906001908181169081156121c45750600114612163575b505061216092500382611cd8565b90565b91509260086000527ff3f7a9fe364faab93b216da50a3214154f22a0a2b415b23a84c8169e8b636ee3936000925b8284106121ac57506121609450505081016020013880612152565b85548785018301529485019486945092810192612191565b90506020935061216095925060ff1991501682840152151560051b8201013880612152565b60ff811461220b5760ff811690601f82116120f857604051916120ee83611cbc565b5060405160095481600061221e83611bd3565b808352926020906001908181169081156121c4575060011461224857505061216092500382611cd8565b91509260096000527f6e1540171b6c0c960b71a7020d9f60077f6af931a8bbf590da0223dacf75c7af936000925b82841061229157506121609450505081016020013880612152565b8554878501830152948501948694509281019261227656fea264697066735822122055721f86dd9902ca9573afa13769577a741bf0cf393200da1318d7df0383a05264736f6c63430008160033","opcodes":"PUSH2 0x160 CALLVALUE PUSH3 0x5DD JUMPI PUSH3 0x2C72 PUSH1 0x1F CODESIZE DUP3 SWAP1 SUB SWAP1 DUP2 ADD PUSH1 0x1F NOT AND DUP4 ADD SWAP1 PUSH1 0x1 PUSH1 0x1 PUSH1 0x40 SHL SUB DUP3 GT DUP5 DUP4 LT OR PUSH3 0x36B JUMPI DUP1 DUP5 SWAP2 PUSH1 0x40 SWAP5 DUP6 SWAP5 DUP6 MSTORE DUP4 CODECOPY DUP2 ADD SUB SLT PUSH3 0x5DD JUMPI PUSH3 0x5D PUSH1 0x20 PUSH3 0x55 DUP5 PUSH3 0x5FE JUMP JUMPDEST SWAP4 ADD PUSH3 0x5FE JUMP JUMPDEST SWAP1 DUP1 MLOAD SWAP1 PUSH3 0x6C DUP3 PUSH3 0x5E2 JUMP JUMPDEST PUSH1 0x8 DUP3 MSTORE PUSH1 0x20 DUP3 ADD SWAP3 PUSH8 0x536F6C7974686973 PUSH1 0xC0 SHL SWAP5 DUP6 DUP6 MSTORE DUP3 MLOAD SWAP6 PUSH3 0x93 DUP8 PUSH3 0x5E2 JUMP JUMPDEST PUSH1 0x1 DUP8 MSTORE PUSH1 0x31 PUSH1 0xF8 SHL PUSH1 0x20 DUP9 ADD MSTORE DUP4 MLOAD SWAP1 PUSH3 0xAF DUP3 PUSH3 0x5E2 JUMP JUMPDEST PUSH1 0x8 DUP3 MSTORE PUSH1 0x20 DUP3 ADD MSTORE DUP4 MLOAD SWAP1 PUSH3 0xC6 DUP3 PUSH3 0x5E2 JUMP JUMPDEST PUSH1 0x4 DUP3 MSTORE PUSH4 0x98B2A89 PUSH1 0xE3 SHL PUSH1 0x20 DUP4 ADD MSTORE DUP1 MLOAD SWAP1 PUSH1 0x1 PUSH1 0x1 PUSH1 0x40 SHL SUB DUP3 GT PUSH3 0x36B JUMPI PUSH1 0x3 SLOAD SWAP1 PUSH1 0x1 DUP3 DUP2 SHR SWAP3 AND DUP1 ISZERO PUSH3 0x5D2 JUMPI JUMPDEST PUSH1 0x20 DUP4 LT EQ PUSH3 0x4A5 JUMPI DUP2 PUSH1 0x1F DUP5 SWAP4 GT PUSH3 0x55D JUMPI JUMPDEST POP PUSH1 0x20 SWAP1 PUSH1 0x1F DUP4 GT PUSH1 0x1 EQ PUSH3 0x4D2 JUMPI PUSH1 0x0 SWAP3 PUSH3 0x4C6 JUMPI JUMPDEST POP POP DUP2 PUSH1 0x1 SHL SWAP2 PUSH1 0x0 NOT SWAP1 PUSH1 0x3 SHL SHR NOT AND OR PUSH1 0x3 SSTORE JUMPDEST DUP1 MLOAD SWAP1 PUSH1 0x1 PUSH1 0x1 PUSH1 0x40 SHL SUB DUP3 GT PUSH3 0x36B JUMPI PUSH1 0x4 SLOAD SWAP1 PUSH1 0x1 DUP3 DUP2 SHR SWAP3 AND DUP1 ISZERO PUSH3 0x4BB JUMPI JUMPDEST PUSH1 0x20 DUP4 LT EQ PUSH3 0x4A5 JUMPI DUP2 PUSH1 0x1F DUP5 SWAP4 GT PUSH3 0x430 JUMPI JUMPDEST POP PUSH1 0x20 SWAP1 PUSH1 0x1F DUP4 GT PUSH1 0x1 EQ PUSH3 0x3A5 JUMPI PUSH1 0x0 SWAP3 PUSH3 0x399 JUMPI JUMPDEST POP POP DUP2 PUSH1 0x1 SHL SWAP2 PUSH1 0x0 NOT SWAP1 PUSH1 0x3 SHL SHR NOT AND OR PUSH1 0x4 SSTORE JUMPDEST PUSH1 0x1 PUSH1 0x1 PUSH1 0xA0 SHL SUB SWAP1 DUP2 AND SWAP2 DUP3 ISZERO PUSH3 0x381 JUMPI PUSH1 0x5 DUP1 SLOAD PUSH1 0x1 PUSH1 0x1 PUSH1 0xA0 SHL SUB NOT DUP1 DUP3 AND DUP7 OR SWAP1 SWAP3 SSTORE SWAP1 SWAP4 SWAP1 DUP2 SWAP1 DUP5 AND PUSH32 0x8BE0079C531659141344CD1FD0A4F28419497F9722A3DAAFE3B4186F6B6457E0 PUSH1 0x0 DUP1 LOG3 PUSH1 0x1 PUSH1 0x6 SSTORE PUSH1 0xFF NOT PUSH1 0x7 SLOAD AND PUSH1 0x7 SSTORE PUSH3 0x219 DUP7 PUSH3 0x613 JUMP JUMPDEST SWAP7 PUSH2 0x120 SWAP8 DUP9 MSTORE PUSH3 0x22B DUP10 PUSH3 0x7DA JUMP JUMPDEST SWAP7 PUSH2 0x140 SWAP8 DUP9 MSTORE MLOAD SWAP1 KECCAK256 SWAP8 DUP9 PUSH1 0xE0 MSTORE PUSH1 0x20 DUP2 MLOAD SWAP2 ADD KECCAK256 PUSH2 0x100 SWAP9 DUP2 DUP11 MSTORE CHAINID PUSH1 0xA0 MSTORE DUP7 MLOAD SWAP2 PUSH1 0x20 DUP4 ADD SWAP2 PUSH32 0x8B73C3C69BB8FE3D512ECC4CF759CC79239F7B179B0FFACAA9A75D522B39400F DUP4 MSTORE DUP9 DUP5 ADD MSTORE PUSH1 0x60 DUP4 ADD MSTORE CHAINID PUSH1 0x80 DUP4 ADD MSTORE ADDRESS PUSH1 0xA0 DUP4 ADD MSTORE PUSH1 0xA0 DUP3 MSTORE PUSH1 0xC0 DUP3 ADD SWAP2 DUP1 DUP4 LT PUSH1 0x1 DUP1 PUSH1 0x40 SHL SUB DUP5 GT OR PUSH3 0x36B JUMPI DUP3 DUP9 MSTORE MLOAD SWAP1 KECCAK256 PUSH1 0x80 MSTORE ADDRESS PUSH1 0xC0 MSTORE PUSH1 0x5 PUSH1 0x11 SSTORE PUSH1 0x2 SLOAD PUSH12 0x33B2E3C9FD0803CE8000000 SWAP1 DUP2 DUP2 ADD DUP1 SWAP2 GT PUSH3 0x355 JUMPI PUSH1 0x0 SWAP3 PUSH32 0xDDF252AD1BE2C89B69C2B068FC378DAA952BA7F163C4A11628F55A4DF523B3EF SWAP3 PUSH1 0x20 SWAP3 PUSH1 0x2 SSTORE DUP6 DUP6 MSTORE DUP5 DUP4 MSTORE DUP10 DUP6 KECCAK256 DUP2 DUP2 SLOAD ADD SWAP1 SSTORE DUP2 MSTORE LOG3 AND SWAP1 PUSH1 0x10 SLOAD AND OR PUSH1 0x10 SSTORE MLOAD SWAP2 PUSH2 0x22DF SWAP4 DUP5 PUSH3 0x993 DUP6 CODECOPY PUSH1 0x80 MLOAD DUP5 POP POP PUSH1 0xA0 MLOAD DUP5 POP POP PUSH1 0xC0 MLOAD DUP5 POP POP PUSH1 0xE0 MLOAD DUP5 POP POP MLOAD DUP4 POP POP MLOAD DUP3 PUSH2 0x534 ADD MSTORE MLOAD DUP2 PUSH2 0x55E ADD MSTORE RETURN JUMPDEST PUSH4 0x4E487B71 PUSH1 0xE0 SHL PUSH1 0x0 MSTORE PUSH1 0x11 PUSH1 0x4 MSTORE PUSH1 0x24 PUSH1 0x0 REVERT JUMPDEST PUSH4 0x4E487B71 PUSH1 0xE0 SHL PUSH1 0x0 MSTORE PUSH1 0x41 PUSH1 0x4 MSTORE PUSH1 0x24 PUSH1 0x0 REVERT JUMPDEST DUP4 MLOAD PUSH4 0x1E4FBDF7 PUSH1 0xE0 SHL DUP2 MSTORE PUSH1 0x0 PUSH1 0x4 DUP3 ADD MSTORE PUSH1 0x24 SWAP1 REVERT JUMPDEST ADD MLOAD SWAP1 POP CODESIZE DUP1 PUSH3 0x195 JUMP JUMPDEST PUSH1 0x4 PUSH1 0x0 SWAP1 DUP2 MSTORE PUSH32 0x8A35ACFBC15FF81A39AE7D344FD709F28E8600B4AA8C65C6B64BFE7FE36BD19B SWAP4 POP PUSH1 0x1F NOT DUP6 AND SWAP1 JUMPDEST DUP2 DUP2 LT PUSH3 0x417 JUMPI POP SWAP1 DUP5 PUSH1 0x1 SWAP6 SWAP5 SWAP4 SWAP3 LT PUSH3 0x3FD JUMPI JUMPDEST POP POP POP DUP2 SHL ADD PUSH1 0x4 SSTORE PUSH3 0x1AB JUMP JUMPDEST ADD MLOAD PUSH1 0x0 NOT PUSH1 0xF8 DUP5 PUSH1 0x3 SHL AND SHR NOT AND SWAP1 SSTORE CODESIZE DUP1 DUP1 PUSH3 0x3EE JUMP JUMPDEST SWAP3 SWAP4 PUSH1 0x20 PUSH1 0x1 DUP2 SWAP3 DUP8 DUP7 ADD MLOAD DUP2 SSTORE ADD SWAP6 ADD SWAP4 ADD PUSH3 0x3D6 JUMP JUMPDEST PUSH1 0x4 PUSH1 0x0 MSTORE SWAP1 SWAP2 POP PUSH32 0x8A35ACFBC15FF81A39AE7D344FD709F28E8600B4AA8C65C6B64BFE7FE36BD19B PUSH1 0x1F DUP5 ADD PUSH1 0x5 SHR DUP2 ADD SWAP2 PUSH1 0x20 DUP6 LT PUSH3 0x49A JUMPI JUMPDEST SWAP1 PUSH1 0x1F DUP6 SWAP5 SWAP4 SWAP3 ADD PUSH1 0x5 SHR ADD SWAP1 JUMPDEST DUP2 DUP2 LT PUSH3 0x48A JUMPI POP PUSH3 0x17C JUMP JUMPDEST PUSH1 0x0 DUP2 SSTORE DUP5 SWAP4 POP PUSH1 0x1 ADD PUSH3 0x47B JUMP JUMPDEST SWAP1 SWAP2 POP DUP2 SWAP1 PUSH3 0x46D JUMP JUMPDEST PUSH4 0x4E487B71 PUSH1 0xE0 SHL PUSH1 0x0 MSTORE PUSH1 0x22 PUSH1 0x4 MSTORE PUSH1 0x24 PUSH1 0x0 REVERT JUMPDEST SWAP2 PUSH1 0x7F AND SWAP2 PUSH3 0x166 JUMP JUMPDEST ADD MLOAD SWAP1 POP CODESIZE DUP1 PUSH3 0x12B JUMP JUMPDEST PUSH1 0x3 PUSH1 0x0 SWAP1 DUP2 MSTORE PUSH32 0xC2575A0E9E593C00F959F8C92F12DB2869C3395A3B0502D05E2516446F71F85B SWAP4 POP PUSH1 0x1F NOT DUP6 AND SWAP1 JUMPDEST DUP2 DUP2 LT PUSH3 0x544 JUMPI POP SWAP1 DUP5 PUSH1 0x1 SWAP6 SWAP5 SWAP4 SWAP3 LT PUSH3 0x52A JUMPI JUMPDEST POP POP POP DUP2 SHL ADD PUSH1 0x3 SSTORE PUSH3 0x141 JUMP JUMPDEST ADD MLOAD PUSH1 0x0 NOT PUSH1 0xF8 DUP5 PUSH1 0x3 SHL AND SHR NOT AND SWAP1 SSTORE CODESIZE DUP1 DUP1 PUSH3 0x51B JUMP JUMPDEST SWAP3 SWAP4 PUSH1 0x20 PUSH1 0x1 DUP2 SWAP3 DUP8 DUP7 ADD MLOAD DUP2 SSTORE ADD SWAP6 ADD SWAP4 ADD PUSH3 0x503 JUMP JUMPDEST PUSH1 0x3 PUSH1 0x0 MSTORE SWAP1 SWAP2 POP PUSH32 0xC2575A0E9E593C00F959F8C92F12DB2869C3395A3B0502D05E2516446F71F85B PUSH1 0x1F DUP5 ADD PUSH1 0x5 SHR DUP2 ADD SWAP2 PUSH1 0x20 DUP6 LT PUSH3 0x5C7 JUMPI JUMPDEST SWAP1 PUSH1 0x1F DUP6 SWAP5 SWAP4 SWAP3 ADD PUSH1 0x5 SHR ADD SWAP1 JUMPDEST DUP2 DUP2 LT PUSH3 0x5B7 JUMPI POP PUSH3 0x112 JUMP JUMPDEST PUSH1 0x0 DUP2 SSTORE DUP5 SWAP4 POP PUSH1 0x1 ADD PUSH3 0x5A8 JUMP JUMPDEST SWAP1 SWAP2 POP DUP2 SWAP1 PUSH3 0x59A JUMP JUMPDEST SWAP2 PUSH1 0x7F AND SWAP2 PUSH3 0xFC JUMP JUMPDEST PUSH1 0x0 DUP1 REVERT JUMPDEST PUSH1 0x40 DUP2 ADD SWAP1 DUP2 LT PUSH1 0x1 PUSH1 0x1 PUSH1 0x40 SHL SUB DUP3 GT OR PUSH3 0x36B JUMPI PUSH1 0x40 MSTORE JUMP JUMPDEST MLOAD SWAP1 PUSH1 0x1 PUSH1 0x1 PUSH1 0xA0 SHL SUB DUP3 AND DUP3 SUB PUSH3 0x5DD JUMPI JUMP JUMPDEST DUP1 MLOAD PUSH1 0x20 SWAP1 DUP2 DUP2 LT ISZERO PUSH3 0x6B0 JUMPI POP PUSH1 0x1F DUP3 MLOAD GT PUSH3 0x64F JUMPI DUP1 DUP3 MLOAD SWAP3 ADD MLOAD SWAP1 DUP1 DUP4 LT PUSH3 0x640 JUMPI POP OR SWAP1 JUMP JUMPDEST DUP3 PUSH1 0x0 NOT SWAP2 SUB PUSH1 0x3 SHL SHL AND OR SWAP1 JUMP JUMPDEST SWAP1 PUSH1 0x40 MLOAD DUP1 SWAP3 PUSH4 0x305A27A9 PUSH1 0xE0 SHL DUP3 MSTORE DUP1 PUSH1 0x4 DUP4 ADD MSTORE DUP3 MLOAD SWAP1 DUP2 PUSH1 0x24 DUP5 ADD MSTORE PUSH1 0x0 SWAP4 JUMPDEST DUP3 DUP6 LT PUSH3 0x696 JUMPI POP POP PUSH1 0x44 SWAP3 POP PUSH1 0x0 DUP4 DUP3 DUP5 ADD ADD MSTORE PUSH1 0x1F DUP1 NOT SWAP2 ADD AND DUP2 ADD SUB ADD SWAP1 REVERT JUMPDEST DUP5 DUP2 ADD DUP3 ADD MLOAD DUP7 DUP7 ADD PUSH1 0x44 ADD MSTORE SWAP4 DUP2 ADD SWAP4 DUP6 SWAP4 POP PUSH3 0x672 JUMP JUMPDEST SWAP1 PUSH1 0x1 PUSH1 0x1 PUSH1 0x40 SHL SUB DUP3 GT PUSH3 0x36B JUMPI PUSH1 0x8 SLOAD SWAP3 PUSH1 0x1 SWAP4 DUP5 DUP2 DUP2 SHR SWAP2 AND DUP1 ISZERO PUSH3 0x7CF JUMPI JUMPDEST DUP4 DUP3 LT EQ PUSH3 0x4A5 JUMPI PUSH1 0x1F DUP2 GT PUSH3 0x795 JUMPI JUMPDEST POP DUP2 PUSH1 0x1F DUP5 GT PUSH1 0x1 EQ PUSH3 0x729 JUMPI POP SWAP3 DUP3 SWAP4 SWAP2 DUP4 SWAP3 PUSH1 0x0 SWAP5 PUSH3 0x71D JUMPI JUMPDEST POP POP SHL SWAP2 PUSH1 0x0 NOT SWAP1 PUSH1 0x3 SHL SHR NOT AND OR PUSH1 0x8 SSTORE PUSH1 0xFF SWAP1 JUMP JUMPDEST ADD MLOAD SWAP3 POP CODESIZE DUP1 PUSH3 0x706 JUMP JUMPDEST SWAP2 SWAP1 DUP4 PUSH1 0x1F NOT DUP2 AND PUSH1 0x8 PUSH1 0x0 MSTORE DUP5 PUSH1 0x0 KECCAK256 SWAP5 PUSH1 0x0 SWAP1 JUMPDEST DUP9 DUP4 DUP4 LT PUSH3 0x77A JUMPI POP POP POP LT PUSH3 0x760 JUMPI JUMPDEST POP POP POP DUP2 SHL ADD PUSH1 0x8 SSTORE PUSH1 0xFF SWAP1 JUMP JUMPDEST ADD MLOAD PUSH1 0x0 NOT PUSH1 0xF8 DUP5 PUSH1 0x3 SHL AND SHR NOT AND SWAP1 SSTORE CODESIZE DUP1 DUP1 PUSH3 0x752 JUMP JUMPDEST DUP6 DUP8 ADD MLOAD DUP9 SSTORE SWAP1 SWAP7 ADD SWAP6 SWAP5 DUP6 ADD SWAP5 DUP8 SWAP4 POP SWAP1 DUP2 ADD SWAP1 PUSH3 0x73F JUMP JUMPDEST PUSH1 0x8 PUSH1 0x0 MSTORE DUP5 PUSH1 0x1F DUP5 PUSH1 0x0 KECCAK256 SWAP3 ADD PUSH1 0x5 SHR DUP3 ADD SWAP2 PUSH1 0x1F DUP7 ADD PUSH1 0x5 SHR ADD JUMPDEST DUP3 DUP2 LT PUSH3 0x7C2 JUMPI POP POP PUSH3 0x6E8 JUMP JUMPDEST PUSH1 0x0 DUP2 SSTORE ADD DUP6 SWAP1 PUSH3 0x7B2 JUMP JUMPDEST SWAP1 PUSH1 0x7F AND SWAP1 PUSH3 0x6D5 JUMP JUMPDEST DUP1 MLOAD PUSH1 0x20 SWAP1 DUP2 DUP2 LT ISZERO PUSH3 0x868 JUMPI POP PUSH1 0x1F DUP3 MLOAD GT PUSH3 0x807 JUMPI DUP1 DUP3 MLOAD SWAP3 ADD MLOAD SWAP1 DUP1 DUP4 LT PUSH3 0x640 JUMPI POP OR SWAP1 JUMP JUMPDEST SWAP1 PUSH1 0x40 MLOAD DUP1 SWAP3 PUSH4 0x305A27A9 PUSH1 0xE0 SHL DUP3 MSTORE DUP1 PUSH1 0x4 DUP4 ADD MSTORE DUP3 MLOAD SWAP1 DUP2 PUSH1 0x24 DUP5 ADD MSTORE PUSH1 0x0 SWAP4 JUMPDEST DUP3 DUP6 LT PUSH3 0x84E JUMPI POP POP PUSH1 0x44 SWAP3 POP PUSH1 0x0 DUP4 DUP3 DUP5 ADD ADD MSTORE PUSH1 0x1F DUP1 NOT SWAP2 ADD AND DUP2 ADD SUB ADD SWAP1 REVERT JUMPDEST DUP5 DUP2 ADD DUP3 ADD MLOAD DUP7 DUP7 ADD PUSH1 0x44 ADD MSTORE SWAP4 DUP2 ADD SWAP4 DUP6 SWAP4 POP PUSH3 0x82A JUMP JUMPDEST SWAP1 PUSH1 0x1 PUSH1 0x1 PUSH1 0x40 SHL SUB DUP3 GT PUSH3 0x36B JUMPI PUSH1 0x9 SLOAD SWAP3 PUSH1 0x1 SWAP4 DUP5 DUP2 DUP2 SHR SWAP2 AND DUP1 ISZERO PUSH3 0x987 JUMPI JUMPDEST DUP4 DUP3 LT EQ PUSH3 0x4A5 JUMPI PUSH1 0x1F DUP2 GT PUSH3 0x94D JUMPI JUMPDEST POP DUP2 PUSH1 0x1F DUP5 GT PUSH1 0x1 EQ PUSH3 0x8E1 JUMPI POP SWAP3 DUP3 SWAP4 SWAP2 DUP4 SWAP3 PUSH1 0x0 SWAP5 PUSH3 0x8D5 JUMPI JUMPDEST POP POP SHL SWAP2 PUSH1 0x0 NOT SWAP1 PUSH1 0x3 SHL SHR NOT AND OR PUSH1 0x9 SSTORE PUSH1 0xFF SWAP1 JUMP JUMPDEST ADD MLOAD SWAP3 POP CODESIZE DUP1 PUSH3 0x8BE JUMP JUMPDEST SWAP2 SWAP1 DUP4 PUSH1 0x1F NOT DUP2 AND PUSH1 0x9 PUSH1 0x0 MSTORE DUP5 PUSH1 0x0 KECCAK256 SWAP5 PUSH1 0x0 SWAP1 JUMPDEST DUP9 DUP4 DUP4 LT PUSH3 0x932 JUMPI POP POP POP LT PUSH3 0x918 JUMPI JUMPDEST POP POP POP DUP2 SHL ADD PUSH1 0x9 SSTORE PUSH1 0xFF SWAP1 JUMP JUMPDEST ADD MLOAD PUSH1 0x0 NOT PUSH1 0xF8 DUP5 PUSH1 0x3 SHL AND SHR NOT AND SWAP1 SSTORE CODESIZE DUP1 DUP1 PUSH3 0x90A JUMP JUMPDEST DUP6 DUP8 ADD MLOAD DUP9 SSTORE SWAP1 SWAP7 ADD SWAP6 SWAP5 DUP6 ADD SWAP5 DUP8 SWAP4 POP SWAP1 DUP2 ADD SWAP1 PUSH3 0x8F7 JUMP JUMPDEST PUSH1 0x9 PUSH1 0x0 MSTORE DUP5 PUSH1 0x1F DUP5 PUSH1 0x0 KECCAK256 SWAP3 ADD PUSH1 0x5 SHR DUP3 ADD SWAP2 PUSH1 0x1F DUP7 ADD PUSH1 0x5 SHR ADD JUMPDEST DUP3 DUP2 LT PUSH3 0x97A JUMPI POP POP PUSH3 0x8A0 JUMP JUMPDEST PUSH1 0x0 DUP2 SSTORE ADD DUP6 SWAP1 PUSH3 0x96A JUMP JUMPDEST SWAP1 PUSH1 0x7F AND SWAP1 PUSH3 0x88D JUMP INVALID PUSH1 0x80 DUP1 PUSH1 0x40 MSTORE PUSH1 0x4 CALLDATASIZE LT ISZERO PUSH2 0x13 JUMPI PUSH1 0x0 DUP1 REVERT JUMPDEST PUSH1 0x0 SWAP1 DUP2 CALLDATALOAD PUSH1 0xE0 SHR SWAP1 DUP2 PUSH4 0x13CF08B EQ PUSH2 0x1AEF JUMPI POP DUP1 PUSH4 0x6FDDE03 EQ PUSH2 0x1A1E JUMPI DUP1 PUSH4 0x95EA7B3 EQ PUSH2 0x192D JUMPI DUP1 PUSH4 0xD61B519 EQ PUSH2 0x16A5 JUMPI DUP1 PUSH4 0x10154BAD EQ PUSH2 0x162F JUMPI DUP1 PUSH4 0x1614665C EQ PUSH2 0x149E JUMPI DUP1 PUSH4 0x18160DDD EQ PUSH2 0x1480 JUMPI DUP1 PUSH4 0x23B872DD EQ PUSH2 0x133D JUMPI DUP1 PUSH4 0x2821FF26 EQ PUSH2 0xE0D JUMPI DUP1 PUSH4 0x291D9549 EQ PUSH2 0xD9A JUMPI DUP1 PUSH4 0x313CE567 EQ PUSH2 0xD7E JUMPI DUP1 PUSH4 0x3AF32ABF EQ PUSH2 0xD34 JUMPI DUP1 PUSH4 0x3F4BA83A EQ PUSH2 0xCB1 JUMPI DUP1 PUSH4 0x43859632 EQ PUSH2 0xC5C JUMPI DUP1 PUSH4 0x4F3FC2DF EQ PUSH2 0xC3E JUMPI DUP1 PUSH4 0x5652077C EQ PUSH2 0xBAD JUMPI DUP1 PUSH4 0x5C975ABB EQ PUSH2 0xB8A JUMPI DUP1 PUSH4 0x61D027B3 EQ PUSH2 0xB56 JUMPI DUP1 PUSH4 0x6B69E05B EQ PUSH2 0x9F0 JUMPI DUP1 PUSH4 0x70A08231 EQ PUSH2 0x9AC JUMPI DUP1 PUSH4 0x715018A6 EQ PUSH2 0x92C JUMPI DUP1 PUSH4 0x7547C7A3 EQ PUSH2 0x857 JUMPI DUP1 PUSH4 0x779DF4E9 EQ PUSH2 0x6D1 JUMPI DUP1 PUSH4 0x8456CB59 EQ PUSH2 0x676 JUMPI DUP1 PUSH4 0x84B0196E EQ PUSH2 0x51E JUMPI DUP1 PUSH4 0x8DA5CB5B EQ PUSH2 0x4EA JUMPI DUP1 PUSH4 0x95D89B41 EQ PUSH2 0x403 JUMPI DUP1 PUSH4 0xA5CE413B EQ PUSH2 0x37B JUMPI DUP1 PUSH4 0xA9059CBB EQ PUSH2 0x349 JUMPI DUP1 PUSH4 0xB7D68519 EQ PUSH2 0x2A6 JUMPI DUP1 PUSH4 0xDD62ED3E EQ PUSH2 0x249 JUMPI PUSH4 0xF2FDE38B EQ PUSH2 0x181 JUMPI PUSH1 0x0 DUP1 REVERT JUMPDEST CALLVALUE PUSH2 0x246 JUMPI PUSH1 0x20 PUSH1 0x3 NOT CALLDATASIZE ADD SLT PUSH2 0x246 JUMPI PUSH2 0x19A PUSH2 0x1D3B JUMP JUMPDEST PUSH2 0x1A2 PUSH2 0x1EC9 JUMP JUMPDEST PUSH20 0xFFFFFFFFFFFFFFFFFFFFFFFFFFFFFFFFFFFFFFFF DUP1 SWAP2 AND SWAP1 DUP2 ISZERO PUSH2 0x215 JUMPI PUSH1 0x5 SLOAD DUP3 PUSH32 0xFFFFFFFFFFFFFFFFFFFFFFFF0000000000000000000000000000000000000000 DUP3 AND OR PUSH1 0x5 SSTORE AND PUSH32 0x8BE0079C531659141344CD1FD0A4F28419497F9722A3DAAFE3B4186F6B6457E0 PUSH1 0x0 DUP1 LOG3 DUP1 RETURN JUMPDEST PUSH1 0x24 DUP4 PUSH1 0x40 MLOAD SWAP1 PUSH32 0x1E4FBDF700000000000000000000000000000000000000000000000000000000 DUP3 MSTORE PUSH1 0x4 DUP3 ADD MSTORE REVERT JUMPDEST DUP1 REVERT JUMPDEST POP CALLVALUE PUSH2 0x246 JUMPI PUSH1 0x40 PUSH1 0x3 NOT CALLDATASIZE ADD SLT PUSH2 0x246 JUMPI PUSH2 0x263 PUSH2 0x1D3B JUMP JUMPDEST PUSH1 0x40 PUSH2 0x26D PUSH2 0x1D63 JUMP JUMPDEST SWAP3 PUSH20 0xFFFFFFFFFFFFFFFFFFFFFFFFFFFFFFFFFFFFFFFF DUP1 SWAP4 AND DUP2 MSTORE PUSH1 0x1 PUSH1 0x20 MSTORE KECCAK256 SWAP2 AND PUSH1 0x0 MSTORE PUSH1 0x20 MSTORE PUSH1 0x20 PUSH1 0x40 PUSH1 0x0 KECCAK256 SLOAD PUSH1 0x40 MLOAD SWAP1 DUP2 MSTORE RETURN JUMPDEST POP CALLVALUE PUSH2 0x246 JUMPI PUSH1 0x20 PUSH1 0x3 NOT CALLDATASIZE ADD SLT PUSH2 0x246 JUMPI PUSH1 0x4 CALLDATALOAD PUSH2 0x2C3 PUSH2 0x1EC9 JUMP JUMPDEST PUSH2 0x2CB PUSH2 0x1F1A JUMP JUMPDEST PUSH1 0x14 DUP2 GT PUSH2 0x305 JUMPI PUSH1 0x20 DUP2 PUSH32 0x3E35D2EBD0421C49D885BF51FD270B65819A284351F9E36242848FB1D55FD7B2 SWAP3 PUSH1 0x11 SSTORE PUSH1 0x40 MLOAD SWAP1 DUP2 MSTORE LOG1 DUP1 RETURN JUMPDEST PUSH1 0x64 PUSH1 0x40 MLOAD PUSH3 0x461BCD PUSH1 0xE5 SHL DUP2 MSTORE PUSH1 0x20 PUSH1 0x4 DUP3 ADD MSTORE PUSH1 0x14 PUSH1 0x24 DUP3 ADD MSTORE PUSH32 0x526577617264207261746520746F6F2068696768000000000000000000000000 PUSH1 0x44 DUP3 ADD MSTORE REVERT JUMPDEST POP CALLVALUE PUSH2 0x246 JUMPI PUSH1 0x40 PUSH1 0x3 NOT CALLDATASIZE ADD SLT PUSH2 0x246 JUMPI PUSH2 0x370 PUSH2 0x366 PUSH2 0x1D3B JUMP JUMPDEST PUSH1 0x24 CALLDATALOAD SWAP1 CALLER PUSH2 0x1F8B JUMP JUMPDEST PUSH1 0x20 PUSH1 0x40 MLOAD PUSH1 0x1 DUP2 MSTORE RETURN JUMPDEST POP CALLVALUE PUSH2 0x246 JUMPI DUP1 PUSH1 0x3 NOT CALLDATASIZE ADD SLT PUSH2 0x246 JUMPI PUSH2 0x394 PUSH2 0x1F1A JUMP JUMPDEST PUSH2 0x39C PUSH2 0x1F50 JUMP JUMPDEST CALLER DUP2 MSTORE PUSH1 0xD PUSH1 0x20 MSTORE PUSH2 0x3B3 PUSH1 0x40 DUP3 KECCAK256 SLOAD ISZERO ISZERO PUSH2 0x1E6B JUMP JUMPDEST CALLER DUP2 MSTORE PUSH1 0xD PUSH1 0x20 MSTORE PUSH1 0x40 DUP2 KECCAK256 DUP2 DUP2 SLOAD SWAP2 SSTORE PUSH2 0x3CF DUP2 CALLER ADDRESS PUSH2 0x1F8B JUMP JUMPDEST PUSH1 0x40 MLOAD SWAP1 DUP2 MSTORE PUSH32 0xF5BB82176FEB1B5E747E28471AA92156A04D9F3AB9F45F28E2D704232B93F75 PUSH1 0x20 CALLER SWAP3 LOG2 PUSH1 0x1 PUSH1 0x6 SSTORE DUP1 RETURN JUMPDEST POP CALLVALUE PUSH2 0x246 JUMPI DUP1 PUSH1 0x3 NOT CALLDATASIZE ADD SLT PUSH2 0x246 JUMPI PUSH1 0x40 MLOAD PUSH1 0x4 SLOAD PUSH1 0x0 DUP3 PUSH2 0x426 DUP4 PUSH2 0x1BD3 JUMP JUMPDEST SWAP2 DUP3 DUP3 MSTORE PUSH1 0x20 SWAP4 PUSH1 0x1 SWAP1 DUP6 PUSH1 0x1 DUP3 AND SWAP2 DUP3 PUSH1 0x0 EQ PUSH2 0x4CA JUMPI POP POP PUSH1 0x1 EQ PUSH2 0x46D JUMPI JUMPDEST POP PUSH2 0x455 SWAP3 POP SUB DUP4 PUSH2 0x1CD8 JUMP JUMPDEST PUSH2 0x469 PUSH1 0x40 MLOAD SWAP3 DUP3 DUP5 SWAP4 DUP5 MSTORE DUP4 ADD SWAP1 PUSH2 0x1CFB JUMP JUMPDEST SUB SWAP1 RETURN JUMPDEST DUP5 SWAP2 POP PUSH1 0x4 PUSH1 0x0 MSTORE PUSH32 0x8A35ACFBC15FF81A39AE7D344FD709F28E8600B4AA8C65C6B64BFE7FE36BD19B SWAP1 PUSH1 0x0 SWAP2 JUMPDEST DUP6 DUP4 LT PUSH2 0x4B2 JUMPI POP POP PUSH2 0x455 SWAP4 POP DUP3 ADD ADD DUP6 PUSH2 0x448 JUMP JUMPDEST DUP1 SLOAD DUP4 DUP10 ADD DUP6 ADD MSTORE DUP8 SWAP5 POP DUP7 SWAP4 SWAP1 SWAP3 ADD SWAP2 DUP2 ADD PUSH2 0x49B JUMP JUMPDEST PUSH1 0xFF NOT AND DUP6 DUP3 ADD MSTORE PUSH2 0x455 SWAP6 ISZERO ISZERO PUSH1 0x5 SHL DUP6 ADD ADD SWAP3 POP DUP8 SWAP2 POP PUSH2 0x448 SWAP1 POP JUMP JUMPDEST POP CALLVALUE PUSH2 0x246 JUMPI DUP1 PUSH1 0x3 NOT CALLDATASIZE ADD SLT PUSH2 0x246 JUMPI PUSH1 0x20 PUSH20 0xFFFFFFFFFFFFFFFFFFFFFFFFFFFFFFFFFFFFFFFF PUSH1 0x5 SLOAD AND PUSH1 0x40 MLOAD SWAP1 DUP2 MSTORE RETURN JUMPDEST POP CALLVALUE PUSH2 0x246 JUMPI DUP1 PUSH1 0x3 NOT CALLDATASIZE ADD SLT PUSH2 0x246 JUMPI PUSH2 0x558 PUSH32 0x0 PUSH2 0x20CC JUMP JUMPDEST SWAP1 PUSH2 0x582 PUSH32 0x0 PUSH2 0x21E9 JUMP JUMPDEST SWAP1 PUSH1 0x40 MLOAD SWAP1 PUSH1 0x20 SWAP1 PUSH1 0x20 DUP4 ADD SWAP4 DUP4 DUP6 LT PUSH8 0xFFFFFFFFFFFFFFFF DUP7 GT OR PUSH2 0x647 JUMPI SWAP3 DUP5 SWAP3 PUSH1 0x20 PUSH2 0x5FD DUP9 SWAP7 PUSH2 0x5EF SWAP9 PUSH1 0x40 MSTORE DUP6 DUP6 MSTORE PUSH1 0x40 MLOAD SWAP9 DUP10 SWAP9 PUSH32 0xF00000000000000000000000000000000000000000000000000000000000000 DUP11 MSTORE PUSH1 0xE0 DUP6 DUP12 ADD MSTORE PUSH1 0xE0 DUP11 ADD SWAP1 PUSH2 0x1CFB JUMP JUMPDEST SWAP1 DUP9 DUP3 SUB PUSH1 0x40 DUP11 ADD MSTORE PUSH2 0x1CFB JUMP JUMPDEST SWAP3 CHAINID PUSH1 0x60 DUP9 ADD MSTORE ADDRESS PUSH1 0x80 DUP9 ADD MSTORE DUP5 PUSH1 0xA0 DUP9 ADD MSTORE DUP7 DUP5 SUB PUSH1 0xC0 DUP9 ADD MSTORE MLOAD SWAP3 DUP4 DUP2 MSTORE ADD SWAP4 SWAP3 JUMPDEST DUP3 DUP2 LT PUSH2 0x630 JUMPI POP POP POP POP SUB SWAP1 RETURN JUMPDEST DUP4 MLOAD DUP6 MSTORE DUP7 SWAP6 POP SWAP4 DUP2 ADD SWAP4 SWAP3 DUP2 ADD SWAP3 PUSH1 0x1 ADD PUSH2 0x621 JUMP JUMPDEST PUSH32 0x4E487B7100000000000000000000000000000000000000000000000000000000 PUSH1 0x0 MSTORE PUSH1 0x41 PUSH1 0x4 MSTORE PUSH1 0x24 PUSH1 0x0 REVERT JUMPDEST POP CALLVALUE PUSH2 0x246 JUMPI DUP1 PUSH1 0x3 NOT CALLDATASIZE ADD SLT PUSH2 0x246 JUMPI PUSH2 0x68F PUSH2 0x1EC9 JUMP JUMPDEST PUSH2 0x697 PUSH2 0x1F1A JUMP JUMPDEST PUSH1 0x1 PUSH1 0xFF NOT PUSH1 0x7 SLOAD AND OR PUSH1 0x7 SSTORE PUSH32 0x62E78CEA01BEE320CD4E420270B5EA74000D11B0C9F74754EBDBFC544B05A258 PUSH1 0x20 PUSH1 0x40 MLOAD CALLER DUP2 MSTORE LOG1 DUP1 RETURN JUMPDEST POP CALLVALUE PUSH2 0x246 JUMPI PUSH1 0x60 PUSH1 0x3 NOT CALLDATASIZE ADD SLT PUSH2 0x246 JUMPI PUSH2 0x6EB PUSH2 0x1D63 JUMP JUMPDEST PUSH1 0x44 CALLDATALOAD PUSH2 0x6F6 PUSH2 0x1F1A JUMP JUMPDEST PUSH2 0x6FE PUSH2 0x1F50 JUMP JUMPDEST PUSH1 0x4 CALLDATALOAD DUP4 MSTORE PUSH1 0xB PUSH1 0x20 MSTORE PUSH1 0xFF PUSH1 0x4 PUSH1 0x40 DUP6 KECCAK256 ADD SLOAD AND ISZERO PUSH2 0x813 JUMPI DUP3 PUSH20 0xFFFFFFFFFFFFFFFFFFFFFFFFFFFFFFFFFFFFFFFF SWAP3 DUP4 PUSH1 0x10 SLOAD AND SWAP4 DUP5 EXTCODESIZE ISZERO PUSH2 0x80F JUMPI PUSH1 0x44 DUP4 SWAP3 PUSH1 0x40 MLOAD SWAP5 DUP6 SWAP4 DUP5 SWAP3 PUSH32 0x65DECC0B00000000000000000000000000000000000000000000000000000000 DUP5 MSTORE AND SWAP8 DUP9 PUSH1 0x4 DUP5 ADD MSTORE DUP8 PUSH1 0x24 DUP5 ADD MSTORE GAS CALL DUP1 ISZERO PUSH2 0x804 JUMPI PUSH2 0x7BA JUMPI JUMPDEST POP PUSH1 0x20 PUSH32 0x8285FCD762130176D8A4B9E6CD26E09AA385A32AC3C4276513919F5D5D50D52 SWAP2 PUSH1 0x40 MLOAD SWAP1 DUP2 MSTORE LOG2 PUSH1 0x1 PUSH1 0x6 SSTORE DUP1 RETURN JUMPDEST PUSH8 0xFFFFFFFFFFFFFFFF DUP2 SWAP5 SWAP3 SWAP5 GT PUSH2 0x7D7 JUMPI PUSH1 0x40 MSTORE SWAP2 PUSH1 0x20 PUSH2 0x786 JUMP JUMPDEST PUSH1 0x24 DUP3 PUSH32 0x4E487B7100000000000000000000000000000000000000000000000000000000 DUP2 MSTORE PUSH1 0x41 PUSH1 0x4 MSTORE REVERT JUMPDEST PUSH1 0x40 MLOAD RETURNDATASIZE DUP7 DUP3 RETURNDATACOPY RETURNDATASIZE SWAP1 REVERT JUMPDEST DUP3 DUP1 REVERT JUMPDEST PUSH1 0x64 PUSH1 0x40 MLOAD PUSH3 0x461BCD PUSH1 0xE5 SHL DUP2 MSTORE PUSH1 0x20 PUSH1 0x4 DUP3 ADD MSTORE PUSH1 0x19 PUSH1 0x24 DUP3 ADD MSTORE PUSH32 0x50726F706F73616C206E6F742065786563757465642079657400000000000000 PUSH1 0x44 DUP3 ADD MSTORE REVERT JUMPDEST POP CALLVALUE PUSH2 0x246 JUMPI PUSH1 0x20 PUSH1 0x3 NOT CALLDATASIZE ADD SLT PUSH2 0x246 JUMPI PUSH1 0x4 CALLDATALOAD PUSH2 0x874 PUSH2 0x1F1A JUMP JUMPDEST PUSH2 0x87C PUSH2 0x1F50 JUMP JUMPDEST DUP1 ISZERO PUSH2 0x8E8 JUMPI PUSH2 0x88D DUP2 ADDRESS CALLER PUSH2 0x1F8B JUMP JUMPDEST CALLER DUP3 MSTORE PUSH1 0xD PUSH1 0x20 MSTORE PUSH1 0x40 DUP3 KECCAK256 PUSH2 0x8A4 DUP3 DUP3 SLOAD PUSH2 0x1DD9 JUMP JUMPDEST SWAP1 SSTORE CALLER DUP3 MSTORE PUSH1 0xE PUSH1 0x20 MSTORE TIMESTAMP PUSH1 0x40 DUP4 KECCAK256 SSTORE PUSH1 0x40 MLOAD SWAP1 DUP2 MSTORE PUSH32 0x9E71BC8EEA02A63969F509818F2DAFB9254532904319F9DBDA79B67BD34A5F3D PUSH1 0x20 CALLER SWAP3 LOG2 PUSH1 0x1 PUSH1 0x6 SSTORE DUP1 RETURN JUMPDEST PUSH1 0x64 PUSH1 0x40 MLOAD PUSH3 0x461BCD PUSH1 0xE5 SHL DUP2 MSTORE PUSH1 0x20 PUSH1 0x4 DUP3 ADD MSTORE PUSH1 0xE PUSH1 0x24 DUP3 ADD MSTORE PUSH32 0x43616E6E6F74207374616B652030000000000000000000000000000000000000 PUSH1 0x44 DUP3 ADD MSTORE REVERT JUMPDEST POP CALLVALUE PUSH2 0x246 JUMPI DUP1 PUSH1 0x3 NOT CALLDATASIZE ADD SLT PUSH2 0x246 JUMPI PUSH2 0x945 PUSH2 0x1EC9 JUMP JUMPDEST DUP1 PUSH20 0xFFFFFFFFFFFFFFFFFFFFFFFFFFFFFFFFFFFFFFFF PUSH1 0x5 SLOAD PUSH32 0xFFFFFFFFFFFFFFFFFFFFFFFF0000000000000000000000000000000000000000 DUP2 AND PUSH1 0x5 SSTORE AND PUSH32 0x8BE0079C531659141344CD1FD0A4F28419497F9722A3DAAFE3B4186F6B6457E0 DUP3 DUP1 LOG3 DUP1 RETURN JUMPDEST POP CALLVALUE PUSH2 0x246 JUMPI PUSH1 0x20 PUSH1 0x3 NOT CALLDATASIZE ADD SLT PUSH2 0x246 JUMPI PUSH1 0x40 PUSH1 0x20 SWAP2 PUSH20 0xFFFFFFFFFFFFFFFFFFFFFFFFFFFFFFFFFFFFFFFF PUSH2 0x9E0 PUSH2 0x1D3B JUMP JUMPDEST AND DUP2 MSTORE DUP1 DUP4 MSTORE KECCAK256 SLOAD PUSH1 0x40 MLOAD SWAP1 DUP2 MSTORE RETURN JUMPDEST POP CALLVALUE PUSH2 0x246 JUMPI DUP1 PUSH1 0x3 NOT CALLDATASIZE ADD SLT PUSH2 0x246 JUMPI PUSH2 0xA09 PUSH2 0x1F1A JUMP JUMPDEST PUSH2 0xA11 PUSH2 0x1F50 JUMP JUMPDEST CALLER DUP2 MSTORE PUSH1 0x20 PUSH1 0xD DUP2 MSTORE PUSH2 0xA29 PUSH1 0x40 DUP4 KECCAK256 SLOAD ISZERO ISZERO PUSH2 0x1E6B JUMP JUMPDEST CALLER DUP3 MSTORE PUSH1 0xE DUP2 MSTORE PUSH1 0x40 DUP3 KECCAK256 SLOAD TIMESTAMP SUB TIMESTAMP DUP2 GT PUSH2 0xB29 JUMPI PUSH2 0xA64 PUSH4 0xBBF81E00 SWAP2 CALLER DUP6 MSTORE PUSH1 0xD DUP5 MSTORE PUSH2 0xA5F PUSH1 0x40 DUP7 KECCAK256 SLOAD PUSH1 0x11 SLOAD SWAP1 PUSH2 0x1EB6 JUMP JUMPDEST PUSH2 0x1EB6 JUMP JUMPDEST DIV CALLER ISZERO PUSH2 0xAF8 JUMPI SWAP1 DUP2 PUSH2 0xA9A PUSH32 0x3E35D2EBD0421C49D885BF51FD270B65819A284351F9E36242848FB1D55FD7B2 SWAP4 PUSH1 0x2 SLOAD PUSH2 0x1DD9 JUMP JUMPDEST PUSH1 0x2 SSTORE CALLER DUP5 MSTORE DUP4 DUP3 MSTORE PUSH1 0x40 DUP5 KECCAK256 DUP2 DUP2 SLOAD ADD SWAP1 SSTORE PUSH1 0x40 MLOAD SWAP1 DUP2 MSTORE DUP4 PUSH32 0xDDF252AD1BE2C89B69C2B068FC378DAA952BA7F163C4A11628F55A4DF523B3EF DUP4 CALLER SWAP4 LOG3 CALLER DUP4 MSTORE PUSH1 0xE DUP2 MSTORE TIMESTAMP PUSH1 0x40 DUP5 KECCAK256 SSTORE PUSH1 0x11 SLOAD PUSH1 0x40 MLOAD SWAP1 DUP2 MSTORE LOG1 PUSH1 0x1 PUSH1 0x6 SSTORE DUP1 RETURN JUMPDEST PUSH1 0x24 DUP4 PUSH1 0x40 MLOAD SWAP1 PUSH32 0xEC442F0500000000000000000000000000000000000000000000000000000000 DUP3 MSTORE PUSH1 0x4 DUP3 ADD MSTORE REVERT JUMPDEST PUSH1 0x24 DUP4 PUSH32 0x4E487B7100000000000000000000000000000000000000000000000000000000 DUP2 MSTORE PUSH1 0x11 PUSH1 0x4 MSTORE REVERT JUMPDEST POP CALLVALUE PUSH2 0x246 JUMPI DUP1 PUSH1 0x3 NOT CALLDATASIZE ADD SLT PUSH2 0x246 JUMPI PUSH1 0x20 PUSH20 0xFFFFFFFFFFFFFFFFFFFFFFFFFFFFFFFFFFFFFFFF PUSH1 0x10 SLOAD AND PUSH1 0x40 MLOAD SWAP1 DUP2 MSTORE RETURN JUMPDEST POP CALLVALUE PUSH2 0x246 JUMPI DUP1 PUSH1 0x3 NOT CALLDATASIZE ADD SLT PUSH2 0x246 JUMPI PUSH1 0x20 PUSH1 0xFF PUSH1 0x7 SLOAD AND PUSH1 0x40 MLOAD SWAP1 ISZERO ISZERO DUP2 MSTORE RETURN JUMPDEST POP CALLVALUE PUSH2 0x246 JUMPI PUSH1 0x20 PUSH1 0x3 NOT CALLDATASIZE ADD SLT PUSH2 0x246 JUMPI PUSH2 0xBC7 PUSH2 0x1F1A JUMP JUMPDEST PUSH1 0x4 CALLDATALOAD DUP2 MSTORE PUSH1 0xB PUSH1 0x20 MSTORE PUSH1 0x40 DUP2 KECCAK256 PUSH1 0x2 DUP2 ADD SLOAD PUSH1 0x3 DUP3 ADD SLOAD LT ISZERO PUSH2 0xBFA JUMPI PUSH3 0x15180 TIMESTAMP ADD SWAP1 DUP2 TIMESTAMP GT PUSH2 0xB29 JUMPI PUSH1 0x5 ADD SSTORE DUP1 RETURN JUMPDEST PUSH1 0x64 PUSH1 0x40 MLOAD PUSH3 0x461BCD PUSH1 0xE5 SHL DUP2 MSTORE PUSH1 0x20 PUSH1 0x4 DUP3 ADD MSTORE PUSH1 0x15 PUSH1 0x24 DUP3 ADD MSTORE PUSH32 0x50726F706F73616C20646964206E6F7420706173730000000000000000000000 PUSH1 0x44 DUP3 ADD MSTORE REVERT JUMPDEST POP CALLVALUE PUSH2 0x246 JUMPI DUP1 PUSH1 0x3 NOT CALLDATASIZE ADD SLT PUSH2 0x246 JUMPI PUSH1 0x20 PUSH1 0x11 SLOAD PUSH1 0x40 MLOAD SWAP1 DUP2 MSTORE RETURN JUMPDEST POP CALLVALUE PUSH2 0x246 JUMPI PUSH1 0x40 PUSH1 0x3 NOT CALLDATASIZE ADD SLT PUSH2 0x246 JUMPI PUSH1 0xFF PUSH1 0x40 PUSH1 0x20 SWAP3 PUSH2 0xC7D PUSH2 0x1D63 JUMP JUMPDEST PUSH1 0x4 CALLDATALOAD DUP3 MSTORE PUSH1 0xC DUP6 MSTORE PUSH20 0xFFFFFFFFFFFFFFFFFFFFFFFFFFFFFFFFFFFFFFFF DUP4 DUP4 KECCAK256 SWAP2 AND DUP3 MSTORE DUP5 MSTORE KECCAK256 SLOAD AND PUSH1 0x40 MLOAD SWAP1 ISZERO ISZERO DUP2 MSTORE RETURN JUMPDEST POP CALLVALUE PUSH2 0x246 JUMPI DUP1 PUSH1 0x3 NOT CALLDATASIZE ADD SLT PUSH2 0x246 JUMPI PUSH2 0xCCA PUSH2 0x1EC9 JUMP JUMPDEST PUSH1 0x7 SLOAD PUSH1 0xFF DUP2 AND ISZERO PUSH2 0xD0A JUMPI PUSH1 0xFF NOT AND PUSH1 0x7 SSTORE PUSH32 0x5DB9EE0A495BF2E6FF9C91A7834C1BA4FDD244A5E8AA4E537BD38AEAE4B073AA PUSH1 0x20 PUSH1 0x40 MLOAD CALLER DUP2 MSTORE LOG1 DUP1 RETURN JUMPDEST PUSH1 0x4 PUSH1 0x40 MLOAD PUSH32 0x8DFC202B00000000000000000000000000000000000000000000000000000000 DUP2 MSTORE REVERT JUMPDEST POP CALLVALUE PUSH2 0x246 JUMPI PUSH1 0x20 PUSH1 0x3 NOT CALLDATASIZE ADD SLT PUSH2 0x246 JUMPI PUSH1 0xFF PUSH1 0x40 PUSH1 0x20 SWAP3 PUSH20 0xFFFFFFFFFFFFFFFFFFFFFFFFFFFFFFFFFFFFFFFF PUSH2 0xD6A PUSH2 0x1D3B JUMP JUMPDEST AND DUP2 MSTORE PUSH1 0xF DUP5 MSTORE KECCAK256 SLOAD AND PUSH1 0x40 MLOAD SWAP1 ISZERO ISZERO DUP2 MSTORE RETURN JUMPDEST POP CALLVALUE PUSH2 0x246 JUMPI DUP1 PUSH1 0x3 NOT CALLDATASIZE ADD SLT PUSH2 0x246 JUMPI PUSH1 0x20 PUSH1 0x40 MLOAD PUSH1 0x12 DUP2 MSTORE RETURN JUMPDEST POP CALLVALUE PUSH2 0x246 JUMPI PUSH1 0x20 PUSH1 0x3 NOT CALLDATASIZE ADD SLT PUSH2 0x246 JUMPI PUSH20 0xFFFFFFFFFFFFFFFFFFFFFFFFFFFFFFFFFFFFFFFF PUSH2 0xDC9 PUSH2 0x1D3B JUMP JUMPDEST PUSH2 0xDD1 PUSH2 0x1EC9 JUMP JUMPDEST AND DUP1 DUP3 MSTORE PUSH1 0xF PUSH1 0x20 MSTORE PUSH1 0x40 DUP3 KECCAK256 PUSH1 0xFF NOT DUP2 SLOAD AND SWAP1 SSTORE PUSH32 0xCDD2E9B91A56913D370075169CEFA1602BA36BE5301664F752192BB1709DF757 DUP3 DUP1 LOG2 DUP1 RETURN JUMPDEST POP CALLVALUE PUSH2 0x246 JUMPI PUSH1 0x60 PUSH1 0x3 NOT CALLDATASIZE ADD SLT PUSH2 0x246 JUMPI PUSH1 0x4 CALLDATALOAD PUSH8 0xFFFFFFFFFFFFFFFF DUP2 GT PUSH2 0x1339 JUMPI CALLDATASIZE PUSH1 0x23 DUP3 ADD SLT ISZERO PUSH2 0x1339 JUMPI PUSH2 0xE50 SWAP1 CALLDATASIZE SWAP1 PUSH1 0x24 DUP2 PUSH1 0x4 ADD CALLDATALOAD SWAP2 ADD PUSH2 0x1DA2 JUMP JUMPDEST SWAP1 PUSH2 0xE59 PUSH2 0x1D63 JUMP JUMPDEST SWAP2 PUSH1 0x44 CALLDATALOAD PUSH8 0xFFFFFFFFFFFFFFFF DUP2 GT PUSH2 0x80F JUMPI CALLDATASIZE PUSH1 0x23 DUP3 ADD SLT ISZERO PUSH2 0x80F JUMPI PUSH2 0xE8B SWAP1 CALLDATASIZE SWAP1 PUSH1 0x24 DUP2 PUSH1 0x4 ADD CALLDATALOAD SWAP2 ADD PUSH2 0x1DA2 JUMP JUMPDEST PUSH2 0xE93 PUSH2 0x1F1A JUMP JUMPDEST CALLER DUP4 MSTORE PUSH1 0xF PUSH1 0x20 MSTORE PUSH1 0xFF PUSH1 0x40 DUP5 KECCAK256 SLOAD AND ISZERO PUSH2 0x12CF JUMPI CALLER DUP4 MSTORE DUP3 PUSH1 0x20 MSTORE PUSH1 0x40 DUP4 KECCAK256 SLOAD ISZERO PUSH2 0x128B JUMPI PUSH1 0xA SLOAD SWAP1 PUSH1 0x0 NOT DUP3 EQ PUSH2 0x125E JUMPI PUSH1 0x1 DUP3 ADD PUSH1 0xA SSTORE PUSH1 0x40 MLOAD SWAP5 PUSH2 0x120 DUP7 ADD DUP7 DUP2 LT PUSH8 0xFFFFFFFFFFFFFFFF DUP3 GT OR PUSH2 0x1231 JUMPI SWAP1 PUSH20 0xFFFFFFFFFFFFFFFFFFFFFFFFFFFFFFFFFFFFFFFF SWAP2 PUSH1 0x40 MSTORE DUP4 DUP8 MSTORE DUP5 PUSH1 0x20 DUP9 ADD MSTORE DUP6 PUSH1 0x40 DUP9 ADD MSTORE DUP6 PUSH1 0x60 DUP9 ADD MSTORE DUP6 PUSH1 0x80 DUP9 ADD MSTORE DUP6 PUSH1 0xA0 DUP9 ADD MSTORE CALLER PUSH1 0xC0 DUP9 ADD MSTORE AND PUSH1 0xE0 DUP7 ADD MSTORE PUSH2 0x100 DUP6 ADD MSTORE DUP1 DUP4 MSTORE PUSH1 0xB PUSH1 0x20 MSTORE PUSH1 0x40 DUP4 KECCAK256 DUP5 MLOAD DUP2 SSTORE PUSH1 0x20 DUP6 ADD MLOAD DUP1 MLOAD SWAP1 PUSH8 0xFFFFFFFFFFFFFFFF DUP3 GT PUSH2 0x1231 JUMPI PUSH2 0xF77 DUP3 PUSH2 0xF6E PUSH1 0x1 DUP7 ADD SLOAD PUSH2 0x1BD3 JUMP JUMPDEST PUSH1 0x1 DUP7 ADD PUSH2 0x1E15 JUMP JUMPDEST PUSH1 0x20 SWAP1 PUSH1 0x1F DUP4 GT PUSH1 0x1 EQ PUSH2 0x11BE JUMPI DUP3 PUSH1 0x8 SWAP4 PUSH2 0x100 SWAP6 SWAP4 PUSH2 0xFAD SWAP4 DUP11 SWAP3 PUSH2 0x1100 JUMPI JUMPDEST POP POP PUSH1 0x0 NOT DUP3 PUSH1 0x1 SHL SWAP3 PUSH1 0x3 SHL SHR NOT AND OR SWAP1 JUMP JUMPDEST PUSH1 0x1 DUP3 ADD SSTORE JUMPDEST PUSH1 0x40 DUP8 ADD MLOAD PUSH1 0x2 DUP3 ADD SSTORE PUSH1 0x60 DUP8 ADD MLOAD PUSH1 0x3 DUP3 ADD SSTORE PUSH1 0x4 DUP2 ADD PUSH1 0x80 DUP9 ADD MLOAD ISZERO ISZERO PUSH1 0xFF PUSH1 0xFF NOT DUP4 SLOAD AND SWAP2 AND OR SWAP1 SSTORE PUSH1 0xA0 DUP8 ADD MLOAD PUSH1 0x5 DUP3 ADD SSTORE PUSH1 0x6 DUP2 ADD PUSH20 0xFFFFFFFFFFFFFFFFFFFFFFFFFFFFFFFFFFFFFFFF PUSH1 0xC0 DUP10 ADD MLOAD AND SWAP1 PUSH32 0xFFFFFFFFFFFFFFFFFFFFFFFF0000000000000000000000000000000000000000 SWAP2 DUP3 DUP3 SLOAD AND OR SWAP1 SSTORE PUSH1 0x7 DUP3 ADD SWAP1 PUSH20 0xFFFFFFFFFFFFFFFFFFFFFFFFFFFFFFFFFFFFFFFF PUSH1 0xE0 DUP11 ADD MLOAD AND SWAP1 DUP3 SLOAD AND OR SWAP1 SSTORE ADD SWAP5 ADD MLOAD SWAP4 DUP5 MLOAD SWAP5 PUSH8 0xFFFFFFFFFFFFFFFF DUP7 GT PUSH2 0x1191 JUMPI PUSH2 0x1084 DUP7 PUSH2 0x107E DUP5 SLOAD PUSH2 0x1BD3 JUMP JUMPDEST DUP5 PUSH2 0x1E15 JUMP JUMPDEST PUSH1 0x20 SWAP1 PUSH1 0x1F DUP8 GT PUSH1 0x1 EQ PUSH2 0x110B JUMPI SWAP6 DUP1 PUSH2 0x10D5 SWAP3 DUP8 SWAP9 PUSH32 0xC8C078BFEE58E5822588F08B4509ED1EB5058E03F666CCA84DD2D44BF5C288A8 SWAP9 SWAP3 PUSH2 0x1100 JUMPI POP POP PUSH1 0x0 NOT DUP3 PUSH1 0x1 SHL SWAP3 PUSH1 0x3 SHL SHR NOT AND OR SWAP1 JUMP JUMPDEST SWAP1 SSTORE JUMPDEST PUSH2 0x10F4 PUSH1 0x40 MLOAD SWAP3 DUP4 SWAP3 DUP4 MSTORE PUSH1 0x60 PUSH1 0x20 DUP5 ADD MSTORE PUSH1 0x60 DUP4 ADD SWAP1 PUSH2 0x1CFB JUMP JUMPDEST CALLER PUSH1 0x40 DUP4 ADD MSTORE SUB SWAP1 LOG1 DUP1 RETURN JUMPDEST ADD MLOAD SWAP1 POP CODESIZE DUP1 PUSH2 0xF99 JUMP JUMPDEST DUP3 DUP7 MSTORE PUSH1 0x20 DUP7 KECCAK256 SWAP2 SWAP1 PUSH1 0x1F NOT DUP9 AND DUP8 JUMPDEST DUP2 DUP2 LT PUSH2 0x1179 JUMPI POP SWAP2 PUSH1 0x1 SWAP4 SWAP2 DUP10 PUSH32 0xC8C078BFEE58E5822588F08B4509ED1EB5058E03F666CCA84DD2D44BF5C288A8 SWAP10 SWAP11 SWAP5 LT PUSH2 0x1160 JUMPI JUMPDEST POP POP POP DUP2 SHL ADD SWAP1 SSTORE PUSH2 0x10D8 JUMP JUMPDEST ADD MLOAD PUSH1 0x0 NOT PUSH1 0xF8 DUP5 PUSH1 0x3 SHL AND SHR NOT AND SWAP1 SSTORE CODESIZE DUP1 DUP1 PUSH2 0x1153 JUMP JUMPDEST SWAP3 SWAP4 PUSH1 0x20 PUSH1 0x1 DUP2 SWAP3 DUP8 DUP7 ADD MLOAD DUP2 SSTORE ADD SWAP6 ADD SWAP4 ADD PUSH2 0x111B JUMP JUMPDEST PUSH1 0x24 DUP6 PUSH32 0x4E487B7100000000000000000000000000000000000000000000000000000000 DUP2 MSTORE PUSH1 0x41 PUSH1 0x4 MSTORE REVERT JUMPDEST SWAP1 PUSH1 0x1 DUP5 ADD DUP8 MSTORE PUSH1 0x20 DUP8 KECCAK256 SWAP2 DUP8 JUMPDEST PUSH1 0x1F NOT DUP6 AND DUP2 LT PUSH2 0x1219 JUMPI POP SWAP3 PUSH2 0x100 SWAP5 SWAP3 PUSH1 0x1 SWAP3 PUSH1 0x8 SWAP6 DUP4 PUSH1 0x1F NOT DUP2 AND LT PUSH2 0x1200 JUMPI JUMPDEST POP POP POP DUP2 SHL ADD PUSH1 0x1 DUP3 ADD SSTORE PUSH2 0xFB3 JUMP JUMPDEST ADD MLOAD PUSH1 0x0 NOT PUSH1 0xF8 DUP5 PUSH1 0x3 SHL AND SHR NOT AND SWAP1 SSTORE CODESIZE DUP1 DUP1 PUSH2 0x11F0 JUMP JUMPDEST SWAP2 SWAP3 PUSH1 0x20 PUSH1 0x1 DUP2 SWAP3 DUP7 DUP6 ADD MLOAD DUP2 SSTORE ADD SWAP5 ADD SWAP3 ADD PUSH2 0x11CC JUMP JUMPDEST PUSH1 0x24 DUP7 PUSH32 0x4E487B7100000000000000000000000000000000000000000000000000000000 DUP2 MSTORE PUSH1 0x41 PUSH1 0x4 MSTORE REVERT JUMPDEST PUSH1 0x24 DUP5 PUSH32 0x4E487B7100000000000000000000000000000000000000000000000000000000 DUP2 MSTORE PUSH1 0x11 PUSH1 0x4 MSTORE REVERT JUMPDEST PUSH1 0x64 PUSH1 0x40 MLOAD PUSH3 0x461BCD PUSH1 0xE5 SHL DUP2 MSTORE PUSH1 0x20 PUSH1 0x4 DUP3 ADD MSTORE PUSH1 0x19 PUSH1 0x24 DUP3 ADD MSTORE PUSH32 0x4D75737420686F6C64204C59544820746F2070726F706F736500000000000000 PUSH1 0x44 DUP3 ADD MSTORE REVERT JUMPDEST PUSH1 0x84 PUSH1 0x40 MLOAD PUSH3 0x461BCD PUSH1 0xE5 SHL DUP2 MSTORE PUSH1 0x20 PUSH1 0x4 DUP3 ADD MSTORE PUSH1 0x23 PUSH1 0x24 DUP3 ADD MSTORE PUSH32 0x4E6F742077686974656C697374656420746F206372656174652070726F706F73 PUSH1 0x44 DUP3 ADD MSTORE PUSH32 0x616C730000000000000000000000000000000000000000000000000000000000 PUSH1 0x64 DUP3 ADD MSTORE REVERT JUMPDEST POP DUP1 REVERT JUMPDEST POP CALLVALUE PUSH2 0x246 JUMPI PUSH1 0x60 PUSH1 0x3 NOT CALLDATASIZE ADD SLT PUSH2 0x246 JUMPI PUSH2 0x1357 PUSH2 0x1D3B JUMP JUMPDEST PUSH2 0x135F PUSH2 0x1D63 JUMP JUMPDEST PUSH1 0x44 CALLDATALOAD SWAP2 PUSH20 0xFFFFFFFFFFFFFFFFFFFFFFFFFFFFFFFFFFFFFFFF DUP2 AND DUP1 DUP6 MSTORE PUSH1 0x1 PUSH1 0x20 MSTORE PUSH1 0x40 DUP6 KECCAK256 CALLER DUP7 MSTORE PUSH1 0x20 MSTORE PUSH1 0x40 DUP6 KECCAK256 SLOAD SWAP1 PUSH1 0x0 NOT DUP3 LT PUSH2 0x13A8 JUMPI JUMPDEST POP POP PUSH2 0x370 SWAP4 POP PUSH2 0x1F8B JUMP JUMPDEST DUP5 DUP3 LT PUSH2 0x1441 JUMPI DUP1 ISZERO PUSH2 0x1410 JUMPI CALLER ISZERO PUSH2 0x13DF JUMPI DUP5 DUP7 SWAP3 PUSH1 0x40 SWAP3 PUSH2 0x370 SWAP9 MSTORE PUSH1 0x1 PUSH1 0x20 MSTORE DUP3 DUP5 KECCAK256 CALLER DUP6 MSTORE PUSH1 0x20 MSTORE SUB SWAP2 KECCAK256 SSTORE CODESIZE DUP1 PUSH2 0x139C JUMP JUMPDEST PUSH1 0x24 DUP7 PUSH1 0x40 MLOAD SWAP1 PUSH32 0x94280D6200000000000000000000000000000000000000000000000000000000 DUP3 MSTORE PUSH1 0x4 DUP3 ADD MSTORE REVERT JUMPDEST PUSH1 0x24 DUP7 PUSH1 0x40 MLOAD SWAP1 PUSH32 0xE602DF0500000000000000000000000000000000000000000000000000000000 DUP3 MSTORE PUSH1 0x4 DUP3 ADD MSTORE REVERT JUMPDEST PUSH1 0x40 MLOAD PUSH32 0xFB8F41B200000000000000000000000000000000000000000000000000000000 DUP2 MSTORE CALLER PUSH1 0x4 DUP3 ADD MSTORE PUSH1 0x24 DUP2 ADD DUP4 SWAP1 MSTORE PUSH1 0x44 DUP2 ADD DUP7 SWAP1 MSTORE PUSH1 0x64 SWAP1 REVERT JUMPDEST POP CALLVALUE PUSH2 0x246 JUMPI DUP1 PUSH1 0x3 NOT CALLDATASIZE ADD SLT PUSH2 0x246 JUMPI PUSH1 0x20 PUSH1 0x2 SLOAD PUSH1 0x40 MLOAD SWAP1 DUP2 MSTORE RETURN JUMPDEST POP CALLVALUE PUSH2 0x246 JUMPI PUSH1 0x40 PUSH1 0x3 NOT CALLDATASIZE ADD SLT PUSH2 0x246 JUMPI PUSH1 0x4 CALLDATALOAD PUSH1 0x24 CALLDATALOAD DUP1 ISZERO ISZERO SWAP1 DUP2 DUP2 SUB PUSH2 0x162B JUMPI PUSH2 0x14C9 PUSH2 0x1F1A JUMP JUMPDEST CALLER DUP5 MSTORE PUSH1 0x20 SWAP1 PUSH1 0xD DUP3 MSTORE PUSH1 0x40 DUP6 KECCAK256 SLOAD ISZERO PUSH2 0x15E7 JUMPI DUP4 DUP6 MSTORE PUSH1 0xC DUP3 MSTORE PUSH1 0x40 DUP6 KECCAK256 CALLER DUP7 MSTORE DUP3 MSTORE PUSH1 0xFF PUSH1 0x40 DUP7 KECCAK256 SLOAD AND PUSH2 0x15A3 JUMPI SWAP2 PUSH32 0xF2913DBE661EE2ACC4A046D8FBCDC792373BDA34C41C6086484B5345E5785E5F SWAP4 SWAP2 PUSH1 0x60 SWAP4 CALLER DUP8 MSTORE PUSH1 0xD DUP3 MSTORE PUSH1 0x40 DUP8 KECCAK256 SLOAD SWAP1 PUSH1 0x0 EQ PUSH2 0x1583 JUMPI DUP4 DUP8 MSTORE PUSH1 0xB DUP3 MSTORE PUSH2 0x154D PUSH1 0x2 PUSH1 0x40 DUP10 KECCAK256 ADD SWAP2 DUP3 SLOAD PUSH2 0x1DD9 JUMP JUMPDEST SWAP1 SSTORE JUMPDEST DUP3 DUP7 MSTORE PUSH1 0xC DUP2 MSTORE PUSH1 0x40 DUP7 KECCAK256 CALLER DUP8 MSTORE DUP2 MSTORE PUSH1 0x40 DUP7 KECCAK256 PUSH1 0x1 PUSH1 0xFF NOT DUP3 SLOAD AND OR SWAP1 SSTORE PUSH1 0x40 MLOAD SWAP3 DUP4 MSTORE CALLER SWAP1 DUP4 ADD MSTORE PUSH1 0x40 DUP3 ADD MSTORE LOG1 DUP1 RETURN JUMPDEST DUP4 DUP8 MSTORE PUSH1 0xB DUP3 MSTORE PUSH2 0x159C PUSH1 0x3 PUSH1 0x40 DUP10 KECCAK256 ADD SWAP2 DUP3 SLOAD PUSH2 0x1DD9 JUMP JUMPDEST SWAP1 SSTORE PUSH2 0x1550 JUMP JUMPDEST PUSH1 0x64 DUP3 PUSH1 0x40 MLOAD SWAP1 PUSH3 0x461BCD PUSH1 0xE5 SHL DUP3 MSTORE PUSH1 0x4 DUP3 ADD MSTORE PUSH1 0xD PUSH1 0x24 DUP3 ADD MSTORE PUSH32 0x416C726561647920766F74656400000000000000000000000000000000000000 PUSH1 0x44 DUP3 ADD MSTORE REVERT JUMPDEST PUSH1 0x64 DUP3 PUSH1 0x40 MLOAD SWAP1 PUSH3 0x461BCD PUSH1 0xE5 SHL DUP3 MSTORE PUSH1 0x4 DUP3 ADD MSTORE PUSH1 0x1D PUSH1 0x24 DUP3 ADD MSTORE PUSH32 0x4D7573742068617665207374616B6564204C59544820746F20766F7465000000 PUSH1 0x44 DUP3 ADD MSTORE REVERT JUMPDEST DUP4 DUP1 REVERT JUMPDEST POP CALLVALUE PUSH2 0x246 JUMPI PUSH1 0x20 PUSH1 0x3 NOT CALLDATASIZE ADD SLT PUSH2 0x246 JUMPI PUSH20 0xFFFFFFFFFFFFFFFFFFFFFFFFFFFFFFFFFFFFFFFF PUSH2 0x165E PUSH2 0x1D3B JUMP JUMPDEST PUSH2 0x1666 PUSH2 0x1EC9 JUMP JUMPDEST AND DUP1 DUP3 MSTORE PUSH1 0xF PUSH1 0x20 MSTORE PUSH1 0x40 DUP3 KECCAK256 PUSH1 0x1 PUSH1 0xFF NOT DUP3 SLOAD AND OR SWAP1 SSTORE PUSH32 0xAAB7954E9D246B167EF88AEDDAD35209CA2489D95A8AEB59E288D9B19FAE5A54 DUP3 DUP1 LOG2 DUP1 RETURN JUMPDEST POP CALLVALUE PUSH2 0x246 JUMPI PUSH1 0x20 DUP1 PUSH1 0x3 NOT CALLDATASIZE ADD SLT PUSH2 0x1339 JUMPI PUSH1 0x4 CALLDATALOAD PUSH2 0x16C3 PUSH2 0x1EC9 JUMP JUMPDEST PUSH2 0x16CB PUSH2 0x1F1A JUMP JUMPDEST PUSH2 0x16D3 PUSH2 0x1F50 JUMP JUMPDEST DUP1 DUP4 MSTORE PUSH1 0xB DUP3 MSTORE PUSH1 0x40 DUP4 KECCAK256 PUSH1 0x4 DUP2 ADD SWAP1 DUP2 SLOAD SWAP2 PUSH1 0xFF DUP4 AND PUSH2 0x18E9 JUMPI PUSH1 0x5 DUP3 ADD SLOAD TIMESTAMP LT PUSH2 0x18A5 JUMPI PUSH1 0x2 DUP3 ADD SLOAD PUSH1 0x3 DUP4 ADD SLOAD LT ISZERO PUSH2 0x1861 JUMPI SWAP1 DUP6 SWAP2 PUSH1 0x1 SWAP1 PUSH1 0x1 PUSH1 0xFF NOT DUP1 SWAP7 AND OR SWAP1 SSTORE PUSH1 0x8 PUSH20 0xFFFFFFFFFFFFFFFFFFFFFFFFFFFFFFFFFFFFFFFF PUSH1 0x7 DUP5 ADD SLOAD AND SWAP3 ADD SWAP4 PUSH1 0x40 MLOAD SWAP2 DUP5 SWAP6 DUP1 SLOAD PUSH2 0x174B DUP2 PUSH2 0x1BD3 JUMP JUMPDEST SWAP4 PUSH1 0x1 DUP3 AND SWAP2 DUP3 ISZERO PUSH2 0x184B JUMPI POP POP PUSH1 0x1 EQ PUSH2 0x1813 JUMPI JUMPDEST POP POP POP DUP3 DUP2 DUP2 SWAP6 SUB SWAP3 GAS CALL RETURNDATASIZE ISZERO PUSH2 0x180E JUMPI RETURNDATASIZE PUSH2 0x177C DUP2 PUSH2 0x1D86 JUMP JUMPDEST SWAP1 PUSH2 0x178A PUSH1 0x40 MLOAD SWAP3 DUP4 PUSH2 0x1CD8 JUMP JUMPDEST DUP2 MSTORE DUP5 DUP5 RETURNDATASIZE SWAP3 ADD RETURNDATACOPY JUMPDEST ISZERO PUSH2 0x17CA JUMPI SWAP1 PUSH32 0x712AE1383F79AC853F8D882153778E0260EF8F03B504E2866E0593E04D2B291F SWAP2 PUSH1 0x40 MLOAD SWAP1 DUP2 MSTORE LOG1 PUSH1 0x1 PUSH1 0x6 SSTORE DUP1 RETURN JUMPDEST PUSH1 0x64 DUP3 PUSH1 0x40 MLOAD SWAP1 PUSH3 0x461BCD PUSH1 0xE5 SHL DUP3 MSTORE PUSH1 0x4 DUP3 ADD MSTORE PUSH1 0x19 PUSH1 0x24 DUP3 ADD MSTORE PUSH32 0x50726F706F73616C20657865637574696F6E206661696C656400000000000000 PUSH1 0x44 DUP3 ADD MSTORE REVERT JUMPDEST PUSH2 0x1793 JUMP JUMPDEST DUP9 SWAP7 POP DUP6 MSTORE DUP6 DUP6 KECCAK256 SWAP1 DUP6 SWAP2 JUMPDEST DUP4 DUP4 LT PUSH2 0x1835 JUMPI POP POP POP DUP2 ADD SWAP4 POP DUP3 DUP2 DUP2 PUSH2 0x1761 JUMP JUMPDEST DUP1 SLOAD DUP4 DUP7 ADD MSTORE DUP10 SWAP8 DUP12 SWAP8 POP SWAP1 SWAP3 ADD SWAP2 DUP2 ADD PUSH2 0x181F JUMP JUMPDEST AND DUP6 MSTORE POP POP POP DUP1 ISZERO ISZERO MUL DUP2 ADD SWAP4 POP DUP3 DUP2 DUP2 PUSH2 0x1761 JUMP JUMPDEST PUSH1 0x64 DUP6 PUSH1 0x40 MLOAD SWAP1 PUSH3 0x461BCD PUSH1 0xE5 SHL DUP3 MSTORE PUSH1 0x4 DUP3 ADD MSTORE PUSH1 0x18 PUSH1 0x24 DUP3 ADD MSTORE PUSH32 0x4E6F7420656E6F75676820766F74657320746F20706173730000000000000000 PUSH1 0x44 DUP3 ADD MSTORE REVERT JUMPDEST PUSH1 0x64 DUP6 PUSH1 0x40 MLOAD SWAP1 PUSH3 0x461BCD PUSH1 0xE5 SHL DUP3 MSTORE PUSH1 0x4 DUP3 ADD MSTORE PUSH1 0x16 PUSH1 0x24 DUP3 ADD MSTORE PUSH32 0x457865637574696F6E2064656C61792061637469766500000000000000000000 PUSH1 0x44 DUP3 ADD MSTORE REVERT JUMPDEST PUSH1 0x64 DUP6 PUSH1 0x40 MLOAD SWAP1 PUSH3 0x461BCD PUSH1 0xE5 SHL DUP3 MSTORE PUSH1 0x4 DUP3 ADD MSTORE PUSH1 0x10 PUSH1 0x24 DUP3 ADD MSTORE PUSH32 0x416C726561647920657865637574656400000000000000000000000000000000 PUSH1 0x44 DUP3 ADD MSTORE REVERT JUMPDEST POP CALLVALUE PUSH2 0x246 JUMPI PUSH1 0x40 PUSH1 0x3 NOT CALLDATASIZE ADD SLT PUSH2 0x246 JUMPI PUSH2 0x1947 PUSH2 0x1D3B JUMP JUMPDEST PUSH1 0x24 CALLDATALOAD SWAP1 CALLER ISZERO PUSH2 0x19ED JUMPI PUSH20 0xFFFFFFFFFFFFFFFFFFFFFFFFFFFFFFFFFFFFFFFF AND SWAP2 DUP3 ISZERO PUSH2 0x19BC JUMPI PUSH1 0x40 DUP3 SWAP2 CALLER DUP2 MSTORE PUSH1 0x1 PUSH1 0x20 MSTORE DUP2 DUP2 KECCAK256 DUP6 DUP3 MSTORE PUSH1 0x20 MSTORE KECCAK256 SSTORE PUSH1 0x40 MLOAD SWAP1 DUP2 MSTORE PUSH32 0x8C5BE1E5EBEC7D5BD14F71427D1E84F3DD0314C0F7B2291E5B200AC8C7C3B925 PUSH1 0x20 CALLER SWAP3 LOG3 PUSH1 0x20 PUSH1 0x40 MLOAD PUSH1 0x1 DUP2 MSTORE RETURN JUMPDEST PUSH1 0x24 SWAP1 PUSH1 0x40 MLOAD SWAP1 PUSH32 0x94280D6200000000000000000000000000000000000000000000000000000000 DUP3 MSTORE PUSH1 0x4 DUP3 ADD MSTORE REVERT JUMPDEST PUSH1 0x24 DUP4 PUSH1 0x40 MLOAD SWAP1 PUSH32 0xE602DF0500000000000000000000000000000000000000000000000000000000 DUP3 MSTORE PUSH1 0x4 DUP3 ADD MSTORE REVERT JUMPDEST POP CALLVALUE PUSH2 0x246 JUMPI DUP1 PUSH1 0x3 NOT CALLDATASIZE ADD SLT PUSH2 0x246 JUMPI PUSH1 0x40 MLOAD SWAP1 DUP1 DUP3 PUSH1 0x3 SLOAD SWAP2 PUSH2 0x1A42 DUP4 PUSH2 0x1BD3 JUMP JUMPDEST SWAP3 DUP4 DUP4 MSTORE PUSH1 0x20 SWAP5 PUSH1 0x1 SWAP2 DUP7 PUSH1 0x1 DUP3 AND SWAP2 DUP3 PUSH1 0x0 EQ PUSH2 0x1ACC JUMPI POP POP PUSH1 0x1 EQ PUSH2 0x1A72 JUMPI JUMPDEST POP POP PUSH2 0x455 SWAP3 POP SUB DUP4 PUSH2 0x1CD8 JUMP JUMPDEST SWAP1 DUP6 SWAP3 POP PUSH1 0x3 DUP3 MSTORE PUSH32 0xC2575A0E9E593C00F959F8C92F12DB2869C3395A3B0502D05E2516446F71F85B JUMPDEST DUP6 DUP4 LT PUSH2 0x1AB4 JUMPI POP POP PUSH2 0x455 SWAP4 POP DUP3 ADD ADD CODESIZE DUP1 PUSH2 0x1A64 JUMP JUMPDEST DUP1 SLOAD DUP4 DUP10 ADD DUP6 ADD MSTORE DUP8 SWAP5 POP DUP7 SWAP4 SWAP1 SWAP3 ADD SWAP2 DUP2 ADD PUSH2 0x1A9C JUMP JUMPDEST SWAP2 POP SWAP4 POP PUSH2 0x455 SWAP6 SWAP3 POP PUSH1 0xFF NOT SWAP2 POP AND DUP3 DUP5 ADD MSTORE ISZERO ISZERO PUSH1 0x5 SHL DUP3 ADD ADD CODESIZE DUP1 PUSH2 0x1A64 JUMP JUMPDEST DUP3 CALLVALUE PUSH2 0x246 JUMPI PUSH1 0x20 PUSH1 0x3 NOT CALLDATASIZE ADD SLT PUSH2 0x246 JUMPI PUSH1 0x40 SWAP1 PUSH1 0x4 CALLDATALOAD DUP2 MSTORE PUSH1 0xB PUSH1 0x20 MSTORE KECCAK256 PUSH2 0x469 DUP2 SLOAD SWAP2 PUSH2 0x1B2D DUP5 PUSH2 0x1B26 DUP2 PUSH1 0x1 DUP6 ADD PUSH2 0x1C26 JUMP JUMPDEST SUB DUP6 PUSH2 0x1CD8 JUMP JUMPDEST PUSH1 0x8 PUSH1 0x2 DUP3 ADD SLOAD SWAP2 PUSH1 0x3 DUP2 ADD SLOAD PUSH1 0xFF PUSH1 0x4 DUP4 ADD SLOAD AND PUSH1 0x5 DUP4 ADD SLOAD SWAP1 PUSH20 0xFFFFFFFFFFFFFFFFFFFFFFFFFFFFFFFFFFFFFFFF SWAP3 PUSH2 0x1B87 DUP5 PUSH1 0x6 DUP8 ADD SLOAD AND SWAP5 PUSH1 0x7 DUP8 ADD SLOAD AND SWAP6 PUSH2 0x1B80 PUSH1 0x40 MLOAD DUP1 SWAP10 DUP2 SWAP4 ADD PUSH2 0x1C26 JUMP JUMPDEST SUB DUP8 PUSH2 0x1CD8 JUMP JUMPDEST PUSH2 0x1BA4 PUSH1 0x40 MLOAD SWAP11 DUP12 SWAP11 PUSH2 0x120 SWAP1 DUP13 MSTORE DUP1 PUSH1 0x20 DUP14 ADD MSTORE DUP12 ADD SWAP1 PUSH2 0x1CFB JUMP JUMPDEST SWAP7 PUSH1 0x40 DUP11 ADD MSTORE PUSH1 0x60 DUP10 ADD MSTORE ISZERO ISZERO PUSH1 0x80 DUP9 ADD MSTORE PUSH1 0xA0 DUP8 ADD MSTORE PUSH1 0xC0 DUP7 ADD MSTORE PUSH1 0xE0 DUP6 ADD MSTORE DUP4 DUP3 SUB PUSH2 0x100 DUP6 ADD MSTORE PUSH2 0x1CFB JUMP JUMPDEST SWAP1 PUSH1 0x1 DUP3 DUP2 SHR SWAP3 AND DUP1 ISZERO PUSH2 0x1C1C JUMPI JUMPDEST PUSH1 0x20 DUP4 LT EQ PUSH2 0x1BED JUMPI JUMP JUMPDEST PUSH32 0x4E487B7100000000000000000000000000000000000000000000000000000000 PUSH1 0x0 MSTORE PUSH1 0x22 PUSH1 0x4 MSTORE PUSH1 0x24 PUSH1 0x0 REVERT JUMPDEST SWAP2 PUSH1 0x7F AND SWAP2 PUSH2 0x1BE2 JUMP JUMPDEST DUP1 SLOAD PUSH1 0x0 SWAP4 SWAP3 PUSH2 0x1C35 DUP3 PUSH2 0x1BD3 JUMP JUMPDEST SWAP2 DUP3 DUP3 MSTORE PUSH1 0x20 SWAP4 PUSH1 0x1 SWAP2 PUSH1 0x1 DUP2 AND SWAP1 DUP2 PUSH1 0x0 EQ PUSH2 0x1C9D JUMPI POP PUSH1 0x1 EQ PUSH2 0x1C5C JUMPI JUMPDEST POP POP POP POP POP JUMP JUMPDEST SWAP1 SWAP4 SWAP5 SWAP6 POP PUSH1 0x0 SWAP3 SWAP2 SWAP3 MSTORE DUP4 PUSH1 0x0 KECCAK256 SWAP3 DUP5 PUSH1 0x0 SWAP5 JUMPDEST DUP4 DUP7 LT PUSH2 0x1C89 JUMPI POP POP POP POP ADD ADD SWAP1 CODESIZE DUP1 DUP1 DUP1 DUP1 PUSH2 0x1C55 JUMP JUMPDEST DUP1 SLOAD DUP6 DUP8 ADD DUP4 ADD MSTORE SWAP5 ADD SWAP4 DUP6 SWAP1 DUP3 ADD PUSH2 0x1C71 JUMP JUMPDEST PUSH1 0xFF NOT AND DUP7 DUP6 ADD MSTORE POP POP POP SWAP1 ISZERO ISZERO PUSH1 0x5 SHL ADD ADD SWAP2 POP CODESIZE DUP1 DUP1 DUP1 DUP1 PUSH2 0x1C55 JUMP JUMPDEST PUSH1 0x40 DUP2 ADD SWAP1 DUP2 LT PUSH8 0xFFFFFFFFFFFFFFFF DUP3 GT OR PUSH2 0x647 JUMPI PUSH1 0x40 MSTORE JUMP JUMPDEST SWAP1 PUSH1 0x1F PUSH1 0x1F NOT SWAP2 ADD AND DUP2 ADD SWAP1 DUP2 LT PUSH8 0xFFFFFFFFFFFFFFFF DUP3 GT OR PUSH2 0x647 JUMPI PUSH1 0x40 MSTORE JUMP JUMPDEST SWAP2 SWAP1 DUP3 MLOAD SWAP3 DUP4 DUP3 MSTORE PUSH1 0x0 JUMPDEST DUP5 DUP2 LT PUSH2 0x1D27 JUMPI POP POP PUSH1 0x1F NOT PUSH1 0x1F DUP5 PUSH1 0x0 PUSH1 0x20 DUP1 SWAP7 SWAP8 DUP7 ADD ADD MSTORE ADD AND ADD ADD SWAP1 JUMP JUMPDEST PUSH1 0x20 DUP2 DUP4 ADD DUP2 ADD MLOAD DUP5 DUP4 ADD DUP3 ADD MSTORE ADD PUSH2 0x1D06 JUMP JUMPDEST PUSH1 0x4 CALLDATALOAD SWAP1 PUSH20 0xFFFFFFFFFFFFFFFFFFFFFFFFFFFFFFFFFFFFFFFF DUP3 AND DUP3 SUB PUSH2 0x1D5E JUMPI JUMP JUMPDEST PUSH1 0x0 DUP1 REVERT JUMPDEST PUSH1 0x24 CALLDATALOAD SWAP1 PUSH20 0xFFFFFFFFFFFFFFFFFFFFFFFFFFFFFFFFFFFFFFFF DUP3 AND DUP3 SUB PUSH2 0x1D5E JUMPI JUMP JUMPDEST PUSH8 0xFFFFFFFFFFFFFFFF DUP2 GT PUSH2 0x647 JUMPI PUSH1 0x1F ADD PUSH1 0x1F NOT AND PUSH1 0x20 ADD SWAP1 JUMP JUMPDEST SWAP3 SWAP2 SWAP3 PUSH2 0x1DAE DUP3 PUSH2 0x1D86 JUMP JUMPDEST SWAP2 PUSH2 0x1DBC PUSH1 0x40 MLOAD SWAP4 DUP5 PUSH2 0x1CD8 JUMP JUMPDEST DUP3 SWAP5 DUP2 DUP5 MSTORE DUP2 DUP4 ADD GT PUSH2 0x1D5E JUMPI DUP3 DUP2 PUSH1 0x20 SWAP4 DUP5 PUSH1 0x0 SWAP7 ADD CALLDATACOPY ADD ADD MSTORE JUMP JUMPDEST SWAP2 SWAP1 DUP3 ADD DUP1 SWAP3 GT PUSH2 0x1DE6 JUMPI JUMP JUMPDEST PUSH32 0x4E487B7100000000000000000000000000000000000000000000000000000000 PUSH1 0x0 MSTORE PUSH1 0x11 PUSH1 0x4 MSTORE PUSH1 0x24 PUSH1 0x0 REVERT JUMPDEST SWAP1 PUSH1 0x1F DUP2 GT PUSH2 0x1E23 JUMPI POP POP POP JUMP JUMPDEST PUSH1 0x0 SWAP2 PUSH1 0x0 MSTORE PUSH1 0x20 PUSH1 0x0 KECCAK256 SWAP1 PUSH1 0x20 PUSH1 0x1F DUP6 ADD PUSH1 0x5 SHR DUP4 ADD SWAP5 LT PUSH2 0x1E61 JUMPI JUMPDEST PUSH1 0x1F ADD PUSH1 0x5 SHR ADD SWAP2 JUMPDEST DUP3 DUP2 LT PUSH2 0x1E56 JUMPI POP POP POP JUMP JUMPDEST DUP2 DUP2 SSTORE PUSH1 0x1 ADD PUSH2 0x1E4A JUMP JUMPDEST SWAP1 SWAP3 POP DUP3 SWAP1 PUSH2 0x1E41 JUMP JUMPDEST ISZERO PUSH2 0x1E72 JUMPI JUMP JUMPDEST PUSH1 0x64 PUSH1 0x40 MLOAD PUSH3 0x461BCD PUSH1 0xE5 SHL DUP2 MSTORE PUSH1 0x20 PUSH1 0x4 DUP3 ADD MSTORE PUSH1 0xE PUSH1 0x24 DUP3 ADD MSTORE PUSH32 0x4E6F207374616B6564204C595448000000000000000000000000000000000000 PUSH1 0x44 DUP3 ADD MSTORE REVERT JUMPDEST DUP2 DUP2 MUL SWAP3 SWAP2 DUP2 ISZERO SWAP2 DUP5 DIV EQ OR ISZERO PUSH2 0x1DE6 JUMPI JUMP JUMPDEST PUSH20 0xFFFFFFFFFFFFFFFFFFFFFFFFFFFFFFFFFFFFFFFF PUSH1 0x5 SLOAD AND CALLER SUB PUSH2 0x1EEA JUMPI JUMP JUMPDEST PUSH1 0x24 PUSH1 0x40 MLOAD PUSH32 0x118CDAA700000000000000000000000000000000000000000000000000000000 DUP2 MSTORE CALLER PUSH1 0x4 DUP3 ADD MSTORE REVERT JUMPDEST PUSH1 0xFF PUSH1 0x7 SLOAD AND PUSH2 0x1F26 JUMPI JUMP JUMPDEST PUSH1 0x4 PUSH1 0x40 MLOAD PUSH32 0xD93C066500000000000000000000000000000000000000000000000000000000 DUP2 MSTORE REVERT JUMPDEST PUSH1 0x2 PUSH1 0x6 SLOAD EQ PUSH2 0x1F61 JUMPI PUSH1 0x2 PUSH1 0x6 SSTORE JUMP JUMPDEST PUSH1 0x4 PUSH1 0x40 MLOAD PUSH32 0x3EE5AEB500000000000000000000000000000000000000000000000000000000 DUP2 MSTORE REVERT JUMPDEST SWAP2 PUSH20 0xFFFFFFFFFFFFFFFFFFFFFFFFFFFFFFFFFFFFFFFF DUP1 DUP5 AND SWAP3 DUP4 ISZERO PUSH2 0x209B JUMPI AND SWAP3 DUP4 ISZERO PUSH2 0x206A JUMPI PUSH1 0x0 SWAP1 DUP4 DUP3 MSTORE DUP2 PUSH1 0x20 MSTORE PUSH1 0x40 DUP3 KECCAK256 SLOAD SWAP1 DUP4 DUP3 LT PUSH2 0x2012 JUMPI POP SWAP2 PUSH1 0x40 DUP3 DUP3 PUSH32 0xDDF252AD1BE2C89B69C2B068FC378DAA952BA7F163C4A11628F55A4DF523B3EF SWAP6 DUP8 PUSH1 0x20 SWAP7 MSTORE DUP3 DUP7 MSTORE SUB DUP3 DUP3 KECCAK256 SSTORE DUP7 DUP2 MSTORE KECCAK256 DUP2 DUP2 SLOAD ADD SWAP1 SSTORE PUSH1 0x40 MLOAD SWAP1 DUP2 MSTORE LOG3 JUMP JUMPDEST PUSH1 0x40 MLOAD PUSH32 0xE450D38C00000000000000000000000000000000000000000000000000000000 DUP2 MSTORE PUSH20 0xFFFFFFFFFFFFFFFFFFFFFFFFFFFFFFFFFFFFFFFF SWAP2 SWAP1 SWAP2 AND PUSH1 0x4 DUP3 ADD MSTORE PUSH1 0x24 DUP2 ADD SWAP2 SWAP1 SWAP2 MSTORE PUSH1 0x44 DUP2 ADD DUP4 SWAP1 MSTORE PUSH1 0x64 SWAP1 REVERT JUMPDEST PUSH1 0x24 PUSH1 0x40 MLOAD PUSH32 0xEC442F0500000000000000000000000000000000000000000000000000000000 DUP2 MSTORE PUSH1 0x0 PUSH1 0x4 DUP3 ADD MSTORE REVERT JUMPDEST PUSH1 0x24 PUSH1 0x40 MLOAD PUSH32 0x96C6FD1E00000000000000000000000000000000000000000000000000000000 DUP2 MSTORE PUSH1 0x0 PUSH1 0x4 DUP3 ADD MSTORE REVERT JUMPDEST PUSH1 0xFF DUP2 EQ PUSH2 0x2122 JUMPI PUSH1 0xFF DUP2 AND SWAP1 PUSH1 0x1F DUP3 GT PUSH2 0x20F8 JUMPI PUSH1 0x40 MLOAD SWAP2 PUSH2 0x20EE DUP4 PUSH2 0x1CBC JUMP JUMPDEST DUP3 MSTORE PUSH1 0x20 DUP3 ADD MSTORE SWAP1 JUMP JUMPDEST PUSH1 0x4 PUSH1 0x40 MLOAD PUSH32 0xB3512B0C00000000000000000000000000000000000000000000000000000000 DUP2 MSTORE REVERT JUMPDEST POP PUSH1 0x40 MLOAD PUSH1 0x8 SLOAD DUP2 PUSH1 0x0 PUSH2 0x2135 DUP4 PUSH2 0x1BD3 JUMP JUMPDEST DUP1 DUP4 MSTORE SWAP3 PUSH1 0x20 SWAP1 PUSH1 0x1 SWAP1 DUP2 DUP2 AND SWAP1 DUP2 ISZERO PUSH2 0x21C4 JUMPI POP PUSH1 0x1 EQ PUSH2 0x2163 JUMPI JUMPDEST POP POP PUSH2 0x2160 SWAP3 POP SUB DUP3 PUSH2 0x1CD8 JUMP JUMPDEST SWAP1 JUMP JUMPDEST SWAP2 POP SWAP3 PUSH1 0x8 PUSH1 0x0 MSTORE PUSH32 0xF3F7A9FE364FAAB93B216DA50A3214154F22A0A2B415B23A84C8169E8B636EE3 SWAP4 PUSH1 0x0 SWAP3 JUMPDEST DUP3 DUP5 LT PUSH2 0x21AC JUMPI POP PUSH2 0x2160 SWAP5 POP POP POP DUP2 ADD PUSH1 0x20 ADD CODESIZE DUP1 PUSH2 0x2152 JUMP JUMPDEST DUP6 SLOAD DUP8 DUP6 ADD DUP4 ADD MSTORE SWAP5 DUP6 ADD SWAP5 DUP7 SWAP5 POP SWAP3 DUP2 ADD SWAP3 PUSH2 0x2191 JUMP JUMPDEST SWAP1 POP PUSH1 0x20 SWAP4 POP PUSH2 0x2160 SWAP6 SWAP3 POP PUSH1 0xFF NOT SWAP2 POP AND DUP3 DUP5 ADD MSTORE ISZERO ISZERO PUSH1 0x5 SHL DUP3 ADD ADD CODESIZE DUP1 PUSH2 0x2152 JUMP JUMPDEST PUSH1 0xFF DUP2 EQ PUSH2 0x220B JUMPI PUSH1 0xFF DUP2 AND SWAP1 PUSH1 0x1F DUP3 GT PUSH2 0x20F8 JUMPI PUSH1 0x40 MLOAD SWAP2 PUSH2 0x20EE DUP4 PUSH2 0x1CBC JUMP JUMPDEST POP PUSH1 0x40 MLOAD PUSH1 0x9 SLOAD DUP2 PUSH1 0x0 PUSH2 0x221E DUP4 PUSH2 0x1BD3 JUMP JUMPDEST DUP1 DUP4 MSTORE SWAP3 PUSH1 0x20 SWAP1 PUSH1 0x1 SWAP1 DUP2 DUP2 AND SWAP1 DUP2 ISZERO PUSH2 0x21C4 JUMPI POP PUSH1 0x1 EQ PUSH2 0x2248 JUMPI POP POP PUSH2 0x2160 SWAP3 POP SUB DUP3 PUSH2 0x1CD8 JUMP JUMPDEST SWAP2 POP SWAP3 PUSH1 0x9 PUSH1 0x0 MSTORE PUSH32 0x6E1540171B6C0C960B71A7020D9F60077F6AF931A8BBF590DA0223DACF75C7AF SWAP4 PUSH1 0x0 SWAP3 JUMPDEST DUP3 DUP5 LT PUSH2 0x2291 JUMPI POP PUSH2 0x2160 SWAP5 POP POP POP DUP2 ADD PUSH1 0x20 ADD CODESIZE DUP1 PUSH2 0x2152 JUMP JUMPDEST DUP6 SLOAD DUP8 DUP6 ADD DUP4 ADD MSTORE SWAP5 DUP6 ADD SWAP5 DUP7 SWAP5 POP SWAP3 DUP2 ADD SWAP3 PUSH2 0x2276 JUMP INVALID LOG2 PUSH5 0x6970667358 0x22 SLT KECCAK256 SSTORE PUSH19 0x1F86DD9902CA9573AFA13769577A741BF0CF39 ORIGIN STOP 0xDA SGT XOR 0xD7 0xDF SUB DUP4 LOG0 MSTORE PUSH5 0x736F6C6343 STOP ADDMOD AND STOP CALLER "},"methodIdentifiers":{"addWhitelisted(address)":"10154bad","allowance(address,address)":"dd62ed3e","approve(address,uint256)":"095ea7b3","balanceOf(address)":"70a08231","claimStakingRewards()":"6b69e05b","createProposal(string,address,bytes)":"2821ff26","decimals()":"313ce567","eip712Domain()":"84b0196e","executeProposal(uint256)":"0d61b519","executeTreasuryTransaction(uint256,address,uint256)":"779df4e9","finalizeProposal(uint256)":"5652077c","hasVoted(uint256,address)":"43859632","isWhitelisted(address)":"3af32abf","name()":"06fdde03","owner()":"8da5cb5b","pause()":"8456cb59","paused()":"5c975abb","proposals(uint256)":"013cf08b","removeWhitelisted(address)":"291d9549","renounceOwnership()":"715018a6","setStakingRewardRate(uint256)":"b7d68519","stakeTokens(uint256)":"7547c7a3","stakingRewardRate()":"4f3fc2df","symbol()":"95d89b41","totalSupply()":"18160ddd","transfer(address,uint256)":"a9059cbb","transferFrom(address,address,uint256)":"23b872dd","transferOwnership(address)":"f2fde38b","treasury()":"61d027b3","unpause()":"3f4ba83a","unstakeTokens()":"a5ce413b","voteOnProposal(uint256,bool)":"1614665c"}}}}}