{
  "_format": "hh-sol-artifact-1",
  "contractName": "Governance",
  "sourceName": "contracts/Governance.sol",
  "abi": [
    {
      "inputs": [
        {
          "internalType": "address",
          "name": "initialOwner",
          "type": "address"
        },
        {
          "internalType": "address",
          "name": "_governanceToken",
          "type": "address"
        }
      ],
      "stateMutability": "nonpayable",
      "type": "constructor"
    },
    {
      "inputs": [],
      "name": "EnforcedPause",
      "type": "error"
    },
    {
      "inputs": [],
      "name": "ExpectedPause",
      "type": "error"
    },
    {
      "inputs": [
        {
          "internalType": "address",
          "name": "owner",
          "type": "address"
        }
      ],
      "name": "OwnableInvalidOwner",
      "type": "error"
    },
    {
      "inputs": [
        {
          "internalType": "address",
          "name": "account",
          "type": "address"
        }
      ],
      "name": "OwnableUnauthorizedAccount",
      "type": "error"
    },
    {
      "anonymous": false,
      "inputs": [
        {
          "indexed": false,
          "internalType": "uint256",
          "name": "newDelay",
          "type": "uint256"
        }
      ],
      "name": "ExecutionDelayUpdated",
      "type": "event"
    },
    {
      "anonymous": false,
      "inputs": [
        {
          "indexed": true,
          "internalType": "address",
          "name": "previousOwner",
          "type": "address"
        },
        {
          "indexed": true,
          "internalType": "address",
          "name": "newOwner",
          "type": "address"
        }
      ],
      "name": "OwnershipTransferred",
      "type": "event"
    },
    {
      "anonymous": false,
      "inputs": [
        {
          "indexed": false,
          "internalType": "address",
          "name": "account",
          "type": "address"
        }
      ],
      "name": "Paused",
      "type": "event"
    },
    {
      "anonymous": false,
      "inputs": [
        {
          "indexed": false,
          "internalType": "uint256",
          "name": "proposalId",
          "type": "uint256"
        }
      ],
      "name": "ProposalCanceled",
      "type": "event"
    },
    {
      "anonymous": false,
      "inputs": [
        {
          "indexed": false,
          "internalType": "uint256",
          "name": "proposalId",
          "type": "uint256"
        },
        {
          "indexed": false,
          "internalType": "string",
          "name": "description",
          "type": "string"
        },
        {
          "indexed": false,
          "internalType": "address",
          "name": "proposer",
          "type": "address"
        },
        {
          "indexed": false,
          "internalType": "uint256",
          "name": "endTime",
          "type": "uint256"
        }
      ],
      "name": "ProposalCreated",
      "type": "event"
    },
    {
      "anonymous": false,
      "inputs": [
        {
          "indexed": false,
          "internalType": "uint256",
          "name": "proposalId",
          "type": "uint256"
        }
      ],
      "name": "ProposalExecuted",
      "type": "event"
    },
    {
      "anonymous": false,
      "inputs": [
        {
          "indexed": true,
          "internalType": "address",
          "name": "user",
          "type": "address"
        }
      ],
      "name": "RemovedFromWhitelist",
      "type": "event"
    },
    {
      "anonymous": false,
      "inputs": [
        {
          "indexed": false,
          "internalType": "address",
          "name": "account",
          "type": "address"
        }
      ],
      "name": "Unpaused",
      "type": "event"
    },
    {
      "anonymous": false,
      "inputs": [
        {
          "indexed": false,
          "internalType": "uint256",
          "name": "proposalId",
          "type": "uint256"
        },
        {
          "indexed": false,
          "internalType": "address",
          "name": "voter",
          "type": "address"
        },
        {
          "indexed": false,
          "internalType": "bool",
          "name": "vote",
          "type": "bool"
        }
      ],
      "name": "Voted",
      "type": "event"
    },
    {
      "anonymous": false,
      "inputs": [
        {
          "indexed": false,
          "internalType": "uint256",
          "name": "newPeriod",
          "type": "uint256"
        }
      ],
      "name": "VotingPeriodUpdated",
      "type": "event"
    },
    {
      "anonymous": false,
      "inputs": [
        {
          "indexed": true,
          "internalType": "address",
          "name": "user",
          "type": "address"
        }
      ],
      "name": "Whitelisted",
      "type": "event"
    },
    {
      "inputs": [
        {
          "internalType": "address",
          "name": "user",
          "type": "address"
        }
      ],
      "name": "addWhitelisted",
      "outputs": [],
      "stateMutability": "nonpayable",
      "type": "function"
    },
    {
      "inputs": [
        {
          "internalType": "uint256",
          "name": "proposalId",
          "type": "uint256"
        }
      ],
      "name": "cancelProposal",
      "outputs": [],
      "stateMutability": "nonpayable",
      "type": "function"
    },
    {
      "inputs": [
        {
          "internalType": "string",
          "name": "description",
          "type": "string"
        },
        {
          "internalType": "address",
          "name": "targetContract",
          "type": "address"
        },
        {
          "internalType": "bytes",
          "name": "data",
          "type": "bytes"
        }
      ],
      "name": "createProposal",
      "outputs": [],
      "stateMutability": "nonpayable",
      "type": "function"
    },
    {
      "inputs": [
        {
          "internalType": "uint256",
          "name": "proposalId",
          "type": "uint256"
        }
      ],
      "name": "executeProposal",
      "outputs": [],
      "stateMutability": "nonpayable",
      "type": "function"
    },
    {
      "inputs": [],
      "name": "executionDelay",
      "outputs": [
        {
          "internalType": "uint256",
          "name": "",
          "type": "uint256"
        }
      ],
      "stateMutability": "view",
      "type": "function"
    },
    {
      "inputs": [
        {
          "internalType": "uint256",
          "name": "proposalId",
          "type": "uint256"
        }
      ],
      "name": "finalizeProposal",
      "outputs": [],
      "stateMutability": "nonpayable",
      "type": "function"
    },
    {
      "inputs": [],
      "name": "governanceToken",
      "outputs": [
        {
          "internalType": "contract IERC20",
          "name": "",
          "type": "address"
        }
      ],
      "stateMutability": "view",
      "type": "function"
    },
    {
      "inputs": [
        {
          "internalType": "uint256",
          "name": "",
          "type": "uint256"
        },
        {
          "internalType": "address",
          "name": "",
          "type": "address"
        }
      ],
      "name": "hasVoted",
      "outputs": [
        {
          "internalType": "bool",
          "name": "",
          "type": "bool"
        }
      ],
      "stateMutability": "view",
      "type": "function"
    },
    {
      "inputs": [
        {
          "internalType": "address",
          "name": "",
          "type": "address"
        }
      ],
      "name": "isWhitelisted",
      "outputs": [
        {
          "internalType": "bool",
          "name": "",
          "type": "bool"
        }
      ],
      "stateMutability": "view",
      "type": "function"
    },
    {
      "inputs": [],
      "name": "owner",
      "outputs": [
        {
          "internalType": "address",
          "name": "",
          "type": "address"
        }
      ],
      "stateMutability": "view",
      "type": "function"
    },
    {
      "inputs": [],
      "name": "pauseGovernance",
      "outputs": [],
      "stateMutability": "nonpayable",
      "type": "function"
    },
    {
      "inputs": [],
      "name": "paused",
      "outputs": [
        {
          "internalType": "bool",
          "name": "",
          "type": "bool"
        }
      ],
      "stateMutability": "view",
      "type": "function"
    },
    {
      "inputs": [],
      "name": "proposalCount",
      "outputs": [
        {
          "internalType": "uint256",
          "name": "",
          "type": "uint256"
        }
      ],
      "stateMutability": "view",
      "type": "function"
    },
    {
      "inputs": [
        {
          "internalType": "uint256",
          "name": "",
          "type": "uint256"
        }
      ],
      "name": "proposals",
      "outputs": [
        {
          "internalType": "uint256",
          "name": "id",
          "type": "uint256"
        },
        {
          "internalType": "string",
          "name": "description",
          "type": "string"
        },
        {
          "internalType": "uint256",
          "name": "votesFor",
          "type": "uint256"
        },
        {
          "internalType": "uint256",
          "name": "votesAgainst",
          "type": "uint256"
        },
        {
          "internalType": "uint256",
          "name": "endTime",
          "type": "uint256"
        },
        {
          "internalType": "uint256",
          "name": "executionTime",
          "type": "uint256"
        },
        {
          "internalType": "bool",
          "name": "executed",
          "type": "bool"
        },
        {
          "internalType": "bool",
          "name": "canceled",
          "type": "bool"
        },
        {
          "internalType": "address",
          "name": "proposer",
          "type": "address"
        },
        {
          "internalType": "address",
          "name": "targetContract",
          "type": "address"
        },
        {
          "internalType": "bytes",
          "name": "data",
          "type": "bytes"
        }
      ],
      "stateMutability": "view",
      "type": "function"
    },
    {
      "inputs": [
        {
          "internalType": "address",
          "name": "user",
          "type": "address"
        }
      ],
      "name": "removeWhitelisted",
      "outputs": [],
      "stateMutability": "nonpayable",
      "type": "function"
    },
    {
      "inputs": [],
      "name": "renounceOwnership",
      "outputs": [],
      "stateMutability": "nonpayable",
      "type": "function"
    },
    {
      "inputs": [
        {
          "internalType": "uint256",
          "name": "newDelay",
          "type": "uint256"
        }
      ],
      "name": "setExecutionDelay",
      "outputs": [],
      "stateMutability": "nonpayable",
      "type": "function"
    },
    {
      "inputs": [
        {
          "internalType": "uint256",
          "name": "newPeriod",
          "type": "uint256"
        }
      ],
      "name": "setVotingPeriod",
      "outputs": [],
      "stateMutability": "nonpayable",
      "type": "function"
    },
    {
      "inputs": [
        {
          "internalType": "address",
          "name": "newOwner",
          "type": "address"
        }
      ],
      "name": "transferOwnership",
      "outputs": [],
      "stateMutability": "nonpayable",
      "type": "function"
    },
    {
      "inputs": [],
      "name": "unpauseGovernance",
      "outputs": [],
      "stateMutability": "nonpayable",
      "type": "function"
    },
    {
      "inputs": [
        {
          "internalType": "uint256",
          "name": "proposalId",
          "type": "uint256"
        },
        {
          "internalType": "bool",
          "name": "voteFor",
          "type": "bool"
        }
      ],
      "name": "vote",
      "outputs": [],
      "stateMutability": "nonpayable",
      "type": "function"
    },
    {
      "inputs": [],
      "name": "votingPeriod",
      "outputs": [
        {
          "internalType": "uint256",
          "name": "",
          "type": "uint256"
        }
      ],
      "stateMutability": "view",
      "type": "function"
    }
  ],
  "bytecode": "0x608034620000f857601f62001c6e38819003918201601f19168301916001600160401b03831184841017620000fd578084926040948552833981010312620000f8576200005a6020620000528362000113565b920162000113565b6001600160a01b0391821691908215620000df576000549260405193818482167f8be0079c531659141344cd1fd0a4f28419497f9722a3daafe3b4186f6b6457e0600080a36001600160a81b03191617600055620697806002556201518060035560078054919092166001600160a01b0319909116179055611b459081620001298239f35b604051631e4fbdf760e01b815260006004820152602490fd5b600080fd5b634e487b7160e01b600052604160045260246000fd5b51906001600160a01b0382168203620000f85756fe608080604052600436101561001357600080fd5b60003560e01c908163013cf08b146116745750806302a251a3146116565780630d61b519146113fb57806310154bad146113665780631b93a3ee146112da5780632821ff2614610b8f578063291d954914610afd5780633af32abf14610ab15780634385963214610a56578063548a6594146109b35780635652077c146108bf5780635c975abb14610899578063715018a61461081b5780638b257989146107fd5780638da5cb5b146107c9578063c9d27afe14610511578063da35c664146104f3578063e0a8f6f51461037d578063e4917d9f146102c6578063ea0217cf1461020e578063f2fde38b1461014a5763f96dae0a1461011157600080fd5b3461014557600060031936011261014557602073ffffffffffffffffffffffffffffffffffffffff60075416604051908152f35b600080fd5b346101455760206003193601126101455761016361190f565b61016b611a85565b73ffffffffffffffffffffffffffffffffffffffff8091169081156101dd57600054827fffffffffffffffffffffffff0000000000000000000000000000000000000000821617600055167f8be0079c531659141344cd1fd0a4f28419497f9722a3daafe3b4186f6b6457e0600080a3005b60246040517f1e4fbdf700000000000000000000000000000000000000000000000000000000815260006004820152fd5b346101455760206003193601126101455760043561022a611a85565b610232611ad6565b62015180811015806102b9575b15610275576020817f651c77f42613a075437aa794c44471e3abc3a661956a67aaee165bb7396974aa92600255604051908152a1005b606460405162461bcd60e51b815260206004820152601a60248201527f566f74696e6720706572696f64206f7574206f662072616e67650000000000006044820152fd5b506212750081111561023f565b34610145576020600319360112610145576004356102e2611a85565b6102ea611ad6565b610e1081101580610370575b1561032c576020817f04aa79a5e8a5e68218f378c9b9ecf136054085d35534faf89462199fb969d1c692600355604051908152a1005b606460405162461bcd60e51b815260206004820152601c60248201527f457865637574696f6e2064656c6179206f7574206f662072616e6765000000006044820152fd5b5062093a808111156102f6565b3461014557602060031936011261014557600435610399611ad6565b80600052600460205260066040600020019081549073ffffffffffffffffffffffffffffffffffffffff808360101c1633149081156104e5575b501561047b5760ff8216610437577f789cf55be980739dad1d0699b93b58e806b51c9d96619bfa8fe0a28abaa7b30c926101007fffffffffffffffffffffffffffffffffffffffffffffffffffffffffffff00ff60209416179055604051908152a1005b606460405162461bcd60e51b815260206004820152601f60248201527f43616e6e6f742063616e63656c2065786563757465642070726f706f73616c006044820152fd5b608460405162461bcd60e51b815260206004820152602160248201527f4f6e6c792070726f706f736572206f72206f776e65722063616e2063616e636560448201527f6c000000000000000000000000000000000000000000000000000000000000006064820152fd5b9050600054163314846103d3565b34610145576000600319360112610145576020600154604051908152f35b34610145576040600319360112610145576024356004358115158083036101455761053a611ad6565b816000526020926004845260406000209061055f60ff600684015460081c16156119a8565b8360005260058552604060002033600052855260ff60406000205416610785576004820154421161074157906024918573ffffffffffffffffffffffffffffffffffffffff60075416604051948580927f70a082310000000000000000000000000000000000000000000000000000000082523360048301525afa92831561073557600093610706575b50821561069c57917ff2913dbe661ee2acc4a046d8fbcdc792373bda34c41c6086484b5345e5785e5f9591859493606096600052600584526040600020336000528452604060002060017fffffffffffffffffffffffffffffffffffffffffffffffffffffffffffffff0082541617905560001461068657600261067091019182546119f3565b90555b60405192835233908301526040820152a1005b600361069591019182546119f3565b9055610673565b6084866040519062461bcd60e51b82526004820152602360248201527f4d75737420686f6c6420676f7665726e616e636520746f6b656e7320746f207660448201527f6f746500000000000000000000000000000000000000000000000000000000006064820152fd5b9092508581813d831161072e575b61071e818361187d565b81010312610145575191866105e9565b503d610714565b6040513d6000823e3d90fd5b6064856040519062461bcd60e51b82526004820152601560248201527f566f74696e6720706572696f64206578706972656400000000000000000000006044820152fd5b6064856040519062461bcd60e51b82526004820152600d60248201527f416c726561647920766f746564000000000000000000000000000000000000006044820152fd5b3461014557600060031936011261014557602073ffffffffffffffffffffffffffffffffffffffff60005416604051908152f35b34610145576000600319360112610145576020600354604051908152f35b3461014557600060031936011261014557610834611a85565b600073ffffffffffffffffffffffffffffffffffffffff81547fffffffffffffffffffffffff000000000000000000000000000000000000000081168355167f8be0079c531659141344cd1fd0a4f28419497f9722a3daafe3b4186f6b6457e08280a3005b3461014557600060031936011261014557602060ff60005460a01c166040519015158152f35b34610145576020600319360112610145576108d8611ad6565b600435600052600460205260406000206108fc60ff600683015460081c16156119a8565b60028101546003820154101561096f57600481015442111561092b576005610926600354426119f3565b910155005b606460405162461bcd60e51b815260206004820152601760248201527f566f74696e6720706572696f64206e6f7420656e6465640000000000000000006044820152fd5b606460405162461bcd60e51b815260206004820152601560248201527f50726f706f73616c20646964206e6f74207061737300000000000000000000006044820152fd5b34610145576000600319360112610145576109cc611a85565b60005460ff8160a01c1615610a2c577fffffffffffffffffffffff00ffffffffffffffffffffffffffffffffffffffff166000557f5db9ee0a495bf2e6ff9c91a7834c1ba4fdd244a5e8aa4e537bd38aeae4b073aa6020604051338152a1005b60046040517f8dfc202b000000000000000000000000000000000000000000000000000000008152fd5b3461014557604060031936011261014557610a6f611932565b600435600052600560205273ffffffffffffffffffffffffffffffffffffffff60406000209116600052602052602060ff604060002054166040519015158152f35b346101455760206003193601126101455773ffffffffffffffffffffffffffffffffffffffff610adf61190f565b166000526006602052602060ff604060002054166040519015158152f35b346101455760206003193601126101455773ffffffffffffffffffffffffffffffffffffffff610b2b61190f565b610b33611a85565b1680600052600660205260406000207fffffffffffffffffffffffffffffffffffffffffffffffffffffffffffffff0081541690557fcdd2e9b91a56913d370075169cefa1602ba36be5301664f752192bb1709df757600080a2005b346101455760606003193601126101455760043567ffffffffffffffff8111610145573660238201121561014557610bd260249136908381600401359101611971565b610bda611932565b60443567ffffffffffffffff8111610145573660238201121561014557610c0a9036908581600401359101611971565b90610c13611ad6565b33600052600660205260ff60406000205416156112705783602073ffffffffffffffffffffffffffffffffffffffff60075416604051928380927f70a082310000000000000000000000000000000000000000000000000000000082523360048301525afa801561073557600090611235575b68056bc75e2d631000009150106111cb57600154917fffffffffffffffffffffffffffffffffffffffffffffffffffffffffffffffff831461119d5760018301600155610cd5600254426119f3565b6040519261016084019184831067ffffffffffffffff84111761116f5773ffffffffffffffffffffffffffffffffffffffff9260405285855286602086015260006040860152600060608601526080850152600060a0850152600060c0850152600060e08501523361010085015216610120830152610140820152816000526004602052604060002081518155602082015180519067ffffffffffffffff821161114157610d9382610d8a6001860154611776565b60018601611a2f565b602090601f83116001146110ad57826008936101409593610de8936000926110a2575b50507fffffffffffffffffffffffffffffffffffffffffffffffffffffffffffffffff8260011b9260031b1c19161790565b60018201555b60408401516002820155606084015160038201556080840151600482015560a084015160058201556006810160c08501511515815461ff0060e08801511515917fffffffffffffffffffff000000000000000000000000000000000000000000007fffffffffffffffffffff0000000000000000000000000000000000000000ffff60ff75ffffffffffffffffffffffffffffffffffffffff00006101008d015160101b1696161691161791861b16171790556007810173ffffffffffffffffffffffffffffffffffffffff610120860151167fffffffffffffffffffffffff0000000000000000000000000000000000000000825416179055019101519384519067ffffffffffffffff82116110755750610f1481610f0e8454611776565b84611a2f565b6020601f8211600114610fcf579080610f82927f9cc3d9dd626042cdefb76484b91708c3207b637214b44f20111c893548d9c85f97600092610fc45750507fffffffffffffffffffffffffffffffffffffffffffffffffffffffffffffffff8260011b9260031b1c19161790565b90555b806000526004602052600460406000200154610fb360405193849384526080602085015260808401906118cf565b9033604084015260608301520390a1005b015190508780610db6565b601f198216958360005260206000209660005b81811061105d5750917f9cc3d9dd626042cdefb76484b91708c3207b637214b44f20111c893548d9c85f9791846001959410611026575b505050811b019055610f85565b01517fffffffffffffffffffffffffffffffffffffffffffffffffffffffffffffffff60f88460031b161c19169055868080611019565b83830151895560019098019760209384019301610fe2565b7f4e487b710000000000000000000000000000000000000000000000000000000060005260416004526000fd5b015190508a80610db6565b906001840160005260206000209160005b601f1985168110611129575092610140949260019260089583601f198116106110f2575b505050811b016001820155610dee565b01517fffffffffffffffffffffffffffffffffffffffffffffffffffffffffffffffff60f88460031b161c191690558980806110e2565b919260206001819286850151815501940192016110be565b867f4e487b710000000000000000000000000000000000000000000000000000000060005260416004526000fd5b877f4e487b710000000000000000000000000000000000000000000000000000000060005260416004526000fd5b847f4e487b710000000000000000000000000000000000000000000000000000000060005260116004526000fd5b60848460266040519162461bcd60e51b8352602060048401528201527f4d75737420686f6c64206174206c6561737420313030204c59544820746f207060448201527f726f706f736500000000000000000000000000000000000000000000000000006064820152fd5b506020813d602011611268575b8161124f6020938361187d565b810103126101455768056bc75e2d631000009051610c86565b3d9150611242565b60848460236040519162461bcd60e51b8352602060048401528201527f4e6f742077686974656c697374656420746f206372656174652070726f706f7360448201527f616c7300000000000000000000000000000000000000000000000000000000006064820152fd5b34610145576000600319360112610145576112f3611a85565b6112fb611ad6565b740100000000000000000000000000000000000000007fffffffffffffffffffffff00ffffffffffffffffffffffffffffffffffffffff60005416176000557f62e78cea01bee320cd4e420270b5ea74000d11b0c9f74754ebdbfc544b05a2586020604051338152a1005b346101455760206003193601126101455773ffffffffffffffffffffffffffffffffffffffff61139461190f565b61139c611a85565b16806000526006602052604060002060017fffffffffffffffffffffffffffffffffffffffffffffffffffffffffffffff008254161790557faab7954e9d246b167ef88aeddad35209ca2489d95a8aeb59e288d9b19fae5a54600080a2005b34610145576020806003193601126101455760043590611419611a85565b611421611ad6565b8160005260048152604060002060068101805460ff81166116125761144c60ff8260081c16156119a8565b600583015442106115ce5760019160017fffffffffffffffffffffffffffffffffffffffffffffffffffffffffffffff00809316179055600873ffffffffffffffffffffffffffffffffffffffff6007850154169301906040519260009280546114b581611776565b93600182169182156115b757505060011461157c575b50505091816000809493819403925af13d15611577573d6114eb81611955565b906114f9604051928361187d565b81526000833d92013e5b15611533577f712ae1383f79ac853f8d882153778e0260ef8f03b504e2866e0593e04d2b291f91604051908152a1005b6064906040519062461bcd60e51b82526004820152601960248201527f50726f706f73616c20657865637574696f6e206661696c6564000000000000006044820152fd5b611503565b909192506000528460002090856000925b8484106115a5575050509082019050816000806114cb565b8054868501529201918690820161158d565b1686525050508015150282019050816000806114cb565b6064846040519062461bcd60e51b82526004820152601660248201527f457865637574696f6e2064656c617920616374697665000000000000000000006044820152fd5b6064846040519062461bcd60e51b82526004820152601060248201527f416c7265616479206578656375746564000000000000000000000000000000006044820152fd5b34610145576000600319360112610145576020600254604051908152f35b3461014557602060031936011261014557600435600052600460205260406000206117728154916116b3846116ac81600185016117c9565b038561187d565b600860028201549160038101546004820154600583015460068401549173ffffffffffffffffffffffffffffffffffffffff936117088560078801541696611701604051809a8193016117c9565b038861187d565b6117266040519b8c809c6020610160928392815201528c01906118cf565b9760408b015260608a0152608089015260a088015260ff8116151560c088015260ff8160081c16151560e088015260101c166101008601526101208501528382036101408501526118cf565b0390f35b90600182811c921680156117bf575b602083101461179057565b7f4e487b7100000000000000000000000000000000000000000000000000000000600052602260045260246000fd5b91607f1691611785565b8054600093926117d882611776565b9182825260209360019160018116908160001461184057506001146117ff575b5050505050565b90939495506000929192528360002092846000945b83861061182c575050505001019038808080806117f8565b805485870183015294019385908201611814565b7fffffffffffffffffffffffffffffffffffffffffffffffffffffffffffffff00168685015250505090151560051b0101915038808080806117f8565b90601f601f19910116810190811067ffffffffffffffff8211176118a057604052565b7f4e487b7100000000000000000000000000000000000000000000000000000000600052604160045260246000fd5b919082519283825260005b8481106118fb575050601f19601f8460006020809697860101520116010190565b6020818301810151848301820152016118da565b6004359073ffffffffffffffffffffffffffffffffffffffff8216820361014557565b6024359073ffffffffffffffffffffffffffffffffffffffff8216820361014557565b67ffffffffffffffff81116118a057601f01601f191660200190565b92919261197d82611955565b9161198b604051938461187d565b829481845281830111610145578281602093846000960137010152565b156119af57565b606460405162461bcd60e51b815260206004820152601560248201527f50726f706f73616c207761732063616e63656c656400000000000000000000006044820152fd5b91908201809211611a0057565b7f4e487b7100000000000000000000000000000000000000000000000000000000600052601160045260246000fd5b90601f8111611a3d57505050565b6000916000526020600020906020601f850160051c83019410611a7b575b601f0160051c01915b828110611a7057505050565b818155600101611a64565b9092508290611a5b565b73ffffffffffffffffffffffffffffffffffffffff600054163303611aa657565b60246040517f118cdaa7000000000000000000000000000000000000000000000000000000008152336004820152fd5b60ff60005460a01c16611ae557565b60046040517fd93c0665000000000000000000000000000000000000000000000000000000008152fdfea26469706673582212209f588fe537bc157c5374080093293612fe00bb22e4fb3c81ec45b9e96dd4dbf464736f6c63430008160033",
  "linkReferences": {},
  "deployedLinkReferences": {}
}