{
  "_format": "hh-sol-artifact-1",
  "contractName": "NFTMarketplace",
  "sourceName": "contracts/NFTMarketplace.sol",
  "abi": [
    {
      "inputs": [
        {
          "internalType": "address",
          "name": "initialOwner",
          "type": "address"
        },
        {
          "internalType": "address",
          "name": "_mintiumToken",
          "type": "address"
        },
        {
          "internalType": "address",
          "name": "_treasury",
          "type": "address"
        }
      ],
      "stateMutability": "nonpayable",
      "type": "constructor"
    },
    {
      "inputs": [
        {
          "internalType": "address",
          "name": "sender",
          "type": "address"
        },
        {
          "internalType": "uint256",
          "name": "tokenId",
          "type": "uint256"
        },
        {
          "internalType": "address",
          "name": "owner",
          "type": "address"
        }
      ],
      "name": "ERC721IncorrectOwner",
      "type": "error"
    },
    {
      "inputs": [
        {
          "internalType": "address",
          "name": "operator",
          "type": "address"
        },
        {
          "internalType": "uint256",
          "name": "tokenId",
          "type": "uint256"
        }
      ],
      "name": "ERC721InsufficientApproval",
      "type": "error"
    },
    {
      "inputs": [
        {
          "internalType": "address",
          "name": "approver",
          "type": "address"
        }
      ],
      "name": "ERC721InvalidApprover",
      "type": "error"
    },
    {
      "inputs": [
        {
          "internalType": "address",
          "name": "operator",
          "type": "address"
        }
      ],
      "name": "ERC721InvalidOperator",
      "type": "error"
    },
    {
      "inputs": [
        {
          "internalType": "address",
          "name": "owner",
          "type": "address"
        }
      ],
      "name": "ERC721InvalidOwner",
      "type": "error"
    },
    {
      "inputs": [
        {
          "internalType": "address",
          "name": "receiver",
          "type": "address"
        }
      ],
      "name": "ERC721InvalidReceiver",
      "type": "error"
    },
    {
      "inputs": [
        {
          "internalType": "address",
          "name": "sender",
          "type": "address"
        }
      ],
      "name": "ERC721InvalidSender",
      "type": "error"
    },
    {
      "inputs": [
        {
          "internalType": "uint256",
          "name": "tokenId",
          "type": "uint256"
        }
      ],
      "name": "ERC721NonexistentToken",
      "type": "error"
    },
    {
      "inputs": [],
      "name": "EnforcedPause",
      "type": "error"
    },
    {
      "inputs": [],
      "name": "ExpectedPause",
      "type": "error"
    },
    {
      "inputs": [
        {
          "internalType": "address",
          "name": "owner",
          "type": "address"
        }
      ],
      "name": "OwnableInvalidOwner",
      "type": "error"
    },
    {
      "inputs": [
        {
          "internalType": "address",
          "name": "account",
          "type": "address"
        }
      ],
      "name": "OwnableUnauthorizedAccount",
      "type": "error"
    },
    {
      "anonymous": false,
      "inputs": [
        {
          "indexed": true,
          "internalType": "address",
          "name": "owner",
          "type": "address"
        },
        {
          "indexed": true,
          "internalType": "address",
          "name": "approved",
          "type": "address"
        },
        {
          "indexed": true,
          "internalType": "uint256",
          "name": "tokenId",
          "type": "uint256"
        }
      ],
      "name": "Approval",
      "type": "event"
    },
    {
      "anonymous": false,
      "inputs": [
        {
          "indexed": true,
          "internalType": "address",
          "name": "owner",
          "type": "address"
        },
        {
          "indexed": true,
          "internalType": "address",
          "name": "operator",
          "type": "address"
        },
        {
          "indexed": false,
          "internalType": "bool",
          "name": "approved",
          "type": "bool"
        }
      ],
      "name": "ApprovalForAll",
      "type": "event"
    },
    {
      "anonymous": false,
      "inputs": [
        {
          "indexed": false,
          "internalType": "uint256",
          "name": "newPrice",
          "type": "uint256"
        }
      ],
      "name": "MintPriceUpdated",
      "type": "event"
    },
    {
      "anonymous": false,
      "inputs": [
        {
          "indexed": false,
          "internalType": "uint256",
          "name": "tokenId",
          "type": "uint256"
        },
        {
          "indexed": false,
          "internalType": "uint256",
          "name": "price",
          "type": "uint256"
        },
        {
          "indexed": false,
          "internalType": "uint256",
          "name": "expiration",
          "type": "uint256"
        }
      ],
      "name": "NFTListed",
      "type": "event"
    },
    {
      "anonymous": false,
      "inputs": [
        {
          "indexed": false,
          "internalType": "uint256",
          "name": "tokenId",
          "type": "uint256"
        }
      ],
      "name": "NFTListingCancelled",
      "type": "event"
    },
    {
      "anonymous": false,
      "inputs": [
        {
          "indexed": true,
          "internalType": "address",
          "name": "owner",
          "type": "address"
        },
        {
          "indexed": false,
          "internalType": "uint256",
          "name": "tokenId",
          "type": "uint256"
        }
      ],
      "name": "NFTMinted",
      "type": "event"
    },
    {
      "anonymous": false,
      "inputs": [
        {
          "indexed": false,
          "internalType": "uint256",
          "name": "tokenId",
          "type": "uint256"
        },
        {
          "indexed": false,
          "internalType": "address",
          "name": "buyer",
          "type": "address"
        }
      ],
      "name": "NFTPurchased",
      "type": "event"
    },
    {
      "anonymous": false,
      "inputs": [
        {
          "indexed": true,
          "internalType": "address",
          "name": "previousOwner",
          "type": "address"
        },
        {
          "indexed": true,
          "internalType": "address",
          "name": "newOwner",
          "type": "address"
        }
      ],
      "name": "OwnershipTransferred",
      "type": "event"
    },
    {
      "anonymous": false,
      "inputs": [
        {
          "indexed": false,
          "internalType": "address",
          "name": "account",
          "type": "address"
        }
      ],
      "name": "Paused",
      "type": "event"
    },
    {
      "anonymous": false,
      "inputs": [
        {
          "indexed": false,
          "internalType": "uint256",
          "name": "newFee",
          "type": "uint256"
        }
      ],
      "name": "RoyaltyFeeUpdated",
      "type": "event"
    },
    {
      "anonymous": false,
      "inputs": [
        {
          "indexed": false,
          "internalType": "uint256",
          "name": "newFee",
          "type": "uint256"
        }
      ],
      "name": "TradingFeeUpdated",
      "type": "event"
    },
    {
      "anonymous": false,
      "inputs": [
        {
          "indexed": true,
          "internalType": "address",
          "name": "from",
          "type": "address"
        },
        {
          "indexed": true,
          "internalType": "address",
          "name": "to",
          "type": "address"
        },
        {
          "indexed": true,
          "internalType": "uint256",
          "name": "tokenId",
          "type": "uint256"
        }
      ],
      "name": "Transfer",
      "type": "event"
    },
    {
      "anonymous": false,
      "inputs": [
        {
          "indexed": false,
          "internalType": "address",
          "name": "account",
          "type": "address"
        }
      ],
      "name": "Unpaused",
      "type": "event"
    },
    {
      "inputs": [
        {
          "internalType": "address",
          "name": "to",
          "type": "address"
        },
        {
          "internalType": "uint256",
          "name": "tokenId",
          "type": "uint256"
        }
      ],
      "name": "approve",
      "outputs": [],
      "stateMutability": "nonpayable",
      "type": "function"
    },
    {
      "inputs": [
        {
          "internalType": "address",
          "name": "owner",
          "type": "address"
        }
      ],
      "name": "balanceOf",
      "outputs": [
        {
          "internalType": "uint256",
          "name": "",
          "type": "uint256"
        }
      ],
      "stateMutability": "view",
      "type": "function"
    },
    {
      "inputs": [
        {
          "internalType": "uint256",
          "name": "amount",
          "type": "uint256"
        }
      ],
      "name": "batchMintNFT",
      "outputs": [],
      "stateMutability": "nonpayable",
      "type": "function"
    },
    {
      "inputs": [
        {
          "internalType": "uint256",
          "name": "tokenId",
          "type": "uint256"
        }
      ],
      "name": "buyNFT",
      "outputs": [],
      "stateMutability": "nonpayable",
      "type": "function"
    },
    {
      "inputs": [
        {
          "internalType": "uint256",
          "name": "tokenId",
          "type": "uint256"
        }
      ],
      "name": "cancelListing",
      "outputs": [],
      "stateMutability": "nonpayable",
      "type": "function"
    },
    {
      "inputs": [
        {
          "internalType": "uint256",
          "name": "",
          "type": "uint256"
        }
      ],
      "name": "creators",
      "outputs": [
        {
          "internalType": "address",
          "name": "",
          "type": "address"
        }
      ],
      "stateMutability": "view",
      "type": "function"
    },
    {
      "inputs": [
        {
          "internalType": "uint256",
          "name": "tokenId",
          "type": "uint256"
        }
      ],
      "name": "getApproved",
      "outputs": [
        {
          "internalType": "address",
          "name": "",
          "type": "address"
        }
      ],
      "stateMutability": "view",
      "type": "function"
    },
    {
      "inputs": [
        {
          "internalType": "address",
          "name": "owner",
          "type": "address"
        },
        {
          "internalType": "address",
          "name": "operator",
          "type": "address"
        }
      ],
      "name": "isApprovedForAll",
      "outputs": [
        {
          "internalType": "bool",
          "name": "",
          "type": "bool"
        }
      ],
      "stateMutability": "view",
      "type": "function"
    },
    {
      "inputs": [
        {
          "internalType": "uint256",
          "name": "tokenId",
          "type": "uint256"
        },
        {
          "internalType": "uint256",
          "name": "price",
          "type": "uint256"
        }
      ],
      "name": "listNFT",
      "outputs": [],
      "stateMutability": "nonpayable",
      "type": "function"
    },
    {
      "inputs": [],
      "name": "listingDuration",
      "outputs": [
        {
          "internalType": "uint256",
          "name": "",
          "type": "uint256"
        }
      ],
      "stateMutability": "view",
      "type": "function"
    },
    {
      "inputs": [
        {
          "internalType": "uint256",
          "name": "",
          "type": "uint256"
        }
      ],
      "name": "listings",
      "outputs": [
        {
          "internalType": "address",
          "name": "seller",
          "type": "address"
        },
        {
          "internalType": "uint256",
          "name": "price",
          "type": "uint256"
        },
        {
          "internalType": "uint256",
          "name": "expiration",
          "type": "uint256"
        },
        {
          "internalType": "bool",
          "name": "isListed",
          "type": "bool"
        }
      ],
      "stateMutability": "view",
      "type": "function"
    },
    {
      "inputs": [],
      "name": "mintNFT",
      "outputs": [],
      "stateMutability": "nonpayable",
      "type": "function"
    },
    {
      "inputs": [],
      "name": "mintPrice",
      "outputs": [
        {
          "internalType": "uint256",
          "name": "",
          "type": "uint256"
        }
      ],
      "stateMutability": "view",
      "type": "function"
    },
    {
      "inputs": [],
      "name": "mintiumToken",
      "outputs": [
        {
          "internalType": "address",
          "name": "",
          "type": "address"
        }
      ],
      "stateMutability": "view",
      "type": "function"
    },
    {
      "inputs": [],
      "name": "name",
      "outputs": [
        {
          "internalType": "string",
          "name": "",
          "type": "string"
        }
      ],
      "stateMutability": "view",
      "type": "function"
    },
    {
      "inputs": [],
      "name": "nextTokenId",
      "outputs": [
        {
          "internalType": "uint256",
          "name": "",
          "type": "uint256"
        }
      ],
      "stateMutability": "view",
      "type": "function"
    },
    {
      "inputs": [],
      "name": "owner",
      "outputs": [
        {
          "internalType": "address",
          "name": "",
          "type": "address"
        }
      ],
      "stateMutability": "view",
      "type": "function"
    },
    {
      "inputs": [
        {
          "internalType": "uint256",
          "name": "tokenId",
          "type": "uint256"
        }
      ],
      "name": "ownerOf",
      "outputs": [
        {
          "internalType": "address",
          "name": "",
          "type": "address"
        }
      ],
      "stateMutability": "view",
      "type": "function"
    },
    {
      "inputs": [],
      "name": "pauseMarketplace",
      "outputs": [],
      "stateMutability": "nonpayable",
      "type": "function"
    },
    {
      "inputs": [],
      "name": "paused",
      "outputs": [
        {
          "internalType": "bool",
          "name": "",
          "type": "bool"
        }
      ],
      "stateMutability": "view",
      "type": "function"
    },
    {
      "inputs": [],
      "name": "renounceOwnership",
      "outputs": [],
      "stateMutability": "nonpayable",
      "type": "function"
    },
    {
      "inputs": [],
      "name": "royaltyFee",
      "outputs": [
        {
          "internalType": "uint256",
          "name": "",
          "type": "uint256"
        }
      ],
      "stateMutability": "view",
      "type": "function"
    },
    {
      "inputs": [
        {
          "internalType": "uint256",
          "name": "tokenId",
          "type": "uint256"
        },
        {
          "internalType": "uint256",
          "name": "salePrice",
          "type": "uint256"
        }
      ],
      "name": "royaltyInfo",
      "outputs": [
        {
          "internalType": "address",
          "name": "",
          "type": "address"
        },
        {
          "internalType": "uint256",
          "name": "",
          "type": "uint256"
        }
      ],
      "stateMutability": "view",
      "type": "function"
    },
    {
      "inputs": [
        {
          "internalType": "address",
          "name": "from",
          "type": "address"
        },
        {
          "internalType": "address",
          "name": "to",
          "type": "address"
        },
        {
          "internalType": "uint256",
          "name": "tokenId",
          "type": "uint256"
        }
      ],
      "name": "safeTransferFrom",
      "outputs": [],
      "stateMutability": "nonpayable",
      "type": "function"
    },
    {
      "inputs": [
        {
          "internalType": "address",
          "name": "from",
          "type": "address"
        },
        {
          "internalType": "address",
          "name": "to",
          "type": "address"
        },
        {
          "internalType": "uint256",
          "name": "tokenId",
          "type": "uint256"
        },
        {
          "internalType": "bytes",
          "name": "data",
          "type": "bytes"
        }
      ],
      "name": "safeTransferFrom",
      "outputs": [],
      "stateMutability": "nonpayable",
      "type": "function"
    },
    {
      "inputs": [
        {
          "internalType": "address",
          "name": "operator",
          "type": "address"
        },
        {
          "internalType": "bool",
          "name": "approved",
          "type": "bool"
        }
      ],
      "name": "setApprovalForAll",
      "outputs": [],
      "stateMutability": "nonpayable",
      "type": "function"
    },
    {
      "inputs": [
        {
          "internalType": "uint256",
          "name": "_mintPrice",
          "type": "uint256"
        }
      ],
      "name": "setMintPrice",
      "outputs": [],
      "stateMutability": "nonpayable",
      "type": "function"
    },
    {
      "inputs": [
        {
          "internalType": "uint256",
          "name": "_newFee",
          "type": "uint256"
        }
      ],
      "name": "setRoyaltyFee",
      "outputs": [],
      "stateMutability": "nonpayable",
      "type": "function"
    },
    {
      "inputs": [
        {
          "internalType": "uint256",
          "name": "_newFee",
          "type": "uint256"
        }
      ],
      "name": "setTradingFee",
      "outputs": [],
      "stateMutability": "nonpayable",
      "type": "function"
    },
    {
      "inputs": [
        {
          "internalType": "bytes4",
          "name": "interfaceId",
          "type": "bytes4"
        }
      ],
      "name": "supportsInterface",
      "outputs": [
        {
          "internalType": "bool",
          "name": "",
          "type": "bool"
        }
      ],
      "stateMutability": "view",
      "type": "function"
    },
    {
      "inputs": [],
      "name": "symbol",
      "outputs": [
        {
          "internalType": "string",
          "name": "",
          "type": "string"
        }
      ],
      "stateMutability": "view",
      "type": "function"
    },
    {
      "inputs": [
        {
          "internalType": "uint256",
          "name": "tokenId",
          "type": "uint256"
        }
      ],
      "name": "tokenURI",
      "outputs": [
        {
          "internalType": "string",
          "name": "",
          "type": "string"
        }
      ],
      "stateMutability": "view",
      "type": "function"
    },
    {
      "inputs": [],
      "name": "tradingFee",
      "outputs": [
        {
          "internalType": "uint256",
          "name": "",
          "type": "uint256"
        }
      ],
      "stateMutability": "view",
      "type": "function"
    },
    {
      "inputs": [
        {
          "internalType": "address",
          "name": "from",
          "type": "address"
        },
        {
          "internalType": "address",
          "name": "to",
          "type": "address"
        },
        {
          "internalType": "uint256",
          "name": "tokenId",
          "type": "uint256"
        }
      ],
      "name": "transferFrom",
      "outputs": [],
      "stateMutability": "nonpayable",
      "type": "function"
    },
    {
      "inputs": [
        {
          "internalType": "address",
          "name": "newOwner",
          "type": "address"
        }
      ],
      "name": "transferOwnership",
      "outputs": [],
      "stateMutability": "nonpayable",
      "type": "function"
    },
    {
      "inputs": [],
      "name": "treasury",
      "outputs": [
        {
          "internalType": "address",
          "name": "",
          "type": "address"
        }
      ],
      "stateMutability": "view",
      "type": "function"
    },
    {
      "inputs": [],
      "name": "treasuryContract",
      "outputs": [
        {
          "internalType": "contract IMultiSigTreasury",
          "name": "",
          "type": "address"
        }
      ],
      "stateMutability": "view",
      "type": "function"
    },
    {
      "inputs": [],
      "name": "unpauseMarketplace",
      "outputs": [],
      "stateMutability": "nonpayable",
      "type": "function"
    }
  ],
  "bytecode": "0x6080346200041b57601f19906001600160401b03601f62002b9a388190038281018616850191908483118684101762000405578086926060946040528339810103126200041b57620000518362000440565b916020906200007060406200006884880162000440565b960162000440565b926200007b62000420565b92600b84526a14dbdb1e5d1a1c9853919560aa1b818501526200009d62000420565b90600482526314d3919560e21b81830152845198848a1162000405576000998a54966001978881811c91168015620003fa575b85821014620003e65790818784931162000390575b5084908d88841160011462000330579262000324575b5050600019600383901b1c191690871b178a555b8251948511620003105785548681811c9116801562000305575b83821014620002f15790818587969594931162000298575b508193851160011462000233575050889262000227575b5050600019600383901b1c191690821b1790555b6001600160a01b0391821680156200020e5760065481604051967f8be0079c531659141344cd1fd0a4f28419497f9722a3daafe3b4186f6b6457e08684169180a360018060a81b0319161760065568056bc75e2d63100000600a5560fa600b5562278d00600c556101f4600d558160018060a01b0319931683600854161760085516908181600954161760095560105416176010556127449081620004568239f35b604051631e4fbdf760e01b815260048101869052602490fd5b01519050388062000158565b86959392919316858b52838b20938b905b8282106200027e575050841162000264575b505050811b0190556200016c565b015160001960f88460031b161c1916905538808062000256565b848401518655889790950194938401939081019062000244565b909192939450868b52828b208580880160051c820192858910620002e7575b9188978a9297969594930160051c01915b828110620002d857505062000141565b8d8155889750899101620002c8565b92508192620002b7565b634e487b7160e01b8b52602260045260248bfd5b90607f169062000129565b634e487b7160e01b8a52604160045260248afd5b015190503880620000fb565b9190858b9516838052878420935b888282106200037957505084116200035f575b505050811b018a556200010f565b015160001960f88460031b161c1916905538808062000351565b8385015186558d979095019493840193016200033e565b9091508c8052848d208780850160051c820192878610620003dc575b859493910160051c909101908a908f5b838210620003cd57505050620000e5565b81558594508b91018f620003bc565b92508192620003ac565b634e487b7160e01b8d52602260045260248dfd5b90607f1690620000d0565b634e487b7160e01b600052604160045260246000fd5b600080fd5b60408051919082016001600160401b038111838210176200040557604052565b51906001600160a01b03821682036200041b5756fe6080604081815260048036101561001557600080fd5b600092833560e01c90816301ffc9a714611b965750806306fdde0314611ac9578063081812fc14611a83578063095ea7b3146119515783816314f710fe146117545750806318da00111461171f57806321f67fbb1461167c57806323b872dd146116645780632850df1a146116455780632a55205a146115cf578063305a67a8146115115780633e4086e51461145c5780633ec62279146113cf57806342842e0e146113a657806351ed828814610e4c57806356f4335214610e2d5780635c975abb14610e0657806361d027b314610dd15780636352211e14610d9457806367fbf8d714610b0d5780636817c76c14610aee57806370a0823114610a73578063715018a6146109f357806375794a3c146109d45780637b65209b1461099f5780638da5cb5b1461096a57806394383f14146107d057806395d89b411461067c578063a22cb4651461058d578063b0d54bcf146104d8578063b88d4fde1461044f578063b8997a9714610430578063c87b56dd146103dd578063cd53d08e146103a0578063de74e57b1461033c578063e985e9c5146102dd578063f2fde38b146102175763f4a0a528146101c757600080fd5b34610213576020600319360112610213577f525b762709cc2a983aec5ccdfd807a061f993c91090b5bcd7da92ca254976aaa9160209135906102076125a2565b81600a5551908152a180f35b8280fd5b503461021357602060031936011261021357610231611cc4565b9061023a6125a2565b73ffffffffffffffffffffffffffffffffffffffff8092169283156102ae575050600654827fffffffffffffffffffffffff0000000000000000000000000000000000000000821617600655167f8be0079c531659141344cd1fd0a4f28419497f9722a3daafe3b4186f6b6457e08380a380f35b908460249251917f1e4fbdf7000000000000000000000000000000000000000000000000000000008352820152fd5b50503461033857806003193601126103385760ff816020936102fd611cc4565b610305611cec565b73ffffffffffffffffffffffffffffffffffffffff91821683526005875283832091168252855220549151911615158152f35b5080fd5b5034610213576020600319360112610213576080928291358152600e602052209073ffffffffffffffffffffffffffffffffffffffff8254169160018101549160ff6003600284015493015416928151948552602085015283015215156060820152f35b5034610213576020600319360112610213578160209373ffffffffffffffffffffffffffffffffffffffff92358152600f85522054169051908152f35b50919034610338576020600319360112610338576103fe61042c93356124a9565b5081815161040b81611d67565b5280519161041883611d67565b825251918291602083526020830190611c66565b0390f35b505034610338578160031936011261033857602090600d549051908152f35b5090346102135760806003193601126102135761046a611cc4565b610472611cec565b846064359467ffffffffffffffff8611610338573660238701121561033857850135946104aa6104a187611df3565b95519586611db2565b858552366024878301011161033857856104d5966024602093018388013785010152604435916122d1565b80f35b509034610213576020600319360112610213578135916104f66125a2565b6101f483116105315750816020917fa3dfe13986da4bcfdc32f544ebe130cb8ec20a2afc45e7c3994975076a08e57893600b5551908152a180f35b602060649251917f08c379a0000000000000000000000000000000000000000000000000000000008352820152600c60248201527f46656520746f6f206869676800000000000000000000000000000000000000006044820152fd5b5090346102135780600319360112610213576105a7611cc4565b90602435801515928382036106785773ffffffffffffffffffffffffffffffffffffffff16938415610649575061061c9033865260056020528286208587526020528286209060ff7fffffffffffffffffffffffffffffffffffffffffffffffffffffffffffffff0083541691151516179055565b519081527f17307eab39ab6107e8899845ad3d59bd9653f200f220920489ca2b5937696c3160203392a380f35b602490858451917f5b08ba18000000000000000000000000000000000000000000000000000000008352820152fd5b8580fd5b5091346107cd57806003193601126107cd5781519181600192600154938460011c91600186169586156107c3575b6020968785108114610797578899509688969785829a5291826000146107525750506001146106f6575b50505061042c92916106e7910385611db2565b51928284938452830190611c66565b9190869350600183527fb10e2d527612073b26eecdfd717e6a320cf44b4afac2b0732d9fcbe2b7fa0cf65b82841061073a57505050820101816106e761042c6106d4565b8054848a018601528895508794909301928101610721565b7fffffffffffffffffffffffffffffffffffffffffffffffffffffffffffffff00168782015293151560051b860190930193508492506106e7915061042c90506106d4565b60248360228c7f4e487b7100000000000000000000000000000000000000000000000000000000835252fd5b92607f16926106aa565b80fd5b50919034610338576107e136611d51565b90916107eb61250a565b6107f4836124a9565b61081773ffffffffffffffffffffffffffffffffffffffff9182339116146121fa565b600c5442019081421161093e578251906080820182811067ffffffffffffffff821117610912578492600360609795936108ff937fcc0c9a64fc84375ceec206f2fc87eb06d3cacae06967a94d2ba499000ea176179a9852338352602083018781528684019586528984019160018352898d52600e602052878d209451167fffffffffffffffffffffffff0000000000000000000000000000000000000000855416178455516001840155600283019451855551151591019060ff7fffffffffffffffffffffffffffffffffffffffffffffffffffffffffffffff0083541691151516179055565b549181519384526020840152820152a180f35b60248860418b7f4e487b7100000000000000000000000000000000000000000000000000000000835252fd5b6024866011897f4e487b7100000000000000000000000000000000000000000000000000000000835252fd5b50503461033857816003193601126103385760209073ffffffffffffffffffffffffffffffffffffffff600654169051908152f35b50503461033857816003193601126103385760209073ffffffffffffffffffffffffffffffffffffffff600854169051908152f35b5050346103385781600319360112610338576020906007549051908152f35b83346107cd57806003193601126107cd57610a0c6125a2565b8073ffffffffffffffffffffffffffffffffffffffff6006547fffffffffffffffffffffffff00000000000000000000000000000000000000008116600655167f8be0079c531659141344cd1fd0a4f28419497f9722a3daafe3b4186f6b6457e08280a380f35b5091346107cd5760206003193601126107cd5773ffffffffffffffffffffffffffffffffffffffff610aa3611cc4565b16928315610ac05750806020938392526003845220549051908152f35b9060249251917f89c62b64000000000000000000000000000000000000000000000000000000008352820152fd5b505034610338578160031936011261033857602090600a549051908152f35b50903461021357602080600319360112610d9057823592610b2c61250a565b8315610d3557610b3e84600a546121e7565b73ffffffffffffffffffffffffffffffffffffffff918260085416908786517f70a0823100000000000000000000000000000000000000000000000000000000815233838201528681602481875afa908115610d2b57908291889695949391610cf8575b5095610bb385610c18981015611e2d565b60095416918851968795869485937f23b872dd0000000000000000000000000000000000000000000000000000000085523390850160409194939294606082019573ffffffffffffffffffffffffffffffffffffffff80921683521660208201520152565b03925af1908115610cee5790610c35918691610cc1575b50611eaa565b835b838110610c42578480f35b600190600780548752600f8452848720337fffffffffffffffffffffffff0000000000000000000000000000000000000000825416179055610c85815433612543565b610cb9815486518181527f4cc0a9c4a99ddc700de1af2c9f916a7cbfdb71f14801ccff94061ad1ef8a8040873392a2611f0f565b905501610c37565b610ce19150833d8511610ce7575b610cd98183611db2565b810190611e92565b38610c2f565b503d610ccf565b83513d87823e3d90fd5b86819792503d8311610d24575b610d0f8183611db2565b810103126107cd579351869490610bb3610ba2565b503d610d05565b88513d84823e3d90fd5b9060649251917f08c379a0000000000000000000000000000000000000000000000000000000008352820152601860248201527f4d757374206d696e74206174206c656173742031204e465400000000000000006044820152fd5b8380fd5b5091346107cd5760206003193601126107cd575073ffffffffffffffffffffffffffffffffffffffff610dc9602093356124a9565b915191168152f35b50503461033857816003193601126103385760209073ffffffffffffffffffffffffffffffffffffffff600954169051908152f35b50503461033857816003193601126103385760209060ff60065460a01c1690519015158152f35b505034610338578160031936011261033857602090600b549051908152f35b5082346107cd576020928360031936011261033857823591610e6c61250a565b828152600e94858152610e8760ff600385852001541661225f565b83825285815260028383200154421161134a5790610ebc918685835280825260018584200154612710948591600b54906121e7565b0493868452818352610ed760018786200154600d54906121e7565b049386845281835287610ef986610ef48460018b8a2001546122c4565b6122c4565b95610f878573ffffffffffffffffffffffffffffffffffffffff9889600854168c8a528783528a8c8b2054168a8d518096819582947f23b872dd000000000000000000000000000000000000000000000000000000009b8c85523390850160409194939294606082019573ffffffffffffffffffffffffffffffffffffffff80921683521660208201520152565b03925af1908115611340578791611323575b50156112c857600854898752600f8652888720548951848152338d8201908152918a1673ffffffffffffffffffffffffffffffffffffffff166020830152604082019390935286918391908a169082908a90829060600103925af19081156112be5786916112a1575b501561124557839086600854168a878960095416936110598c519788968795869485523390850160409194939294606082019573ffffffffffffffffffffffffffffffffffffffff80921683521660208201520152565b03925af190811561123b57849161121e575b50156111c2578583528082528385842054169333156111935761108e87336125f3565b908116806110c557602489898951917f7e273289000000000000000000000000000000000000000000000000000000008352820152fd5b9480989293949795036111375750507fbebca6653c629a651174dc2ea9b9f7ef506290dee89fe1a6087eb1e12c06d43094955082865281526003838620017fffffffffffffffffffffffffffffffffffffffffffffffffffffffffffffff00815416905582519182523390820152a180f35b85517f64283d7b00000000000000000000000000000000000000000000000000000000815273ffffffffffffffffffffffffffffffffffffffff808a169382019384526020840187905290911660408301529081906060010390fd5b602488858851917f64a0ae92000000000000000000000000000000000000000000000000000000008352820152fd5b606487838751917f08c379a0000000000000000000000000000000000000000000000000000000008352820152601360248201527f466565207472616e73666572206661696c6564000000000000000000000000006044820152fd5b6112359150833d8511610ce757610cd98183611db2565b8861106b565b86513d86823e3d90fd5b606489858951917f08c379a0000000000000000000000000000000000000000000000000000000008352820152601660248201527f526f79616c7479207061796d656e74206661696c6564000000000000000000006044820152fd5b6112b89150853d8711610ce757610cd98183611db2565b8a611002565b88513d88823e3d90fd5b60648a85878b51927f08c379a000000000000000000000000000000000000000000000000000000000845283015260248201527f5061796d656e74206661696c65640000000000000000000000000000000000006044820152fd5b61133a9150863d8811610ce757610cd98183611db2565b8b610f99565b89513d89823e3d90fd5b846064918451917f08c379a0000000000000000000000000000000000000000000000000000000008352820152600f60248201527f4c697374696e67206578706972656400000000000000000000000000000000006044820152fd5b505034610338576104d5906113ba36611d0f565b919251926113c784611d67565b8584526122d1565b50503461033857816003193601126103385760207f62e78cea01bee320cd4e420270b5ea74000d11b0c9f74754ebdbfc544b05a2589161140d6125a2565b61141561250a565b740100000000000000000000000000000000000000007fffffffffffffffffffffff00ffffffffffffffffffffffffffffffffffffffff600654161760065551338152a180f35b5090346102135760206003193601126102135781359161147a6125a2565b6103e883116114b55750816020917fd9b587d0d884e97b8e3772325d18ffc0412781f43cb5471b8eb5972667724f0193600d5551908152a180f35b602060649251917f08c379a0000000000000000000000000000000000000000000000000000000008352820152601060248201527f526f79616c747920746f6f2068696768000000000000000000000000000000006044820152fd5b5034610213576020600319360112610213577fc46ea9fee66461db46a6ac51d560a291533b66981fb9c09ca8948e8dc8d4247291602091359061155261250a565b61157b61155e836124a9565b73ffffffffffffffffffffffffffffffffffffffff1633146121fa565b818552600e835261159460ff600383882001541661225f565b818552600e83526003818620017fffffffffffffffffffffffffffffffffffffffffffffffffffffffffffffff00815416905551908152a180f35b5050346103385761042c73ffffffffffffffffffffffffffffffffffffffff8261160b946127106115ff36611d51565b600d98919854906121e7565b04958152600f6020522054169151928392836020909392919373ffffffffffffffffffffffffffffffffffffffff60408201951681520152565b505034610338578160031936011261033857602090600c549051908152f35b83346107cd576104d561167636611d0f565b91611f6b565b50346102135782600319360112610213576116956125a2565b6006549060ff8260a01c16156116f857507f5db9ee0a495bf2e6ff9c91a7834c1ba4fdd244a5e8aa4e537bd38aeae4b073aa917fffffffffffffffffffffff00ffffffffffffffffffffffffffffffffffffffff6020921660065551338152a180f35b82517f8dfc202b000000000000000000000000000000000000000000000000000000008152fd5b50503461033857816003193601126103385760209073ffffffffffffffffffffffffffffffffffffffff601054169051908152f35b8084843461194d578260031936011261194d5761176f61250a565b73ffffffffffffffffffffffffffffffffffffffff9081600854168351917f70a0823100000000000000000000000000000000000000000000000000000000835233818401526020938484602481865afa93841561194357879461190a575b509061184c96859493926117e7600a5480961015611e2d565b60095416918751988995869485937f23b872dd0000000000000000000000000000000000000000000000000000000085523390850160409194939294606082019573ffffffffffffffffffffffffffffffffffffffff80921683521660208201520152565b03925af1928315611900576118dd9361186b9186916118e35750611eaa565b6007548452600f8152818420337fffffffffffffffffffffffff00000000000000000000000000000000000000008254161790556118ab60075433612543565b7f4cc0a9c4a99ddc700de1af2c9f916a7cbfdb71f14801ccff94061ad1ef8a80406007549251918383523392a2611f0f565b60075580f35b6118fa9150833d8511610ce757610cd98183611db2565b86610c2f565b82513d86823e3d90fd5b935091908484813d831161193c575b6119238183611db2565b8101031261193857925192909161184c6117ce565b8680fd5b503d611919565b86513d89823e3d90fd5b5050fd5b50903461021357806003193601126102135761196b611cc4565b91602435611978816124a9565b33151580611a63575b80611a2e575b6119ff57819073ffffffffffffffffffffffffffffffffffffffff809616958691167f8c5be1e5ebec7d5bd14f71427d1e84f3dd0314c0f7b2291e5b200ac8c7c3b9258880a484526020528220907fffffffffffffffffffffffff000000000000000000000000000000000000000082541617905580f35b83517fa9fbf51f0000000000000000000000000000000000000000000000000000000081523381850152602490fd5b5073ffffffffffffffffffffffffffffffffffffffff81168652600560205283862033875260205260ff848720541615611987565b503373ffffffffffffffffffffffffffffffffffffffff82161415611981565b503461021357602060031936011261021357816020938273ffffffffffffffffffffffffffffffffffffffff9335611aba816124a9565b50825285522054169051908152f35b5091346107cd57806003193601126107cd578151918182549260018460011c9160018616958615611b8c575b6020968785108114610797578899509688969785829a529182600014610752575050600114611b315750505061042c92916106e7910385611db2565b91908693508280527f290decd9548b62a8d60345a988386fc84ba6bc95484008f6362f93160ef3e5635b828410611b7457505050820101816106e761042c6106d4565b8054848a018601528895508794909301928101611b5b565b92607f1692611af5565b9250503461021357602060031936011261021357357fffffffff00000000000000000000000000000000000000000000000000000000811680910361021357602092507f80ac58cd000000000000000000000000000000000000000000000000000000008114908115611c3c575b8115611c12575b5015158152f35b7f01ffc9a70000000000000000000000000000000000000000000000000000000091501438611c0b565b7f5b5e139f0000000000000000000000000000000000000000000000000000000081149150611c04565b919082519283825260005b848110611cb05750507fffffffffffffffffffffffffffffffffffffffffffffffffffffffffffffffe0601f8460006020809697860101520116010190565b602081830181015184830182015201611c71565b6004359073ffffffffffffffffffffffffffffffffffffffff82168203611ce757565b600080fd5b6024359073ffffffffffffffffffffffffffffffffffffffff82168203611ce757565b6003196060910112611ce75773ffffffffffffffffffffffffffffffffffffffff906004358281168103611ce757916024359081168103611ce7579060443590565b6003196040910112611ce7576004359060243590565b6020810190811067ffffffffffffffff821117611d8357604052565b7f4e487b7100000000000000000000000000000000000000000000000000000000600052604160045260246000fd5b90601f7fffffffffffffffffffffffffffffffffffffffffffffffffffffffffffffffe0910116810190811067ffffffffffffffff821117611d8357604052565b67ffffffffffffffff8111611d8357601f017fffffffffffffffffffffffffffffffffffffffffffffffffffffffffffffffe01660200190565b15611e3457565b60646040517f08c379a000000000000000000000000000000000000000000000000000000000815260206004820152601160248201527f496e73756666696369656e74204d4e544d0000000000000000000000000000006044820152fd5b90816020910312611ce757518015158103611ce75790565b15611eb157565b60646040517f08c379a000000000000000000000000000000000000000000000000000000000815260206004820152601460248201527f4d4e544d207472616e73666572206661696c65640000000000000000000000006044820152fd5b7fffffffffffffffffffffffffffffffffffffffffffffffffffffffffffffffff8114611f3c5760010190565b7f4e487b7100000000000000000000000000000000000000000000000000000000600052601160045260246000fd5b9073ffffffffffffffffffffffffffffffffffffffff80911680156121b6576000918483528460209260028452604093838587205416958691331515806120eb575b509060027fddf252ad1be2c89b69c2b068fc378daa952ba7f163c4a11628f55a4df523b3ef928461207d575b858352600381528883206001815401905586835252868120847fffffffffffffffffffffffff000000000000000000000000000000000000000082541617905580a4831682036120295750505050565b517f64283d7b00000000000000000000000000000000000000000000000000000000815273ffffffffffffffffffffffffffffffffffffffff92831660048201526024810193909352166044820152606490fd5b6120b687600052600460205260406000207fffffffffffffffffffffffff00000000000000000000000000000000000000008154169055565b848352600381528883207fffffffffffffffffffffffffffffffffffffffffffffffffffffffffffffffff8154019055611fd9565b91939450915080612175575b1561210757879291869138611fad565b84888761213d5760249151907f7e2732890000000000000000000000000000000000000000000000000000000082526004820152fd5b90517f177e802f0000000000000000000000000000000000000000000000000000000081523360048201526024810191909152604490fd5b50338614801561219a575b806120f757508782526004815233848684205416146120f7565b5085825260058152848220338352815260ff8583205416612180565b60246040517f64a0ae9200000000000000000000000000000000000000000000000000000000815260006004820152fd5b81810292918115918404141715611f3c57565b1561220157565b60646040517f08c379a000000000000000000000000000000000000000000000000000000000815260206004820152600d60248201527f4e6f74204e4654206f776e6572000000000000000000000000000000000000006044820152fd5b1561226657565b60646040517f08c379a000000000000000000000000000000000000000000000000000000000815260206004820152600e60248201527f4e4654206e6f74206c69737465640000000000000000000000000000000000006044820152fd5b91908203918211611f3c57565b6122dc838383611f6b565b813b6122e9575b50505050565b73ffffffffffffffffffffffffffffffffffffffff949192939480931693604051937f150b7a020000000000000000000000000000000000000000000000000000000092838652336004870152166024850152604484015260806064840152826123596020966084830190611c66565b039285816000958187895af184918161244d575b506123e5575050503d6000146123dd573d61238781611df3565b906123956040519283611db2565b81528091843d92013e5b805192836123d857602483604051907f64a0ae920000000000000000000000000000000000000000000000000000000082526004820152fd5b019050fd5b50606061239f565b9092507fffffffff00000000000000000000000000000000000000000000000000000000919450160361241c5750388080806122e3565b602490604051907f64a0ae920000000000000000000000000000000000000000000000000000000082526004820152fd5b9091508681813d83116124a2575b6124658183611db2565b8101031261249e57517fffffffff000000000000000000000000000000000000000000000000000000008116810361249e57903861236d565b8480fd5b503d61245b565b80600052600260205273ffffffffffffffffffffffffffffffffffffffff604060002054169081156124d9575090565b602490604051907f7e2732890000000000000000000000000000000000000000000000000000000082526004820152fd5b60ff60065460a01c1661251957565b60046040517fd93c0665000000000000000000000000000000000000000000000000000000008152fd5b73ffffffffffffffffffffffffffffffffffffffff91828216156121b65761256a916125f3565b1661257157565b60246040517f73c6ac6e00000000000000000000000000000000000000000000000000000000815260006004820152fd5b73ffffffffffffffffffffffffffffffffffffffff6006541633036125c357565b60246040517f118cdaa7000000000000000000000000000000000000000000000000000000008152336004820152fd5b906000818152600260205273ffffffffffffffffffffffffffffffffffffffff927fddf252ad1be2c89b69c2b068fc378daa952ba7f163c4a11628f55a4df523b3ef846040842054169485928361269e575b169283612686575b848152600260205260408120847fffffffffffffffffffffffff000000000000000000000000000000000000000082541617905580a490565b8381526003602052604081206001815401905561264d565b6126d786600052600460205260406000207fffffffffffffffffffffffff00000000000000000000000000000000000000008154169055565b8385526003602052604085207fffffffffffffffffffffffffffffffffffffffffffffffffffffffffffffffff815401905561264556fea2646970667358221220b2b866415aeef79fde02bfa92ebc9c16d26b3ebacb1a0629961db68ce5696b0064736f6c63430008160033",
  "linkReferences": {},
  "deployedLinkReferences": {}
}